{
	"contracts/BeeWharf.sol": {
		"BeeWharf": {
			"abi": [
				{
					"inputs": [],
					"stateMutability": "nonpayable",
					"type": "constructor"
				},
				{
					"anonymous": false,
					"inputs": [
						{
							"indexed": true,
							"internalType": "address",
							"name": "previousOwner",
							"type": "address"
						},
						{
							"indexed": true,
							"internalType": "address",
							"name": "newOwner",
							"type": "address"
						}
					],
					"name": "OwnershipTransferred",
					"type": "event"
				},
				{
					"anonymous": false,
					"inputs": [
						{
							"indexed": true,
							"internalType": "address",
							"name": "from",
							"type": "address"
						},
						{
							"indexed": false,
							"internalType": "uint256",
							"name": "amount",
							"type": "uint256"
						},
						{
							"indexed": false,
							"internalType": "string",
							"name": "orderId",
							"type": "string"
						},
						{
							"indexed": true,
							"internalType": "address",
							"name": "tokenAddress",
							"type": "address"
						}
					],
					"name": "PayERC20",
					"type": "event"
				},
				{
					"anonymous": false,
					"inputs": [
						{
							"indexed": true,
							"internalType": "address",
							"name": "from",
							"type": "address"
						},
						{
							"indexed": false,
							"internalType": "uint256",
							"name": "amount",
							"type": "uint256"
						},
						{
							"indexed": false,
							"internalType": "string",
							"name": "orderId",
							"type": "string"
						}
					],
					"name": "PayEth",
					"type": "event"
				},
				{
					"anonymous": false,
					"inputs": [
						{
							"indexed": true,
							"internalType": "address",
							"name": "to",
							"type": "address"
						},
						{
							"indexed": false,
							"internalType": "uint256",
							"name": "amount",
							"type": "uint256"
						},
						{
							"indexed": false,
							"internalType": "string",
							"name": "billId",
							"type": "string"
						},
						{
							"indexed": true,
							"internalType": "address",
							"name": "tokenAddress",
							"type": "address"
						}
					],
					"name": "RefundERC20",
					"type": "event"
				},
				{
					"anonymous": false,
					"inputs": [
						{
							"indexed": true,
							"internalType": "address",
							"name": "to",
							"type": "address"
						},
						{
							"indexed": false,
							"internalType": "uint256",
							"name": "amount",
							"type": "uint256"
						},
						{
							"indexed": false,
							"internalType": "string",
							"name": "billId",
							"type": "string"
						}
					],
					"name": "RefundEth",
					"type": "event"
				},
				{
					"anonymous": false,
					"inputs": [
						{
							"indexed": true,
							"internalType": "address",
							"name": "to",
							"type": "address"
						},
						{
							"indexed": false,
							"internalType": "uint256",
							"name": "amount",
							"type": "uint256"
						},
						{
							"indexed": false,
							"internalType": "string",
							"name": "billId",
							"type": "string"
						},
						{
							"indexed": true,
							"internalType": "address",
							"name": "tokenAddress",
							"type": "address"
						}
					],
					"name": "WithdrawERC20",
					"type": "event"
				},
				{
					"anonymous": false,
					"inputs": [
						{
							"indexed": true,
							"internalType": "address",
							"name": "to",
							"type": "address"
						},
						{
							"indexed": false,
							"internalType": "uint256",
							"name": "amount",
							"type": "uint256"
						},
						{
							"indexed": false,
							"internalType": "string",
							"name": "billId",
							"type": "string"
						}
					],
					"name": "WithdrawEth",
					"type": "event"
				},
				{
					"inputs": [
						{
							"internalType": "address",
							"name": "tokenAddress",
							"type": "address"
						}
					],
					"name": "addNewSupportToken",
					"outputs": [],
					"stateMutability": "nonpayable",
					"type": "function"
				},
				{
					"inputs": [
						{
							"internalType": "address",
							"name": "tokenAddress",
							"type": "address"
						}
					],
					"name": "balanceOfERC20",
					"outputs": [
						{
							"internalType": "uint256",
							"name": "",
							"type": "uint256"
						}
					],
					"stateMutability": "view",
					"type": "function"
				},
				{
					"inputs": [],
					"name": "balanceOfETH",
					"outputs": [
						{
							"internalType": "uint256",
							"name": "",
							"type": "uint256"
						}
					],
					"stateMutability": "view",
					"type": "function"
				},
				{
					"inputs": [],
					"name": "owner",
					"outputs": [
						{
							"internalType": "address",
							"name": "",
							"type": "address"
						}
					],
					"stateMutability": "view",
					"type": "function"
				},
				{
					"inputs": [
						{
							"internalType": "uint256",
							"name": "amount",
							"type": "uint256"
						},
						{
							"internalType": "string",
							"name": "orderId",
							"type": "string"
						},
						{
							"internalType": "address",
							"name": "tokenAddress",
							"type": "address"
						}
					],
					"name": "payERC20",
					"outputs": [],
					"stateMutability": "nonpayable",
					"type": "function"
				},
				{
					"inputs": [
						{
							"internalType": "address",
							"name": "from",
							"type": "address"
						},
						{
							"internalType": "uint256",
							"name": "amount",
							"type": "uint256"
						},
						{
							"internalType": "string",
							"name": "orderId",
							"type": "string"
						},
						{
							"internalType": "address",
							"name": "tokenAddress",
							"type": "address"
						}
					],
					"name": "payERC20From",
					"outputs": [],
					"stateMutability": "nonpayable",
					"type": "function"
				},
				{
					"inputs": [
						{
							"internalType": "string",
							"name": "orderId",
							"type": "string"
						}
					],
					"name": "payEth",
					"outputs": [],
					"stateMutability": "payable",
					"type": "function"
				},
				{
					"inputs": [
						{
							"internalType": "address",
							"name": "to",
							"type": "address"
						},
						{
							"internalType": "uint256",
							"name": "amount",
							"type": "uint256"
						},
						{
							"internalType": "string",
							"name": "billId",
							"type": "string"
						},
						{
							"internalType": "address",
							"name": "tokenAddress",
							"type": "address"
						}
					],
					"name": "refundERC20",
					"outputs": [],
					"stateMutability": "nonpayable",
					"type": "function"
				},
				{
					"inputs": [
						{
							"internalType": "address",
							"name": "from",
							"type": "address"
						},
						{
							"internalType": "address",
							"name": "to",
							"type": "address"
						},
						{
							"internalType": "uint256",
							"name": "amount",
							"type": "uint256"
						},
						{
							"internalType": "string",
							"name": "billId",
							"type": "string"
						},
						{
							"internalType": "address",
							"name": "tokenAddress",
							"type": "address"
						}
					],
					"name": "refundERC20From",
					"outputs": [],
					"stateMutability": "nonpayable",
					"type": "function"
				},
				{
					"inputs": [
						{
							"internalType": "address",
							"name": "to",
							"type": "address"
						},
						{
							"internalType": "uint256",
							"name": "amount",
							"type": "uint256"
						},
						{
							"internalType": "string",
							"name": "billId",
							"type": "string"
						}
					],
					"name": "refundETH",
					"outputs": [],
					"stateMutability": "nonpayable",
					"type": "function"
				},
				{
					"inputs": [],
					"name": "renounceOwnership",
					"outputs": [],
					"stateMutability": "nonpayable",
					"type": "function"
				},
				{
					"inputs": [
						{
							"internalType": "address",
							"name": "newOwner",
							"type": "address"
						}
					],
					"name": "transferOwnership",
					"outputs": [],
					"stateMutability": "nonpayable",
					"type": "function"
				},
				{
					"inputs": [
						{
							"internalType": "uint256",
							"name": "amount",
							"type": "uint256"
						},
						{
							"internalType": "string",
							"name": "billId",
							"type": "string"
						},
						{
							"internalType": "address",
							"name": "tokenAddress",
							"type": "address"
						}
					],
					"name": "withdrawERC20",
					"outputs": [],
					"stateMutability": "nonpayable",
					"type": "function"
				},
				{
					"inputs": [
						{
							"internalType": "uint256",
							"name": "amount",
							"type": "uint256"
						},
						{
							"internalType": "string",
							"name": "billId",
							"type": "string"
						}
					],
					"name": "withdrawEth",
					"outputs": [],
					"stateMutability": "nonpayable",
					"type": "function"
				}
			],
			"devdoc": {
				"kind": "dev",
				"methods": {
					"owner()": {
						"details": "Returns the address of the current owner."
					},
					"renounceOwnership()": {
						"details": "Leaves the contract without owner. It will not be possible to call `onlyOwner` functions anymore. Can only be called by the current owner. NOTE: Renouncing ownership will leave the contract without an owner, thereby removing any functionality that is only available to the owner."
					},
					"transferOwnership(address)": {
						"details": "Transfers ownership of the contract to a new account (`newOwner`). Can only be called by the current owner."
					}
				},
				"version": 1
			},
			"evm": {
				"assembly": "    /* \"contracts/BeeWharf.sol\":301:3899  contract BeeWharf is ICurrency, Ownable {... */\n  mstore(0x40, 0x80)\n    /* \"contracts/BeeWharf.sol\":623:845  constructor () {... */\n  callvalue\n  dup1\n  iszero\n  tag_1\n  jumpi\n  0x00\n  dup1\n  revert\ntag_1:\n  pop\n    /* \"@openzeppelin/contracts/access/Ownable.sol\":936:968  _transferOwnership(_msgSender()) */\n  tag_5\n    /* \"@openzeppelin/contracts/access/Ownable.sol\":955:967  _msgSender() */\n  tag_6\n    /* \"@openzeppelin/contracts/access/Ownable.sol\":955:965  _msgSender */\n  shl(0x20, tag_7)\n    /* \"@openzeppelin/contracts/access/Ownable.sol\":955:967  _msgSender() */\n  0x20\n  shr\n  jump\t// in\ntag_6:\n    /* \"@openzeppelin/contracts/access/Ownable.sol\":936:954  _transferOwnership */\n  shl(0x20, tag_8)\n    /* \"@openzeppelin/contracts/access/Ownable.sol\":936:968  _transferOwnership(_msgSender()) */\n  0x20\n  shr\n  jump\t// in\ntag_5:\n    /* \"contracts/BeeWharf.sol\":734:738  true */\n  0x01\n    /* \"contracts/BeeWharf.sol\":673:687  tokenSupported */\n  dup1\n    /* \"contracts/BeeWharf.sol\":673:731  tokenSupported[0xdAC17F958D2ee523a2206206994597C13D831ec7] */\n  0x00\n    /* \"contracts/BeeWharf.sol\":688:730  0xdAC17F958D2ee523a2206206994597C13D831ec7 */\n  0xdac17f958d2ee523a2206206994597c13d831ec7\n    /* \"contracts/BeeWharf.sol\":673:731  tokenSupported[0xdAC17F958D2ee523a2206206994597C13D831ec7] */\n  0xffffffffffffffffffffffffffffffffffffffff\n  and\n  0xffffffffffffffffffffffffffffffffffffffff\n  and\n  dup2\n  mstore\n  0x20\n  add\n  swap1\n  dup2\n  mstore\n  0x20\n  add\n  0x00\n  keccak256\n  0x00\n    /* \"contracts/BeeWharf.sol\":673:738  tokenSupported[0xdAC17F958D2ee523a2206206994597C13D831ec7] = true */\n  0x0100\n  exp\n  dup2\n  sload\n  dup2\n  0xff\n  mul\n  not\n  and\n  swap1\n  dup4\n  iszero\n  iszero\n  mul\n  or\n  swap1\n  sstore\n  pop\n    /* \"contracts/BeeWharf.sol\":834:838  true */\n  0x01\n    /* \"contracts/BeeWharf.sol\":773:787  tokenSupported */\n  dup1\n    /* \"contracts/BeeWharf.sol\":773:831  tokenSupported[0xA0b86991c6218b36c1d19D4a2e9Eb0cE3606eB48] */\n  0x00\n    /* \"contracts/BeeWharf.sol\":788:830  0xA0b86991c6218b36c1d19D4a2e9Eb0cE3606eB48 */\n  0xa0b86991c6218b36c1d19d4a2e9eb0ce3606eb48\n    /* \"contracts/BeeWharf.sol\":773:831  tokenSupported[0xA0b86991c6218b36c1d19D4a2e9Eb0cE3606eB48] */\n  0xffffffffffffffffffffffffffffffffffffffff\n  and\n  0xffffffffffffffffffffffffffffffffffffffff\n  and\n  dup2\n  mstore\n  0x20\n  add\n  swap1\n  dup2\n  mstore\n  0x20\n  add\n  0x00\n  keccak256\n  0x00\n    /* \"contracts/BeeWharf.sol\":773:838  tokenSupported[0xA0b86991c6218b36c1d19D4a2e9Eb0cE3606eB48] = true */\n  0x0100\n  exp\n  dup2\n  sload\n  dup2\n  0xff\n  mul\n  not\n  and\n  swap1\n  dup4\n  iszero\n  iszero\n  mul\n  or\n  swap1\n  sstore\n  pop\n    /* \"contracts/BeeWharf.sol\":301:3899  contract BeeWharf is ICurrency, Ownable {... */\n  jump(tag_10)\n    /* \"@openzeppelin/contracts/utils/Context.sol\":640:736  function _msgSender() internal view virtual returns (address) {... */\ntag_7:\n    /* \"@openzeppelin/contracts/utils/Context.sol\":693:700  address */\n  0x00\n    /* \"@openzeppelin/contracts/utils/Context.sol\":719:729  msg.sender */\n  caller\n    /* \"@openzeppelin/contracts/utils/Context.sol\":712:729  return msg.sender */\n  swap1\n  pop\n    /* \"@openzeppelin/contracts/utils/Context.sol\":640:736  function _msgSender() internal view virtual returns (address) {... */\n  swap1\n  jump\t// out\n    /* \"@openzeppelin/contracts/access/Ownable.sol\":2433:2620  function _transferOwnership(address newOwner) internal virtual {... */\ntag_8:\n    /* \"@openzeppelin/contracts/access/Ownable.sol\":2506:2522  address oldOwner */\n  0x00\n    /* \"@openzeppelin/contracts/access/Ownable.sol\":2525:2531  _owner */\n  dup1\n  0x00\n  swap1\n  sload\n  swap1\n  0x0100\n  exp\n  swap1\n  div\n  0xffffffffffffffffffffffffffffffffffffffff\n  and\n    /* \"@openzeppelin/contracts/access/Ownable.sol\":2506:2531  address oldOwner = _owner */\n  swap1\n  pop\n    /* \"@openzeppelin/contracts/access/Ownable.sol\":2550:2558  newOwner */\n  dup2\n    /* \"@openzeppelin/contracts/access/Ownable.sol\":2541:2547  _owner */\n  0x00\n  dup1\n    /* \"@openzeppelin/contracts/access/Ownable.sol\":2541:2558  _owner = newOwner */\n  0x0100\n  exp\n  dup2\n  sload\n  dup2\n  0xffffffffffffffffffffffffffffffffffffffff\n  mul\n  not\n  and\n  swap1\n  dup4\n  0xffffffffffffffffffffffffffffffffffffffff\n  and\n  mul\n  or\n  swap1\n  sstore\n  pop\n    /* \"@openzeppelin/contracts/access/Ownable.sol\":2604:2612  newOwner */\n  dup2\n    /* \"@openzeppelin/contracts/access/Ownable.sol\":2573:2613  OwnershipTransferred(oldOwner, newOwner) */\n  0xffffffffffffffffffffffffffffffffffffffff\n  and\n    /* \"@openzeppelin/contracts/access/Ownable.sol\":2594:2602  oldOwner */\n  dup2\n    /* \"@openzeppelin/contracts/access/Ownable.sol\":2573:2613  OwnershipTransferred(oldOwner, newOwner) */\n  0xffffffffffffffffffffffffffffffffffffffff\n  and\n  0x8be0079c531659141344cd1fd0a4f28419497f9722a3daafe3b4186f6b6457e0\n  mload(0x40)\n  mload(0x40)\n  dup1\n  swap2\n  sub\n  swap1\n  log3\n    /* \"@openzeppelin/contracts/access/Ownable.sol\":2496:2620  {... */\n  pop\n    /* \"@openzeppelin/contracts/access/Ownable.sol\":2433:2620  function _transferOwnership(address newOwner) internal virtual {... */\n  pop\n  jump\t// out\n    /* \"contracts/BeeWharf.sol\":301:3899  contract BeeWharf is ICurrency, Ownable {... */\ntag_10:\n  dataSize(sub_0)\n  dup1\n  dataOffset(sub_0)\n  0x00\n  codecopy\n  0x00\n  return\nstop\n\nsub_0: assembly {\n        /* \"contracts/BeeWharf.sol\":301:3899  contract BeeWharf is ICurrency, Ownable {... */\n      mstore(0x40, 0x80)\n      jumpi(tag_1, lt(calldatasize, 0x04))\n      shr(0xe0, calldataload(0x00))\n      dup1\n      0x8ea5b802\n      gt\n      tag_16\n      jumpi\n      dup1\n      0xcc86a503\n      gt\n      tag_17\n      jumpi\n      dup1\n      0xcc86a503\n      eq\n      tag_12\n      jumpi\n      dup1\n      0xd93db24f\n      eq\n      tag_13\n      jumpi\n      dup1\n      0xe6cd186f\n      eq\n      tag_14\n      jumpi\n      dup1\n      0xf2fde38b\n      eq\n      tag_15\n      jumpi\n      jump(tag_1)\n    tag_17:\n      dup1\n      0x8ea5b802\n      eq\n      tag_9\n      jumpi\n      dup1\n      0xaf7d51f5\n      eq\n      tag_10\n      jumpi\n      dup1\n      0xb30917ad\n      eq\n      tag_11\n      jumpi\n      jump(tag_1)\n    tag_16:\n      dup1\n      0x711e0ee7\n      gt\n      tag_18\n      jumpi\n      dup1\n      0x711e0ee7\n      eq\n      tag_5\n      jumpi\n      dup1\n      0x715018a6\n      eq\n      tag_6\n      jumpi\n      dup1\n      0x793191f1\n      eq\n      tag_7\n      jumpi\n      dup1\n      0x8da5cb5b\n      eq\n      tag_8\n      jumpi\n      jump(tag_1)\n    tag_18:\n      dup1\n      0x0290579b\n      eq\n      tag_2\n      jumpi\n      dup1\n      0x58598dad\n      eq\n      tag_3\n      jumpi\n      dup1\n      0x70d47134\n      eq\n      tag_4\n      jumpi\n    tag_1:\n      0x00\n      dup1\n      revert\n        /* \"contracts/BeeWharf.sol\":1284:1385  function refundETH(address to, uint256 amount, string calldata billId) external override onlyOwner {} */\n    tag_2:\n      callvalue\n      dup1\n      iszero\n      tag_19\n      jumpi\n      0x00\n      dup1\n      revert\n    tag_19:\n      pop\n      tag_20\n      0x04\n      dup1\n      calldatasize\n      sub\n      dup2\n      add\n      swap1\n      tag_21\n      swap2\n      swap1\n      tag_22\n      jump\t// in\n    tag_21:\n      tag_23\n      jump\t// in\n    tag_20:\n      stop\n        /* \"contracts/BeeWharf.sol\":2485:3012  function withdrawERC20(... */\n    tag_3:\n      callvalue\n      dup1\n      iszero\n      tag_24\n      jumpi\n      0x00\n      dup1\n      revert\n    tag_24:\n      pop\n      tag_25\n      0x04\n      dup1\n      calldatasize\n      sub\n      dup2\n      add\n      swap1\n      tag_26\n      swap2\n      swap1\n      tag_27\n      jump\t// in\n    tag_26:\n      tag_28\n      jump\t// in\n    tag_25:\n      stop\n        /* \"contracts/BeeWharf.sol\":3018:3272  function refundERC20(... */\n    tag_4:\n      callvalue\n      dup1\n      iszero\n      tag_29\n      jumpi\n      0x00\n      dup1\n      revert\n    tag_29:\n      pop\n      tag_30\n      0x04\n      dup1\n      calldatasize\n      sub\n      dup2\n      add\n      swap1\n      tag_31\n      swap2\n      swap1\n      tag_32\n      jump\t// in\n    tag_31:\n      tag_33\n      jump\t// in\n    tag_30:\n      stop\n        /* \"contracts/BeeWharf.sol\":1715:1927  function payERC20(... */\n    tag_5:\n      callvalue\n      dup1\n      iszero\n      tag_34\n      jumpi\n      0x00\n      dup1\n      revert\n    tag_34:\n      pop\n      tag_35\n      0x04\n      dup1\n      calldatasize\n      sub\n      dup2\n      add\n      swap1\n      tag_36\n      swap2\n      swap1\n      tag_27\n      jump\t// in\n    tag_36:\n      tag_37\n      jump\t// in\n    tag_35:\n      stop\n        /* \"@openzeppelin/contracts/access/Ownable.sol\":1831:1932  function renounceOwnership() public virtual onlyOwner {... */\n    tag_6:\n      callvalue\n      dup1\n      iszero\n      tag_38\n      jumpi\n      0x00\n      dup1\n      revert\n    tag_38:\n      pop\n      tag_39\n      tag_40\n      jump\t// in\n    tag_39:\n      stop\n        /* \"contracts/BeeWharf.sol\":1933:2479  function payERC20From(... */\n    tag_7:\n      callvalue\n      dup1\n      iszero\n      tag_41\n      jumpi\n      0x00\n      dup1\n      revert\n    tag_41:\n      pop\n      tag_42\n      0x04\n      dup1\n      calldatasize\n      sub\n      dup2\n      add\n      swap1\n      tag_43\n      swap2\n      swap1\n      tag_32\n      jump\t// in\n    tag_43:\n      tag_44\n      jump\t// in\n    tag_42:\n      stop\n        /* \"@openzeppelin/contracts/access/Ownable.sol\":1201:1286  function owner() public view virtual returns (address) {... */\n    tag_8:\n      callvalue\n      dup1\n      iszero\n      tag_45\n      jumpi\n      0x00\n      dup1\n      revert\n    tag_45:\n      pop\n      tag_46\n      tag_47\n      jump\t// in\n    tag_46:\n      mload(0x40)\n      tag_48\n      swap2\n      swap1\n      tag_49\n      jump\t// in\n    tag_48:\n      mload(0x40)\n      dup1\n      swap2\n      sub\n      swap1\n      return\n        /* \"contracts/BeeWharf.sol\":1390:1457  function balanceOfETH() external view override returns (uint256) {} */\n    tag_9:\n      callvalue\n      dup1\n      iszero\n      tag_50\n      jumpi\n      0x00\n      dup1\n      revert\n    tag_50:\n      pop\n      tag_51\n      tag_52\n      jump\t// in\n    tag_51:\n      mload(0x40)\n      tag_53\n      swap2\n      swap1\n      tag_54\n      jump\t// in\n    tag_53:\n      mload(0x40)\n      dup1\n      swap2\n      sub\n      swap1\n      return\n        /* \"contracts/BeeWharf.sol\":1114:1183  function payEth(string calldata orderId) payable external override {} */\n    tag_10:\n      tag_55\n      0x04\n      dup1\n      calldatasize\n      sub\n      dup2\n      add\n      swap1\n      tag_56\n      swap2\n      swap1\n      tag_57\n      jump\t// in\n    tag_56:\n      tag_58\n      jump\t// in\n    tag_55:\n      stop\n        /* \"contracts/BeeWharf.sol\":884:1084  function addNewSupportToken(address tokenAddress) external onlyOwner {... */\n    tag_11:\n      callvalue\n      dup1\n      iszero\n      tag_59\n      jumpi\n      0x00\n      dup1\n      revert\n    tag_59:\n      pop\n      tag_60\n      0x04\n      dup1\n      calldatasize\n      sub\n      dup2\n      add\n      swap1\n      tag_61\n      swap2\n      swap1\n      tag_62\n      jump\t// in\n    tag_61:\n      tag_63\n      jump\t// in\n    tag_60:\n      stop\n        /* \"contracts/BeeWharf.sol\":3278:3896  function refundERC20From(... */\n    tag_12:\n      callvalue\n      dup1\n      iszero\n      tag_64\n      jumpi\n      0x00\n      dup1\n      revert\n    tag_64:\n      pop\n      tag_65\n      0x04\n      dup1\n      calldatasize\n      sub\n      dup2\n      add\n      swap1\n      tag_66\n      swap2\n      swap1\n      tag_67\n      jump\t// in\n    tag_66:\n      tag_68\n      jump\t// in\n    tag_65:\n      stop\n        /* \"contracts/BeeWharf.sol\":1489:1709  function balanceOfERC20(address tokenAddress) external view override returns (uint256) {... */\n    tag_13:\n      callvalue\n      dup1\n      iszero\n      tag_69\n      jumpi\n      0x00\n      dup1\n      revert\n    tag_69:\n      pop\n      tag_70\n      0x04\n      dup1\n      calldatasize\n      sub\n      dup2\n      add\n      swap1\n      tag_71\n      swap2\n      swap1\n      tag_62\n      jump\t// in\n    tag_71:\n      tag_72\n      jump\t// in\n    tag_70:\n      mload(0x40)\n      tag_73\n      swap2\n      swap1\n      tag_54\n      jump\t// in\n    tag_73:\n      mload(0x40)\n      dup1\n      swap2\n      sub\n      swap1\n      return\n        /* \"contracts/BeeWharf.sol\":1188:1279  function withdrawEth(uint256 amount, string calldata billId) external override onlyOwner {} */\n    tag_14:\n      callvalue\n      dup1\n      iszero\n      tag_74\n      jumpi\n      0x00\n      dup1\n      revert\n    tag_74:\n      pop\n      tag_75\n      0x04\n      dup1\n      calldatasize\n      sub\n      dup2\n      add\n      swap1\n      tag_76\n      swap2\n      swap1\n      tag_77\n      jump\t// in\n    tag_76:\n      tag_78\n      jump\t// in\n    tag_75:\n      stop\n        /* \"@openzeppelin/contracts/access/Ownable.sol\":2081:2279  function transferOwnership(address newOwner) public virtual onlyOwner {... */\n    tag_15:\n      callvalue\n      dup1\n      iszero\n      tag_79\n      jumpi\n      0x00\n      dup1\n      revert\n    tag_79:\n      pop\n      tag_80\n      0x04\n      dup1\n      calldatasize\n      sub\n      dup2\n      add\n      swap1\n      tag_81\n      swap2\n      swap1\n      tag_62\n      jump\t// in\n    tag_81:\n      tag_82\n      jump\t// in\n    tag_80:\n      stop\n        /* \"contracts/BeeWharf.sol\":1284:1385  function refundETH(address to, uint256 amount, string calldata billId) external override onlyOwner {} */\n    tag_23:\n        /* \"@openzeppelin/contracts/access/Ownable.sol\":1094:1107  _checkOwner() */\n      tag_84\n        /* \"@openzeppelin/contracts/access/Ownable.sol\":1094:1105  _checkOwner */\n      tag_85\n        /* \"@openzeppelin/contracts/access/Ownable.sol\":1094:1107  _checkOwner() */\n      jump\t// in\n    tag_84:\n        /* \"contracts/BeeWharf.sol\":1284:1385  function refundETH(address to, uint256 amount, string calldata billId) external override onlyOwner {} */\n      pop\n      pop\n      pop\n      pop\n      jump\t// out\n        /* \"contracts/BeeWharf.sol\":2485:3012  function withdrawERC20(... */\n    tag_28:\n        /* \"@openzeppelin/contracts/access/Ownable.sol\":1094:1107  _checkOwner() */\n      tag_88\n        /* \"@openzeppelin/contracts/access/Ownable.sol\":1094:1105  _checkOwner */\n      tag_85\n        /* \"@openzeppelin/contracts/access/Ownable.sol\":1094:1107  _checkOwner() */\n      jump\t// in\n    tag_88:\n        /* \"contracts/BeeWharf.sol\":2652:2692  tokenSupported.containsKey(tokenAddress) */\n      tag_90\n        /* \"contracts/BeeWharf.sol\":2679:2691  tokenAddress */\n      dup2\n        /* \"contracts/BeeWharf.sol\":2652:2666  tokenSupported */\n      0x01\n        /* \"contracts/BeeWharf.sol\":2652:2678  tokenSupported.containsKey */\n      tag_91\n      swap1\n        /* \"contracts/BeeWharf.sol\":2652:2692  tokenSupported.containsKey(tokenAddress) */\n      swap2\n      swap1\n      0xffffffff\n      and\n      jump\t// in\n    tag_90:\n        /* \"contracts/BeeWharf.sol\":2644:2716  require(tokenSupported.containsKey(tokenAddress), \"Not supported token\") */\n      tag_92\n      jumpi\n      mload(0x40)\n      0x08c379a000000000000000000000000000000000000000000000000000000000\n      dup2\n      mstore\n      0x04\n      add\n      tag_93\n      swap1\n      tag_94\n      jump\t// in\n    tag_93:\n      mload(0x40)\n      dup1\n      swap2\n      sub\n      swap1\n      revert\n    tag_92:\n        /* \"contracts/BeeWharf.sol\":2765:2771  amount */\n      dup4\n        /* \"contracts/BeeWharf.sol\":2734:2747  totalBalances */\n      0x02\n        /* \"contracts/BeeWharf.sol\":2734:2761  totalBalances[tokenAddress] */\n      0x00\n        /* \"contracts/BeeWharf.sol\":2748:2760  tokenAddress */\n      dup4\n        /* \"contracts/BeeWharf.sol\":2734:2761  totalBalances[tokenAddress] */\n      0xffffffffffffffffffffffffffffffffffffffff\n      and\n      0xffffffffffffffffffffffffffffffffffffffff\n      and\n      dup2\n      mstore\n      0x20\n      add\n      swap1\n      dup2\n      mstore\n      0x20\n      add\n      0x00\n      keccak256\n      sload\n        /* \"contracts/BeeWharf.sol\":2734:2771  totalBalances[tokenAddress] >= amount */\n      lt\n      iszero\n        /* \"contracts/BeeWharf.sol\":2726:2794  require(totalBalances[tokenAddress] >= amount, 'Insufficient funds') */\n      tag_95\n      jumpi\n      mload(0x40)\n      0x08c379a000000000000000000000000000000000000000000000000000000000\n      dup2\n      mstore\n      0x04\n      add\n      tag_96\n      swap1\n      tag_97\n      jump\t// in\n    tag_96:\n      mload(0x40)\n      dup1\n      swap2\n      sub\n      swap1\n      revert\n    tag_95:\n        /* \"contracts/BeeWharf.sol\":2805:2817  IERC20 token */\n      0x00\n        /* \"contracts/BeeWharf.sol\":2827:2839  tokenAddress */\n      dup2\n        /* \"contracts/BeeWharf.sol\":2805:2840  IERC20 token = IERC20(tokenAddress) */\n      swap1\n      pop\n        /* \"contracts/BeeWharf.sol\":2850:2888  token.safeTransfer(msg.sender, amount) */\n      tag_98\n        /* \"contracts/BeeWharf.sol\":2869:2879  msg.sender */\n      caller\n        /* \"contracts/BeeWharf.sol\":2881:2887  amount */\n      dup7\n        /* \"contracts/BeeWharf.sol\":2850:2855  token */\n      dup4\n        /* \"contracts/BeeWharf.sol\":2850:2868  token.safeTransfer */\n      0xffffffffffffffffffffffffffffffffffffffff\n      and\n      tag_99\n      swap1\n        /* \"contracts/BeeWharf.sol\":2850:2888  token.safeTransfer(msg.sender, amount) */\n      swap3\n      swap2\n      swap1\n      0xffffffff\n      and\n      jump\t// in\n    tag_98:\n        /* \"contracts/BeeWharf.sol\":2929:2935  amount */\n      dup5\n        /* \"contracts/BeeWharf.sol\":2898:2911  totalBalances */\n      0x02\n        /* \"contracts/BeeWharf.sol\":2898:2925  totalBalances[tokenAddress] */\n      0x00\n        /* \"contracts/BeeWharf.sol\":2912:2924  tokenAddress */\n      dup5\n        /* \"contracts/BeeWharf.sol\":2898:2925  totalBalances[tokenAddress] */\n      0xffffffffffffffffffffffffffffffffffffffff\n      and\n      0xffffffffffffffffffffffffffffffffffffffff\n      and\n      dup2\n      mstore\n      0x20\n      add\n      swap1\n      dup2\n      mstore\n      0x20\n      add\n      0x00\n      keccak256\n      0x00\n        /* \"contracts/BeeWharf.sol\":2898:2935  totalBalances[tokenAddress] -= amount */\n      dup3\n      dup3\n      sload\n      tag_100\n      swap2\n      swap1\n      tag_101\n      jump\t// in\n    tag_100:\n      swap3\n      pop\n      pop\n      dup2\n      swap1\n      sstore\n      pop\n        /* \"contracts/BeeWharf.sol\":2992:3004  tokenAddress */\n      dup2\n        /* \"contracts/BeeWharf.sol\":2950:3005  WithdrawERC20(msg.sender, amount, billId, tokenAddress) */\n      0xffffffffffffffffffffffffffffffffffffffff\n      and\n        /* \"contracts/BeeWharf.sol\":2964:2974  msg.sender */\n      caller\n        /* \"contracts/BeeWharf.sol\":2950:3005  WithdrawERC20(msg.sender, amount, billId, tokenAddress) */\n      0xffffffffffffffffffffffffffffffffffffffff\n      and\n      0x3822da7c1846353da157717dd7e95db54b4ffe105a04f5042cdf2cb1adadb283\n        /* \"contracts/BeeWharf.sol\":2976:2982  amount */\n      dup8\n        /* \"contracts/BeeWharf.sol\":2984:2990  billId */\n      dup8\n      dup8\n        /* \"contracts/BeeWharf.sol\":2950:3005  WithdrawERC20(msg.sender, amount, billId, tokenAddress) */\n      mload(0x40)\n      tag_102\n      swap4\n      swap3\n      swap2\n      swap1\n      tag_103\n      jump\t// in\n    tag_102:\n      mload(0x40)\n      dup1\n      swap2\n      sub\n      swap1\n      log3\n        /* \"contracts/BeeWharf.sol\":2633:3012  {... */\n      pop\n        /* \"contracts/BeeWharf.sol\":2485:3012  function withdrawERC20(... */\n      pop\n      pop\n      pop\n      pop\n      jump\t// out\n        /* \"contracts/BeeWharf.sol\":3018:3272  function refundERC20(... */\n    tag_33:\n        /* \"@openzeppelin/contracts/access/Ownable.sol\":1094:1107  _checkOwner() */\n      tag_105\n        /* \"@openzeppelin/contracts/access/Ownable.sol\":1094:1105  _checkOwner */\n      tag_85\n        /* \"@openzeppelin/contracts/access/Ownable.sol\":1094:1107  _checkOwner() */\n      jump\t// in\n    tag_105:\n        /* \"contracts/BeeWharf.sol\":3196:3200  this */\n      address\n        /* \"contracts/BeeWharf.sol\":3196:3216  this.refundERC20From */\n      0xffffffffffffffffffffffffffffffffffffffff\n      and\n      0xcc86a503\n        /* \"contracts/BeeWharf.sol\":3225:3229  this */\n      address\n        /* \"contracts/BeeWharf.sol\":3232:3234  to */\n      dup8\n        /* \"contracts/BeeWharf.sol\":3236:3242  amount */\n      dup8\n        /* \"contracts/BeeWharf.sol\":3244:3250  billId */\n      dup8\n      dup8\n        /* \"contracts/BeeWharf.sol\":3252:3264  tokenAddress */\n      dup8\n        /* \"contracts/BeeWharf.sol\":3196:3265  this.refundERC20From(address(this), to, amount, billId, tokenAddress) */\n      mload(0x40)\n      dup8\n      0xffffffff\n      and\n      0xe0\n      shl\n      dup2\n      mstore\n      0x04\n      add\n      tag_107\n      swap7\n      swap6\n      swap5\n      swap4\n      swap3\n      swap2\n      swap1\n      tag_108\n      jump\t// in\n    tag_107:\n      0x00\n      mload(0x40)\n      dup1\n      dup4\n      sub\n      dup2\n      0x00\n      dup8\n      dup1\n      extcodesize\n      iszero\n      dup1\n      iszero\n      tag_109\n      jumpi\n      0x00\n      dup1\n      revert\n    tag_109:\n      pop\n      gas\n      call\n      iszero\n      dup1\n      iszero\n      tag_111\n      jumpi\n      returndatasize\n      0x00\n      dup1\n      returndatacopy\n      revert(0x00, returndatasize)\n    tag_111:\n      pop\n      pop\n      pop\n      pop\n        /* \"contracts/BeeWharf.sol\":3018:3272  function refundERC20(... */\n      pop\n      pop\n      pop\n      pop\n      pop\n      jump\t// out\n        /* \"contracts/BeeWharf.sol\":1715:1927  function payERC20(... */\n    tag_37:\n        /* \"contracts/BeeWharf.sol\":1860:1864  this */\n      address\n        /* \"contracts/BeeWharf.sol\":1860:1877  this.payERC20From */\n      0xffffffffffffffffffffffffffffffffffffffff\n      and\n      0x793191f1\n        /* \"contracts/BeeWharf.sol\":1878:1888  msg.sender */\n      caller\n        /* \"contracts/BeeWharf.sol\":1890:1896  amount */\n      dup7\n        /* \"contracts/BeeWharf.sol\":1898:1905  orderId */\n      dup7\n      dup7\n        /* \"contracts/BeeWharf.sol\":1907:1919  tokenAddress */\n      dup7\n        /* \"contracts/BeeWharf.sol\":1860:1920  this.payERC20From(msg.sender, amount, orderId, tokenAddress) */\n      mload(0x40)\n      dup7\n      0xffffffff\n      and\n      0xe0\n      shl\n      dup2\n      mstore\n      0x04\n      add\n      tag_113\n      swap6\n      swap5\n      swap4\n      swap3\n      swap2\n      swap1\n      tag_114\n      jump\t// in\n    tag_113:\n      0x00\n      mload(0x40)\n      dup1\n      dup4\n      sub\n      dup2\n      0x00\n      dup8\n      dup1\n      extcodesize\n      iszero\n      dup1\n      iszero\n      tag_115\n      jumpi\n      0x00\n      dup1\n      revert\n    tag_115:\n      pop\n      gas\n      call\n      iszero\n      dup1\n      iszero\n      tag_117\n      jumpi\n      returndatasize\n      0x00\n      dup1\n      returndatacopy\n      revert(0x00, returndatasize)\n    tag_117:\n      pop\n      pop\n      pop\n      pop\n        /* \"contracts/BeeWharf.sol\":1715:1927  function payERC20(... */\n      pop\n      pop\n      pop\n      pop\n      jump\t// out\n        /* \"@openzeppelin/contracts/access/Ownable.sol\":1831:1932  function renounceOwnership() public virtual onlyOwner {... */\n    tag_40:\n        /* \"@openzeppelin/contracts/access/Ownable.sol\":1094:1107  _checkOwner() */\n      tag_119\n        /* \"@openzeppelin/contracts/access/Ownable.sol\":1094:1105  _checkOwner */\n      tag_85\n        /* \"@openzeppelin/contracts/access/Ownable.sol\":1094:1107  _checkOwner() */\n      jump\t// in\n    tag_119:\n        /* \"@openzeppelin/contracts/access/Ownable.sol\":1895:1925  _transferOwnership(address(0)) */\n      tag_121\n        /* \"@openzeppelin/contracts/access/Ownable.sol\":1922:1923  0 */\n      0x00\n        /* \"@openzeppelin/contracts/access/Ownable.sol\":1895:1913  _transferOwnership */\n      tag_122\n        /* \"@openzeppelin/contracts/access/Ownable.sol\":1895:1925  _transferOwnership(address(0)) */\n      jump\t// in\n    tag_121:\n        /* \"@openzeppelin/contracts/access/Ownable.sol\":1831:1932  function renounceOwnership() public virtual onlyOwner {... */\n      jump\t// out\n        /* \"contracts/BeeWharf.sol\":1933:2479  function payERC20From(... */\n    tag_44:\n        /* \"contracts/BeeWharf.sol\":2113:2153  tokenSupported.containsKey(tokenAddress) */\n      tag_124\n        /* \"contracts/BeeWharf.sol\":2140:2152  tokenAddress */\n      dup2\n        /* \"contracts/BeeWharf.sol\":2113:2127  tokenSupported */\n      0x01\n        /* \"contracts/BeeWharf.sol\":2113:2139  tokenSupported.containsKey */\n      tag_91\n      swap1\n        /* \"contracts/BeeWharf.sol\":2113:2153  tokenSupported.containsKey(tokenAddress) */\n      swap2\n      swap1\n      0xffffffff\n      and\n      jump\t// in\n    tag_124:\n        /* \"contracts/BeeWharf.sol\":2105:2177  require(tokenSupported.containsKey(tokenAddress), \"Unsurpported token!\") */\n      tag_125\n      jumpi\n      mload(0x40)\n      0x08c379a000000000000000000000000000000000000000000000000000000000\n      dup2\n      mstore\n      0x04\n      add\n      tag_126\n      swap1\n      tag_127\n      jump\t// in\n    tag_126:\n      mload(0x40)\n      dup1\n      swap2\n      sub\n      swap1\n      revert\n    tag_125:\n        /* \"contracts/BeeWharf.sol\":2188:2200  IERC20 token */\n      0x00\n        /* \"contracts/BeeWharf.sol\":2210:2222  tokenAddress */\n      dup2\n        /* \"contracts/BeeWharf.sol\":2188:2223  IERC20 token = IERC20(tokenAddress) */\n      swap1\n      pop\n        /* \"contracts/BeeWharf.sol\":2266:2272  amount */\n      dup5\n        /* \"contracts/BeeWharf.sol\":2241:2246  token */\n      dup2\n        /* \"contracts/BeeWharf.sol\":2241:2256  token.balanceOf */\n      0xffffffffffffffffffffffffffffffffffffffff\n      and\n      0x70a08231\n        /* \"contracts/BeeWharf.sol\":2257:2261  from */\n      dup9\n        /* \"contracts/BeeWharf.sol\":2241:2262  token.balanceOf(from) */\n      mload(0x40)\n      dup3\n      0xffffffff\n      and\n      0xe0\n      shl\n      dup2\n      mstore\n      0x04\n      add\n      tag_128\n      swap2\n      swap1\n      tag_49\n      jump\t// in\n    tag_128:\n      0x20\n      mload(0x40)\n      dup1\n      dup4\n      sub\n      dup2\n      dup7\n      gas\n      staticcall\n      iszero\n      dup1\n      iszero\n      tag_130\n      jumpi\n      returndatasize\n      0x00\n      dup1\n      returndatacopy\n      revert(0x00, returndatasize)\n    tag_130:\n      pop\n      pop\n      pop\n      pop\n      mload(0x40)\n      returndatasize\n      not(0x1f)\n      0x1f\n      dup3\n      add\n      and\n      dup3\n      add\n      dup1\n      0x40\n      mstore\n      pop\n      dup2\n      add\n      swap1\n      tag_131\n      swap2\n      swap1\n      tag_132\n      jump\t// in\n    tag_131:\n        /* \"contracts/BeeWharf.sol\":2241:2272  token.balanceOf(from) >= amount */\n      lt\n      iszero\n        /* \"contracts/BeeWharf.sol\":2233:2303  require(token.balanceOf(from) >= amount, \"Insufficient balance funds\") */\n      tag_133\n      jumpi\n      mload(0x40)\n      0x08c379a000000000000000000000000000000000000000000000000000000000\n      dup2\n      mstore\n      0x04\n      add\n      tag_134\n      swap1\n      tag_135\n      jump\t// in\n    tag_134:\n      mload(0x40)\n      dup1\n      swap2\n      sub\n      swap1\n      revert\n    tag_133:\n        /* \"contracts/BeeWharf.sol\":2314:2365  token.safeTransferFrom(from, address(this), amount) */\n      tag_136\n        /* \"contracts/BeeWharf.sol\":2337:2341  from */\n      dup7\n        /* \"contracts/BeeWharf.sol\":2351:2355  this */\n      address\n        /* \"contracts/BeeWharf.sol\":2358:2364  amount */\n      dup8\n        /* \"contracts/BeeWharf.sol\":2314:2319  token */\n      dup5\n        /* \"contracts/BeeWharf.sol\":2314:2336  token.safeTransferFrom */\n      0xffffffffffffffffffffffffffffffffffffffff\n      and\n      tag_137\n      swap1\n        /* \"contracts/BeeWharf.sol\":2314:2365  token.safeTransferFrom(from, address(this), amount) */\n      swap4\n      swap3\n      swap2\n      swap1\n      0xffffffff\n      and\n      jump\t// in\n    tag_136:\n        /* \"contracts/BeeWharf.sol\":2406:2412  amount */\n      dup5\n        /* \"contracts/BeeWharf.sol\":2375:2388  totalBalances */\n      0x02\n        /* \"contracts/BeeWharf.sol\":2375:2402  totalBalances[tokenAddress] */\n      0x00\n        /* \"contracts/BeeWharf.sol\":2389:2401  tokenAddress */\n      dup5\n        /* \"contracts/BeeWharf.sol\":2375:2402  totalBalances[tokenAddress] */\n      0xffffffffffffffffffffffffffffffffffffffff\n      and\n      0xffffffffffffffffffffffffffffffffffffffff\n      and\n      dup2\n      mstore\n      0x20\n      add\n      swap1\n      dup2\n      mstore\n      0x20\n      add\n      0x00\n      keccak256\n      0x00\n        /* \"contracts/BeeWharf.sol\":2375:2412  totalBalances[tokenAddress] += amount */\n      dup3\n      dup3\n      sload\n      tag_138\n      swap2\n      swap1\n      tag_139\n      jump\t// in\n    tag_138:\n      swap3\n      pop\n      pop\n      dup2\n      swap1\n      sstore\n      pop\n        /* \"contracts/BeeWharf.sol\":2459:2471  tokenAddress */\n      dup2\n        /* \"contracts/BeeWharf.sol\":2427:2472  PayERC20(from, amount, orderId, tokenAddress) */\n      0xffffffffffffffffffffffffffffffffffffffff\n      and\n        /* \"contracts/BeeWharf.sol\":2436:2440  from */\n      dup7\n        /* \"contracts/BeeWharf.sol\":2427:2472  PayERC20(from, amount, orderId, tokenAddress) */\n      0xffffffffffffffffffffffffffffffffffffffff\n      and\n      0x5813e31687b98924e93d090022c25c96ef51b871564c433d5823e936dc3b4397\n        /* \"contracts/BeeWharf.sol\":2442:2448  amount */\n      dup8\n        /* \"contracts/BeeWharf.sol\":2450:2457  orderId */\n      dup8\n      dup8\n        /* \"contracts/BeeWharf.sol\":2427:2472  PayERC20(from, amount, orderId, tokenAddress) */\n      mload(0x40)\n      tag_140\n      swap4\n      swap3\n      swap2\n      swap1\n      tag_103\n      jump\t// in\n    tag_140:\n      mload(0x40)\n      dup1\n      swap2\n      sub\n      swap1\n      log3\n        /* \"contracts/BeeWharf.sol\":2095:2479  {... */\n      pop\n        /* \"contracts/BeeWharf.sol\":1933:2479  function payERC20From(... */\n      pop\n      pop\n      pop\n      pop\n      pop\n      jump\t// out\n        /* \"@openzeppelin/contracts/access/Ownable.sol\":1201:1286  function owner() public view virtual returns (address) {... */\n    tag_47:\n        /* \"@openzeppelin/contracts/access/Ownable.sol\":1247:1254  address */\n      0x00\n        /* \"@openzeppelin/contracts/access/Ownable.sol\":1273:1279  _owner */\n      dup1\n      0x00\n      swap1\n      sload\n      swap1\n      0x0100\n      exp\n      swap1\n      div\n      0xffffffffffffffffffffffffffffffffffffffff\n      and\n        /* \"@openzeppelin/contracts/access/Ownable.sol\":1266:1279  return _owner */\n      swap1\n      pop\n        /* \"@openzeppelin/contracts/access/Ownable.sol\":1201:1286  function owner() public view virtual returns (address) {... */\n      swap1\n      jump\t// out\n        /* \"contracts/BeeWharf.sol\":1390:1457  function balanceOfETH() external view override returns (uint256) {} */\n    tag_52:\n        /* \"contracts/BeeWharf.sol\":1446:1453  uint256 */\n      0x00\n        /* \"contracts/BeeWharf.sol\":1390:1457  function balanceOfETH() external view override returns (uint256) {} */\n      swap1\n      jump\t// out\n        /* \"contracts/BeeWharf.sol\":1114:1183  function payEth(string calldata orderId) payable external override {} */\n    tag_58:\n      pop\n      pop\n      jump\t// out\n        /* \"contracts/BeeWharf.sol\":884:1084  function addNewSupportToken(address tokenAddress) external onlyOwner {... */\n    tag_63:\n        /* \"@openzeppelin/contracts/access/Ownable.sol\":1094:1107  _checkOwner() */\n      tag_145\n        /* \"@openzeppelin/contracts/access/Ownable.sol\":1094:1105  _checkOwner */\n      tag_85\n        /* \"@openzeppelin/contracts/access/Ownable.sol\":1094:1107  _checkOwner() */\n      jump\t// in\n    tag_145:\n        /* \"contracts/BeeWharf.sol\":1011:1016  false */\n      0x00\n        /* \"contracts/BeeWharf.sol\":967:1016  tokenSupported.containsKey(tokenAddress) == false */\n      iszero\n      iszero\n        /* \"contracts/BeeWharf.sol\":967:1007  tokenSupported.containsKey(tokenAddress) */\n      tag_147\n        /* \"contracts/BeeWharf.sol\":994:1006  tokenAddress */\n      dup3\n        /* \"contracts/BeeWharf.sol\":967:981  tokenSupported */\n      0x01\n        /* \"contracts/BeeWharf.sol\":967:993  tokenSupported.containsKey */\n      tag_91\n      swap1\n        /* \"contracts/BeeWharf.sol\":967:1007  tokenSupported.containsKey(tokenAddress) */\n      swap2\n      swap1\n      0xffffffff\n      and\n      jump\t// in\n    tag_147:\n        /* \"contracts/BeeWharf.sol\":967:1016  tokenSupported.containsKey(tokenAddress) == false */\n      iszero\n      iszero\n      sub\n        /* \"contracts/BeeWharf.sol\":963:1078  if (tokenSupported.containsKey(tokenAddress) == false) {... */\n      tag_148\n      jumpi\n        /* \"contracts/BeeWharf.sol\":1063:1067  true */\n      0x01\n        /* \"contracts/BeeWharf.sol\":1032:1046  tokenSupported */\n      dup1\n        /* \"contracts/BeeWharf.sol\":1032:1060  tokenSupported[tokenAddress] */\n      0x00\n        /* \"contracts/BeeWharf.sol\":1047:1059  tokenAddress */\n      dup4\n        /* \"contracts/BeeWharf.sol\":1032:1060  tokenSupported[tokenAddress] */\n      0xffffffffffffffffffffffffffffffffffffffff\n      and\n      0xffffffffffffffffffffffffffffffffffffffff\n      and\n      dup2\n      mstore\n      0x20\n      add\n      swap1\n      dup2\n      mstore\n      0x20\n      add\n      0x00\n      keccak256\n      0x00\n        /* \"contracts/BeeWharf.sol\":1032:1067  tokenSupported[tokenAddress] = true */\n      0x0100\n      exp\n      dup2\n      sload\n      dup2\n      0xff\n      mul\n      not\n      and\n      swap1\n      dup4\n      iszero\n      iszero\n      mul\n      or\n      swap1\n      sstore\n      pop\n        /* \"contracts/BeeWharf.sol\":963:1078  if (tokenSupported.containsKey(tokenAddress) == false) {... */\n    tag_148:\n        /* \"contracts/BeeWharf.sol\":884:1084  function addNewSupportToken(address tokenAddress) external onlyOwner {... */\n      pop\n      jump\t// out\n        /* \"contracts/BeeWharf.sol\":3278:3896  function refundERC20From(... */\n    tag_68:\n        /* \"@openzeppelin/contracts/access/Ownable.sol\":1094:1107  _checkOwner() */\n      tag_150\n        /* \"@openzeppelin/contracts/access/Ownable.sol\":1094:1105  _checkOwner */\n      tag_85\n        /* \"@openzeppelin/contracts/access/Ownable.sol\":1094:1107  _checkOwner() */\n      jump\t// in\n    tag_150:\n        /* \"contracts/BeeWharf.sol\":3491:3531  tokenSupported.containsKey(tokenAddress) */\n      tag_152\n        /* \"contracts/BeeWharf.sol\":3518:3530  tokenAddress */\n      dup2\n        /* \"contracts/BeeWharf.sol\":3491:3505  tokenSupported */\n      0x01\n        /* \"contracts/BeeWharf.sol\":3491:3517  tokenSupported.containsKey */\n      tag_91\n      swap1\n        /* \"contracts/BeeWharf.sol\":3491:3531  tokenSupported.containsKey(tokenAddress) */\n      swap2\n      swap1\n      0xffffffff\n      and\n      jump\t// in\n    tag_152:\n        /* \"contracts/BeeWharf.sol\":3483:3555  require(tokenSupported.containsKey(tokenAddress), \"Unsurpported token!\") */\n      tag_153\n      jumpi\n      mload(0x40)\n      0x08c379a000000000000000000000000000000000000000000000000000000000\n      dup2\n      mstore\n      0x04\n      add\n      tag_154\n      swap1\n      tag_127\n      jump\t// in\n    tag_154:\n      mload(0x40)\n      dup1\n      swap2\n      sub\n      swap1\n      revert\n    tag_153:\n        /* \"contracts/BeeWharf.sol\":3566:3578  IERC20 token */\n      0x00\n        /* \"contracts/BeeWharf.sol\":3588:3600  tokenAddress */\n      dup2\n        /* \"contracts/BeeWharf.sol\":3566:3601  IERC20 token = IERC20(tokenAddress) */\n      swap1\n      pop\n        /* \"contracts/BeeWharf.sol\":3644:3650  amount */\n      dup5\n        /* \"contracts/BeeWharf.sol\":3619:3624  token */\n      dup2\n        /* \"contracts/BeeWharf.sol\":3619:3634  token.balanceOf */\n      0xffffffffffffffffffffffffffffffffffffffff\n      and\n      0x70a08231\n        /* \"contracts/BeeWharf.sol\":3635:3639  from */\n      dup10\n        /* \"contracts/BeeWharf.sol\":3619:3640  token.balanceOf(from) */\n      mload(0x40)\n      dup3\n      0xffffffff\n      and\n      0xe0\n      shl\n      dup2\n      mstore\n      0x04\n      add\n      tag_155\n      swap2\n      swap1\n      tag_49\n      jump\t// in\n    tag_155:\n      0x20\n      mload(0x40)\n      dup1\n      dup4\n      sub\n      dup2\n      dup7\n      gas\n      staticcall\n      iszero\n      dup1\n      iszero\n      tag_157\n      jumpi\n      returndatasize\n      0x00\n      dup1\n      returndatacopy\n      revert(0x00, returndatasize)\n    tag_157:\n      pop\n      pop\n      pop\n      pop\n      mload(0x40)\n      returndatasize\n      not(0x1f)\n      0x1f\n      dup3\n      add\n      and\n      dup3\n      add\n      dup1\n      0x40\n      mstore\n      pop\n      dup2\n      add\n      swap1\n      tag_158\n      swap2\n      swap1\n      tag_132\n      jump\t// in\n    tag_158:\n        /* \"contracts/BeeWharf.sol\":3619:3650  token.balanceOf(from) >= amount */\n      lt\n      iszero\n        /* \"contracts/BeeWharf.sol\":3611:3681  require(token.balanceOf(from) >= amount, \"Insufficient balance funds\") */\n      tag_159\n      jumpi\n      mload(0x40)\n      0x08c379a000000000000000000000000000000000000000000000000000000000\n      dup2\n      mstore\n      0x04\n      add\n      tag_160\n      swap1\n      tag_135\n      jump\t// in\n    tag_160:\n      mload(0x40)\n      dup1\n      swap2\n      sub\n      swap1\n      revert\n    tag_159:\n        /* \"contracts/BeeWharf.sol\":3691:3731  token.safeTransferFrom(from, to, amount) */\n      tag_161\n        /* \"contracts/BeeWharf.sol\":3714:3718  from */\n      dup8\n        /* \"contracts/BeeWharf.sol\":3720:3722  to */\n      dup8\n        /* \"contracts/BeeWharf.sol\":3724:3730  amount */\n      dup8\n        /* \"contracts/BeeWharf.sol\":3691:3696  token */\n      dup5\n        /* \"contracts/BeeWharf.sol\":3691:3713  token.safeTransferFrom */\n      0xffffffffffffffffffffffffffffffffffffffff\n      and\n      tag_137\n      swap1\n        /* \"contracts/BeeWharf.sol\":3691:3731  token.safeTransferFrom(from, to, amount) */\n      swap4\n      swap3\n      swap2\n      swap1\n      0xffffffff\n      and\n      jump\t// in\n    tag_161:\n        /* \"contracts/BeeWharf.sol\":3761:3765  this */\n      address\n        /* \"contracts/BeeWharf.sol\":3745:3766  from == address(this) */\n      0xffffffffffffffffffffffffffffffffffffffff\n      and\n        /* \"contracts/BeeWharf.sol\":3745:3749  from */\n      dup8\n        /* \"contracts/BeeWharf.sol\":3745:3766  from == address(this) */\n      0xffffffffffffffffffffffffffffffffffffffff\n      and\n      sub\n        /* \"contracts/BeeWharf.sol\":3741:3830  if (from == address(this)) {... */\n      tag_162\n      jumpi\n        /* \"contracts/BeeWharf.sol\":3813:3819  amount */\n      dup5\n        /* \"contracts/BeeWharf.sol\":3782:3795  totalBalances */\n      0x02\n        /* \"contracts/BeeWharf.sol\":3782:3809  totalBalances[tokenAddress] */\n      0x00\n        /* \"contracts/BeeWharf.sol\":3796:3808  tokenAddress */\n      dup5\n        /* \"contracts/BeeWharf.sol\":3782:3809  totalBalances[tokenAddress] */\n      0xffffffffffffffffffffffffffffffffffffffff\n      and\n      0xffffffffffffffffffffffffffffffffffffffff\n      and\n      dup2\n      mstore\n      0x20\n      add\n      swap1\n      dup2\n      mstore\n      0x20\n      add\n      0x00\n      keccak256\n      0x00\n        /* \"contracts/BeeWharf.sol\":3782:3819  totalBalances[tokenAddress] -= amount */\n      dup3\n      dup3\n      sload\n      tag_163\n      swap2\n      swap1\n      tag_101\n      jump\t// in\n    tag_163:\n      swap3\n      pop\n      pop\n      dup2\n      swap1\n      sstore\n      pop\n        /* \"contracts/BeeWharf.sol\":3741:3830  if (from == address(this)) {... */\n    tag_162:\n        /* \"contracts/BeeWharf.sol\":3876:3888  tokenAddress */\n      dup2\n        /* \"contracts/BeeWharf.sol\":3844:3889  RefundERC20(to, amount, billId, tokenAddress) */\n      0xffffffffffffffffffffffffffffffffffffffff\n      and\n        /* \"contracts/BeeWharf.sol\":3856:3858  to */\n      dup7\n        /* \"contracts/BeeWharf.sol\":3844:3889  RefundERC20(to, amount, billId, tokenAddress) */\n      0xffffffffffffffffffffffffffffffffffffffff\n      and\n      0x6b4b6b0c19db95f8115cbbc9222c0904280ced3214cae0a128151210a5b6ec30\n        /* \"contracts/BeeWharf.sol\":3860:3866  amount */\n      dup8\n        /* \"contracts/BeeWharf.sol\":3868:3874  billId */\n      dup8\n      dup8\n        /* \"contracts/BeeWharf.sol\":3844:3889  RefundERC20(to, amount, billId, tokenAddress) */\n      mload(0x40)\n      tag_164\n      swap4\n      swap3\n      swap2\n      swap1\n      tag_103\n      jump\t// in\n    tag_164:\n      mload(0x40)\n      dup1\n      swap2\n      sub\n      swap1\n      log3\n        /* \"contracts/BeeWharf.sol\":3473:3896  {... */\n      pop\n        /* \"contracts/BeeWharf.sol\":3278:3896  function refundERC20From(... */\n      pop\n      pop\n      pop\n      pop\n      pop\n      pop\n      jump\t// out\n        /* \"contracts/BeeWharf.sol\":1489:1709  function balanceOfERC20(address tokenAddress) external view override returns (uint256) {... */\n    tag_72:\n        /* \"contracts/BeeWharf.sol\":1567:1574  uint256 */\n      0x00\n        /* \"contracts/BeeWharf.sol\":1594:1634  tokenSupported.containsKey(tokenAddress) */\n      tag_166\n        /* \"contracts/BeeWharf.sol\":1621:1633  tokenAddress */\n      dup3\n        /* \"contracts/BeeWharf.sol\":1594:1608  tokenSupported */\n      0x01\n        /* \"contracts/BeeWharf.sol\":1594:1620  tokenSupported.containsKey */\n      tag_91\n      swap1\n        /* \"contracts/BeeWharf.sol\":1594:1634  tokenSupported.containsKey(tokenAddress) */\n      swap2\n      swap1\n      0xffffffff\n      and\n      jump\t// in\n    tag_166:\n        /* \"contracts/BeeWharf.sol\":1586:1658  require(tokenSupported.containsKey(tokenAddress), \"Unsurpported token!\") */\n      tag_167\n      jumpi\n      mload(0x40)\n      0x08c379a000000000000000000000000000000000000000000000000000000000\n      dup2\n      mstore\n      0x04\n      add\n      tag_168\n      swap1\n      tag_127\n      jump\t// in\n    tag_168:\n      mload(0x40)\n      dup1\n      swap2\n      sub\n      swap1\n      revert\n    tag_167:\n        /* \"contracts/BeeWharf.sol\":1675:1688  totalBalances */\n      0x02\n        /* \"contracts/BeeWharf.sol\":1675:1702  totalBalances[tokenAddress] */\n      0x00\n        /* \"contracts/BeeWharf.sol\":1689:1701  tokenAddress */\n      dup4\n        /* \"contracts/BeeWharf.sol\":1675:1702  totalBalances[tokenAddress] */\n      0xffffffffffffffffffffffffffffffffffffffff\n      and\n      0xffffffffffffffffffffffffffffffffffffffff\n      and\n      dup2\n      mstore\n      0x20\n      add\n      swap1\n      dup2\n      mstore\n      0x20\n      add\n      0x00\n      keccak256\n      sload\n        /* \"contracts/BeeWharf.sol\":1668:1702  return totalBalances[tokenAddress] */\n      swap1\n      pop\n        /* \"contracts/BeeWharf.sol\":1489:1709  function balanceOfERC20(address tokenAddress) external view override returns (uint256) {... */\n      swap2\n      swap1\n      pop\n      jump\t// out\n        /* \"contracts/BeeWharf.sol\":1188:1279  function withdrawEth(uint256 amount, string calldata billId) external override onlyOwner {} */\n    tag_78:\n        /* \"@openzeppelin/contracts/access/Ownable.sol\":1094:1107  _checkOwner() */\n      tag_170\n        /* \"@openzeppelin/contracts/access/Ownable.sol\":1094:1105  _checkOwner */\n      tag_85\n        /* \"@openzeppelin/contracts/access/Ownable.sol\":1094:1107  _checkOwner() */\n      jump\t// in\n    tag_170:\n        /* \"contracts/BeeWharf.sol\":1188:1279  function withdrawEth(uint256 amount, string calldata billId) external override onlyOwner {} */\n      pop\n      pop\n      pop\n      jump\t// out\n        /* \"@openzeppelin/contracts/access/Ownable.sol\":2081:2279  function transferOwnership(address newOwner) public virtual onlyOwner {... */\n    tag_82:\n        /* \"@openzeppelin/contracts/access/Ownable.sol\":1094:1107  _checkOwner() */\n      tag_173\n        /* \"@openzeppelin/contracts/access/Ownable.sol\":1094:1105  _checkOwner */\n      tag_85\n        /* \"@openzeppelin/contracts/access/Ownable.sol\":1094:1107  _checkOwner() */\n      jump\t// in\n    tag_173:\n        /* \"@openzeppelin/contracts/access/Ownable.sol\":2189:2190  0 */\n      0x00\n        /* \"@openzeppelin/contracts/access/Ownable.sol\":2169:2191  newOwner != address(0) */\n      0xffffffffffffffffffffffffffffffffffffffff\n      and\n        /* \"@openzeppelin/contracts/access/Ownable.sol\":2169:2177  newOwner */\n      dup2\n        /* \"@openzeppelin/contracts/access/Ownable.sol\":2169:2191  newOwner != address(0) */\n      0xffffffffffffffffffffffffffffffffffffffff\n      and\n      sub\n        /* \"@openzeppelin/contracts/access/Ownable.sol\":2161:2234  require(newOwner != address(0), \"Ownable: new owner is the zero address\") */\n      tag_175\n      jumpi\n      mload(0x40)\n      0x08c379a000000000000000000000000000000000000000000000000000000000\n      dup2\n      mstore\n      0x04\n      add\n      tag_176\n      swap1\n      tag_177\n      jump\t// in\n    tag_176:\n      mload(0x40)\n      dup1\n      swap2\n      sub\n      swap1\n      revert\n    tag_175:\n        /* \"@openzeppelin/contracts/access/Ownable.sol\":2244:2272  _transferOwnership(newOwner) */\n      tag_178\n        /* \"@openzeppelin/contracts/access/Ownable.sol\":2263:2271  newOwner */\n      dup2\n        /* \"@openzeppelin/contracts/access/Ownable.sol\":2244:2262  _transferOwnership */\n      tag_122\n        /* \"@openzeppelin/contracts/access/Ownable.sol\":2244:2272  _transferOwnership(newOwner) */\n      jump\t// in\n    tag_178:\n        /* \"@openzeppelin/contracts/access/Ownable.sol\":2081:2279  function transferOwnership(address newOwner) public virtual onlyOwner {... */\n      pop\n      jump\t// out\n        /* \"@openzeppelin/contracts/access/Ownable.sol\":1359:1489  function _checkOwner() internal view virtual {... */\n    tag_85:\n        /* \"@openzeppelin/contracts/access/Ownable.sol\":1433:1445  _msgSender() */\n      tag_180\n        /* \"@openzeppelin/contracts/access/Ownable.sol\":1433:1443  _msgSender */\n      tag_181\n        /* \"@openzeppelin/contracts/access/Ownable.sol\":1433:1445  _msgSender() */\n      jump\t// in\n    tag_180:\n        /* \"@openzeppelin/contracts/access/Ownable.sol\":1422:1445  owner() == _msgSender() */\n      0xffffffffffffffffffffffffffffffffffffffff\n      and\n        /* \"@openzeppelin/contracts/access/Ownable.sol\":1422:1429  owner() */\n      tag_182\n        /* \"@openzeppelin/contracts/access/Ownable.sol\":1422:1427  owner */\n      tag_47\n        /* \"@openzeppelin/contracts/access/Ownable.sol\":1422:1429  owner() */\n      jump\t// in\n    tag_182:\n        /* \"@openzeppelin/contracts/access/Ownable.sol\":1422:1445  owner() == _msgSender() */\n      0xffffffffffffffffffffffffffffffffffffffff\n      and\n      eq\n        /* \"@openzeppelin/contracts/access/Ownable.sol\":1414:1482  require(owner() == _msgSender(), \"Ownable: caller is not the owner\") */\n      tag_183\n      jumpi\n      mload(0x40)\n      0x08c379a000000000000000000000000000000000000000000000000000000000\n      dup2\n      mstore\n      0x04\n      add\n      tag_184\n      swap1\n      tag_185\n      jump\t// in\n    tag_184:\n      mload(0x40)\n      dup1\n      swap2\n      sub\n      swap1\n      revert\n    tag_183:\n        /* \"@openzeppelin/contracts/access/Ownable.sol\":1359:1489  function _checkOwner() internal view virtual {... */\n      jump\t// out\n        /* \"contracts/utils/BeeTokenChecker.sol\":93:230  function containsKey(mapping(address => bool) storage aMap, address aKey) internal view returns (bool) {... */\n    tag_91:\n        /* \"contracts/utils/BeeTokenChecker.sol\":190:194  bool */\n      0x00\n        /* \"contracts/utils/BeeTokenChecker.sol\":213:217  aMap */\n      dup3\n        /* \"contracts/utils/BeeTokenChecker.sol\":213:223  aMap[aKey] */\n      0x00\n        /* \"contracts/utils/BeeTokenChecker.sol\":218:222  aKey */\n      dup4\n        /* \"contracts/utils/BeeTokenChecker.sol\":213:223  aMap[aKey] */\n      0xffffffffffffffffffffffffffffffffffffffff\n      and\n      0xffffffffffffffffffffffffffffffffffffffff\n      and\n      dup2\n      mstore\n      0x20\n      add\n      swap1\n      dup2\n      mstore\n      0x20\n      add\n      0x00\n      keccak256\n      0x00\n      swap1\n      sload\n      swap1\n      0x0100\n      exp\n      swap1\n      div\n      0xff\n      and\n        /* \"contracts/utils/BeeTokenChecker.sol\":206:223  return aMap[aKey] */\n      swap1\n      pop\n        /* \"contracts/utils/BeeTokenChecker.sol\":93:230  function containsKey(mapping(address => bool) storage aMap, address aKey) internal view returns (bool) {... */\n      swap3\n      swap2\n      pop\n      pop\n      jump\t// out\n        /* \"@openzeppelin/contracts/token/ERC20/utils/SafeERC20.sol\":763:968  function safeTransfer(... */\n    tag_99:\n        /* \"@openzeppelin/contracts/token/ERC20/utils/SafeERC20.sol\":875:961  _callOptionalReturn(token, abi.encodeWithSelector(token.transfer.selector, to, value)) */\n      tag_188\n        /* \"@openzeppelin/contracts/token/ERC20/utils/SafeERC20.sol\":895:900  token */\n      dup4\n        /* \"@openzeppelin/contracts/token/ERC20/utils/SafeERC20.sol\":925:948  token.transfer.selector */\n      shl(0xe0, 0xa9059cbb)\n        /* \"@openzeppelin/contracts/token/ERC20/utils/SafeERC20.sol\":950:952  to */\n      dup5\n        /* \"@openzeppelin/contracts/token/ERC20/utils/SafeERC20.sol\":954:959  value */\n      dup5\n        /* \"@openzeppelin/contracts/token/ERC20/utils/SafeERC20.sol\":902:960  abi.encodeWithSelector(token.transfer.selector, to, value) */\n      add(0x24, mload(0x40))\n      tag_189\n      swap3\n      swap2\n      swap1\n      tag_190\n      jump\t// in\n    tag_189:\n      mload(0x40)\n      0x20\n      dup2\n      dup4\n      sub\n      sub\n      dup2\n      mstore\n      swap1\n      0x40\n      mstore\n      swap1\n      not(0xffffffffffffffffffffffffffffffffffffffffffffffffffffffff)\n      and\n      0x20\n      dup3\n      add\n      dup1\n      mload\n      0xffffffffffffffffffffffffffffffffffffffffffffffffffffffff\n      dup4\n      dup2\n      dup4\n      and\n      or\n      dup4\n      mstore\n      pop\n      pop\n      pop\n      pop\n        /* \"@openzeppelin/contracts/token/ERC20/utils/SafeERC20.sol\":875:894  _callOptionalReturn */\n      tag_191\n        /* \"@openzeppelin/contracts/token/ERC20/utils/SafeERC20.sol\":875:961  _callOptionalReturn(token, abi.encodeWithSelector(token.transfer.selector, to, value)) */\n      jump\t// in\n    tag_188:\n        /* \"@openzeppelin/contracts/token/ERC20/utils/SafeERC20.sol\":763:968  function safeTransfer(... */\n      pop\n      pop\n      pop\n      jump\t// out\n        /* \"@openzeppelin/contracts/access/Ownable.sol\":2433:2620  function _transferOwnership(address newOwner) internal virtual {... */\n    tag_122:\n        /* \"@openzeppelin/contracts/access/Ownable.sol\":2506:2522  address oldOwner */\n      0x00\n        /* \"@openzeppelin/contracts/access/Ownable.sol\":2525:2531  _owner */\n      dup1\n      0x00\n      swap1\n      sload\n      swap1\n      0x0100\n      exp\n      swap1\n      div\n      0xffffffffffffffffffffffffffffffffffffffff\n      and\n        /* \"@openzeppelin/contracts/access/Ownable.sol\":2506:2531  address oldOwner = _owner */\n      swap1\n      pop\n        /* \"@openzeppelin/contracts/access/Ownable.sol\":2550:2558  newOwner */\n      dup2\n        /* \"@openzeppelin/contracts/access/Ownable.sol\":2541:2547  _owner */\n      0x00\n      dup1\n        /* \"@openzeppelin/contracts/access/Ownable.sol\":2541:2558  _owner = newOwner */\n      0x0100\n      exp\n      dup2\n      sload\n      dup2\n      0xffffffffffffffffffffffffffffffffffffffff\n      mul\n      not\n      and\n      swap1\n      dup4\n      0xffffffffffffffffffffffffffffffffffffffff\n      and\n      mul\n      or\n      swap1\n      sstore\n      pop\n        /* \"@openzeppelin/contracts/access/Ownable.sol\":2604:2612  newOwner */\n      dup2\n        /* \"@openzeppelin/contracts/access/Ownable.sol\":2573:2613  OwnershipTransferred(oldOwner, newOwner) */\n      0xffffffffffffffffffffffffffffffffffffffff\n      and\n        /* \"@openzeppelin/contracts/access/Ownable.sol\":2594:2602  oldOwner */\n      dup2\n        /* \"@openzeppelin/contracts/access/Ownable.sol\":2573:2613  OwnershipTransferred(oldOwner, newOwner) */\n      0xffffffffffffffffffffffffffffffffffffffff\n      and\n      0x8be0079c531659141344cd1fd0a4f28419497f9722a3daafe3b4186f6b6457e0\n      mload(0x40)\n      mload(0x40)\n      dup1\n      swap2\n      sub\n      swap1\n      log3\n        /* \"@openzeppelin/contracts/access/Ownable.sol\":2496:2620  {... */\n      pop\n        /* \"@openzeppelin/contracts/access/Ownable.sol\":2433:2620  function _transferOwnership(address newOwner) internal virtual {... */\n      pop\n      jump\t// out\n        /* \"@openzeppelin/contracts/token/ERC20/utils/SafeERC20.sol\":974:1215  function safeTransferFrom(... */\n    tag_137:\n        /* \"@openzeppelin/contracts/token/ERC20/utils/SafeERC20.sol\":1112:1208  _callOptionalReturn(token, abi.encodeWithSelector(token.transferFrom.selector, from, to, value)) */\n      tag_194\n        /* \"@openzeppelin/contracts/token/ERC20/utils/SafeERC20.sol\":1132:1137  token */\n      dup5\n        /* \"@openzeppelin/contracts/token/ERC20/utils/SafeERC20.sol\":1162:1189  token.transferFrom.selector */\n      shl(0xe0, 0x23b872dd)\n        /* \"@openzeppelin/contracts/token/ERC20/utils/SafeERC20.sol\":1191:1195  from */\n      dup6\n        /* \"@openzeppelin/contracts/token/ERC20/utils/SafeERC20.sol\":1197:1199  to */\n      dup6\n        /* \"@openzeppelin/contracts/token/ERC20/utils/SafeERC20.sol\":1201:1206  value */\n      dup6\n        /* \"@openzeppelin/contracts/token/ERC20/utils/SafeERC20.sol\":1139:1207  abi.encodeWithSelector(token.transferFrom.selector, from, to, value) */\n      add(0x24, mload(0x40))\n      tag_195\n      swap4\n      swap3\n      swap2\n      swap1\n      tag_196\n      jump\t// in\n    tag_195:\n      mload(0x40)\n      0x20\n      dup2\n      dup4\n      sub\n      sub\n      dup2\n      mstore\n      swap1\n      0x40\n      mstore\n      swap1\n      not(0xffffffffffffffffffffffffffffffffffffffffffffffffffffffff)\n      and\n      0x20\n      dup3\n      add\n      dup1\n      mload\n      0xffffffffffffffffffffffffffffffffffffffffffffffffffffffff\n      dup4\n      dup2\n      dup4\n      and\n      or\n      dup4\n      mstore\n      pop\n      pop\n      pop\n      pop\n        /* \"@openzeppelin/contracts/token/ERC20/utils/SafeERC20.sol\":1112:1131  _callOptionalReturn */\n      tag_191\n        /* \"@openzeppelin/contracts/token/ERC20/utils/SafeERC20.sol\":1112:1208  _callOptionalReturn(token, abi.encodeWithSelector(token.transferFrom.selector, from, to, value)) */\n      jump\t// in\n    tag_194:\n        /* \"@openzeppelin/contracts/token/ERC20/utils/SafeERC20.sol\":974:1215  function safeTransferFrom(... */\n      pop\n      pop\n      pop\n      pop\n      jump\t// out\n        /* \"@openzeppelin/contracts/utils/Context.sol\":640:736  function _msgSender() internal view virtual returns (address) {... */\n    tag_181:\n        /* \"@openzeppelin/contracts/utils/Context.sol\":693:700  address */\n      0x00\n        /* \"@openzeppelin/contracts/utils/Context.sol\":719:729  msg.sender */\n      caller\n        /* \"@openzeppelin/contracts/utils/Context.sol\":712:729  return msg.sender */\n      swap1\n      pop\n        /* \"@openzeppelin/contracts/utils/Context.sol\":640:736  function _msgSender() internal view virtual returns (address) {... */\n      swap1\n      jump\t// out\n        /* \"@openzeppelin/contracts/token/ERC20/utils/SafeERC20.sol\":3747:4453  function _callOptionalReturn(IERC20 token, bytes memory data) private {... */\n    tag_191:\n        /* \"@openzeppelin/contracts/token/ERC20/utils/SafeERC20.sol\":4166:4189  bytes memory returndata */\n      0x00\n        /* \"@openzeppelin/contracts/token/ERC20/utils/SafeERC20.sol\":4192:4261  address(token).functionCall(data, \"SafeERC20: low-level call failed\") */\n      tag_199\n        /* \"@openzeppelin/contracts/token/ERC20/utils/SafeERC20.sol\":4220:4224  data */\n      dup3\n        /* \"@openzeppelin/contracts/token/ERC20/utils/SafeERC20.sol\":4192:4261  address(token).functionCall(data, \"SafeERC20: low-level call failed\") */\n      mload(0x40)\n      dup1\n      0x40\n      add\n      0x40\n      mstore\n      dup1\n      0x20\n      dup2\n      mstore\n      0x20\n      add\n      0x5361666545524332303a206c6f772d6c6576656c2063616c6c206661696c6564\n      dup2\n      mstore\n      pop\n        /* \"@openzeppelin/contracts/token/ERC20/utils/SafeERC20.sol\":4200:4205  token */\n      dup6\n        /* \"@openzeppelin/contracts/token/ERC20/utils/SafeERC20.sol\":4192:4219  address(token).functionCall */\n      0xffffffffffffffffffffffffffffffffffffffff\n      and\n      tag_200\n      swap1\n        /* \"@openzeppelin/contracts/token/ERC20/utils/SafeERC20.sol\":4192:4261  address(token).functionCall(data, \"SafeERC20: low-level call failed\") */\n      swap3\n      swap2\n      swap1\n      0xffffffff\n      and\n      jump\t// in\n    tag_199:\n        /* \"@openzeppelin/contracts/token/ERC20/utils/SafeERC20.sol\":4166:4261  bytes memory returndata = address(token).functionCall(data, \"SafeERC20: low-level call failed\") */\n      swap1\n      pop\n        /* \"@openzeppelin/contracts/token/ERC20/utils/SafeERC20.sol\":4295:4296  0 */\n      0x00\n        /* \"@openzeppelin/contracts/token/ERC20/utils/SafeERC20.sol\":4275:4285  returndata */\n      dup2\n        /* \"@openzeppelin/contracts/token/ERC20/utils/SafeERC20.sol\":4275:4292  returndata.length */\n      mload\n        /* \"@openzeppelin/contracts/token/ERC20/utils/SafeERC20.sol\":4275:4296  returndata.length > 0 */\n      gt\n        /* \"@openzeppelin/contracts/token/ERC20/utils/SafeERC20.sol\":4271:4447  if (returndata.length > 0) {... */\n      iszero\n      tag_201\n      jumpi\n        /* \"@openzeppelin/contracts/token/ERC20/utils/SafeERC20.sol\":4370:4380  returndata */\n      dup1\n        /* \"@openzeppelin/contracts/token/ERC20/utils/SafeERC20.sol\":4359:4389  abi.decode(returndata, (bool)) */\n      dup1\n      0x20\n      add\n      swap1\n      mload\n      dup2\n      add\n      swap1\n      tag_202\n      swap2\n      swap1\n      tag_203\n      jump\t// in\n    tag_202:\n        /* \"@openzeppelin/contracts/token/ERC20/utils/SafeERC20.sol\":4351:4436  require(abi.decode(returndata, (bool)), \"SafeERC20: ERC20 operation did not succeed\") */\n      tag_204\n      jumpi\n      mload(0x40)\n      0x08c379a000000000000000000000000000000000000000000000000000000000\n      dup2\n      mstore\n      0x04\n      add\n      tag_205\n      swap1\n      tag_206\n      jump\t// in\n    tag_205:\n      mload(0x40)\n      dup1\n      swap2\n      sub\n      swap1\n      revert\n    tag_204:\n        /* \"@openzeppelin/contracts/token/ERC20/utils/SafeERC20.sol\":4271:4447  if (returndata.length > 0) {... */\n    tag_201:\n        /* \"@openzeppelin/contracts/token/ERC20/utils/SafeERC20.sol\":3817:4453  {... */\n      pop\n        /* \"@openzeppelin/contracts/token/ERC20/utils/SafeERC20.sol\":3747:4453  function _callOptionalReturn(IERC20 token, bytes memory data) private {... */\n      pop\n      pop\n      jump\t// out\n        /* \"@openzeppelin/contracts/utils/Address.sol\":3873:4096  function functionCall(... */\n    tag_200:\n        /* \"@openzeppelin/contracts/utils/Address.sol\":4006:4018  bytes memory */\n      0x60\n        /* \"@openzeppelin/contracts/utils/Address.sol\":4037:4089  functionCallWithValue(target, data, 0, errorMessage) */\n      tag_208\n        /* \"@openzeppelin/contracts/utils/Address.sol\":4059:4065  target */\n      dup5\n        /* \"@openzeppelin/contracts/utils/Address.sol\":4067:4071  data */\n      dup5\n        /* \"@openzeppelin/contracts/utils/Address.sol\":4073:4074  0 */\n      0x00\n        /* \"@openzeppelin/contracts/utils/Address.sol\":4076:4088  errorMessage */\n      dup6\n        /* \"@openzeppelin/contracts/utils/Address.sol\":4037:4058  functionCallWithValue */\n      tag_209\n        /* \"@openzeppelin/contracts/utils/Address.sol\":4037:4089  functionCallWithValue(target, data, 0, errorMessage) */\n      jump\t// in\n    tag_208:\n        /* \"@openzeppelin/contracts/utils/Address.sol\":4030:4089  return functionCallWithValue(target, data, 0, errorMessage) */\n      swap1\n      pop\n        /* \"@openzeppelin/contracts/utils/Address.sol\":3873:4096  function functionCall(... */\n      swap4\n      swap3\n      pop\n      pop\n      pop\n      jump\t// out\n        /* \"@openzeppelin/contracts/utils/Address.sol\":4960:5406  function functionCallWithValue(... */\n    tag_209:\n        /* \"@openzeppelin/contracts/utils/Address.sol\":5125:5137  bytes memory */\n      0x60\n        /* \"@openzeppelin/contracts/utils/Address.sol\":5182:5187  value */\n      dup3\n        /* \"@openzeppelin/contracts/utils/Address.sol\":5157:5178  address(this).balance */\n      selfbalance\n        /* \"@openzeppelin/contracts/utils/Address.sol\":5157:5187  address(this).balance >= value */\n      lt\n      iszero\n        /* \"@openzeppelin/contracts/utils/Address.sol\":5149:5230  require(address(this).balance >= value, \"Address: insufficient balance for call\") */\n      tag_211\n      jumpi\n      mload(0x40)\n      0x08c379a000000000000000000000000000000000000000000000000000000000\n      dup2\n      mstore\n      0x04\n      add\n      tag_212\n      swap1\n      tag_213\n      jump\t// in\n    tag_212:\n      mload(0x40)\n      dup1\n      swap2\n      sub\n      swap1\n      revert\n    tag_211:\n        /* \"@openzeppelin/contracts/utils/Address.sol\":5241:5253  bool success */\n      0x00\n        /* \"@openzeppelin/contracts/utils/Address.sol\":5255:5278  bytes memory returndata */\n      dup1\n        /* \"@openzeppelin/contracts/utils/Address.sol\":5282:5288  target */\n      dup7\n        /* \"@openzeppelin/contracts/utils/Address.sol\":5282:5293  target.call */\n      0xffffffffffffffffffffffffffffffffffffffff\n      and\n        /* \"@openzeppelin/contracts/utils/Address.sol\":5301:5306  value */\n      dup6\n        /* \"@openzeppelin/contracts/utils/Address.sol\":5308:5312  data */\n      dup8\n        /* \"@openzeppelin/contracts/utils/Address.sol\":5282:5313  target.call{value: value}(data) */\n      mload(0x40)\n      tag_214\n      swap2\n      swap1\n      tag_215\n      jump\t// in\n    tag_214:\n      0x00\n      mload(0x40)\n      dup1\n      dup4\n      sub\n      dup2\n      dup6\n      dup8\n      gas\n      call\n      swap3\n      pop\n      pop\n      pop\n      returndatasize\n      dup1\n      0x00\n      dup2\n      eq\n      tag_218\n      jumpi\n      mload(0x40)\n      swap2\n      pop\n      and(add(returndatasize, 0x3f), not(0x1f))\n      dup3\n      add\n      0x40\n      mstore\n      returndatasize\n      dup3\n      mstore\n      returndatasize\n      0x00\n      0x20\n      dup5\n      add\n      returndatacopy\n      jump(tag_217)\n    tag_218:\n      0x60\n      swap2\n      pop\n    tag_217:\n      pop\n        /* \"@openzeppelin/contracts/utils/Address.sol\":5240:5313  (bool success, bytes memory returndata) = target.call{value: value}(data) */\n      swap2\n      pop\n      swap2\n      pop\n        /* \"@openzeppelin/contracts/utils/Address.sol\":5330:5399  verifyCallResultFromTarget(target, success, returndata, errorMessage) */\n      tag_219\n        /* \"@openzeppelin/contracts/utils/Address.sol\":5357:5363  target */\n      dup8\n        /* \"@openzeppelin/contracts/utils/Address.sol\":5365:5372  success */\n      dup4\n        /* \"@openzeppelin/contracts/utils/Address.sol\":5374:5384  returndata */\n      dup4\n        /* \"@openzeppelin/contracts/utils/Address.sol\":5386:5398  errorMessage */\n      dup8\n        /* \"@openzeppelin/contracts/utils/Address.sol\":5330:5356  verifyCallResultFromTarget */\n      tag_220\n        /* \"@openzeppelin/contracts/utils/Address.sol\":5330:5399  verifyCallResultFromTarget(target, success, returndata, errorMessage) */\n      jump\t// in\n    tag_219:\n        /* \"@openzeppelin/contracts/utils/Address.sol\":5323:5399  return verifyCallResultFromTarget(target, success, returndata, errorMessage) */\n      swap3\n      pop\n      pop\n      pop\n        /* \"@openzeppelin/contracts/utils/Address.sol\":4960:5406  function functionCallWithValue(... */\n      swap5\n      swap4\n      pop\n      pop\n      pop\n      pop\n      jump\t// out\n        /* \"@openzeppelin/contracts/utils/Address.sol\":7466:8094  function verifyCallResultFromTarget(... */\n    tag_220:\n        /* \"@openzeppelin/contracts/utils/Address.sol\":7646:7658  bytes memory */\n      0x60\n        /* \"@openzeppelin/contracts/utils/Address.sol\":7674:7681  success */\n      dup4\n        /* \"@openzeppelin/contracts/utils/Address.sol\":7670:8088  if (success) {... */\n      iszero\n      tag_222\n      jumpi\n        /* \"@openzeppelin/contracts/utils/Address.sol\":7722:7723  0 */\n      0x00\n        /* \"@openzeppelin/contracts/utils/Address.sol\":7701:7711  returndata */\n      dup4\n        /* \"@openzeppelin/contracts/utils/Address.sol\":7701:7718  returndata.length */\n      mload\n        /* \"@openzeppelin/contracts/utils/Address.sol\":7701:7723  returndata.length == 0 */\n      sub\n        /* \"@openzeppelin/contracts/utils/Address.sol\":7697:7983  if (returndata.length == 0) {... */\n      tag_223\n      jumpi\n        /* \"@openzeppelin/contracts/utils/Address.sol\":7916:7934  isContract(target) */\n      tag_224\n        /* \"@openzeppelin/contracts/utils/Address.sol\":7927:7933  target */\n      dup6\n        /* \"@openzeppelin/contracts/utils/Address.sol\":7916:7926  isContract */\n      tag_225\n        /* \"@openzeppelin/contracts/utils/Address.sol\":7916:7934  isContract(target) */\n      jump\t// in\n    tag_224:\n        /* \"@openzeppelin/contracts/utils/Address.sol\":7908:7968  require(isContract(target), \"Address: call to non-contract\") */\n      tag_226\n      jumpi\n      mload(0x40)\n      0x08c379a000000000000000000000000000000000000000000000000000000000\n      dup2\n      mstore\n      0x04\n      add\n      tag_227\n      swap1\n      tag_228\n      jump\t// in\n    tag_227:\n      mload(0x40)\n      dup1\n      swap2\n      sub\n      swap1\n      revert\n    tag_226:\n        /* \"@openzeppelin/contracts/utils/Address.sol\":7697:7983  if (returndata.length == 0) {... */\n    tag_223:\n        /* \"@openzeppelin/contracts/utils/Address.sol\":8003:8013  returndata */\n      dup3\n        /* \"@openzeppelin/contracts/utils/Address.sol\":7996:8013  return returndata */\n      swap1\n      pop\n      jump(tag_221)\n        /* \"@openzeppelin/contracts/utils/Address.sol\":7670:8088  if (success) {... */\n    tag_222:\n        /* \"@openzeppelin/contracts/utils/Address.sol\":8044:8077  _revert(returndata, errorMessage) */\n      tag_230\n        /* \"@openzeppelin/contracts/utils/Address.sol\":8052:8062  returndata */\n      dup4\n        /* \"@openzeppelin/contracts/utils/Address.sol\":8064:8076  errorMessage */\n      dup4\n        /* \"@openzeppelin/contracts/utils/Address.sol\":8044:8051  _revert */\n      tag_231\n        /* \"@openzeppelin/contracts/utils/Address.sol\":8044:8077  _revert(returndata, errorMessage) */\n      jump\t// in\n    tag_230:\n        /* \"@openzeppelin/contracts/utils/Address.sol\":7466:8094  function verifyCallResultFromTarget(... */\n    tag_221:\n      swap5\n      swap4\n      pop\n      pop\n      pop\n      pop\n      jump\t// out\n        /* \"@openzeppelin/contracts/utils/Address.sol\":1175:1495  function isContract(address account) internal view returns (bool) {... */\n    tag_225:\n        /* \"@openzeppelin/contracts/utils/Address.sol\":1235:1239  bool */\n      0x00\n        /* \"@openzeppelin/contracts/utils/Address.sol\":1487:1488  0 */\n      dup1\n        /* \"@openzeppelin/contracts/utils/Address.sol\":1465:1472  account */\n      dup3\n        /* \"@openzeppelin/contracts/utils/Address.sol\":1465:1484  account.code.length */\n      0xffffffffffffffffffffffffffffffffffffffff\n      and\n      extcodesize\n        /* \"@openzeppelin/contracts/utils/Address.sol\":1465:1488  account.code.length > 0 */\n      gt\n        /* \"@openzeppelin/contracts/utils/Address.sol\":1458:1488  return account.code.length > 0 */\n      swap1\n      pop\n        /* \"@openzeppelin/contracts/utils/Address.sol\":1175:1495  function isContract(address account) internal view returns (bool) {... */\n      swap2\n      swap1\n      pop\n      jump\t// out\n        /* \"@openzeppelin/contracts/utils/Address.sol\":8616:9156  function _revert(bytes memory returndata, string memory errorMessage) private pure {... */\n    tag_231:\n        /* \"@openzeppelin/contracts/utils/Address.sol\":8795:8796  0 */\n      0x00\n        /* \"@openzeppelin/contracts/utils/Address.sol\":8775:8785  returndata */\n      dup3\n        /* \"@openzeppelin/contracts/utils/Address.sol\":8775:8792  returndata.length */\n      mload\n        /* \"@openzeppelin/contracts/utils/Address.sol\":8775:8796  returndata.length > 0 */\n      gt\n        /* \"@openzeppelin/contracts/utils/Address.sol\":8771:9150  if (returndata.length > 0) {... */\n      iszero\n      tag_234\n      jumpi\n        /* \"@openzeppelin/contracts/utils/Address.sol\":9003:9013  returndata */\n      dup2\n        /* \"@openzeppelin/contracts/utils/Address.sol\":8997:9014  mload(returndata) */\n      mload\n        /* \"@openzeppelin/contracts/utils/Address.sol\":9059:9074  returndata_size */\n      dup1\n        /* \"@openzeppelin/contracts/utils/Address.sol\":9046:9056  returndata */\n      dup4\n        /* \"@openzeppelin/contracts/utils/Address.sol\":9042:9044  32 */\n      0x20\n        /* \"@openzeppelin/contracts/utils/Address.sol\":9038:9057  add(32, returndata) */\n      add\n        /* \"@openzeppelin/contracts/utils/Address.sol\":9031:9075  revert(add(32, returndata), returndata_size) */\n      revert\n        /* \"@openzeppelin/contracts/utils/Address.sol\":8771:9150  if (returndata.length > 0) {... */\n    tag_234:\n        /* \"@openzeppelin/contracts/utils/Address.sol\":9126:9138  errorMessage */\n      dup1\n        /* \"@openzeppelin/contracts/utils/Address.sol\":9119:9139  revert(errorMessage) */\n      mload(0x40)\n      0x08c379a000000000000000000000000000000000000000000000000000000000\n      dup2\n      mstore\n      0x04\n      add\n      tag_236\n      swap2\n      swap1\n      tag_237\n      jump\t// in\n    tag_236:\n      mload(0x40)\n      dup1\n      swap2\n      sub\n      swap1\n      revert\n        /* \"#utility.yul\":88:205   */\n    tag_239:\n        /* \"#utility.yul\":197:198   */\n      0x00\n        /* \"#utility.yul\":194:195   */\n      dup1\n        /* \"#utility.yul\":187:199   */\n      revert\n        /* \"#utility.yul\":211:328   */\n    tag_240:\n        /* \"#utility.yul\":320:321   */\n      0x00\n        /* \"#utility.yul\":317:318   */\n      dup1\n        /* \"#utility.yul\":310:322   */\n      revert\n        /* \"#utility.yul\":334:460   */\n    tag_241:\n        /* \"#utility.yul\":371:378   */\n      0x00\n        /* \"#utility.yul\":411:453   */\n      0xffffffffffffffffffffffffffffffffffffffff\n        /* \"#utility.yul\":404:409   */\n      dup3\n        /* \"#utility.yul\":400:454   */\n      and\n        /* \"#utility.yul\":389:454   */\n      swap1\n      pop\n        /* \"#utility.yul\":334:460   */\n      swap2\n      swap1\n      pop\n      jump\t// out\n        /* \"#utility.yul\":466:562   */\n    tag_242:\n        /* \"#utility.yul\":503:510   */\n      0x00\n        /* \"#utility.yul\":532:556   */\n      tag_293\n        /* \"#utility.yul\":550:555   */\n      dup3\n        /* \"#utility.yul\":532:556   */\n      tag_241\n      jump\t// in\n    tag_293:\n        /* \"#utility.yul\":521:556   */\n      swap1\n      pop\n        /* \"#utility.yul\":466:562   */\n      swap2\n      swap1\n      pop\n      jump\t// out\n        /* \"#utility.yul\":568:690   */\n    tag_243:\n        /* \"#utility.yul\":641:665   */\n      tag_295\n        /* \"#utility.yul\":659:664   */\n      dup2\n        /* \"#utility.yul\":641:665   */\n      tag_242\n      jump\t// in\n    tag_295:\n        /* \"#utility.yul\":634:639   */\n      dup2\n        /* \"#utility.yul\":631:666   */\n      eq\n        /* \"#utility.yul\":621:684   */\n      tag_296\n      jumpi\n        /* \"#utility.yul\":680:681   */\n      0x00\n        /* \"#utility.yul\":677:678   */\n      dup1\n        /* \"#utility.yul\":670:682   */\n      revert\n        /* \"#utility.yul\":621:684   */\n    tag_296:\n        /* \"#utility.yul\":568:690   */\n      pop\n      jump\t// out\n        /* \"#utility.yul\":696:835   */\n    tag_244:\n        /* \"#utility.yul\":742:747   */\n      0x00\n        /* \"#utility.yul\":780:786   */\n      dup2\n        /* \"#utility.yul\":767:787   */\n      calldataload\n        /* \"#utility.yul\":758:787   */\n      swap1\n      pop\n        /* \"#utility.yul\":796:829   */\n      tag_298\n        /* \"#utility.yul\":823:828   */\n      dup2\n        /* \"#utility.yul\":796:829   */\n      tag_243\n      jump\t// in\n    tag_298:\n        /* \"#utility.yul\":696:835   */\n      swap3\n      swap2\n      pop\n      pop\n      jump\t// out\n        /* \"#utility.yul\":841:918   */\n    tag_245:\n        /* \"#utility.yul\":878:885   */\n      0x00\n        /* \"#utility.yul\":907:912   */\n      dup2\n        /* \"#utility.yul\":896:912   */\n      swap1\n      pop\n        /* \"#utility.yul\":841:918   */\n      swap2\n      swap1\n      pop\n      jump\t// out\n        /* \"#utility.yul\":924:1046   */\n    tag_246:\n        /* \"#utility.yul\":997:1021   */\n      tag_301\n        /* \"#utility.yul\":1015:1020   */\n      dup2\n        /* \"#utility.yul\":997:1021   */\n      tag_245\n      jump\t// in\n    tag_301:\n        /* \"#utility.yul\":990:995   */\n      dup2\n        /* \"#utility.yul\":987:1022   */\n      eq\n        /* \"#utility.yul\":977:1040   */\n      tag_302\n      jumpi\n        /* \"#utility.yul\":1036:1037   */\n      0x00\n        /* \"#utility.yul\":1033:1034   */\n      dup1\n        /* \"#utility.yul\":1026:1038   */\n      revert\n        /* \"#utility.yul\":977:1040   */\n    tag_302:\n        /* \"#utility.yul\":924:1046   */\n      pop\n      jump\t// out\n        /* \"#utility.yul\":1052:1191   */\n    tag_247:\n        /* \"#utility.yul\":1098:1103   */\n      0x00\n        /* \"#utility.yul\":1136:1142   */\n      dup2\n        /* \"#utility.yul\":1123:1143   */\n      calldataload\n        /* \"#utility.yul\":1114:1143   */\n      swap1\n      pop\n        /* \"#utility.yul\":1152:1185   */\n      tag_304\n        /* \"#utility.yul\":1179:1184   */\n      dup2\n        /* \"#utility.yul\":1152:1185   */\n      tag_246\n      jump\t// in\n    tag_304:\n        /* \"#utility.yul\":1052:1191   */\n      swap3\n      swap2\n      pop\n      pop\n      jump\t// out\n        /* \"#utility.yul\":1197:1314   */\n    tag_248:\n        /* \"#utility.yul\":1306:1307   */\n      0x00\n        /* \"#utility.yul\":1303:1304   */\n      dup1\n        /* \"#utility.yul\":1296:1308   */\n      revert\n        /* \"#utility.yul\":1320:1437   */\n    tag_249:\n        /* \"#utility.yul\":1429:1430   */\n      0x00\n        /* \"#utility.yul\":1426:1427   */\n      dup1\n        /* \"#utility.yul\":1419:1431   */\n      revert\n        /* \"#utility.yul\":1443:1560   */\n    tag_250:\n        /* \"#utility.yul\":1552:1553   */\n      0x00\n        /* \"#utility.yul\":1549:1550   */\n      dup1\n        /* \"#utility.yul\":1542:1554   */\n      revert\n        /* \"#utility.yul\":1580:2133   */\n    tag_251:\n        /* \"#utility.yul\":1638:1646   */\n      0x00\n        /* \"#utility.yul\":1648:1654   */\n      dup1\n        /* \"#utility.yul\":1698:1701   */\n      dup4\n        /* \"#utility.yul\":1691:1695   */\n      0x1f\n        /* \"#utility.yul\":1683:1689   */\n      dup5\n        /* \"#utility.yul\":1679:1696   */\n      add\n        /* \"#utility.yul\":1675:1702   */\n      slt\n        /* \"#utility.yul\":1665:1787   */\n      tag_309\n      jumpi\n        /* \"#utility.yul\":1706:1785   */\n      tag_310\n      tag_248\n      jump\t// in\n    tag_310:\n        /* \"#utility.yul\":1665:1787   */\n    tag_309:\n        /* \"#utility.yul\":1819:1825   */\n      dup3\n        /* \"#utility.yul\":1806:1826   */\n      calldataload\n        /* \"#utility.yul\":1796:1826   */\n      swap1\n      pop\n        /* \"#utility.yul\":1849:1867   */\n      0xffffffffffffffff\n        /* \"#utility.yul\":1841:1847   */\n      dup2\n        /* \"#utility.yul\":1838:1868   */\n      gt\n        /* \"#utility.yul\":1835:1952   */\n      iszero\n      tag_311\n      jumpi\n        /* \"#utility.yul\":1871:1950   */\n      tag_312\n      tag_249\n      jump\t// in\n    tag_312:\n        /* \"#utility.yul\":1835:1952   */\n    tag_311:\n        /* \"#utility.yul\":1985:1989   */\n      0x20\n        /* \"#utility.yul\":1977:1983   */\n      dup4\n        /* \"#utility.yul\":1973:1990   */\n      add\n        /* \"#utility.yul\":1961:1990   */\n      swap2\n      pop\n        /* \"#utility.yul\":2039:2042   */\n      dup4\n        /* \"#utility.yul\":2031:2035   */\n      0x01\n        /* \"#utility.yul\":2023:2029   */\n      dup3\n        /* \"#utility.yul\":2019:2036   */\n      mul\n        /* \"#utility.yul\":2009:2017   */\n      dup4\n        /* \"#utility.yul\":2005:2037   */\n      add\n        /* \"#utility.yul\":2002:2043   */\n      gt\n        /* \"#utility.yul\":1999:2127   */\n      iszero\n      tag_313\n      jumpi\n        /* \"#utility.yul\":2046:2125   */\n      tag_314\n      tag_250\n      jump\t// in\n    tag_314:\n        /* \"#utility.yul\":1999:2127   */\n    tag_313:\n        /* \"#utility.yul\":1580:2133   */\n      swap3\n      pop\n      swap3\n      swap1\n      pop\n      jump\t// out\n        /* \"#utility.yul\":2139:2958   */\n    tag_22:\n        /* \"#utility.yul\":2228:2234   */\n      0x00\n        /* \"#utility.yul\":2236:2242   */\n      dup1\n        /* \"#utility.yul\":2244:2250   */\n      0x00\n        /* \"#utility.yul\":2252:2258   */\n      dup1\n        /* \"#utility.yul\":2301:2303   */\n      0x60\n        /* \"#utility.yul\":2289:2298   */\n      dup6\n        /* \"#utility.yul\":2280:2287   */\n      dup8\n        /* \"#utility.yul\":2276:2299   */\n      sub\n        /* \"#utility.yul\":2272:2304   */\n      slt\n        /* \"#utility.yul\":2269:2388   */\n      iszero\n      tag_316\n      jumpi\n        /* \"#utility.yul\":2307:2386   */\n      tag_317\n      tag_239\n      jump\t// in\n    tag_317:\n        /* \"#utility.yul\":2269:2388   */\n    tag_316:\n        /* \"#utility.yul\":2427:2428   */\n      0x00\n        /* \"#utility.yul\":2452:2505   */\n      tag_318\n        /* \"#utility.yul\":2497:2504   */\n      dup8\n        /* \"#utility.yul\":2488:2494   */\n      dup3\n        /* \"#utility.yul\":2477:2486   */\n      dup9\n        /* \"#utility.yul\":2473:2495   */\n      add\n        /* \"#utility.yul\":2452:2505   */\n      tag_244\n      jump\t// in\n    tag_318:\n        /* \"#utility.yul\":2442:2505   */\n      swap5\n      pop\n        /* \"#utility.yul\":2398:2515   */\n      pop\n        /* \"#utility.yul\":2554:2556   */\n      0x20\n        /* \"#utility.yul\":2580:2633   */\n      tag_319\n        /* \"#utility.yul\":2625:2632   */\n      dup8\n        /* \"#utility.yul\":2616:2622   */\n      dup3\n        /* \"#utility.yul\":2605:2614   */\n      dup9\n        /* \"#utility.yul\":2601:2623   */\n      add\n        /* \"#utility.yul\":2580:2633   */\n      tag_247\n      jump\t// in\n    tag_319:\n        /* \"#utility.yul\":2570:2633   */\n      swap4\n      pop\n        /* \"#utility.yul\":2525:2643   */\n      pop\n        /* \"#utility.yul\":2710:2712   */\n      0x40\n        /* \"#utility.yul\":2699:2708   */\n      dup6\n        /* \"#utility.yul\":2695:2713   */\n      add\n        /* \"#utility.yul\":2682:2714   */\n      calldataload\n        /* \"#utility.yul\":2741:2759   */\n      0xffffffffffffffff\n        /* \"#utility.yul\":2733:2739   */\n      dup2\n        /* \"#utility.yul\":2730:2760   */\n      gt\n        /* \"#utility.yul\":2727:2844   */\n      iszero\n      tag_320\n      jumpi\n        /* \"#utility.yul\":2763:2842   */\n      tag_321\n      tag_240\n      jump\t// in\n    tag_321:\n        /* \"#utility.yul\":2727:2844   */\n    tag_320:\n        /* \"#utility.yul\":2876:2941   */\n      tag_322\n        /* \"#utility.yul\":2933:2940   */\n      dup8\n        /* \"#utility.yul\":2924:2930   */\n      dup3\n        /* \"#utility.yul\":2913:2922   */\n      dup9\n        /* \"#utility.yul\":2909:2931   */\n      add\n        /* \"#utility.yul\":2876:2941   */\n      tag_251\n      jump\t// in\n    tag_322:\n        /* \"#utility.yul\":2858:2941   */\n      swap3\n      pop\n      swap3\n      pop\n        /* \"#utility.yul\":2653:2951   */\n      pop\n        /* \"#utility.yul\":2139:2958   */\n      swap3\n      swap6\n      swap2\n      swap5\n      pop\n      swap3\n      pop\n      jump\t// out\n        /* \"#utility.yul\":2964:3783   */\n    tag_27:\n        /* \"#utility.yul\":3053:3059   */\n      0x00\n        /* \"#utility.yul\":3061:3067   */\n      dup1\n        /* \"#utility.yul\":3069:3075   */\n      0x00\n        /* \"#utility.yul\":3077:3083   */\n      dup1\n        /* \"#utility.yul\":3126:3128   */\n      0x60\n        /* \"#utility.yul\":3114:3123   */\n      dup6\n        /* \"#utility.yul\":3105:3112   */\n      dup8\n        /* \"#utility.yul\":3101:3124   */\n      sub\n        /* \"#utility.yul\":3097:3129   */\n      slt\n        /* \"#utility.yul\":3094:3213   */\n      iszero\n      tag_324\n      jumpi\n        /* \"#utility.yul\":3132:3211   */\n      tag_325\n      tag_239\n      jump\t// in\n    tag_325:\n        /* \"#utility.yul\":3094:3213   */\n    tag_324:\n        /* \"#utility.yul\":3252:3253   */\n      0x00\n        /* \"#utility.yul\":3277:3330   */\n      tag_326\n        /* \"#utility.yul\":3322:3329   */\n      dup8\n        /* \"#utility.yul\":3313:3319   */\n      dup3\n        /* \"#utility.yul\":3302:3311   */\n      dup9\n        /* \"#utility.yul\":3298:3320   */\n      add\n        /* \"#utility.yul\":3277:3330   */\n      tag_247\n      jump\t// in\n    tag_326:\n        /* \"#utility.yul\":3267:3330   */\n      swap5\n      pop\n        /* \"#utility.yul\":3223:3340   */\n      pop\n        /* \"#utility.yul\":3407:3409   */\n      0x20\n        /* \"#utility.yul\":3396:3405   */\n      dup6\n        /* \"#utility.yul\":3392:3410   */\n      add\n        /* \"#utility.yul\":3379:3411   */\n      calldataload\n        /* \"#utility.yul\":3438:3456   */\n      0xffffffffffffffff\n        /* \"#utility.yul\":3430:3436   */\n      dup2\n        /* \"#utility.yul\":3427:3457   */\n      gt\n        /* \"#utility.yul\":3424:3541   */\n      iszero\n      tag_327\n      jumpi\n        /* \"#utility.yul\":3460:3539   */\n      tag_328\n      tag_240\n      jump\t// in\n    tag_328:\n        /* \"#utility.yul\":3424:3541   */\n    tag_327:\n        /* \"#utility.yul\":3573:3638   */\n      tag_329\n        /* \"#utility.yul\":3630:3637   */\n      dup8\n        /* \"#utility.yul\":3621:3627   */\n      dup3\n        /* \"#utility.yul\":3610:3619   */\n      dup9\n        /* \"#utility.yul\":3606:3628   */\n      add\n        /* \"#utility.yul\":3573:3638   */\n      tag_251\n      jump\t// in\n    tag_329:\n        /* \"#utility.yul\":3555:3638   */\n      swap4\n      pop\n      swap4\n      pop\n        /* \"#utility.yul\":3350:3648   */\n      pop\n        /* \"#utility.yul\":3687:3689   */\n      0x40\n        /* \"#utility.yul\":3713:3766   */\n      tag_330\n        /* \"#utility.yul\":3758:3765   */\n      dup8\n        /* \"#utility.yul\":3749:3755   */\n      dup3\n        /* \"#utility.yul\":3738:3747   */\n      dup9\n        /* \"#utility.yul\":3734:3756   */\n      add\n        /* \"#utility.yul\":3713:3766   */\n      tag_244\n      jump\t// in\n    tag_330:\n        /* \"#utility.yul\":3703:3766   */\n      swap2\n      pop\n        /* \"#utility.yul\":3658:3776   */\n      pop\n        /* \"#utility.yul\":2964:3783   */\n      swap3\n      swap6\n      swap2\n      swap5\n      pop\n      swap3\n      pop\n      jump\t// out\n        /* \"#utility.yul\":3789:4754   */\n    tag_32:\n        /* \"#utility.yul\":3887:3893   */\n      0x00\n        /* \"#utility.yul\":3895:3901   */\n      dup1\n        /* \"#utility.yul\":3903:3909   */\n      0x00\n        /* \"#utility.yul\":3911:3917   */\n      dup1\n        /* \"#utility.yul\":3919:3925   */\n      0x00\n        /* \"#utility.yul\":3968:3971   */\n      0x80\n        /* \"#utility.yul\":3956:3965   */\n      dup7\n        /* \"#utility.yul\":3947:3954   */\n      dup9\n        /* \"#utility.yul\":3943:3966   */\n      sub\n        /* \"#utility.yul\":3939:3972   */\n      slt\n        /* \"#utility.yul\":3936:4056   */\n      iszero\n      tag_332\n      jumpi\n        /* \"#utility.yul\":3975:4054   */\n      tag_333\n      tag_239\n      jump\t// in\n    tag_333:\n        /* \"#utility.yul\":3936:4056   */\n    tag_332:\n        /* \"#utility.yul\":4095:4096   */\n      0x00\n        /* \"#utility.yul\":4120:4173   */\n      tag_334\n        /* \"#utility.yul\":4165:4172   */\n      dup9\n        /* \"#utility.yul\":4156:4162   */\n      dup3\n        /* \"#utility.yul\":4145:4154   */\n      dup10\n        /* \"#utility.yul\":4141:4163   */\n      add\n        /* \"#utility.yul\":4120:4173   */\n      tag_244\n      jump\t// in\n    tag_334:\n        /* \"#utility.yul\":4110:4173   */\n      swap6\n      pop\n        /* \"#utility.yul\":4066:4183   */\n      pop\n        /* \"#utility.yul\":4222:4224   */\n      0x20\n        /* \"#utility.yul\":4248:4301   */\n      tag_335\n        /* \"#utility.yul\":4293:4300   */\n      dup9\n        /* \"#utility.yul\":4284:4290   */\n      dup3\n        /* \"#utility.yul\":4273:4282   */\n      dup10\n        /* \"#utility.yul\":4269:4291   */\n      add\n        /* \"#utility.yul\":4248:4301   */\n      tag_247\n      jump\t// in\n    tag_335:\n        /* \"#utility.yul\":4238:4301   */\n      swap5\n      pop\n        /* \"#utility.yul\":4193:4311   */\n      pop\n        /* \"#utility.yul\":4378:4380   */\n      0x40\n        /* \"#utility.yul\":4367:4376   */\n      dup7\n        /* \"#utility.yul\":4363:4381   */\n      add\n        /* \"#utility.yul\":4350:4382   */\n      calldataload\n        /* \"#utility.yul\":4409:4427   */\n      0xffffffffffffffff\n        /* \"#utility.yul\":4401:4407   */\n      dup2\n        /* \"#utility.yul\":4398:4428   */\n      gt\n        /* \"#utility.yul\":4395:4512   */\n      iszero\n      tag_336\n      jumpi\n        /* \"#utility.yul\":4431:4510   */\n      tag_337\n      tag_240\n      jump\t// in\n    tag_337:\n        /* \"#utility.yul\":4395:4512   */\n    tag_336:\n        /* \"#utility.yul\":4544:4609   */\n      tag_338\n        /* \"#utility.yul\":4601:4608   */\n      dup9\n        /* \"#utility.yul\":4592:4598   */\n      dup3\n        /* \"#utility.yul\":4581:4590   */\n      dup10\n        /* \"#utility.yul\":4577:4599   */\n      add\n        /* \"#utility.yul\":4544:4609   */\n      tag_251\n      jump\t// in\n    tag_338:\n        /* \"#utility.yul\":4526:4609   */\n      swap4\n      pop\n      swap4\n      pop\n        /* \"#utility.yul\":4321:4619   */\n      pop\n        /* \"#utility.yul\":4658:4660   */\n      0x60\n        /* \"#utility.yul\":4684:4737   */\n      tag_339\n        /* \"#utility.yul\":4729:4736   */\n      dup9\n        /* \"#utility.yul\":4720:4726   */\n      dup3\n        /* \"#utility.yul\":4709:4718   */\n      dup10\n        /* \"#utility.yul\":4705:4727   */\n      add\n        /* \"#utility.yul\":4684:4737   */\n      tag_244\n      jump\t// in\n    tag_339:\n        /* \"#utility.yul\":4674:4737   */\n      swap2\n      pop\n        /* \"#utility.yul\":4629:4747   */\n      pop\n        /* \"#utility.yul\":3789:4754   */\n      swap3\n      swap6\n      pop\n      swap3\n      swap6\n      swap1\n      swap4\n      pop\n      jump\t// out\n        /* \"#utility.yul\":4760:4878   */\n    tag_252:\n        /* \"#utility.yul\":4847:4871   */\n      tag_341\n        /* \"#utility.yul\":4865:4870   */\n      dup2\n        /* \"#utility.yul\":4847:4871   */\n      tag_242\n      jump\t// in\n    tag_341:\n        /* \"#utility.yul\":4842:4845   */\n      dup3\n        /* \"#utility.yul\":4835:4872   */\n      mstore\n        /* \"#utility.yul\":4760:4878   */\n      pop\n      pop\n      jump\t// out\n        /* \"#utility.yul\":4884:5106   */\n    tag_49:\n        /* \"#utility.yul\":4977:4981   */\n      0x00\n        /* \"#utility.yul\":5015:5017   */\n      0x20\n        /* \"#utility.yul\":5004:5013   */\n      dup3\n        /* \"#utility.yul\":5000:5018   */\n      add\n        /* \"#utility.yul\":4992:5018   */\n      swap1\n      pop\n        /* \"#utility.yul\":5028:5099   */\n      tag_343\n        /* \"#utility.yul\":5096:5097   */\n      0x00\n        /* \"#utility.yul\":5085:5094   */\n      dup4\n        /* \"#utility.yul\":5081:5098   */\n      add\n        /* \"#utility.yul\":5072:5078   */\n      dup5\n        /* \"#utility.yul\":5028:5099   */\n      tag_252\n      jump\t// in\n    tag_343:\n        /* \"#utility.yul\":4884:5106   */\n      swap3\n      swap2\n      pop\n      pop\n      jump\t// out\n        /* \"#utility.yul\":5112:5230   */\n    tag_253:\n        /* \"#utility.yul\":5199:5223   */\n      tag_345\n        /* \"#utility.yul\":5217:5222   */\n      dup2\n        /* \"#utility.yul\":5199:5223   */\n      tag_245\n      jump\t// in\n    tag_345:\n        /* \"#utility.yul\":5194:5197   */\n      dup3\n        /* \"#utility.yul\":5187:5224   */\n      mstore\n        /* \"#utility.yul\":5112:5230   */\n      pop\n      pop\n      jump\t// out\n        /* \"#utility.yul\":5236:5458   */\n    tag_54:\n        /* \"#utility.yul\":5329:5333   */\n      0x00\n        /* \"#utility.yul\":5367:5369   */\n      0x20\n        /* \"#utility.yul\":5356:5365   */\n      dup3\n        /* \"#utility.yul\":5352:5370   */\n      add\n        /* \"#utility.yul\":5344:5370   */\n      swap1\n      pop\n        /* \"#utility.yul\":5380:5451   */\n      tag_347\n        /* \"#utility.yul\":5448:5449   */\n      0x00\n        /* \"#utility.yul\":5437:5446   */\n      dup4\n        /* \"#utility.yul\":5433:5450   */\n      add\n        /* \"#utility.yul\":5424:5430   */\n      dup5\n        /* \"#utility.yul\":5380:5451   */\n      tag_253\n      jump\t// in\n    tag_347:\n        /* \"#utility.yul\":5236:5458   */\n      swap3\n      swap2\n      pop\n      pop\n      jump\t// out\n        /* \"#utility.yul\":5464:5993   */\n    tag_57:\n        /* \"#utility.yul\":5535:5541   */\n      0x00\n        /* \"#utility.yul\":5543:5549   */\n      dup1\n        /* \"#utility.yul\":5592:5594   */\n      0x20\n        /* \"#utility.yul\":5580:5589   */\n      dup4\n        /* \"#utility.yul\":5571:5578   */\n      dup6\n        /* \"#utility.yul\":5567:5590   */\n      sub\n        /* \"#utility.yul\":5563:5595   */\n      slt\n        /* \"#utility.yul\":5560:5679   */\n      iszero\n      tag_349\n      jumpi\n        /* \"#utility.yul\":5598:5677   */\n      tag_350\n      tag_239\n      jump\t// in\n    tag_350:\n        /* \"#utility.yul\":5560:5679   */\n    tag_349:\n        /* \"#utility.yul\":5746:5747   */\n      0x00\n        /* \"#utility.yul\":5735:5744   */\n      dup4\n        /* \"#utility.yul\":5731:5748   */\n      add\n        /* \"#utility.yul\":5718:5749   */\n      calldataload\n        /* \"#utility.yul\":5776:5794   */\n      0xffffffffffffffff\n        /* \"#utility.yul\":5768:5774   */\n      dup2\n        /* \"#utility.yul\":5765:5795   */\n      gt\n        /* \"#utility.yul\":5762:5879   */\n      iszero\n      tag_351\n      jumpi\n        /* \"#utility.yul\":5798:5877   */\n      tag_352\n      tag_240\n      jump\t// in\n    tag_352:\n        /* \"#utility.yul\":5762:5879   */\n    tag_351:\n        /* \"#utility.yul\":5911:5976   */\n      tag_353\n        /* \"#utility.yul\":5968:5975   */\n      dup6\n        /* \"#utility.yul\":5959:5965   */\n      dup3\n        /* \"#utility.yul\":5948:5957   */\n      dup7\n        /* \"#utility.yul\":5944:5966   */\n      add\n        /* \"#utility.yul\":5911:5976   */\n      tag_251\n      jump\t// in\n    tag_353:\n        /* \"#utility.yul\":5893:5976   */\n      swap3\n      pop\n      swap3\n      pop\n        /* \"#utility.yul\":5689:5986   */\n      pop\n        /* \"#utility.yul\":5464:5993   */\n      swap3\n      pop\n      swap3\n      swap1\n      pop\n      jump\t// out\n        /* \"#utility.yul\":5999:6328   */\n    tag_62:\n        /* \"#utility.yul\":6058:6064   */\n      0x00\n        /* \"#utility.yul\":6107:6109   */\n      0x20\n        /* \"#utility.yul\":6095:6104   */\n      dup3\n        /* \"#utility.yul\":6086:6093   */\n      dup5\n        /* \"#utility.yul\":6082:6105   */\n      sub\n        /* \"#utility.yul\":6078:6110   */\n      slt\n        /* \"#utility.yul\":6075:6194   */\n      iszero\n      tag_355\n      jumpi\n        /* \"#utility.yul\":6113:6192   */\n      tag_356\n      tag_239\n      jump\t// in\n    tag_356:\n        /* \"#utility.yul\":6075:6194   */\n    tag_355:\n        /* \"#utility.yul\":6233:6234   */\n      0x00\n        /* \"#utility.yul\":6258:6311   */\n      tag_357\n        /* \"#utility.yul\":6303:6310   */\n      dup5\n        /* \"#utility.yul\":6294:6300   */\n      dup3\n        /* \"#utility.yul\":6283:6292   */\n      dup6\n        /* \"#utility.yul\":6279:6301   */\n      add\n        /* \"#utility.yul\":6258:6311   */\n      tag_244\n      jump\t// in\n    tag_357:\n        /* \"#utility.yul\":6248:6311   */\n      swap2\n      pop\n        /* \"#utility.yul\":6204:6321   */\n      pop\n        /* \"#utility.yul\":5999:6328   */\n      swap3\n      swap2\n      pop\n      pop\n      jump\t// out\n        /* \"#utility.yul\":6334:7445   */\n    tag_67:\n        /* \"#utility.yul\":6441:6447   */\n      0x00\n        /* \"#utility.yul\":6449:6455   */\n      dup1\n        /* \"#utility.yul\":6457:6463   */\n      0x00\n        /* \"#utility.yul\":6465:6471   */\n      dup1\n        /* \"#utility.yul\":6473:6479   */\n      0x00\n        /* \"#utility.yul\":6481:6487   */\n      dup1\n        /* \"#utility.yul\":6530:6533   */\n      0xa0\n        /* \"#utility.yul\":6518:6527   */\n      dup8\n        /* \"#utility.yul\":6509:6516   */\n      dup10\n        /* \"#utility.yul\":6505:6528   */\n      sub\n        /* \"#utility.yul\":6501:6534   */\n      slt\n        /* \"#utility.yul\":6498:6618   */\n      iszero\n      tag_359\n      jumpi\n        /* \"#utility.yul\":6537:6616   */\n      tag_360\n      tag_239\n      jump\t// in\n    tag_360:\n        /* \"#utility.yul\":6498:6618   */\n    tag_359:\n        /* \"#utility.yul\":6657:6658   */\n      0x00\n        /* \"#utility.yul\":6682:6735   */\n      tag_361\n        /* \"#utility.yul\":6727:6734   */\n      dup10\n        /* \"#utility.yul\":6718:6724   */\n      dup3\n        /* \"#utility.yul\":6707:6716   */\n      dup11\n        /* \"#utility.yul\":6703:6725   */\n      add\n        /* \"#utility.yul\":6682:6735   */\n      tag_244\n      jump\t// in\n    tag_361:\n        /* \"#utility.yul\":6672:6735   */\n      swap7\n      pop\n        /* \"#utility.yul\":6628:6745   */\n      pop\n        /* \"#utility.yul\":6784:6786   */\n      0x20\n        /* \"#utility.yul\":6810:6863   */\n      tag_362\n        /* \"#utility.yul\":6855:6862   */\n      dup10\n        /* \"#utility.yul\":6846:6852   */\n      dup3\n        /* \"#utility.yul\":6835:6844   */\n      dup11\n        /* \"#utility.yul\":6831:6853   */\n      add\n        /* \"#utility.yul\":6810:6863   */\n      tag_244\n      jump\t// in\n    tag_362:\n        /* \"#utility.yul\":6800:6863   */\n      swap6\n      pop\n        /* \"#utility.yul\":6755:6873   */\n      pop\n        /* \"#utility.yul\":6912:6914   */\n      0x40\n        /* \"#utility.yul\":6938:6991   */\n      tag_363\n        /* \"#utility.yul\":6983:6990   */\n      dup10\n        /* \"#utility.yul\":6974:6980   */\n      dup3\n        /* \"#utility.yul\":6963:6972   */\n      dup11\n        /* \"#utility.yul\":6959:6981   */\n      add\n        /* \"#utility.yul\":6938:6991   */\n      tag_247\n      jump\t// in\n    tag_363:\n        /* \"#utility.yul\":6928:6991   */\n      swap5\n      pop\n        /* \"#utility.yul\":6883:7001   */\n      pop\n        /* \"#utility.yul\":7068:7070   */\n      0x60\n        /* \"#utility.yul\":7057:7066   */\n      dup8\n        /* \"#utility.yul\":7053:7071   */\n      add\n        /* \"#utility.yul\":7040:7072   */\n      calldataload\n        /* \"#utility.yul\":7099:7117   */\n      0xffffffffffffffff\n        /* \"#utility.yul\":7091:7097   */\n      dup2\n        /* \"#utility.yul\":7088:7118   */\n      gt\n        /* \"#utility.yul\":7085:7202   */\n      iszero\n      tag_364\n      jumpi\n        /* \"#utility.yul\":7121:7200   */\n      tag_365\n      tag_240\n      jump\t// in\n    tag_365:\n        /* \"#utility.yul\":7085:7202   */\n    tag_364:\n        /* \"#utility.yul\":7234:7299   */\n      tag_366\n        /* \"#utility.yul\":7291:7298   */\n      dup10\n        /* \"#utility.yul\":7282:7288   */\n      dup3\n        /* \"#utility.yul\":7271:7280   */\n      dup11\n        /* \"#utility.yul\":7267:7289   */\n      add\n        /* \"#utility.yul\":7234:7299   */\n      tag_251\n      jump\t// in\n    tag_366:\n        /* \"#utility.yul\":7216:7299   */\n      swap4\n      pop\n      swap4\n      pop\n        /* \"#utility.yul\":7011:7309   */\n      pop\n        /* \"#utility.yul\":7348:7351   */\n      0x80\n        /* \"#utility.yul\":7375:7428   */\n      tag_367\n        /* \"#utility.yul\":7420:7427   */\n      dup10\n        /* \"#utility.yul\":7411:7417   */\n      dup3\n        /* \"#utility.yul\":7400:7409   */\n      dup11\n        /* \"#utility.yul\":7396:7418   */\n      add\n        /* \"#utility.yul\":7375:7428   */\n      tag_244\n      jump\t// in\n    tag_367:\n        /* \"#utility.yul\":7365:7428   */\n      swap2\n      pop\n        /* \"#utility.yul\":7319:7438   */\n      pop\n        /* \"#utility.yul\":6334:7445   */\n      swap3\n      swap6\n      pop\n      swap3\n      swap6\n      pop\n      swap3\n      swap6\n      jump\t// out\n        /* \"#utility.yul\":7451:8125   */\n    tag_77:\n        /* \"#utility.yul\":7531:7537   */\n      0x00\n        /* \"#utility.yul\":7539:7545   */\n      dup1\n        /* \"#utility.yul\":7547:7553   */\n      0x00\n        /* \"#utility.yul\":7596:7598   */\n      0x40\n        /* \"#utility.yul\":7584:7593   */\n      dup5\n        /* \"#utility.yul\":7575:7582   */\n      dup7\n        /* \"#utility.yul\":7571:7594   */\n      sub\n        /* \"#utility.yul\":7567:7599   */\n      slt\n        /* \"#utility.yul\":7564:7683   */\n      iszero\n      tag_369\n      jumpi\n        /* \"#utility.yul\":7602:7681   */\n      tag_370\n      tag_239\n      jump\t// in\n    tag_370:\n        /* \"#utility.yul\":7564:7683   */\n    tag_369:\n        /* \"#utility.yul\":7722:7723   */\n      0x00\n        /* \"#utility.yul\":7747:7800   */\n      tag_371\n        /* \"#utility.yul\":7792:7799   */\n      dup7\n        /* \"#utility.yul\":7783:7789   */\n      dup3\n        /* \"#utility.yul\":7772:7781   */\n      dup8\n        /* \"#utility.yul\":7768:7790   */\n      add\n        /* \"#utility.yul\":7747:7800   */\n      tag_247\n      jump\t// in\n    tag_371:\n        /* \"#utility.yul\":7737:7800   */\n      swap4\n      pop\n        /* \"#utility.yul\":7693:7810   */\n      pop\n        /* \"#utility.yul\":7877:7879   */\n      0x20\n        /* \"#utility.yul\":7866:7875   */\n      dup5\n        /* \"#utility.yul\":7862:7880   */\n      add\n        /* \"#utility.yul\":7849:7881   */\n      calldataload\n        /* \"#utility.yul\":7908:7926   */\n      0xffffffffffffffff\n        /* \"#utility.yul\":7900:7906   */\n      dup2\n        /* \"#utility.yul\":7897:7927   */\n      gt\n        /* \"#utility.yul\":7894:8011   */\n      iszero\n      tag_372\n      jumpi\n        /* \"#utility.yul\":7930:8009   */\n      tag_373\n      tag_240\n      jump\t// in\n    tag_373:\n        /* \"#utility.yul\":7894:8011   */\n    tag_372:\n        /* \"#utility.yul\":8043:8108   */\n      tag_374\n        /* \"#utility.yul\":8100:8107   */\n      dup7\n        /* \"#utility.yul\":8091:8097   */\n      dup3\n        /* \"#utility.yul\":8080:8089   */\n      dup8\n        /* \"#utility.yul\":8076:8098   */\n      add\n        /* \"#utility.yul\":8043:8108   */\n      tag_251\n      jump\t// in\n    tag_374:\n        /* \"#utility.yul\":8025:8108   */\n      swap3\n      pop\n      swap3\n      pop\n        /* \"#utility.yul\":7820:8118   */\n      pop\n        /* \"#utility.yul\":7451:8125   */\n      swap3\n      pop\n      swap3\n      pop\n      swap3\n      jump\t// out\n        /* \"#utility.yul\":8131:8300   */\n    tag_254:\n        /* \"#utility.yul\":8215:8226   */\n      0x00\n        /* \"#utility.yul\":8249:8255   */\n      dup3\n        /* \"#utility.yul\":8244:8247   */\n      dup3\n        /* \"#utility.yul\":8237:8256   */\n      mstore\n        /* \"#utility.yul\":8289:8293   */\n      0x20\n        /* \"#utility.yul\":8284:8287   */\n      dup3\n        /* \"#utility.yul\":8280:8294   */\n      add\n        /* \"#utility.yul\":8265:8294   */\n      swap1\n      pop\n        /* \"#utility.yul\":8131:8300   */\n      swap3\n      swap2\n      pop\n      pop\n      jump\t// out\n        /* \"#utility.yul\":8306:8475   */\n    tag_255:\n        /* \"#utility.yul\":8446:8467   */\n      0x4e6f7420737570706f7274656420746f6b656e00000000000000000000000000\n        /* \"#utility.yul\":8442:8443   */\n      0x00\n        /* \"#utility.yul\":8434:8440   */\n      dup3\n        /* \"#utility.yul\":8430:8444   */\n      add\n        /* \"#utility.yul\":8423:8468   */\n      mstore\n        /* \"#utility.yul\":8306:8475   */\n      pop\n      jump\t// out\n        /* \"#utility.yul\":8481:8847   */\n    tag_256:\n        /* \"#utility.yul\":8623:8626   */\n      0x00\n        /* \"#utility.yul\":8644:8711   */\n      tag_378\n        /* \"#utility.yul\":8708:8710   */\n      0x13\n        /* \"#utility.yul\":8703:8706   */\n      dup4\n        /* \"#utility.yul\":8644:8711   */\n      tag_254\n      jump\t// in\n    tag_378:\n        /* \"#utility.yul\":8637:8711   */\n      swap2\n      pop\n        /* \"#utility.yul\":8720:8813   */\n      tag_379\n        /* \"#utility.yul\":8809:8812   */\n      dup3\n        /* \"#utility.yul\":8720:8813   */\n      tag_255\n      jump\t// in\n    tag_379:\n        /* \"#utility.yul\":8838:8840   */\n      0x20\n        /* \"#utility.yul\":8833:8836   */\n      dup3\n        /* \"#utility.yul\":8829:8841   */\n      add\n        /* \"#utility.yul\":8822:8841   */\n      swap1\n      pop\n        /* \"#utility.yul\":8481:8847   */\n      swap2\n      swap1\n      pop\n      jump\t// out\n        /* \"#utility.yul\":8853:9272   */\n    tag_94:\n        /* \"#utility.yul\":9019:9023   */\n      0x00\n        /* \"#utility.yul\":9057:9059   */\n      0x20\n        /* \"#utility.yul\":9046:9055   */\n      dup3\n        /* \"#utility.yul\":9042:9060   */\n      add\n        /* \"#utility.yul\":9034:9060   */\n      swap1\n      pop\n        /* \"#utility.yul\":9106:9115   */\n      dup2\n        /* \"#utility.yul\":9100:9104   */\n      dup2\n        /* \"#utility.yul\":9096:9116   */\n      sub\n        /* \"#utility.yul\":9092:9093   */\n      0x00\n        /* \"#utility.yul\":9081:9090   */\n      dup4\n        /* \"#utility.yul\":9077:9094   */\n      add\n        /* \"#utility.yul\":9070:9117   */\n      mstore\n        /* \"#utility.yul\":9134:9265   */\n      tag_381\n        /* \"#utility.yul\":9260:9264   */\n      dup2\n        /* \"#utility.yul\":9134:9265   */\n      tag_256\n      jump\t// in\n    tag_381:\n        /* \"#utility.yul\":9126:9265   */\n      swap1\n      pop\n        /* \"#utility.yul\":8853:9272   */\n      swap2\n      swap1\n      pop\n      jump\t// out\n        /* \"#utility.yul\":9278:9446   */\n    tag_257:\n        /* \"#utility.yul\":9418:9438   */\n      0x496e73756666696369656e742066756e64730000000000000000000000000000\n        /* \"#utility.yul\":9414:9415   */\n      0x00\n        /* \"#utility.yul\":9406:9412   */\n      dup3\n        /* \"#utility.yul\":9402:9416   */\n      add\n        /* \"#utility.yul\":9395:9439   */\n      mstore\n        /* \"#utility.yul\":9278:9446   */\n      pop\n      jump\t// out\n        /* \"#utility.yul\":9452:9818   */\n    tag_258:\n        /* \"#utility.yul\":9594:9597   */\n      0x00\n        /* \"#utility.yul\":9615:9682   */\n      tag_384\n        /* \"#utility.yul\":9679:9681   */\n      0x12\n        /* \"#utility.yul\":9674:9677   */\n      dup4\n        /* \"#utility.yul\":9615:9682   */\n      tag_254\n      jump\t// in\n    tag_384:\n        /* \"#utility.yul\":9608:9682   */\n      swap2\n      pop\n        /* \"#utility.yul\":9691:9784   */\n      tag_385\n        /* \"#utility.yul\":9780:9783   */\n      dup3\n        /* \"#utility.yul\":9691:9784   */\n      tag_257\n      jump\t// in\n    tag_385:\n        /* \"#utility.yul\":9809:9811   */\n      0x20\n        /* \"#utility.yul\":9804:9807   */\n      dup3\n        /* \"#utility.yul\":9800:9812   */\n      add\n        /* \"#utility.yul\":9793:9812   */\n      swap1\n      pop\n        /* \"#utility.yul\":9452:9818   */\n      swap2\n      swap1\n      pop\n      jump\t// out\n        /* \"#utility.yul\":9824:10243   */\n    tag_97:\n        /* \"#utility.yul\":9990:9994   */\n      0x00\n        /* \"#utility.yul\":10028:10030   */\n      0x20\n        /* \"#utility.yul\":10017:10026   */\n      dup3\n        /* \"#utility.yul\":10013:10031   */\n      add\n        /* \"#utility.yul\":10005:10031   */\n      swap1\n      pop\n        /* \"#utility.yul\":10077:10086   */\n      dup2\n        /* \"#utility.yul\":10071:10075   */\n      dup2\n        /* \"#utility.yul\":10067:10087   */\n      sub\n        /* \"#utility.yul\":10063:10064   */\n      0x00\n        /* \"#utility.yul\":10052:10061   */\n      dup4\n        /* \"#utility.yul\":10048:10065   */\n      add\n        /* \"#utility.yul\":10041:10088   */\n      mstore\n        /* \"#utility.yul\":10105:10236   */\n      tag_387\n        /* \"#utility.yul\":10231:10235   */\n      dup2\n        /* \"#utility.yul\":10105:10236   */\n      tag_258\n      jump\t// in\n    tag_387:\n        /* \"#utility.yul\":10097:10236   */\n      swap1\n      pop\n        /* \"#utility.yul\":9824:10243   */\n      swap2\n      swap1\n      pop\n      jump\t// out\n        /* \"#utility.yul\":10249:10429   */\n    tag_259:\n        /* \"#utility.yul\":10297:10374   */\n      0x4e487b7100000000000000000000000000000000000000000000000000000000\n        /* \"#utility.yul\":10294:10295   */\n      0x00\n        /* \"#utility.yul\":10287:10375   */\n      mstore\n        /* \"#utility.yul\":10394:10398   */\n      0x11\n        /* \"#utility.yul\":10391:10392   */\n      0x04\n        /* \"#utility.yul\":10384:10399   */\n      mstore\n        /* \"#utility.yul\":10418:10422   */\n      0x24\n        /* \"#utility.yul\":10415:10416   */\n      0x00\n        /* \"#utility.yul\":10408:10423   */\n      revert\n        /* \"#utility.yul\":10435:10629   */\n    tag_101:\n        /* \"#utility.yul\":10475:10479   */\n      0x00\n        /* \"#utility.yul\":10495:10515   */\n      tag_390\n        /* \"#utility.yul\":10513:10514   */\n      dup3\n        /* \"#utility.yul\":10495:10515   */\n      tag_245\n      jump\t// in\n    tag_390:\n        /* \"#utility.yul\":10490:10515   */\n      swap2\n      pop\n        /* \"#utility.yul\":10529:10549   */\n      tag_391\n        /* \"#utility.yul\":10547:10548   */\n      dup4\n        /* \"#utility.yul\":10529:10549   */\n      tag_245\n      jump\t// in\n    tag_391:\n        /* \"#utility.yul\":10524:10549   */\n      swap3\n      pop\n        /* \"#utility.yul\":10573:10574   */\n      dup3\n        /* \"#utility.yul\":10570:10571   */\n      dup3\n        /* \"#utility.yul\":10566:10575   */\n      sub\n        /* \"#utility.yul\":10558:10575   */\n      swap1\n      pop\n        /* \"#utility.yul\":10597:10598   */\n      dup2\n        /* \"#utility.yul\":10591:10595   */\n      dup2\n        /* \"#utility.yul\":10588:10599   */\n      gt\n        /* \"#utility.yul\":10585:10622   */\n      iszero\n      tag_392\n      jumpi\n        /* \"#utility.yul\":10602:10620   */\n      tag_393\n      tag_259\n      jump\t// in\n    tag_393:\n        /* \"#utility.yul\":10585:10622   */\n    tag_392:\n        /* \"#utility.yul\":10435:10629   */\n      swap3\n      swap2\n      pop\n      pop\n      jump\t// out\n        /* \"#utility.yul\":10635:10781   */\n    tag_260:\n        /* \"#utility.yul\":10732:10738   */\n      dup3\n        /* \"#utility.yul\":10727:10730   */\n      dup2\n        /* \"#utility.yul\":10722:10725   */\n      dup4\n        /* \"#utility.yul\":10709:10739   */\n      calldatacopy\n        /* \"#utility.yul\":10773:10774   */\n      0x00\n        /* \"#utility.yul\":10764:10770   */\n      dup4\n        /* \"#utility.yul\":10759:10762   */\n      dup4\n        /* \"#utility.yul\":10755:10771   */\n      add\n        /* \"#utility.yul\":10748:10775   */\n      mstore\n        /* \"#utility.yul\":10635:10781   */\n      pop\n      pop\n      pop\n      jump\t// out\n        /* \"#utility.yul\":10787:10889   */\n    tag_261:\n        /* \"#utility.yul\":10828:10834   */\n      0x00\n        /* \"#utility.yul\":10879:10881   */\n      0x1f\n        /* \"#utility.yul\":10875:10882   */\n      not\n        /* \"#utility.yul\":10870:10872   */\n      0x1f\n        /* \"#utility.yul\":10863:10868   */\n      dup4\n        /* \"#utility.yul\":10859:10873   */\n      add\n        /* \"#utility.yul\":10855:10883   */\n      and\n        /* \"#utility.yul\":10845:10883   */\n      swap1\n      pop\n        /* \"#utility.yul\":10787:10889   */\n      swap2\n      swap1\n      pop\n      jump\t// out\n        /* \"#utility.yul\":10919:11236   */\n    tag_262:\n        /* \"#utility.yul\":11017:11020   */\n      0x00\n        /* \"#utility.yul\":11038:11109   */\n      tag_397\n        /* \"#utility.yul\":11102:11108   */\n      dup4\n        /* \"#utility.yul\":11097:11100   */\n      dup6\n        /* \"#utility.yul\":11038:11109   */\n      tag_254\n      jump\t// in\n    tag_397:\n        /* \"#utility.yul\":11031:11109   */\n      swap4\n      pop\n        /* \"#utility.yul\":11119:11175   */\n      tag_398\n        /* \"#utility.yul\":11168:11174   */\n      dup4\n        /* \"#utility.yul\":11163:11166   */\n      dup6\n        /* \"#utility.yul\":11156:11161   */\n      dup5\n        /* \"#utility.yul\":11119:11175   */\n      tag_260\n      jump\t// in\n    tag_398:\n        /* \"#utility.yul\":11200:11229   */\n      tag_399\n        /* \"#utility.yul\":11222:11228   */\n      dup4\n        /* \"#utility.yul\":11200:11229   */\n      tag_261\n      jump\t// in\n    tag_399:\n        /* \"#utility.yul\":11195:11198   */\n      dup5\n        /* \"#utility.yul\":11191:11230   */\n      add\n        /* \"#utility.yul\":11184:11230   */\n      swap1\n      pop\n        /* \"#utility.yul\":10919:11236   */\n      swap4\n      swap3\n      pop\n      pop\n      pop\n      jump\t// out\n        /* \"#utility.yul\":11242:11685   */\n    tag_103:\n        /* \"#utility.yul\":11393:11397   */\n      0x00\n        /* \"#utility.yul\":11431:11433   */\n      0x40\n        /* \"#utility.yul\":11420:11429   */\n      dup3\n        /* \"#utility.yul\":11416:11434   */\n      add\n        /* \"#utility.yul\":11408:11434   */\n      swap1\n      pop\n        /* \"#utility.yul\":11444:11515   */\n      tag_401\n        /* \"#utility.yul\":11512:11513   */\n      0x00\n        /* \"#utility.yul\":11501:11510   */\n      dup4\n        /* \"#utility.yul\":11497:11514   */\n      add\n        /* \"#utility.yul\":11488:11494   */\n      dup7\n        /* \"#utility.yul\":11444:11515   */\n      tag_253\n      jump\t// in\n    tag_401:\n        /* \"#utility.yul\":11562:11571   */\n      dup2\n        /* \"#utility.yul\":11556:11560   */\n      dup2\n        /* \"#utility.yul\":11552:11572   */\n      sub\n        /* \"#utility.yul\":11547:11549   */\n      0x20\n        /* \"#utility.yul\":11536:11545   */\n      dup4\n        /* \"#utility.yul\":11532:11550   */\n      add\n        /* \"#utility.yul\":11525:11573   */\n      mstore\n        /* \"#utility.yul\":11590:11678   */\n      tag_402\n        /* \"#utility.yul\":11673:11677   */\n      dup2\n        /* \"#utility.yul\":11664:11670   */\n      dup5\n        /* \"#utility.yul\":11656:11662   */\n      dup7\n        /* \"#utility.yul\":11590:11678   */\n      tag_262\n      jump\t// in\n    tag_402:\n        /* \"#utility.yul\":11582:11678   */\n      swap1\n      pop\n        /* \"#utility.yul\":11242:11685   */\n      swap5\n      swap4\n      pop\n      pop\n      pop\n      pop\n      jump\t// out\n        /* \"#utility.yul\":11691:12466   */\n    tag_108:\n        /* \"#utility.yul\":11926:11930   */\n      0x00\n        /* \"#utility.yul\":11964:11967   */\n      0xa0\n        /* \"#utility.yul\":11953:11962   */\n      dup3\n        /* \"#utility.yul\":11949:11968   */\n      add\n        /* \"#utility.yul\":11941:11968   */\n      swap1\n      pop\n        /* \"#utility.yul\":11978:12049   */\n      tag_404\n        /* \"#utility.yul\":12046:12047   */\n      0x00\n        /* \"#utility.yul\":12035:12044   */\n      dup4\n        /* \"#utility.yul\":12031:12048   */\n      add\n        /* \"#utility.yul\":12022:12028   */\n      dup10\n        /* \"#utility.yul\":11978:12049   */\n      tag_252\n      jump\t// in\n    tag_404:\n        /* \"#utility.yul\":12059:12131   */\n      tag_405\n        /* \"#utility.yul\":12127:12129   */\n      0x20\n        /* \"#utility.yul\":12116:12125   */\n      dup4\n        /* \"#utility.yul\":12112:12130   */\n      add\n        /* \"#utility.yul\":12103:12109   */\n      dup9\n        /* \"#utility.yul\":12059:12131   */\n      tag_252\n      jump\t// in\n    tag_405:\n        /* \"#utility.yul\":12141:12213   */\n      tag_406\n        /* \"#utility.yul\":12209:12211   */\n      0x40\n        /* \"#utility.yul\":12198:12207   */\n      dup4\n        /* \"#utility.yul\":12194:12212   */\n      add\n        /* \"#utility.yul\":12185:12191   */\n      dup8\n        /* \"#utility.yul\":12141:12213   */\n      tag_253\n      jump\t// in\n    tag_406:\n        /* \"#utility.yul\":12260:12269   */\n      dup2\n        /* \"#utility.yul\":12254:12258   */\n      dup2\n        /* \"#utility.yul\":12250:12270   */\n      sub\n        /* \"#utility.yul\":12245:12247   */\n      0x60\n        /* \"#utility.yul\":12234:12243   */\n      dup4\n        /* \"#utility.yul\":12230:12248   */\n      add\n        /* \"#utility.yul\":12223:12271   */\n      mstore\n        /* \"#utility.yul\":12288:12376   */\n      tag_407\n        /* \"#utility.yul\":12371:12375   */\n      dup2\n        /* \"#utility.yul\":12362:12368   */\n      dup6\n        /* \"#utility.yul\":12354:12360   */\n      dup8\n        /* \"#utility.yul\":12288:12376   */\n      tag_262\n      jump\t// in\n    tag_407:\n        /* \"#utility.yul\":12280:12376   */\n      swap1\n      pop\n        /* \"#utility.yul\":12386:12459   */\n      tag_408\n        /* \"#utility.yul\":12454:12457   */\n      0x80\n        /* \"#utility.yul\":12443:12452   */\n      dup4\n        /* \"#utility.yul\":12439:12458   */\n      add\n        /* \"#utility.yul\":12430:12436   */\n      dup5\n        /* \"#utility.yul\":12386:12459   */\n      tag_252\n      jump\t// in\n    tag_408:\n        /* \"#utility.yul\":11691:12466   */\n      swap8\n      swap7\n      pop\n      pop\n      pop\n      pop\n      pop\n      pop\n      pop\n      jump\t// out\n        /* \"#utility.yul\":12472:13136   */\n    tag_114:\n        /* \"#utility.yul\":12679:12683   */\n      0x00\n        /* \"#utility.yul\":12717:12720   */\n      0x80\n        /* \"#utility.yul\":12706:12715   */\n      dup3\n        /* \"#utility.yul\":12702:12721   */\n      add\n        /* \"#utility.yul\":12694:12721   */\n      swap1\n      pop\n        /* \"#utility.yul\":12731:12802   */\n      tag_410\n        /* \"#utility.yul\":12799:12800   */\n      0x00\n        /* \"#utility.yul\":12788:12797   */\n      dup4\n        /* \"#utility.yul\":12784:12801   */\n      add\n        /* \"#utility.yul\":12775:12781   */\n      dup9\n        /* \"#utility.yul\":12731:12802   */\n      tag_252\n      jump\t// in\n    tag_410:\n        /* \"#utility.yul\":12812:12884   */\n      tag_411\n        /* \"#utility.yul\":12880:12882   */\n      0x20\n        /* \"#utility.yul\":12869:12878   */\n      dup4\n        /* \"#utility.yul\":12865:12883   */\n      add\n        /* \"#utility.yul\":12856:12862   */\n      dup8\n        /* \"#utility.yul\":12812:12884   */\n      tag_253\n      jump\t// in\n    tag_411:\n        /* \"#utility.yul\":12931:12940   */\n      dup2\n        /* \"#utility.yul\":12925:12929   */\n      dup2\n        /* \"#utility.yul\":12921:12941   */\n      sub\n        /* \"#utility.yul\":12916:12918   */\n      0x40\n        /* \"#utility.yul\":12905:12914   */\n      dup4\n        /* \"#utility.yul\":12901:12919   */\n      add\n        /* \"#utility.yul\":12894:12942   */\n      mstore\n        /* \"#utility.yul\":12959:13047   */\n      tag_412\n        /* \"#utility.yul\":13042:13046   */\n      dup2\n        /* \"#utility.yul\":13033:13039   */\n      dup6\n        /* \"#utility.yul\":13025:13031   */\n      dup8\n        /* \"#utility.yul\":12959:13047   */\n      tag_262\n      jump\t// in\n    tag_412:\n        /* \"#utility.yul\":12951:13047   */\n      swap1\n      pop\n        /* \"#utility.yul\":13057:13129   */\n      tag_413\n        /* \"#utility.yul\":13125:13127   */\n      0x60\n        /* \"#utility.yul\":13114:13123   */\n      dup4\n        /* \"#utility.yul\":13110:13128   */\n      add\n        /* \"#utility.yul\":13101:13107   */\n      dup5\n        /* \"#utility.yul\":13057:13129   */\n      tag_252\n      jump\t// in\n    tag_413:\n        /* \"#utility.yul\":12472:13136   */\n      swap7\n      swap6\n      pop\n      pop\n      pop\n      pop\n      pop\n      pop\n      jump\t// out\n        /* \"#utility.yul\":13142:13311   */\n    tag_263:\n        /* \"#utility.yul\":13282:13303   */\n      0x556e73757270706f7274656420746f6b656e2100000000000000000000000000\n        /* \"#utility.yul\":13278:13279   */\n      0x00\n        /* \"#utility.yul\":13270:13276   */\n      dup3\n        /* \"#utility.yul\":13266:13280   */\n      add\n        /* \"#utility.yul\":13259:13304   */\n      mstore\n        /* \"#utility.yul\":13142:13311   */\n      pop\n      jump\t// out\n        /* \"#utility.yul\":13317:13683   */\n    tag_264:\n        /* \"#utility.yul\":13459:13462   */\n      0x00\n        /* \"#utility.yul\":13480:13547   */\n      tag_416\n        /* \"#utility.yul\":13544:13546   */\n      0x13\n        /* \"#utility.yul\":13539:13542   */\n      dup4\n        /* \"#utility.yul\":13480:13547   */\n      tag_254\n      jump\t// in\n    tag_416:\n        /* \"#utility.yul\":13473:13547   */\n      swap2\n      pop\n        /* \"#utility.yul\":13556:13649   */\n      tag_417\n        /* \"#utility.yul\":13645:13648   */\n      dup3\n        /* \"#utility.yul\":13556:13649   */\n      tag_263\n      jump\t// in\n    tag_417:\n        /* \"#utility.yul\":13674:13676   */\n      0x20\n        /* \"#utility.yul\":13669:13672   */\n      dup3\n        /* \"#utility.yul\":13665:13677   */\n      add\n        /* \"#utility.yul\":13658:13677   */\n      swap1\n      pop\n        /* \"#utility.yul\":13317:13683   */\n      swap2\n      swap1\n      pop\n      jump\t// out\n        /* \"#utility.yul\":13689:14108   */\n    tag_127:\n        /* \"#utility.yul\":13855:13859   */\n      0x00\n        /* \"#utility.yul\":13893:13895   */\n      0x20\n        /* \"#utility.yul\":13882:13891   */\n      dup3\n        /* \"#utility.yul\":13878:13896   */\n      add\n        /* \"#utility.yul\":13870:13896   */\n      swap1\n      pop\n        /* \"#utility.yul\":13942:13951   */\n      dup2\n        /* \"#utility.yul\":13936:13940   */\n      dup2\n        /* \"#utility.yul\":13932:13952   */\n      sub\n        /* \"#utility.yul\":13928:13929   */\n      0x00\n        /* \"#utility.yul\":13917:13926   */\n      dup4\n        /* \"#utility.yul\":13913:13930   */\n      add\n        /* \"#utility.yul\":13906:13953   */\n      mstore\n        /* \"#utility.yul\":13970:14101   */\n      tag_419\n        /* \"#utility.yul\":14096:14100   */\n      dup2\n        /* \"#utility.yul\":13970:14101   */\n      tag_264\n      jump\t// in\n    tag_419:\n        /* \"#utility.yul\":13962:14101   */\n      swap1\n      pop\n        /* \"#utility.yul\":13689:14108   */\n      swap2\n      swap1\n      pop\n      jump\t// out\n        /* \"#utility.yul\":14114:14257   */\n    tag_265:\n        /* \"#utility.yul\":14171:14176   */\n      0x00\n        /* \"#utility.yul\":14202:14208   */\n      dup2\n        /* \"#utility.yul\":14196:14209   */\n      mload\n        /* \"#utility.yul\":14187:14209   */\n      swap1\n      pop\n        /* \"#utility.yul\":14218:14251   */\n      tag_421\n        /* \"#utility.yul\":14245:14250   */\n      dup2\n        /* \"#utility.yul\":14218:14251   */\n      tag_246\n      jump\t// in\n    tag_421:\n        /* \"#utility.yul\":14114:14257   */\n      swap3\n      swap2\n      pop\n      pop\n      jump\t// out\n        /* \"#utility.yul\":14263:14614   */\n    tag_132:\n        /* \"#utility.yul\":14333:14339   */\n      0x00\n        /* \"#utility.yul\":14382:14384   */\n      0x20\n        /* \"#utility.yul\":14370:14379   */\n      dup3\n        /* \"#utility.yul\":14361:14368   */\n      dup5\n        /* \"#utility.yul\":14357:14380   */\n      sub\n        /* \"#utility.yul\":14353:14385   */\n      slt\n        /* \"#utility.yul\":14350:14469   */\n      iszero\n      tag_423\n      jumpi\n        /* \"#utility.yul\":14388:14467   */\n      tag_424\n      tag_239\n      jump\t// in\n    tag_424:\n        /* \"#utility.yul\":14350:14469   */\n    tag_423:\n        /* \"#utility.yul\":14508:14509   */\n      0x00\n        /* \"#utility.yul\":14533:14597   */\n      tag_425\n        /* \"#utility.yul\":14589:14596   */\n      dup5\n        /* \"#utility.yul\":14580:14586   */\n      dup3\n        /* \"#utility.yul\":14569:14578   */\n      dup6\n        /* \"#utility.yul\":14565:14587   */\n      add\n        /* \"#utility.yul\":14533:14597   */\n      tag_265\n      jump\t// in\n    tag_425:\n        /* \"#utility.yul\":14523:14597   */\n      swap2\n      pop\n        /* \"#utility.yul\":14479:14607   */\n      pop\n        /* \"#utility.yul\":14263:14614   */\n      swap3\n      swap2\n      pop\n      pop\n      jump\t// out\n        /* \"#utility.yul\":14620:14796   */\n    tag_266:\n        /* \"#utility.yul\":14760:14788   */\n      0x496e73756666696369656e742062616c616e63652066756e6473000000000000\n        /* \"#utility.yul\":14756:14757   */\n      0x00\n        /* \"#utility.yul\":14748:14754   */\n      dup3\n        /* \"#utility.yul\":14744:14758   */\n      add\n        /* \"#utility.yul\":14737:14789   */\n      mstore\n        /* \"#utility.yul\":14620:14796   */\n      pop\n      jump\t// out\n        /* \"#utility.yul\":14802:15168   */\n    tag_267:\n        /* \"#utility.yul\":14944:14947   */\n      0x00\n        /* \"#utility.yul\":14965:15032   */\n      tag_428\n        /* \"#utility.yul\":15029:15031   */\n      0x1a\n        /* \"#utility.yul\":15024:15027   */\n      dup4\n        /* \"#utility.yul\":14965:15032   */\n      tag_254\n      jump\t// in\n    tag_428:\n        /* \"#utility.yul\":14958:15032   */\n      swap2\n      pop\n        /* \"#utility.yul\":15041:15134   */\n      tag_429\n        /* \"#utility.yul\":15130:15133   */\n      dup3\n        /* \"#utility.yul\":15041:15134   */\n      tag_266\n      jump\t// in\n    tag_429:\n        /* \"#utility.yul\":15159:15161   */\n      0x20\n        /* \"#utility.yul\":15154:15157   */\n      dup3\n        /* \"#utility.yul\":15150:15162   */\n      add\n        /* \"#utility.yul\":15143:15162   */\n      swap1\n      pop\n        /* \"#utility.yul\":14802:15168   */\n      swap2\n      swap1\n      pop\n      jump\t// out\n        /* \"#utility.yul\":15174:15593   */\n    tag_135:\n        /* \"#utility.yul\":15340:15344   */\n      0x00\n        /* \"#utility.yul\":15378:15380   */\n      0x20\n        /* \"#utility.yul\":15367:15376   */\n      dup3\n        /* \"#utility.yul\":15363:15381   */\n      add\n        /* \"#utility.yul\":15355:15381   */\n      swap1\n      pop\n        /* \"#utility.yul\":15427:15436   */\n      dup2\n        /* \"#utility.yul\":15421:15425   */\n      dup2\n        /* \"#utility.yul\":15417:15437   */\n      sub\n        /* \"#utility.yul\":15413:15414   */\n      0x00\n        /* \"#utility.yul\":15402:15411   */\n      dup4\n        /* \"#utility.yul\":15398:15415   */\n      add\n        /* \"#utility.yul\":15391:15438   */\n      mstore\n        /* \"#utility.yul\":15455:15586   */\n      tag_431\n        /* \"#utility.yul\":15581:15585   */\n      dup2\n        /* \"#utility.yul\":15455:15586   */\n      tag_267\n      jump\t// in\n    tag_431:\n        /* \"#utility.yul\":15447:15586   */\n      swap1\n      pop\n        /* \"#utility.yul\":15174:15593   */\n      swap2\n      swap1\n      pop\n      jump\t// out\n        /* \"#utility.yul\":15599:15790   */\n    tag_139:\n        /* \"#utility.yul\":15639:15642   */\n      0x00\n        /* \"#utility.yul\":15658:15678   */\n      tag_433\n        /* \"#utility.yul\":15676:15677   */\n      dup3\n        /* \"#utility.yul\":15658:15678   */\n      tag_245\n      jump\t// in\n    tag_433:\n        /* \"#utility.yul\":15653:15678   */\n      swap2\n      pop\n        /* \"#utility.yul\":15692:15712   */\n      tag_434\n        /* \"#utility.yul\":15710:15711   */\n      dup4\n        /* \"#utility.yul\":15692:15712   */\n      tag_245\n      jump\t// in\n    tag_434:\n        /* \"#utility.yul\":15687:15712   */\n      swap3\n      pop\n        /* \"#utility.yul\":15735:15736   */\n      dup3\n        /* \"#utility.yul\":15732:15733   */\n      dup3\n        /* \"#utility.yul\":15728:15737   */\n      add\n        /* \"#utility.yul\":15721:15737   */\n      swap1\n      pop\n        /* \"#utility.yul\":15756:15759   */\n      dup1\n        /* \"#utility.yul\":15753:15754   */\n      dup3\n        /* \"#utility.yul\":15750:15760   */\n      gt\n        /* \"#utility.yul\":15747:15783   */\n      iszero\n      tag_435\n      jumpi\n        /* \"#utility.yul\":15763:15781   */\n      tag_436\n      tag_259\n      jump\t// in\n    tag_436:\n        /* \"#utility.yul\":15747:15783   */\n    tag_435:\n        /* \"#utility.yul\":15599:15790   */\n      swap3\n      swap2\n      pop\n      pop\n      jump\t// out\n        /* \"#utility.yul\":15796:16021   */\n    tag_268:\n        /* \"#utility.yul\":15936:15970   */\n      0x4f776e61626c653a206e6577206f776e657220697320746865207a65726f2061\n        /* \"#utility.yul\":15932:15933   */\n      0x00\n        /* \"#utility.yul\":15924:15930   */\n      dup3\n        /* \"#utility.yul\":15920:15934   */\n      add\n        /* \"#utility.yul\":15913:15971   */\n      mstore\n        /* \"#utility.yul\":16005:16013   */\n      0x6464726573730000000000000000000000000000000000000000000000000000\n        /* \"#utility.yul\":16000:16002   */\n      0x20\n        /* \"#utility.yul\":15992:15998   */\n      dup3\n        /* \"#utility.yul\":15988:16003   */\n      add\n        /* \"#utility.yul\":15981:16014   */\n      mstore\n        /* \"#utility.yul\":15796:16021   */\n      pop\n      jump\t// out\n        /* \"#utility.yul\":16027:16393   */\n    tag_269:\n        /* \"#utility.yul\":16169:16172   */\n      0x00\n        /* \"#utility.yul\":16190:16257   */\n      tag_439\n        /* \"#utility.yul\":16254:16256   */\n      0x26\n        /* \"#utility.yul\":16249:16252   */\n      dup4\n        /* \"#utility.yul\":16190:16257   */\n      tag_254\n      jump\t// in\n    tag_439:\n        /* \"#utility.yul\":16183:16257   */\n      swap2\n      pop\n        /* \"#utility.yul\":16266:16359   */\n      tag_440\n        /* \"#utility.yul\":16355:16358   */\n      dup3\n        /* \"#utility.yul\":16266:16359   */\n      tag_268\n      jump\t// in\n    tag_440:\n        /* \"#utility.yul\":16384:16386   */\n      0x40\n        /* \"#utility.yul\":16379:16382   */\n      dup3\n        /* \"#utility.yul\":16375:16387   */\n      add\n        /* \"#utility.yul\":16368:16387   */\n      swap1\n      pop\n        /* \"#utility.yul\":16027:16393   */\n      swap2\n      swap1\n      pop\n      jump\t// out\n        /* \"#utility.yul\":16399:16818   */\n    tag_177:\n        /* \"#utility.yul\":16565:16569   */\n      0x00\n        /* \"#utility.yul\":16603:16605   */\n      0x20\n        /* \"#utility.yul\":16592:16601   */\n      dup3\n        /* \"#utility.yul\":16588:16606   */\n      add\n        /* \"#utility.yul\":16580:16606   */\n      swap1\n      pop\n        /* \"#utility.yul\":16652:16661   */\n      dup2\n        /* \"#utility.yul\":16646:16650   */\n      dup2\n        /* \"#utility.yul\":16642:16662   */\n      sub\n        /* \"#utility.yul\":16638:16639   */\n      0x00\n        /* \"#utility.yul\":16627:16636   */\n      dup4\n        /* \"#utility.yul\":16623:16640   */\n      add\n        /* \"#utility.yul\":16616:16663   */\n      mstore\n        /* \"#utility.yul\":16680:16811   */\n      tag_442\n        /* \"#utility.yul\":16806:16810   */\n      dup2\n        /* \"#utility.yul\":16680:16811   */\n      tag_269\n      jump\t// in\n    tag_442:\n        /* \"#utility.yul\":16672:16811   */\n      swap1\n      pop\n        /* \"#utility.yul\":16399:16818   */\n      swap2\n      swap1\n      pop\n      jump\t// out\n        /* \"#utility.yul\":16824:17006   */\n    tag_270:\n        /* \"#utility.yul\":16964:16998   */\n      0x4f776e61626c653a2063616c6c6572206973206e6f7420746865206f776e6572\n        /* \"#utility.yul\":16960:16961   */\n      0x00\n        /* \"#utility.yul\":16952:16958   */\n      dup3\n        /* \"#utility.yul\":16948:16962   */\n      add\n        /* \"#utility.yul\":16941:16999   */\n      mstore\n        /* \"#utility.yul\":16824:17006   */\n      pop\n      jump\t// out\n        /* \"#utility.yul\":17012:17378   */\n    tag_271:\n        /* \"#utility.yul\":17154:17157   */\n      0x00\n        /* \"#utility.yul\":17175:17242   */\n      tag_445\n        /* \"#utility.yul\":17239:17241   */\n      0x20\n        /* \"#utility.yul\":17234:17237   */\n      dup4\n        /* \"#utility.yul\":17175:17242   */\n      tag_254\n      jump\t// in\n    tag_445:\n        /* \"#utility.yul\":17168:17242   */\n      swap2\n      pop\n        /* \"#utility.yul\":17251:17344   */\n      tag_446\n        /* \"#utility.yul\":17340:17343   */\n      dup3\n        /* \"#utility.yul\":17251:17344   */\n      tag_270\n      jump\t// in\n    tag_446:\n        /* \"#utility.yul\":17369:17371   */\n      0x20\n        /* \"#utility.yul\":17364:17367   */\n      dup3\n        /* \"#utility.yul\":17360:17372   */\n      add\n        /* \"#utility.yul\":17353:17372   */\n      swap1\n      pop\n        /* \"#utility.yul\":17012:17378   */\n      swap2\n      swap1\n      pop\n      jump\t// out\n        /* \"#utility.yul\":17384:17803   */\n    tag_185:\n        /* \"#utility.yul\":17550:17554   */\n      0x00\n        /* \"#utility.yul\":17588:17590   */\n      0x20\n        /* \"#utility.yul\":17577:17586   */\n      dup3\n        /* \"#utility.yul\":17573:17591   */\n      add\n        /* \"#utility.yul\":17565:17591   */\n      swap1\n      pop\n        /* \"#utility.yul\":17637:17646   */\n      dup2\n        /* \"#utility.yul\":17631:17635   */\n      dup2\n        /* \"#utility.yul\":17627:17647   */\n      sub\n        /* \"#utility.yul\":17623:17624   */\n      0x00\n        /* \"#utility.yul\":17612:17621   */\n      dup4\n        /* \"#utility.yul\":17608:17625   */\n      add\n        /* \"#utility.yul\":17601:17648   */\n      mstore\n        /* \"#utility.yul\":17665:17796   */\n      tag_448\n        /* \"#utility.yul\":17791:17795   */\n      dup2\n        /* \"#utility.yul\":17665:17796   */\n      tag_271\n      jump\t// in\n    tag_448:\n        /* \"#utility.yul\":17657:17796   */\n      swap1\n      pop\n        /* \"#utility.yul\":17384:17803   */\n      swap2\n      swap1\n      pop\n      jump\t// out\n        /* \"#utility.yul\":17809:18141   */\n    tag_190:\n        /* \"#utility.yul\":17930:17934   */\n      0x00\n        /* \"#utility.yul\":17968:17970   */\n      0x40\n        /* \"#utility.yul\":17957:17966   */\n      dup3\n        /* \"#utility.yul\":17953:17971   */\n      add\n        /* \"#utility.yul\":17945:17971   */\n      swap1\n      pop\n        /* \"#utility.yul\":17981:18052   */\n      tag_450\n        /* \"#utility.yul\":18049:18050   */\n      0x00\n        /* \"#utility.yul\":18038:18047   */\n      dup4\n        /* \"#utility.yul\":18034:18051   */\n      add\n        /* \"#utility.yul\":18025:18031   */\n      dup6\n        /* \"#utility.yul\":17981:18052   */\n      tag_252\n      jump\t// in\n    tag_450:\n        /* \"#utility.yul\":18062:18134   */\n      tag_451\n        /* \"#utility.yul\":18130:18132   */\n      0x20\n        /* \"#utility.yul\":18119:18128   */\n      dup4\n        /* \"#utility.yul\":18115:18133   */\n      add\n        /* \"#utility.yul\":18106:18112   */\n      dup5\n        /* \"#utility.yul\":18062:18134   */\n      tag_253\n      jump\t// in\n    tag_451:\n        /* \"#utility.yul\":17809:18141   */\n      swap4\n      swap3\n      pop\n      pop\n      pop\n      jump\t// out\n        /* \"#utility.yul\":18147:18589   */\n    tag_196:\n        /* \"#utility.yul\":18296:18300   */\n      0x00\n        /* \"#utility.yul\":18334:18336   */\n      0x60\n        /* \"#utility.yul\":18323:18332   */\n      dup3\n        /* \"#utility.yul\":18319:18337   */\n      add\n        /* \"#utility.yul\":18311:18337   */\n      swap1\n      pop\n        /* \"#utility.yul\":18347:18418   */\n      tag_453\n        /* \"#utility.yul\":18415:18416   */\n      0x00\n        /* \"#utility.yul\":18404:18413   */\n      dup4\n        /* \"#utility.yul\":18400:18417   */\n      add\n        /* \"#utility.yul\":18391:18397   */\n      dup7\n        /* \"#utility.yul\":18347:18418   */\n      tag_252\n      jump\t// in\n    tag_453:\n        /* \"#utility.yul\":18428:18500   */\n      tag_454\n        /* \"#utility.yul\":18496:18498   */\n      0x20\n        /* \"#utility.yul\":18485:18494   */\n      dup4\n        /* \"#utility.yul\":18481:18499   */\n      add\n        /* \"#utility.yul\":18472:18478   */\n      dup6\n        /* \"#utility.yul\":18428:18500   */\n      tag_252\n      jump\t// in\n    tag_454:\n        /* \"#utility.yul\":18510:18582   */\n      tag_455\n        /* \"#utility.yul\":18578:18580   */\n      0x40\n        /* \"#utility.yul\":18567:18576   */\n      dup4\n        /* \"#utility.yul\":18563:18581   */\n      add\n        /* \"#utility.yul\":18554:18560   */\n      dup5\n        /* \"#utility.yul\":18510:18582   */\n      tag_253\n      jump\t// in\n    tag_455:\n        /* \"#utility.yul\":18147:18589   */\n      swap5\n      swap4\n      pop\n      pop\n      pop\n      pop\n      jump\t// out\n        /* \"#utility.yul\":18595:18685   */\n    tag_272:\n        /* \"#utility.yul\":18629:18636   */\n      0x00\n        /* \"#utility.yul\":18672:18677   */\n      dup2\n        /* \"#utility.yul\":18665:18678   */\n      iszero\n        /* \"#utility.yul\":18658:18679   */\n      iszero\n        /* \"#utility.yul\":18647:18679   */\n      swap1\n      pop\n        /* \"#utility.yul\":18595:18685   */\n      swap2\n      swap1\n      pop\n      jump\t// out\n        /* \"#utility.yul\":18691:18807   */\n    tag_273:\n        /* \"#utility.yul\":18761:18782   */\n      tag_458\n        /* \"#utility.yul\":18776:18781   */\n      dup2\n        /* \"#utility.yul\":18761:18782   */\n      tag_272\n      jump\t// in\n    tag_458:\n        /* \"#utility.yul\":18754:18759   */\n      dup2\n        /* \"#utility.yul\":18751:18783   */\n      eq\n        /* \"#utility.yul\":18741:18801   */\n      tag_459\n      jumpi\n        /* \"#utility.yul\":18797:18798   */\n      0x00\n        /* \"#utility.yul\":18794:18795   */\n      dup1\n        /* \"#utility.yul\":18787:18799   */\n      revert\n        /* \"#utility.yul\":18741:18801   */\n    tag_459:\n        /* \"#utility.yul\":18691:18807   */\n      pop\n      jump\t// out\n        /* \"#utility.yul\":18813:18950   */\n    tag_274:\n        /* \"#utility.yul\":18867:18872   */\n      0x00\n        /* \"#utility.yul\":18898:18904   */\n      dup2\n        /* \"#utility.yul\":18892:18905   */\n      mload\n        /* \"#utility.yul\":18883:18905   */\n      swap1\n      pop\n        /* \"#utility.yul\":18914:18944   */\n      tag_461\n        /* \"#utility.yul\":18938:18943   */\n      dup2\n        /* \"#utility.yul\":18914:18944   */\n      tag_273\n      jump\t// in\n    tag_461:\n        /* \"#utility.yul\":18813:18950   */\n      swap3\n      swap2\n      pop\n      pop\n      jump\t// out\n        /* \"#utility.yul\":18956:19301   */\n    tag_203:\n        /* \"#utility.yul\":19023:19029   */\n      0x00\n        /* \"#utility.yul\":19072:19074   */\n      0x20\n        /* \"#utility.yul\":19060:19069   */\n      dup3\n        /* \"#utility.yul\":19051:19058   */\n      dup5\n        /* \"#utility.yul\":19047:19070   */\n      sub\n        /* \"#utility.yul\":19043:19075   */\n      slt\n        /* \"#utility.yul\":19040:19159   */\n      iszero\n      tag_463\n      jumpi\n        /* \"#utility.yul\":19078:19157   */\n      tag_464\n      tag_239\n      jump\t// in\n    tag_464:\n        /* \"#utility.yul\":19040:19159   */\n    tag_463:\n        /* \"#utility.yul\":19198:19199   */\n      0x00\n        /* \"#utility.yul\":19223:19284   */\n      tag_465\n        /* \"#utility.yul\":19276:19283   */\n      dup5\n        /* \"#utility.yul\":19267:19273   */\n      dup3\n        /* \"#utility.yul\":19256:19265   */\n      dup6\n        /* \"#utility.yul\":19252:19274   */\n      add\n        /* \"#utility.yul\":19223:19284   */\n      tag_274\n      jump\t// in\n    tag_465:\n        /* \"#utility.yul\":19213:19284   */\n      swap2\n      pop\n        /* \"#utility.yul\":19169:19294   */\n      pop\n        /* \"#utility.yul\":18956:19301   */\n      swap3\n      swap2\n      pop\n      pop\n      jump\t// out\n        /* \"#utility.yul\":19307:19536   */\n    tag_275:\n        /* \"#utility.yul\":19447:19481   */\n      0x5361666545524332303a204552433230206f7065726174696f6e20646964206e\n        /* \"#utility.yul\":19443:19444   */\n      0x00\n        /* \"#utility.yul\":19435:19441   */\n      dup3\n        /* \"#utility.yul\":19431:19445   */\n      add\n        /* \"#utility.yul\":19424:19482   */\n      mstore\n        /* \"#utility.yul\":19516:19528   */\n      0x6f74207375636365656400000000000000000000000000000000000000000000\n        /* \"#utility.yul\":19511:19513   */\n      0x20\n        /* \"#utility.yul\":19503:19509   */\n      dup3\n        /* \"#utility.yul\":19499:19514   */\n      add\n        /* \"#utility.yul\":19492:19529   */\n      mstore\n        /* \"#utility.yul\":19307:19536   */\n      pop\n      jump\t// out\n        /* \"#utility.yul\":19542:19908   */\n    tag_276:\n        /* \"#utility.yul\":19684:19687   */\n      0x00\n        /* \"#utility.yul\":19705:19772   */\n      tag_468\n        /* \"#utility.yul\":19769:19771   */\n      0x2a\n        /* \"#utility.yul\":19764:19767   */\n      dup4\n        /* \"#utility.yul\":19705:19772   */\n      tag_254\n      jump\t// in\n    tag_468:\n        /* \"#utility.yul\":19698:19772   */\n      swap2\n      pop\n        /* \"#utility.yul\":19781:19874   */\n      tag_469\n        /* \"#utility.yul\":19870:19873   */\n      dup3\n        /* \"#utility.yul\":19781:19874   */\n      tag_275\n      jump\t// in\n    tag_469:\n        /* \"#utility.yul\":19899:19901   */\n      0x40\n        /* \"#utility.yul\":19894:19897   */\n      dup3\n        /* \"#utility.yul\":19890:19902   */\n      add\n        /* \"#utility.yul\":19883:19902   */\n      swap1\n      pop\n        /* \"#utility.yul\":19542:19908   */\n      swap2\n      swap1\n      pop\n      jump\t// out\n        /* \"#utility.yul\":19914:20333   */\n    tag_206:\n        /* \"#utility.yul\":20080:20084   */\n      0x00\n        /* \"#utility.yul\":20118:20120   */\n      0x20\n        /* \"#utility.yul\":20107:20116   */\n      dup3\n        /* \"#utility.yul\":20103:20121   */\n      add\n        /* \"#utility.yul\":20095:20121   */\n      swap1\n      pop\n        /* \"#utility.yul\":20167:20176   */\n      dup2\n        /* \"#utility.yul\":20161:20165   */\n      dup2\n        /* \"#utility.yul\":20157:20177   */\n      sub\n        /* \"#utility.yul\":20153:20154   */\n      0x00\n        /* \"#utility.yul\":20142:20151   */\n      dup4\n        /* \"#utility.yul\":20138:20155   */\n      add\n        /* \"#utility.yul\":20131:20178   */\n      mstore\n        /* \"#utility.yul\":20195:20326   */\n      tag_471\n        /* \"#utility.yul\":20321:20325   */\n      dup2\n        /* \"#utility.yul\":20195:20326   */\n      tag_276\n      jump\t// in\n    tag_471:\n        /* \"#utility.yul\":20187:20326   */\n      swap1\n      pop\n        /* \"#utility.yul\":19914:20333   */\n      swap2\n      swap1\n      pop\n      jump\t// out\n        /* \"#utility.yul\":20339:20564   */\n    tag_277:\n        /* \"#utility.yul\":20479:20513   */\n      0x416464726573733a20696e73756666696369656e742062616c616e636520666f\n        /* \"#utility.yul\":20475:20476   */\n      0x00\n        /* \"#utility.yul\":20467:20473   */\n      dup3\n        /* \"#utility.yul\":20463:20477   */\n      add\n        /* \"#utility.yul\":20456:20514   */\n      mstore\n        /* \"#utility.yul\":20548:20556   */\n      0x722063616c6c0000000000000000000000000000000000000000000000000000\n        /* \"#utility.yul\":20543:20545   */\n      0x20\n        /* \"#utility.yul\":20535:20541   */\n      dup3\n        /* \"#utility.yul\":20531:20546   */\n      add\n        /* \"#utility.yul\":20524:20557   */\n      mstore\n        /* \"#utility.yul\":20339:20564   */\n      pop\n      jump\t// out\n        /* \"#utility.yul\":20570:20936   */\n    tag_278:\n        /* \"#utility.yul\":20712:20715   */\n      0x00\n        /* \"#utility.yul\":20733:20800   */\n      tag_474\n        /* \"#utility.yul\":20797:20799   */\n      0x26\n        /* \"#utility.yul\":20792:20795   */\n      dup4\n        /* \"#utility.yul\":20733:20800   */\n      tag_254\n      jump\t// in\n    tag_474:\n        /* \"#utility.yul\":20726:20800   */\n      swap2\n      pop\n        /* \"#utility.yul\":20809:20902   */\n      tag_475\n        /* \"#utility.yul\":20898:20901   */\n      dup3\n        /* \"#utility.yul\":20809:20902   */\n      tag_277\n      jump\t// in\n    tag_475:\n        /* \"#utility.yul\":20927:20929   */\n      0x40\n        /* \"#utility.yul\":20922:20925   */\n      dup3\n        /* \"#utility.yul\":20918:20930   */\n      add\n        /* \"#utility.yul\":20911:20930   */\n      swap1\n      pop\n        /* \"#utility.yul\":20570:20936   */\n      swap2\n      swap1\n      pop\n      jump\t// out\n        /* \"#utility.yul\":20942:21361   */\n    tag_213:\n        /* \"#utility.yul\":21108:21112   */\n      0x00\n        /* \"#utility.yul\":21146:21148   */\n      0x20\n        /* \"#utility.yul\":21135:21144   */\n      dup3\n        /* \"#utility.yul\":21131:21149   */\n      add\n        /* \"#utility.yul\":21123:21149   */\n      swap1\n      pop\n        /* \"#utility.yul\":21195:21204   */\n      dup2\n        /* \"#utility.yul\":21189:21193   */\n      dup2\n        /* \"#utility.yul\":21185:21205   */\n      sub\n        /* \"#utility.yul\":21181:21182   */\n      0x00\n        /* \"#utility.yul\":21170:21179   */\n      dup4\n        /* \"#utility.yul\":21166:21183   */\n      add\n        /* \"#utility.yul\":21159:21206   */\n      mstore\n        /* \"#utility.yul\":21223:21354   */\n      tag_477\n        /* \"#utility.yul\":21349:21353   */\n      dup2\n        /* \"#utility.yul\":21223:21354   */\n      tag_278\n      jump\t// in\n    tag_477:\n        /* \"#utility.yul\":21215:21354   */\n      swap1\n      pop\n        /* \"#utility.yul\":20942:21361   */\n      swap2\n      swap1\n      pop\n      jump\t// out\n        /* \"#utility.yul\":21367:21465   */\n    tag_279:\n        /* \"#utility.yul\":21418:21424   */\n      0x00\n        /* \"#utility.yul\":21452:21457   */\n      dup2\n        /* \"#utility.yul\":21446:21458   */\n      mload\n        /* \"#utility.yul\":21436:21458   */\n      swap1\n      pop\n        /* \"#utility.yul\":21367:21465   */\n      swap2\n      swap1\n      pop\n      jump\t// out\n        /* \"#utility.yul\":21471:21618   */\n    tag_280:\n        /* \"#utility.yul\":21572:21583   */\n      0x00\n        /* \"#utility.yul\":21609:21612   */\n      dup2\n        /* \"#utility.yul\":21594:21612   */\n      swap1\n      pop\n        /* \"#utility.yul\":21471:21618   */\n      swap3\n      swap2\n      pop\n      pop\n      jump\t// out\n        /* \"#utility.yul\":21624:21870   */\n    tag_281:\n        /* \"#utility.yul\":21705:21706   */\n      0x00\n        /* \"#utility.yul\":21715:21828   */\n    tag_481:\n        /* \"#utility.yul\":21729:21735   */\n      dup4\n        /* \"#utility.yul\":21726:21727   */\n      dup2\n        /* \"#utility.yul\":21723:21736   */\n      lt\n        /* \"#utility.yul\":21715:21828   */\n      iszero\n      tag_483\n      jumpi\n        /* \"#utility.yul\":21814:21815   */\n      dup1\n        /* \"#utility.yul\":21809:21812   */\n      dup3\n        /* \"#utility.yul\":21805:21816   */\n      add\n        /* \"#utility.yul\":21799:21817   */\n      mload\n        /* \"#utility.yul\":21795:21796   */\n      dup2\n        /* \"#utility.yul\":21790:21793   */\n      dup5\n        /* \"#utility.yul\":21786:21797   */\n      add\n        /* \"#utility.yul\":21779:21818   */\n      mstore\n        /* \"#utility.yul\":21751:21753   */\n      0x20\n        /* \"#utility.yul\":21748:21749   */\n      dup2\n        /* \"#utility.yul\":21744:21754   */\n      add\n        /* \"#utility.yul\":21739:21754   */\n      swap1\n      pop\n        /* \"#utility.yul\":21715:21828   */\n      jump(tag_481)\n    tag_483:\n        /* \"#utility.yul\":21862:21863   */\n      0x00\n        /* \"#utility.yul\":21853:21859   */\n      dup5\n        /* \"#utility.yul\":21848:21851   */\n      dup5\n        /* \"#utility.yul\":21844:21860   */\n      add\n        /* \"#utility.yul\":21837:21864   */\n      mstore\n        /* \"#utility.yul\":21686:21870   */\n      pop\n        /* \"#utility.yul\":21624:21870   */\n      pop\n      pop\n      pop\n      jump\t// out\n        /* \"#utility.yul\":21876:22262   */\n    tag_282:\n        /* \"#utility.yul\":21980:21983   */\n      0x00\n        /* \"#utility.yul\":22008:22046   */\n      tag_485\n        /* \"#utility.yul\":22040:22045   */\n      dup3\n        /* \"#utility.yul\":22008:22046   */\n      tag_279\n      jump\t// in\n    tag_485:\n        /* \"#utility.yul\":22062:22150   */\n      tag_486\n        /* \"#utility.yul\":22143:22149   */\n      dup2\n        /* \"#utility.yul\":22138:22141   */\n      dup6\n        /* \"#utility.yul\":22062:22150   */\n      tag_280\n      jump\t// in\n    tag_486:\n        /* \"#utility.yul\":22055:22150   */\n      swap4\n      pop\n        /* \"#utility.yul\":22159:22224   */\n      tag_487\n        /* \"#utility.yul\":22217:22223   */\n      dup2\n        /* \"#utility.yul\":22212:22215   */\n      dup6\n        /* \"#utility.yul\":22205:22209   */\n      0x20\n        /* \"#utility.yul\":22198:22203   */\n      dup7\n        /* \"#utility.yul\":22194:22210   */\n      add\n        /* \"#utility.yul\":22159:22224   */\n      tag_281\n      jump\t// in\n    tag_487:\n        /* \"#utility.yul\":22249:22255   */\n      dup1\n        /* \"#utility.yul\":22244:22247   */\n      dup5\n        /* \"#utility.yul\":22240:22256   */\n      add\n        /* \"#utility.yul\":22233:22256   */\n      swap2\n      pop\n        /* \"#utility.yul\":21984:22262   */\n      pop\n        /* \"#utility.yul\":21876:22262   */\n      swap3\n      swap2\n      pop\n      pop\n      jump\t// out\n        /* \"#utility.yul\":22268:22539   */\n    tag_215:\n        /* \"#utility.yul\":22398:22401   */\n      0x00\n        /* \"#utility.yul\":22420:22513   */\n      tag_489\n        /* \"#utility.yul\":22509:22512   */\n      dup3\n        /* \"#utility.yul\":22500:22506   */\n      dup5\n        /* \"#utility.yul\":22420:22513   */\n      tag_282\n      jump\t// in\n    tag_489:\n        /* \"#utility.yul\":22413:22513   */\n      swap2\n      pop\n        /* \"#utility.yul\":22530:22533   */\n      dup2\n        /* \"#utility.yul\":22523:22533   */\n      swap1\n      pop\n        /* \"#utility.yul\":22268:22539   */\n      swap3\n      swap2\n      pop\n      pop\n      jump\t// out\n        /* \"#utility.yul\":22545:22724   */\n    tag_283:\n        /* \"#utility.yul\":22685:22716   */\n      0x416464726573733a2063616c6c20746f206e6f6e2d636f6e7472616374000000\n        /* \"#utility.yul\":22681:22682   */\n      0x00\n        /* \"#utility.yul\":22673:22679   */\n      dup3\n        /* \"#utility.yul\":22669:22683   */\n      add\n        /* \"#utility.yul\":22662:22717   */\n      mstore\n        /* \"#utility.yul\":22545:22724   */\n      pop\n      jump\t// out\n        /* \"#utility.yul\":22730:23096   */\n    tag_284:\n        /* \"#utility.yul\":22872:22875   */\n      0x00\n        /* \"#utility.yul\":22893:22960   */\n      tag_492\n        /* \"#utility.yul\":22957:22959   */\n      0x1d\n        /* \"#utility.yul\":22952:22955   */\n      dup4\n        /* \"#utility.yul\":22893:22960   */\n      tag_254\n      jump\t// in\n    tag_492:\n        /* \"#utility.yul\":22886:22960   */\n      swap2\n      pop\n        /* \"#utility.yul\":22969:23062   */\n      tag_493\n        /* \"#utility.yul\":23058:23061   */\n      dup3\n        /* \"#utility.yul\":22969:23062   */\n      tag_283\n      jump\t// in\n    tag_493:\n        /* \"#utility.yul\":23087:23089   */\n      0x20\n        /* \"#utility.yul\":23082:23085   */\n      dup3\n        /* \"#utility.yul\":23078:23090   */\n      add\n        /* \"#utility.yul\":23071:23090   */\n      swap1\n      pop\n        /* \"#utility.yul\":22730:23096   */\n      swap2\n      swap1\n      pop\n      jump\t// out\n        /* \"#utility.yul\":23102:23521   */\n    tag_228:\n        /* \"#utility.yul\":23268:23272   */\n      0x00\n        /* \"#utility.yul\":23306:23308   */\n      0x20\n        /* \"#utility.yul\":23295:23304   */\n      dup3\n        /* \"#utility.yul\":23291:23309   */\n      add\n        /* \"#utility.yul\":23283:23309   */\n      swap1\n      pop\n        /* \"#utility.yul\":23355:23364   */\n      dup2\n        /* \"#utility.yul\":23349:23353   */\n      dup2\n        /* \"#utility.yul\":23345:23365   */\n      sub\n        /* \"#utility.yul\":23341:23342   */\n      0x00\n        /* \"#utility.yul\":23330:23339   */\n      dup4\n        /* \"#utility.yul\":23326:23343   */\n      add\n        /* \"#utility.yul\":23319:23366   */\n      mstore\n        /* \"#utility.yul\":23383:23514   */\n      tag_495\n        /* \"#utility.yul\":23509:23513   */\n      dup2\n        /* \"#utility.yul\":23383:23514   */\n      tag_284\n      jump\t// in\n    tag_495:\n        /* \"#utility.yul\":23375:23514   */\n      swap1\n      pop\n        /* \"#utility.yul\":23102:23521   */\n      swap2\n      swap1\n      pop\n      jump\t// out\n        /* \"#utility.yul\":23527:23626   */\n    tag_285:\n        /* \"#utility.yul\":23579:23585   */\n      0x00\n        /* \"#utility.yul\":23613:23618   */\n      dup2\n        /* \"#utility.yul\":23607:23619   */\n      mload\n        /* \"#utility.yul\":23597:23619   */\n      swap1\n      pop\n        /* \"#utility.yul\":23527:23626   */\n      swap2\n      swap1\n      pop\n      jump\t// out\n        /* \"#utility.yul\":23632:24009   */\n    tag_286:\n        /* \"#utility.yul\":23720:23723   */\n      0x00\n        /* \"#utility.yul\":23748:23787   */\n      tag_498\n        /* \"#utility.yul\":23781:23786   */\n      dup3\n        /* \"#utility.yul\":23748:23787   */\n      tag_285\n      jump\t// in\n    tag_498:\n        /* \"#utility.yul\":23803:23874   */\n      tag_499\n        /* \"#utility.yul\":23867:23873   */\n      dup2\n        /* \"#utility.yul\":23862:23865   */\n      dup6\n        /* \"#utility.yul\":23803:23874   */\n      tag_254\n      jump\t// in\n    tag_499:\n        /* \"#utility.yul\":23796:23874   */\n      swap4\n      pop\n        /* \"#utility.yul\":23883:23948   */\n      tag_500\n        /* \"#utility.yul\":23941:23947   */\n      dup2\n        /* \"#utility.yul\":23936:23939   */\n      dup6\n        /* \"#utility.yul\":23929:23933   */\n      0x20\n        /* \"#utility.yul\":23922:23927   */\n      dup7\n        /* \"#utility.yul\":23918:23934   */\n      add\n        /* \"#utility.yul\":23883:23948   */\n      tag_281\n      jump\t// in\n    tag_500:\n        /* \"#utility.yul\":23973:24002   */\n      tag_501\n        /* \"#utility.yul\":23995:24001   */\n      dup2\n        /* \"#utility.yul\":23973:24002   */\n      tag_261\n      jump\t// in\n    tag_501:\n        /* \"#utility.yul\":23968:23971   */\n      dup5\n        /* \"#utility.yul\":23964:24003   */\n      add\n        /* \"#utility.yul\":23957:24003   */\n      swap2\n      pop\n        /* \"#utility.yul\":23724:24009   */\n      pop\n        /* \"#utility.yul\":23632:24009   */\n      swap3\n      swap2\n      pop\n      pop\n      jump\t// out\n        /* \"#utility.yul\":24015:24328   */\n    tag_237:\n        /* \"#utility.yul\":24128:24132   */\n      0x00\n        /* \"#utility.yul\":24166:24168   */\n      0x20\n        /* \"#utility.yul\":24155:24164   */\n      dup3\n        /* \"#utility.yul\":24151:24169   */\n      add\n        /* \"#utility.yul\":24143:24169   */\n      swap1\n      pop\n        /* \"#utility.yul\":24215:24224   */\n      dup2\n        /* \"#utility.yul\":24209:24213   */\n      dup2\n        /* \"#utility.yul\":24205:24225   */\n      sub\n        /* \"#utility.yul\":24201:24202   */\n      0x00\n        /* \"#utility.yul\":24190:24199   */\n      dup4\n        /* \"#utility.yul\":24186:24203   */\n      add\n        /* \"#utility.yul\":24179:24226   */\n      mstore\n        /* \"#utility.yul\":24243:24321   */\n      tag_503\n        /* \"#utility.yul\":24316:24320   */\n      dup2\n        /* \"#utility.yul\":24307:24313   */\n      dup5\n        /* \"#utility.yul\":24243:24321   */\n      tag_286\n      jump\t// in\n    tag_503:\n        /* \"#utility.yul\":24235:24321   */\n      swap1\n      pop\n        /* \"#utility.yul\":24015:24328   */\n      swap3\n      swap2\n      pop\n      pop\n      jump\t// out\n\n    auxdata: 0xa2646970667358221220a8f032df88e1a0338efae59a6b4e158a2a02384485ff393778a8b245108f4bd464736f6c63430008120033\n}\n",
				"bytecode": {
					"linkReferences": {},
					"object": "608060405234801561001057600080fd5b5061002d61002261010860201b60201c565b61011060201b60201c565b600180600073dac17f958d2ee523a2206206994597c13d831ec773ffffffffffffffffffffffffffffffffffffffff1673ffffffffffffffffffffffffffffffffffffffff16815260200190815260200160002060006101000a81548160ff021916908315150217905550600180600073a0b86991c6218b36c1d19d4a2e9eb0ce3606eb4873ffffffffffffffffffffffffffffffffffffffff1673ffffffffffffffffffffffffffffffffffffffff16815260200190815260200160002060006101000a81548160ff0219169083151502179055506101d4565b600033905090565b60008060009054906101000a900473ffffffffffffffffffffffffffffffffffffffff169050816000806101000a81548173ffffffffffffffffffffffffffffffffffffffff021916908373ffffffffffffffffffffffffffffffffffffffff1602179055508173ffffffffffffffffffffffffffffffffffffffff168173ffffffffffffffffffffffffffffffffffffffff167f8be0079c531659141344cd1fd0a4f28419497f9722a3daafe3b4186f6b6457e060405160405180910390a35050565b611df0806101e36000396000f3fe6080604052600436106100dd5760003560e01c80638ea5b8021161007f578063cc86a50311610059578063cc86a50314610261578063d93db24f1461028a578063e6cd186f146102c7578063f2fde38b146102f0576100dd565b80638ea5b802146101f1578063af7d51f51461021c578063b30917ad14610238576100dd565b8063711e0ee7116100bb578063711e0ee71461015d578063715018a614610186578063793191f11461019d5780638da5cb5b146101c6576100dd565b80630290579b146100e257806358598dad1461010b57806370d4713414610134575b600080fd5b3480156100ee57600080fd5b506101096004803603810190610104919061127e565b610319565b005b34801561011757600080fd5b50610132600480360381019061012d91906112f2565b610327565b005b34801561014057600080fd5b5061015b60048036038101906101569190611366565b6104fa565b005b34801561016957600080fd5b50610184600480360381019061017f91906112f2565b61057e565b005b34801561019257600080fd5b5061019b6105f7565b005b3480156101a957600080fd5b506101c460048036038101906101bf9190611366565b61060b565b005b3480156101d257600080fd5b506101db610813565b6040516101e891906113fd565b60405180910390f35b3480156101fd57600080fd5b5061020661083c565b6040516102139190611427565b60405180910390f35b61023660048036038101906102319190611442565b610841565b005b34801561024457600080fd5b5061025f600480360381019061025a919061148f565b610845565b005b34801561026d57600080fd5b50610288600480360381019061028391906114bc565b6108c7565b005b34801561029657600080fd5b506102b160048036038101906102ac919061148f565b610b0c565b6040516102be9190611427565b60405180910390f35b3480156102d357600080fd5b506102ee60048036038101906102e99190611556565b610ba8565b005b3480156102fc57600080fd5b506103176004803603810190610312919061148f565b610bb5565b005b610321610c38565b50505050565b61032f610c38565b610343816001610cb690919063ffffffff16565b610382576040517f08c379a000000000000000000000000000000000000000000000000000000000815260040161037990611613565b60405180910390fd5b83600260008373ffffffffffffffffffffffffffffffffffffffff1673ffffffffffffffffffffffffffffffffffffffff168152602001908152602001600020541015610404576040517f08c379a00000000000000000000000000000000000000000000000000000000081526004016103fb9061167f565b60405180910390fd5b600081905061043433868373ffffffffffffffffffffffffffffffffffffffff16610d0c9092919063ffffffff16565b84600260008473ffffffffffffffffffffffffffffffffffffffff1673ffffffffffffffffffffffffffffffffffffffff168152602001908152602001600020600082825461048391906116ce565b925050819055508173ffffffffffffffffffffffffffffffffffffffff163373ffffffffffffffffffffffffffffffffffffffff167f3822da7c1846353da157717dd7e95db54b4ffe105a04f5042cdf2cb1adadb2838787876040516104eb9392919061174f565b60405180910390a35050505050565b610502610c38565b3073ffffffffffffffffffffffffffffffffffffffff1663cc86a5033087878787876040518763ffffffff1660e01b815260040161054596959493929190611781565b600060405180830381600087803b15801561055f57600080fd5b505af1158015610573573d6000803e3d6000fd5b505050505050505050565b3073ffffffffffffffffffffffffffffffffffffffff1663793191f133868686866040518663ffffffff1660e01b81526004016105bf9594939291906117dd565b600060405180830381600087803b1580156105d957600080fd5b505af11580156105ed573d6000803e3d6000fd5b5050505050505050565b6105ff610c38565b6106096000610d92565b565b61061f816001610cb690919063ffffffff16565b61065e576040517f08c379a000000000000000000000000000000000000000000000000000000000815260040161065590611877565b60405180910390fd5b6000819050848173ffffffffffffffffffffffffffffffffffffffff166370a08231886040518263ffffffff1660e01b815260040161069d91906113fd565b602060405180830381865afa1580156106ba573d6000803e3d6000fd5b505050506040513d601f19601f820116820180604052508101906106de91906118ac565b101561071f576040517f08c379a000000000000000000000000000000000000000000000000000000000815260040161071690611925565b60405180910390fd5b61074c8630878473ffffffffffffffffffffffffffffffffffffffff16610e56909392919063ffffffff16565b84600260008473ffffffffffffffffffffffffffffffffffffffff1673ffffffffffffffffffffffffffffffffffffffff168152602001908152602001600020600082825461079b9190611945565b925050819055508173ffffffffffffffffffffffffffffffffffffffff168673ffffffffffffffffffffffffffffffffffffffff167f5813e31687b98924e93d090022c25c96ef51b871564c433d5823e936dc3b43978787876040516108039392919061174f565b60405180910390a3505050505050565b60008060009054906101000a900473ffffffffffffffffffffffffffffffffffffffff16905090565b600090565b5050565b61084d610c38565b60001515610865826001610cb690919063ffffffff16565b1515036108c45760018060008373ffffffffffffffffffffffffffffffffffffffff1673ffffffffffffffffffffffffffffffffffffffff16815260200190815260200160002060006101000a81548160ff0219169083151502179055505b50565b6108cf610c38565b6108e3816001610cb690919063ffffffff16565b610922576040517f08c379a000000000000000000000000000000000000000000000000000000000815260040161091990611877565b60405180910390fd5b6000819050848173ffffffffffffffffffffffffffffffffffffffff166370a08231896040518263ffffffff1660e01b815260040161096191906113fd565b602060405180830381865afa15801561097e573d6000803e3d6000fd5b505050506040513d601f19601f820116820180604052508101906109a291906118ac565b10156109e3576040517f08c379a00000000000000000000000000000000000000000000000000000000081526004016109da90611925565b60405180910390fd5b610a108787878473ffffffffffffffffffffffffffffffffffffffff16610e56909392919063ffffffff16565b3073ffffffffffffffffffffffffffffffffffffffff168773ffffffffffffffffffffffffffffffffffffffff1603610a9a5784600260008473ffffffffffffffffffffffffffffffffffffffff1673ffffffffffffffffffffffffffffffffffffffff1681526020019081526020016000206000828254610a9291906116ce565b925050819055505b8173ffffffffffffffffffffffffffffffffffffffff168673ffffffffffffffffffffffffffffffffffffffff167f6b4b6b0c19db95f8115cbbc9222c0904280ced3214cae0a128151210a5b6ec30878787604051610afb9392919061174f565b60405180910390a350505050505050565b6000610b22826001610cb690919063ffffffff16565b610b61576040517f08c379a0000000000000000000000000000000000000000000000000000000008152600401610b5890611877565b60405180910390fd5b600260008373ffffffffffffffffffffffffffffffffffffffff1673ffffffffffffffffffffffffffffffffffffffff168152602001908152602001600020549050919050565b610bb0610c38565b505050565b610bbd610c38565b600073ffffffffffffffffffffffffffffffffffffffff168173ffffffffffffffffffffffffffffffffffffffff1603610c2c576040517f08c379a0000000000000000000000000000000000000000000000000000000008152600401610c23906119eb565b60405180910390fd5b610c3581610d92565b50565b610c40610edf565b73ffffffffffffffffffffffffffffffffffffffff16610c5e610813565b73ffffffffffffffffffffffffffffffffffffffff1614610cb4576040517f08c379a0000000000000000000000000000000000000000000000000000000008152600401610cab90611a57565b60405180910390fd5b565b60008260008373ffffffffffffffffffffffffffffffffffffffff1673ffffffffffffffffffffffffffffffffffffffff16815260200190815260200160002060009054906101000a900460ff16905092915050565b610d8d8363a9059cbb60e01b8484604051602401610d2b929190611a77565b604051602081830303815290604052907bffffffffffffffffffffffffffffffffffffffffffffffffffffffff19166020820180517bffffffffffffffffffffffffffffffffffffffffffffffffffffffff8381831617835250505050610ee7565b505050565b60008060009054906101000a900473ffffffffffffffffffffffffffffffffffffffff169050816000806101000a81548173ffffffffffffffffffffffffffffffffffffffff021916908373ffffffffffffffffffffffffffffffffffffffff1602179055508173ffffffffffffffffffffffffffffffffffffffff168173ffffffffffffffffffffffffffffffffffffffff167f8be0079c531659141344cd1fd0a4f28419497f9722a3daafe3b4186f6b6457e060405160405180910390a35050565b610ed9846323b872dd60e01b858585604051602401610e7793929190611aa0565b604051602081830303815290604052907bffffffffffffffffffffffffffffffffffffffffffffffffffffffff19166020820180517bffffffffffffffffffffffffffffffffffffffffffffffffffffffff8381831617835250505050610ee7565b50505050565b600033905090565b6000610f49826040518060400160405280602081526020017f5361666545524332303a206c6f772d6c6576656c2063616c6c206661696c65648152508573ffffffffffffffffffffffffffffffffffffffff16610fae9092919063ffffffff16565b9050600081511115610fa95780806020019051810190610f699190611b0f565b610fa8576040517f08c379a0000000000000000000000000000000000000000000000000000000008152600401610f9f90611bae565b60405180910390fd5b5b505050565b6060610fbd8484600085610fc6565b90509392505050565b60608247101561100b576040517f08c379a000000000000000000000000000000000000000000000000000000000815260040161100290611c40565b60405180910390fd5b6000808673ffffffffffffffffffffffffffffffffffffffff1685876040516110349190611cd1565b60006040518083038185875af1925050503d8060008114611071576040519150601f19603f3d011682016040523d82523d6000602084013e611076565b606091505b509150915061108787838387611093565b92505050949350505050565b606083156110f55760008351036110ed576110ad85611108565b6110ec576040517f08c379a00000000000000000000000000000000000000000000000000000000081526004016110e390611d34565b60405180910390fd5b5b829050611100565b6110ff838361112b565b5b949350505050565b6000808273ffffffffffffffffffffffffffffffffffffffff163b119050919050565b60008251111561113e5781518083602001fd5b806040517f08c379a00000000000000000000000000000000000000000000000000000000081526004016111729190611d98565b60405180910390fd5b600080fd5b600080fd5b600073ffffffffffffffffffffffffffffffffffffffff82169050919050565b60006111b082611185565b9050919050565b6111c0816111a5565b81146111cb57600080fd5b50565b6000813590506111dd816111b7565b92915050565b6000819050919050565b6111f6816111e3565b811461120157600080fd5b50565b600081359050611213816111ed565b92915050565b600080fd5b600080fd5b600080fd5b60008083601f84011261123e5761123d611219565b5b8235905067ffffffffffffffff81111561125b5761125a61121e565b5b60208301915083600182028301111561127757611276611223565b5b9250929050565b600080600080606085870312156112985761129761117b565b5b60006112a6878288016111ce565b94505060206112b787828801611204565b935050604085013567ffffffffffffffff8111156112d8576112d7611180565b5b6112e487828801611228565b925092505092959194509250565b6000806000806060858703121561130c5761130b61117b565b5b600061131a87828801611204565b945050602085013567ffffffffffffffff81111561133b5761133a611180565b5b61134787828801611228565b9350935050604061135a878288016111ce565b91505092959194509250565b6000806000806000608086880312156113825761138161117b565b5b6000611390888289016111ce565b95505060206113a188828901611204565b945050604086013567ffffffffffffffff8111156113c2576113c1611180565b5b6113ce88828901611228565b935093505060606113e1888289016111ce565b9150509295509295909350565b6113f7816111a5565b82525050565b600060208201905061141260008301846113ee565b92915050565b611421816111e3565b82525050565b600060208201905061143c6000830184611418565b92915050565b600080602083850312156114595761145861117b565b5b600083013567ffffffffffffffff81111561147757611476611180565b5b61148385828601611228565b92509250509250929050565b6000602082840312156114a5576114a461117b565b5b60006114b3848285016111ce565b91505092915050565b60008060008060008060a087890312156114d9576114d861117b565b5b60006114e789828a016111ce565b96505060206114f889828a016111ce565b955050604061150989828a01611204565b945050606087013567ffffffffffffffff81111561152a57611529611180565b5b61153689828a01611228565b9350935050608061154989828a016111ce565b9150509295509295509295565b60008060006040848603121561156f5761156e61117b565b5b600061157d86828701611204565b935050602084013567ffffffffffffffff81111561159e5761159d611180565b5b6115aa86828701611228565b92509250509250925092565b600082825260208201905092915050565b7f4e6f7420737570706f7274656420746f6b656e00000000000000000000000000600082015250565b60006115fd6013836115b6565b9150611608826115c7565b602082019050919050565b6000602082019050818103600083015261162c816115f0565b9050919050565b7f496e73756666696369656e742066756e64730000000000000000000000000000600082015250565b60006116696012836115b6565b915061167482611633565b602082019050919050565b600060208201905081810360008301526116988161165c565b9050919050565b7f4e487b7100000000000000000000000000000000000000000000000000000000600052601160045260246000fd5b60006116d9826111e3565b91506116e4836111e3565b92508282039050818111156116fc576116fb61169f565b5b92915050565b82818337600083830152505050565b6000601f19601f8301169050919050565b600061172e83856115b6565b935061173b838584611702565b61174483611711565b840190509392505050565b60006040820190506117646000830186611418565b8181036020830152611777818486611722565b9050949350505050565b600060a08201905061179660008301896113ee565b6117a360208301886113ee565b6117b06040830187611418565b81810360608301526117c3818587611722565b90506117d260808301846113ee565b979650505050505050565b60006080820190506117f260008301886113ee565b6117ff6020830187611418565b8181036040830152611812818587611722565b905061182160608301846113ee565b9695505050505050565b7f556e73757270706f7274656420746f6b656e2100000000000000000000000000600082015250565b60006118616013836115b6565b915061186c8261182b565b602082019050919050565b6000602082019050818103600083015261189081611854565b9050919050565b6000815190506118a6816111ed565b92915050565b6000602082840312156118c2576118c161117b565b5b60006118d084828501611897565b91505092915050565b7f496e73756666696369656e742062616c616e63652066756e6473000000000000600082015250565b600061190f601a836115b6565b915061191a826118d9565b602082019050919050565b6000602082019050818103600083015261193e81611902565b9050919050565b6000611950826111e3565b915061195b836111e3565b92508282019050808211156119735761197261169f565b5b92915050565b7f4f776e61626c653a206e6577206f776e657220697320746865207a65726f206160008201527f6464726573730000000000000000000000000000000000000000000000000000602082015250565b60006119d56026836115b6565b91506119e082611979565b604082019050919050565b60006020820190508181036000830152611a04816119c8565b9050919050565b7f4f776e61626c653a2063616c6c6572206973206e6f7420746865206f776e6572600082015250565b6000611a416020836115b6565b9150611a4c82611a0b565b602082019050919050565b60006020820190508181036000830152611a7081611a34565b9050919050565b6000604082019050611a8c60008301856113ee565b611a996020830184611418565b9392505050565b6000606082019050611ab560008301866113ee565b611ac260208301856113ee565b611acf6040830184611418565b949350505050565b60008115159050919050565b611aec81611ad7565b8114611af757600080fd5b50565b600081519050611b0981611ae3565b92915050565b600060208284031215611b2557611b2461117b565b5b6000611b3384828501611afa565b91505092915050565b7f5361666545524332303a204552433230206f7065726174696f6e20646964206e60008201527f6f74207375636365656400000000000000000000000000000000000000000000602082015250565b6000611b98602a836115b6565b9150611ba382611b3c565b604082019050919050565b60006020820190508181036000830152611bc781611b8b565b9050919050565b7f416464726573733a20696e73756666696369656e742062616c616e636520666f60008201527f722063616c6c0000000000000000000000000000000000000000000000000000602082015250565b6000611c2a6026836115b6565b9150611c3582611bce565b604082019050919050565b60006020820190508181036000830152611c5981611c1d565b9050919050565b600081519050919050565b600081905092915050565b60005b83811015611c94578082015181840152602081019050611c79565b60008484015250505050565b6000611cab82611c60565b611cb58185611c6b565b9350611cc5818560208601611c76565b80840191505092915050565b6000611cdd8284611ca0565b915081905092915050565b7f416464726573733a2063616c6c20746f206e6f6e2d636f6e7472616374000000600082015250565b6000611d1e601d836115b6565b9150611d2982611ce8565b602082019050919050565b60006020820190508181036000830152611d4d81611d11565b9050919050565b600081519050919050565b6000611d6a82611d54565b611d7481856115b6565b9350611d84818560208601611c76565b611d8d81611711565b840191505092915050565b60006020820190508181036000830152611db28184611d5f565b90509291505056fea2646970667358221220a8f032df88e1a0338efae59a6b4e158a2a02384485ff393778a8b245108f4bd464736f6c63430008120033",
					"opcodes": "PUSH1 0x80 PUSH1 0x40 MSTORE CALLVALUE DUP1 ISZERO PUSH2 0x10 JUMPI PUSH1 0x0 DUP1 REVERT JUMPDEST POP PUSH2 0x2D PUSH2 0x22 PUSH2 0x108 PUSH1 0x20 SHL PUSH1 0x20 SHR JUMP JUMPDEST PUSH2 0x110 PUSH1 0x20 SHL PUSH1 0x20 SHR JUMP JUMPDEST PUSH1 0x1 DUP1 PUSH1 0x0 PUSH20 0xDAC17F958D2EE523A2206206994597C13D831EC7 PUSH20 0xFFFFFFFFFFFFFFFFFFFFFFFFFFFFFFFFFFFFFFFF AND PUSH20 0xFFFFFFFFFFFFFFFFFFFFFFFFFFFFFFFFFFFFFFFF AND DUP2 MSTORE PUSH1 0x20 ADD SWAP1 DUP2 MSTORE PUSH1 0x20 ADD PUSH1 0x0 KECCAK256 PUSH1 0x0 PUSH2 0x100 EXP DUP2 SLOAD DUP2 PUSH1 0xFF MUL NOT AND SWAP1 DUP4 ISZERO ISZERO MUL OR SWAP1 SSTORE POP PUSH1 0x1 DUP1 PUSH1 0x0 PUSH20 0xA0B86991C6218B36C1D19D4A2E9EB0CE3606EB48 PUSH20 0xFFFFFFFFFFFFFFFFFFFFFFFFFFFFFFFFFFFFFFFF AND PUSH20 0xFFFFFFFFFFFFFFFFFFFFFFFFFFFFFFFFFFFFFFFF AND DUP2 MSTORE PUSH1 0x20 ADD SWAP1 DUP2 MSTORE PUSH1 0x20 ADD PUSH1 0x0 KECCAK256 PUSH1 0x0 PUSH2 0x100 EXP DUP2 SLOAD DUP2 PUSH1 0xFF MUL NOT AND SWAP1 DUP4 ISZERO ISZERO MUL OR SWAP1 SSTORE POP PUSH2 0x1D4 JUMP JUMPDEST PUSH1 0x0 CALLER SWAP1 POP SWAP1 JUMP JUMPDEST PUSH1 0x0 DUP1 PUSH1 0x0 SWAP1 SLOAD SWAP1 PUSH2 0x100 EXP SWAP1 DIV PUSH20 0xFFFFFFFFFFFFFFFFFFFFFFFFFFFFFFFFFFFFFFFF AND SWAP1 POP DUP2 PUSH1 0x0 DUP1 PUSH2 0x100 EXP DUP2 SLOAD DUP2 PUSH20 0xFFFFFFFFFFFFFFFFFFFFFFFFFFFFFFFFFFFFFFFF MUL NOT AND SWAP1 DUP4 PUSH20 0xFFFFFFFFFFFFFFFFFFFFFFFFFFFFFFFFFFFFFFFF AND MUL OR SWAP1 SSTORE POP DUP2 PUSH20 0xFFFFFFFFFFFFFFFFFFFFFFFFFFFFFFFFFFFFFFFF AND DUP2 PUSH20 0xFFFFFFFFFFFFFFFFFFFFFFFFFFFFFFFFFFFFFFFF AND PUSH32 0x8BE0079C531659141344CD1FD0A4F28419497F9722A3DAAFE3B4186F6B6457E0 PUSH1 0x40 MLOAD PUSH1 0x40 MLOAD DUP1 SWAP2 SUB SWAP1 LOG3 POP POP JUMP JUMPDEST PUSH2 0x1DF0 DUP1 PUSH2 0x1E3 PUSH1 0x0 CODECOPY PUSH1 0x0 RETURN INVALID PUSH1 0x80 PUSH1 0x40 MSTORE PUSH1 0x4 CALLDATASIZE LT PUSH2 0xDD JUMPI PUSH1 0x0 CALLDATALOAD PUSH1 0xE0 SHR DUP1 PUSH4 0x8EA5B802 GT PUSH2 0x7F JUMPI DUP1 PUSH4 0xCC86A503 GT PUSH2 0x59 JUMPI DUP1 PUSH4 0xCC86A503 EQ PUSH2 0x261 JUMPI DUP1 PUSH4 0xD93DB24F EQ PUSH2 0x28A JUMPI DUP1 PUSH4 0xE6CD186F EQ PUSH2 0x2C7 JUMPI DUP1 PUSH4 0xF2FDE38B EQ PUSH2 0x2F0 JUMPI PUSH2 0xDD JUMP JUMPDEST DUP1 PUSH4 0x8EA5B802 EQ PUSH2 0x1F1 JUMPI DUP1 PUSH4 0xAF7D51F5 EQ PUSH2 0x21C JUMPI DUP1 PUSH4 0xB30917AD EQ PUSH2 0x238 JUMPI PUSH2 0xDD JUMP JUMPDEST DUP1 PUSH4 0x711E0EE7 GT PUSH2 0xBB JUMPI DUP1 PUSH4 0x711E0EE7 EQ PUSH2 0x15D JUMPI DUP1 PUSH4 0x715018A6 EQ PUSH2 0x186 JUMPI DUP1 PUSH4 0x793191F1 EQ PUSH2 0x19D JUMPI DUP1 PUSH4 0x8DA5CB5B EQ PUSH2 0x1C6 JUMPI PUSH2 0xDD JUMP JUMPDEST DUP1 PUSH4 0x290579B EQ PUSH2 0xE2 JUMPI DUP1 PUSH4 0x58598DAD EQ PUSH2 0x10B JUMPI DUP1 PUSH4 0x70D47134 EQ PUSH2 0x134 JUMPI JUMPDEST PUSH1 0x0 DUP1 REVERT JUMPDEST CALLVALUE DUP1 ISZERO PUSH2 0xEE JUMPI PUSH1 0x0 DUP1 REVERT JUMPDEST POP PUSH2 0x109 PUSH1 0x4 DUP1 CALLDATASIZE SUB DUP2 ADD SWAP1 PUSH2 0x104 SWAP2 SWAP1 PUSH2 0x127E JUMP JUMPDEST PUSH2 0x319 JUMP JUMPDEST STOP JUMPDEST CALLVALUE DUP1 ISZERO PUSH2 0x117 JUMPI PUSH1 0x0 DUP1 REVERT JUMPDEST POP PUSH2 0x132 PUSH1 0x4 DUP1 CALLDATASIZE SUB DUP2 ADD SWAP1 PUSH2 0x12D SWAP2 SWAP1 PUSH2 0x12F2 JUMP JUMPDEST PUSH2 0x327 JUMP JUMPDEST STOP JUMPDEST CALLVALUE DUP1 ISZERO PUSH2 0x140 JUMPI PUSH1 0x0 DUP1 REVERT JUMPDEST POP PUSH2 0x15B PUSH1 0x4 DUP1 CALLDATASIZE SUB DUP2 ADD SWAP1 PUSH2 0x156 SWAP2 SWAP1 PUSH2 0x1366 JUMP JUMPDEST PUSH2 0x4FA JUMP JUMPDEST STOP JUMPDEST CALLVALUE DUP1 ISZERO PUSH2 0x169 JUMPI PUSH1 0x0 DUP1 REVERT JUMPDEST POP PUSH2 0x184 PUSH1 0x4 DUP1 CALLDATASIZE SUB DUP2 ADD SWAP1 PUSH2 0x17F SWAP2 SWAP1 PUSH2 0x12F2 JUMP JUMPDEST PUSH2 0x57E JUMP JUMPDEST STOP JUMPDEST CALLVALUE DUP1 ISZERO PUSH2 0x192 JUMPI PUSH1 0x0 DUP1 REVERT JUMPDEST POP PUSH2 0x19B PUSH2 0x5F7 JUMP JUMPDEST STOP JUMPDEST CALLVALUE DUP1 ISZERO PUSH2 0x1A9 JUMPI PUSH1 0x0 DUP1 REVERT JUMPDEST POP PUSH2 0x1C4 PUSH1 0x4 DUP1 CALLDATASIZE SUB DUP2 ADD SWAP1 PUSH2 0x1BF SWAP2 SWAP1 PUSH2 0x1366 JUMP JUMPDEST PUSH2 0x60B JUMP JUMPDEST STOP JUMPDEST CALLVALUE DUP1 ISZERO PUSH2 0x1D2 JUMPI PUSH1 0x0 DUP1 REVERT JUMPDEST POP PUSH2 0x1DB PUSH2 0x813 JUMP JUMPDEST PUSH1 0x40 MLOAD PUSH2 0x1E8 SWAP2 SWAP1 PUSH2 0x13FD JUMP JUMPDEST PUSH1 0x40 MLOAD DUP1 SWAP2 SUB SWAP1 RETURN JUMPDEST CALLVALUE DUP1 ISZERO PUSH2 0x1FD JUMPI PUSH1 0x0 DUP1 REVERT JUMPDEST POP PUSH2 0x206 PUSH2 0x83C JUMP JUMPDEST PUSH1 0x40 MLOAD PUSH2 0x213 SWAP2 SWAP1 PUSH2 0x1427 JUMP JUMPDEST PUSH1 0x40 MLOAD DUP1 SWAP2 SUB SWAP1 RETURN JUMPDEST PUSH2 0x236 PUSH1 0x4 DUP1 CALLDATASIZE SUB DUP2 ADD SWAP1 PUSH2 0x231 SWAP2 SWAP1 PUSH2 0x1442 JUMP JUMPDEST PUSH2 0x841 JUMP JUMPDEST STOP JUMPDEST CALLVALUE DUP1 ISZERO PUSH2 0x244 JUMPI PUSH1 0x0 DUP1 REVERT JUMPDEST POP PUSH2 0x25F PUSH1 0x4 DUP1 CALLDATASIZE SUB DUP2 ADD SWAP1 PUSH2 0x25A SWAP2 SWAP1 PUSH2 0x148F JUMP JUMPDEST PUSH2 0x845 JUMP JUMPDEST STOP JUMPDEST CALLVALUE DUP1 ISZERO PUSH2 0x26D JUMPI PUSH1 0x0 DUP1 REVERT JUMPDEST POP PUSH2 0x288 PUSH1 0x4 DUP1 CALLDATASIZE SUB DUP2 ADD SWAP1 PUSH2 0x283 SWAP2 SWAP1 PUSH2 0x14BC JUMP JUMPDEST PUSH2 0x8C7 JUMP JUMPDEST STOP JUMPDEST CALLVALUE DUP1 ISZERO PUSH2 0x296 JUMPI PUSH1 0x0 DUP1 REVERT JUMPDEST POP PUSH2 0x2B1 PUSH1 0x4 DUP1 CALLDATASIZE SUB DUP2 ADD SWAP1 PUSH2 0x2AC SWAP2 SWAP1 PUSH2 0x148F JUMP JUMPDEST PUSH2 0xB0C JUMP JUMPDEST PUSH1 0x40 MLOAD PUSH2 0x2BE SWAP2 SWAP1 PUSH2 0x1427 JUMP JUMPDEST PUSH1 0x40 MLOAD DUP1 SWAP2 SUB SWAP1 RETURN JUMPDEST CALLVALUE DUP1 ISZERO PUSH2 0x2D3 JUMPI PUSH1 0x0 DUP1 REVERT JUMPDEST POP PUSH2 0x2EE PUSH1 0x4 DUP1 CALLDATASIZE SUB DUP2 ADD SWAP1 PUSH2 0x2E9 SWAP2 SWAP1 PUSH2 0x1556 JUMP JUMPDEST PUSH2 0xBA8 JUMP JUMPDEST STOP JUMPDEST CALLVALUE DUP1 ISZERO PUSH2 0x2FC JUMPI PUSH1 0x0 DUP1 REVERT JUMPDEST POP PUSH2 0x317 PUSH1 0x4 DUP1 CALLDATASIZE SUB DUP2 ADD SWAP1 PUSH2 0x312 SWAP2 SWAP1 PUSH2 0x148F JUMP JUMPDEST PUSH2 0xBB5 JUMP JUMPDEST STOP JUMPDEST PUSH2 0x321 PUSH2 0xC38 JUMP JUMPDEST POP POP POP POP JUMP JUMPDEST PUSH2 0x32F PUSH2 0xC38 JUMP JUMPDEST PUSH2 0x343 DUP2 PUSH1 0x1 PUSH2 0xCB6 SWAP1 SWAP2 SWAP1 PUSH4 0xFFFFFFFF AND JUMP JUMPDEST PUSH2 0x382 JUMPI PUSH1 0x40 MLOAD PUSH32 0x8C379A000000000000000000000000000000000000000000000000000000000 DUP2 MSTORE PUSH1 0x4 ADD PUSH2 0x379 SWAP1 PUSH2 0x1613 JUMP JUMPDEST PUSH1 0x40 MLOAD DUP1 SWAP2 SUB SWAP1 REVERT JUMPDEST DUP4 PUSH1 0x2 PUSH1 0x0 DUP4 PUSH20 0xFFFFFFFFFFFFFFFFFFFFFFFFFFFFFFFFFFFFFFFF AND PUSH20 0xFFFFFFFFFFFFFFFFFFFFFFFFFFFFFFFFFFFFFFFF AND DUP2 MSTORE PUSH1 0x20 ADD SWAP1 DUP2 MSTORE PUSH1 0x20 ADD PUSH1 0x0 KECCAK256 SLOAD LT ISZERO PUSH2 0x404 JUMPI PUSH1 0x40 MLOAD PUSH32 0x8C379A000000000000000000000000000000000000000000000000000000000 DUP2 MSTORE PUSH1 0x4 ADD PUSH2 0x3FB SWAP1 PUSH2 0x167F JUMP JUMPDEST PUSH1 0x40 MLOAD DUP1 SWAP2 SUB SWAP1 REVERT JUMPDEST PUSH1 0x0 DUP2 SWAP1 POP PUSH2 0x434 CALLER DUP7 DUP4 PUSH20 0xFFFFFFFFFFFFFFFFFFFFFFFFFFFFFFFFFFFFFFFF AND PUSH2 0xD0C SWAP1 SWAP3 SWAP2 SWAP1 PUSH4 0xFFFFFFFF AND JUMP JUMPDEST DUP5 PUSH1 0x2 PUSH1 0x0 DUP5 PUSH20 0xFFFFFFFFFFFFFFFFFFFFFFFFFFFFFFFFFFFFFFFF AND PUSH20 0xFFFFFFFFFFFFFFFFFFFFFFFFFFFFFFFFFFFFFFFF AND DUP2 MSTORE PUSH1 0x20 ADD SWAP1 DUP2 MSTORE PUSH1 0x20 ADD PUSH1 0x0 KECCAK256 PUSH1 0x0 DUP3 DUP3 SLOAD PUSH2 0x483 SWAP2 SWAP1 PUSH2 0x16CE JUMP JUMPDEST SWAP3 POP POP DUP2 SWAP1 SSTORE POP DUP2 PUSH20 0xFFFFFFFFFFFFFFFFFFFFFFFFFFFFFFFFFFFFFFFF AND CALLER PUSH20 0xFFFFFFFFFFFFFFFFFFFFFFFFFFFFFFFFFFFFFFFF AND PUSH32 0x3822DA7C1846353DA157717DD7E95DB54B4FFE105A04F5042CDF2CB1ADADB283 DUP8 DUP8 DUP8 PUSH1 0x40 MLOAD PUSH2 0x4EB SWAP4 SWAP3 SWAP2 SWAP1 PUSH2 0x174F JUMP JUMPDEST PUSH1 0x40 MLOAD DUP1 SWAP2 SUB SWAP1 LOG3 POP POP POP POP POP JUMP JUMPDEST PUSH2 0x502 PUSH2 0xC38 JUMP JUMPDEST ADDRESS PUSH20 0xFFFFFFFFFFFFFFFFFFFFFFFFFFFFFFFFFFFFFFFF AND PUSH4 0xCC86A503 ADDRESS DUP8 DUP8 DUP8 DUP8 DUP8 PUSH1 0x40 MLOAD DUP8 PUSH4 0xFFFFFFFF AND PUSH1 0xE0 SHL DUP2 MSTORE PUSH1 0x4 ADD PUSH2 0x545 SWAP7 SWAP6 SWAP5 SWAP4 SWAP3 SWAP2 SWAP1 PUSH2 0x1781 JUMP JUMPDEST PUSH1 0x0 PUSH1 0x40 MLOAD DUP1 DUP4 SUB DUP2 PUSH1 0x0 DUP8 DUP1 EXTCODESIZE ISZERO DUP1 ISZERO PUSH2 0x55F JUMPI PUSH1 0x0 DUP1 REVERT JUMPDEST POP GAS CALL ISZERO DUP1 ISZERO PUSH2 0x573 JUMPI RETURNDATASIZE PUSH1 0x0 DUP1 RETURNDATACOPY RETURNDATASIZE PUSH1 0x0 REVERT JUMPDEST POP POP POP POP POP POP POP POP POP JUMP JUMPDEST ADDRESS PUSH20 0xFFFFFFFFFFFFFFFFFFFFFFFFFFFFFFFFFFFFFFFF AND PUSH4 0x793191F1 CALLER DUP7 DUP7 DUP7 DUP7 PUSH1 0x40 MLOAD DUP7 PUSH4 0xFFFFFFFF AND PUSH1 0xE0 SHL DUP2 MSTORE PUSH1 0x4 ADD PUSH2 0x5BF SWAP6 SWAP5 SWAP4 SWAP3 SWAP2 SWAP1 PUSH2 0x17DD JUMP JUMPDEST PUSH1 0x0 PUSH1 0x40 MLOAD DUP1 DUP4 SUB DUP2 PUSH1 0x0 DUP8 DUP1 EXTCODESIZE ISZERO DUP1 ISZERO PUSH2 0x5D9 JUMPI PUSH1 0x0 DUP1 REVERT JUMPDEST POP GAS CALL ISZERO DUP1 ISZERO PUSH2 0x5ED JUMPI RETURNDATASIZE PUSH1 0x0 DUP1 RETURNDATACOPY RETURNDATASIZE PUSH1 0x0 REVERT JUMPDEST POP POP POP POP POP POP POP POP JUMP JUMPDEST PUSH2 0x5FF PUSH2 0xC38 JUMP JUMPDEST PUSH2 0x609 PUSH1 0x0 PUSH2 0xD92 JUMP JUMPDEST JUMP JUMPDEST PUSH2 0x61F DUP2 PUSH1 0x1 PUSH2 0xCB6 SWAP1 SWAP2 SWAP1 PUSH4 0xFFFFFFFF AND JUMP JUMPDEST PUSH2 0x65E JUMPI PUSH1 0x40 MLOAD PUSH32 0x8C379A000000000000000000000000000000000000000000000000000000000 DUP2 MSTORE PUSH1 0x4 ADD PUSH2 0x655 SWAP1 PUSH2 0x1877 JUMP JUMPDEST PUSH1 0x40 MLOAD DUP1 SWAP2 SUB SWAP1 REVERT JUMPDEST PUSH1 0x0 DUP2 SWAP1 POP DUP5 DUP2 PUSH20 0xFFFFFFFFFFFFFFFFFFFFFFFFFFFFFFFFFFFFFFFF AND PUSH4 0x70A08231 DUP9 PUSH1 0x40 MLOAD DUP3 PUSH4 0xFFFFFFFF AND PUSH1 0xE0 SHL DUP2 MSTORE PUSH1 0x4 ADD PUSH2 0x69D SWAP2 SWAP1 PUSH2 0x13FD JUMP JUMPDEST PUSH1 0x20 PUSH1 0x40 MLOAD DUP1 DUP4 SUB DUP2 DUP7 GAS STATICCALL ISZERO DUP1 ISZERO PUSH2 0x6BA JUMPI RETURNDATASIZE PUSH1 0x0 DUP1 RETURNDATACOPY RETURNDATASIZE PUSH1 0x0 REVERT JUMPDEST POP POP POP POP PUSH1 0x40 MLOAD RETURNDATASIZE PUSH1 0x1F NOT PUSH1 0x1F DUP3 ADD AND DUP3 ADD DUP1 PUSH1 0x40 MSTORE POP DUP2 ADD SWAP1 PUSH2 0x6DE SWAP2 SWAP1 PUSH2 0x18AC JUMP JUMPDEST LT ISZERO PUSH2 0x71F JUMPI PUSH1 0x40 MLOAD PUSH32 0x8C379A000000000000000000000000000000000000000000000000000000000 DUP2 MSTORE PUSH1 0x4 ADD PUSH2 0x716 SWAP1 PUSH2 0x1925 JUMP JUMPDEST PUSH1 0x40 MLOAD DUP1 SWAP2 SUB SWAP1 REVERT JUMPDEST PUSH2 0x74C DUP7 ADDRESS DUP8 DUP5 PUSH20 0xFFFFFFFFFFFFFFFFFFFFFFFFFFFFFFFFFFFFFFFF AND PUSH2 0xE56 SWAP1 SWAP4 SWAP3 SWAP2 SWAP1 PUSH4 0xFFFFFFFF AND JUMP JUMPDEST DUP5 PUSH1 0x2 PUSH1 0x0 DUP5 PUSH20 0xFFFFFFFFFFFFFFFFFFFFFFFFFFFFFFFFFFFFFFFF AND PUSH20 0xFFFFFFFFFFFFFFFFFFFFFFFFFFFFFFFFFFFFFFFF AND DUP2 MSTORE PUSH1 0x20 ADD SWAP1 DUP2 MSTORE PUSH1 0x20 ADD PUSH1 0x0 KECCAK256 PUSH1 0x0 DUP3 DUP3 SLOAD PUSH2 0x79B SWAP2 SWAP1 PUSH2 0x1945 JUMP JUMPDEST SWAP3 POP POP DUP2 SWAP1 SSTORE POP DUP2 PUSH20 0xFFFFFFFFFFFFFFFFFFFFFFFFFFFFFFFFFFFFFFFF AND DUP7 PUSH20 0xFFFFFFFFFFFFFFFFFFFFFFFFFFFFFFFFFFFFFFFF AND PUSH32 0x5813E31687B98924E93D090022C25C96EF51B871564C433D5823E936DC3B4397 DUP8 DUP8 DUP8 PUSH1 0x40 MLOAD PUSH2 0x803 SWAP4 SWAP3 SWAP2 SWAP1 PUSH2 0x174F JUMP JUMPDEST PUSH1 0x40 MLOAD DUP1 SWAP2 SUB SWAP1 LOG3 POP POP POP POP POP POP JUMP JUMPDEST PUSH1 0x0 DUP1 PUSH1 0x0 SWAP1 SLOAD SWAP1 PUSH2 0x100 EXP SWAP1 DIV PUSH20 0xFFFFFFFFFFFFFFFFFFFFFFFFFFFFFFFFFFFFFFFF AND SWAP1 POP SWAP1 JUMP JUMPDEST PUSH1 0x0 SWAP1 JUMP JUMPDEST POP POP JUMP JUMPDEST PUSH2 0x84D PUSH2 0xC38 JUMP JUMPDEST PUSH1 0x0 ISZERO ISZERO PUSH2 0x865 DUP3 PUSH1 0x1 PUSH2 0xCB6 SWAP1 SWAP2 SWAP1 PUSH4 0xFFFFFFFF AND JUMP JUMPDEST ISZERO ISZERO SUB PUSH2 0x8C4 JUMPI PUSH1 0x1 DUP1 PUSH1 0x0 DUP4 PUSH20 0xFFFFFFFFFFFFFFFFFFFFFFFFFFFFFFFFFFFFFFFF AND PUSH20 0xFFFFFFFFFFFFFFFFFFFFFFFFFFFFFFFFFFFFFFFF AND DUP2 MSTORE PUSH1 0x20 ADD SWAP1 DUP2 MSTORE PUSH1 0x20 ADD PUSH1 0x0 KECCAK256 PUSH1 0x0 PUSH2 0x100 EXP DUP2 SLOAD DUP2 PUSH1 0xFF MUL NOT AND SWAP1 DUP4 ISZERO ISZERO MUL OR SWAP1 SSTORE POP JUMPDEST POP JUMP JUMPDEST PUSH2 0x8CF PUSH2 0xC38 JUMP JUMPDEST PUSH2 0x8E3 DUP2 PUSH1 0x1 PUSH2 0xCB6 SWAP1 SWAP2 SWAP1 PUSH4 0xFFFFFFFF AND JUMP JUMPDEST PUSH2 0x922 JUMPI PUSH1 0x40 MLOAD PUSH32 0x8C379A000000000000000000000000000000000000000000000000000000000 DUP2 MSTORE PUSH1 0x4 ADD PUSH2 0x919 SWAP1 PUSH2 0x1877 JUMP JUMPDEST PUSH1 0x40 MLOAD DUP1 SWAP2 SUB SWAP1 REVERT JUMPDEST PUSH1 0x0 DUP2 SWAP1 POP DUP5 DUP2 PUSH20 0xFFFFFFFFFFFFFFFFFFFFFFFFFFFFFFFFFFFFFFFF AND PUSH4 0x70A08231 DUP10 PUSH1 0x40 MLOAD DUP3 PUSH4 0xFFFFFFFF AND PUSH1 0xE0 SHL DUP2 MSTORE PUSH1 0x4 ADD PUSH2 0x961 SWAP2 SWAP1 PUSH2 0x13FD JUMP JUMPDEST PUSH1 0x20 PUSH1 0x40 MLOAD DUP1 DUP4 SUB DUP2 DUP7 GAS STATICCALL ISZERO DUP1 ISZERO PUSH2 0x97E JUMPI RETURNDATASIZE PUSH1 0x0 DUP1 RETURNDATACOPY RETURNDATASIZE PUSH1 0x0 REVERT JUMPDEST POP POP POP POP PUSH1 0x40 MLOAD RETURNDATASIZE PUSH1 0x1F NOT PUSH1 0x1F DUP3 ADD AND DUP3 ADD DUP1 PUSH1 0x40 MSTORE POP DUP2 ADD SWAP1 PUSH2 0x9A2 SWAP2 SWAP1 PUSH2 0x18AC JUMP JUMPDEST LT ISZERO PUSH2 0x9E3 JUMPI PUSH1 0x40 MLOAD PUSH32 0x8C379A000000000000000000000000000000000000000000000000000000000 DUP2 MSTORE PUSH1 0x4 ADD PUSH2 0x9DA SWAP1 PUSH2 0x1925 JUMP JUMPDEST PUSH1 0x40 MLOAD DUP1 SWAP2 SUB SWAP1 REVERT JUMPDEST PUSH2 0xA10 DUP8 DUP8 DUP8 DUP5 PUSH20 0xFFFFFFFFFFFFFFFFFFFFFFFFFFFFFFFFFFFFFFFF AND PUSH2 0xE56 SWAP1 SWAP4 SWAP3 SWAP2 SWAP1 PUSH4 0xFFFFFFFF AND JUMP JUMPDEST ADDRESS PUSH20 0xFFFFFFFFFFFFFFFFFFFFFFFFFFFFFFFFFFFFFFFF AND DUP8 PUSH20 0xFFFFFFFFFFFFFFFFFFFFFFFFFFFFFFFFFFFFFFFF AND SUB PUSH2 0xA9A JUMPI DUP5 PUSH1 0x2 PUSH1 0x0 DUP5 PUSH20 0xFFFFFFFFFFFFFFFFFFFFFFFFFFFFFFFFFFFFFFFF AND PUSH20 0xFFFFFFFFFFFFFFFFFFFFFFFFFFFFFFFFFFFFFFFF AND DUP2 MSTORE PUSH1 0x20 ADD SWAP1 DUP2 MSTORE PUSH1 0x20 ADD PUSH1 0x0 KECCAK256 PUSH1 0x0 DUP3 DUP3 SLOAD PUSH2 0xA92 SWAP2 SWAP1 PUSH2 0x16CE JUMP JUMPDEST SWAP3 POP POP DUP2 SWAP1 SSTORE POP JUMPDEST DUP2 PUSH20 0xFFFFFFFFFFFFFFFFFFFFFFFFFFFFFFFFFFFFFFFF AND DUP7 PUSH20 0xFFFFFFFFFFFFFFFFFFFFFFFFFFFFFFFFFFFFFFFF AND PUSH32 0x6B4B6B0C19DB95F8115CBBC9222C0904280CED3214CAE0A128151210A5B6EC30 DUP8 DUP8 DUP8 PUSH1 0x40 MLOAD PUSH2 0xAFB SWAP4 SWAP3 SWAP2 SWAP1 PUSH2 0x174F JUMP JUMPDEST PUSH1 0x40 MLOAD DUP1 SWAP2 SUB SWAP1 LOG3 POP POP POP POP POP POP POP JUMP JUMPDEST PUSH1 0x0 PUSH2 0xB22 DUP3 PUSH1 0x1 PUSH2 0xCB6 SWAP1 SWAP2 SWAP1 PUSH4 0xFFFFFFFF AND JUMP JUMPDEST PUSH2 0xB61 JUMPI PUSH1 0x40 MLOAD PUSH32 0x8C379A000000000000000000000000000000000000000000000000000000000 DUP2 MSTORE PUSH1 0x4 ADD PUSH2 0xB58 SWAP1 PUSH2 0x1877 JUMP JUMPDEST PUSH1 0x40 MLOAD DUP1 SWAP2 SUB SWAP1 REVERT JUMPDEST PUSH1 0x2 PUSH1 0x0 DUP4 PUSH20 0xFFFFFFFFFFFFFFFFFFFFFFFFFFFFFFFFFFFFFFFF AND PUSH20 0xFFFFFFFFFFFFFFFFFFFFFFFFFFFFFFFFFFFFFFFF AND DUP2 MSTORE PUSH1 0x20 ADD SWAP1 DUP2 MSTORE PUSH1 0x20 ADD PUSH1 0x0 KECCAK256 SLOAD SWAP1 POP SWAP2 SWAP1 POP JUMP JUMPDEST PUSH2 0xBB0 PUSH2 0xC38 JUMP JUMPDEST POP POP POP JUMP JUMPDEST PUSH2 0xBBD PUSH2 0xC38 JUMP JUMPDEST PUSH1 0x0 PUSH20 0xFFFFFFFFFFFFFFFFFFFFFFFFFFFFFFFFFFFFFFFF AND DUP2 PUSH20 0xFFFFFFFFFFFFFFFFFFFFFFFFFFFFFFFFFFFFFFFF AND SUB PUSH2 0xC2C JUMPI PUSH1 0x40 MLOAD PUSH32 0x8C379A000000000000000000000000000000000000000000000000000000000 DUP2 MSTORE PUSH1 0x4 ADD PUSH2 0xC23 SWAP1 PUSH2 0x19EB JUMP JUMPDEST PUSH1 0x40 MLOAD DUP1 SWAP2 SUB SWAP1 REVERT JUMPDEST PUSH2 0xC35 DUP2 PUSH2 0xD92 JUMP JUMPDEST POP JUMP JUMPDEST PUSH2 0xC40 PUSH2 0xEDF JUMP JUMPDEST PUSH20 0xFFFFFFFFFFFFFFFFFFFFFFFFFFFFFFFFFFFFFFFF AND PUSH2 0xC5E PUSH2 0x813 JUMP JUMPDEST PUSH20 0xFFFFFFFFFFFFFFFFFFFFFFFFFFFFFFFFFFFFFFFF AND EQ PUSH2 0xCB4 JUMPI PUSH1 0x40 MLOAD PUSH32 0x8C379A000000000000000000000000000000000000000000000000000000000 DUP2 MSTORE PUSH1 0x4 ADD PUSH2 0xCAB SWAP1 PUSH2 0x1A57 JUMP JUMPDEST PUSH1 0x40 MLOAD DUP1 SWAP2 SUB SWAP1 REVERT JUMPDEST JUMP JUMPDEST PUSH1 0x0 DUP3 PUSH1 0x0 DUP4 PUSH20 0xFFFFFFFFFFFFFFFFFFFFFFFFFFFFFFFFFFFFFFFF AND PUSH20 0xFFFFFFFFFFFFFFFFFFFFFFFFFFFFFFFFFFFFFFFF AND DUP2 MSTORE PUSH1 0x20 ADD SWAP1 DUP2 MSTORE PUSH1 0x20 ADD PUSH1 0x0 KECCAK256 PUSH1 0x0 SWAP1 SLOAD SWAP1 PUSH2 0x100 EXP SWAP1 DIV PUSH1 0xFF AND SWAP1 POP SWAP3 SWAP2 POP POP JUMP JUMPDEST PUSH2 0xD8D DUP4 PUSH4 0xA9059CBB PUSH1 0xE0 SHL DUP5 DUP5 PUSH1 0x40 MLOAD PUSH1 0x24 ADD PUSH2 0xD2B SWAP3 SWAP2 SWAP1 PUSH2 0x1A77 JUMP JUMPDEST PUSH1 0x40 MLOAD PUSH1 0x20 DUP2 DUP4 SUB SUB DUP2 MSTORE SWAP1 PUSH1 0x40 MSTORE SWAP1 PUSH28 0xFFFFFFFFFFFFFFFFFFFFFFFFFFFFFFFFFFFFFFFFFFFFFFFFFFFFFFFF NOT AND PUSH1 0x20 DUP3 ADD DUP1 MLOAD PUSH28 0xFFFFFFFFFFFFFFFFFFFFFFFFFFFFFFFFFFFFFFFFFFFFFFFFFFFFFFFF DUP4 DUP2 DUP4 AND OR DUP4 MSTORE POP POP POP POP PUSH2 0xEE7 JUMP JUMPDEST POP POP POP JUMP JUMPDEST PUSH1 0x0 DUP1 PUSH1 0x0 SWAP1 SLOAD SWAP1 PUSH2 0x100 EXP SWAP1 DIV PUSH20 0xFFFFFFFFFFFFFFFFFFFFFFFFFFFFFFFFFFFFFFFF AND SWAP1 POP DUP2 PUSH1 0x0 DUP1 PUSH2 0x100 EXP DUP2 SLOAD DUP2 PUSH20 0xFFFFFFFFFFFFFFFFFFFFFFFFFFFFFFFFFFFFFFFF MUL NOT AND SWAP1 DUP4 PUSH20 0xFFFFFFFFFFFFFFFFFFFFFFFFFFFFFFFFFFFFFFFF AND MUL OR SWAP1 SSTORE POP DUP2 PUSH20 0xFFFFFFFFFFFFFFFFFFFFFFFFFFFFFFFFFFFFFFFF AND DUP2 PUSH20 0xFFFFFFFFFFFFFFFFFFFFFFFFFFFFFFFFFFFFFFFF AND PUSH32 0x8BE0079C531659141344CD1FD0A4F28419497F9722A3DAAFE3B4186F6B6457E0 PUSH1 0x40 MLOAD PUSH1 0x40 MLOAD DUP1 SWAP2 SUB SWAP1 LOG3 POP POP JUMP JUMPDEST PUSH2 0xED9 DUP5 PUSH4 0x23B872DD PUSH1 0xE0 SHL DUP6 DUP6 DUP6 PUSH1 0x40 MLOAD PUSH1 0x24 ADD PUSH2 0xE77 SWAP4 SWAP3 SWAP2 SWAP1 PUSH2 0x1AA0 JUMP JUMPDEST PUSH1 0x40 MLOAD PUSH1 0x20 DUP2 DUP4 SUB SUB DUP2 MSTORE SWAP1 PUSH1 0x40 MSTORE SWAP1 PUSH28 0xFFFFFFFFFFFFFFFFFFFFFFFFFFFFFFFFFFFFFFFFFFFFFFFFFFFFFFFF NOT AND PUSH1 0x20 DUP3 ADD DUP1 MLOAD PUSH28 0xFFFFFFFFFFFFFFFFFFFFFFFFFFFFFFFFFFFFFFFFFFFFFFFFFFFFFFFF DUP4 DUP2 DUP4 AND OR DUP4 MSTORE POP POP POP POP PUSH2 0xEE7 JUMP JUMPDEST POP POP POP POP JUMP JUMPDEST PUSH1 0x0 CALLER SWAP1 POP SWAP1 JUMP JUMPDEST PUSH1 0x0 PUSH2 0xF49 DUP3 PUSH1 0x40 MLOAD DUP1 PUSH1 0x40 ADD PUSH1 0x40 MSTORE DUP1 PUSH1 0x20 DUP2 MSTORE PUSH1 0x20 ADD PUSH32 0x5361666545524332303A206C6F772D6C6576656C2063616C6C206661696C6564 DUP2 MSTORE POP DUP6 PUSH20 0xFFFFFFFFFFFFFFFFFFFFFFFFFFFFFFFFFFFFFFFF AND PUSH2 0xFAE SWAP1 SWAP3 SWAP2 SWAP1 PUSH4 0xFFFFFFFF AND JUMP JUMPDEST SWAP1 POP PUSH1 0x0 DUP2 MLOAD GT ISZERO PUSH2 0xFA9 JUMPI DUP1 DUP1 PUSH1 0x20 ADD SWAP1 MLOAD DUP2 ADD SWAP1 PUSH2 0xF69 SWAP2 SWAP1 PUSH2 0x1B0F JUMP JUMPDEST PUSH2 0xFA8 JUMPI PUSH1 0x40 MLOAD PUSH32 0x8C379A000000000000000000000000000000000000000000000000000000000 DUP2 MSTORE PUSH1 0x4 ADD PUSH2 0xF9F SWAP1 PUSH2 0x1BAE JUMP JUMPDEST PUSH1 0x40 MLOAD DUP1 SWAP2 SUB SWAP1 REVERT JUMPDEST JUMPDEST POP POP POP JUMP JUMPDEST PUSH1 0x60 PUSH2 0xFBD DUP5 DUP5 PUSH1 0x0 DUP6 PUSH2 0xFC6 JUMP JUMPDEST SWAP1 POP SWAP4 SWAP3 POP POP POP JUMP JUMPDEST PUSH1 0x60 DUP3 SELFBALANCE LT ISZERO PUSH2 0x100B JUMPI PUSH1 0x40 MLOAD PUSH32 0x8C379A000000000000000000000000000000000000000000000000000000000 DUP2 MSTORE PUSH1 0x4 ADD PUSH2 0x1002 SWAP1 PUSH2 0x1C40 JUMP JUMPDEST PUSH1 0x40 MLOAD DUP1 SWAP2 SUB SWAP1 REVERT JUMPDEST PUSH1 0x0 DUP1 DUP7 PUSH20 0xFFFFFFFFFFFFFFFFFFFFFFFFFFFFFFFFFFFFFFFF AND DUP6 DUP8 PUSH1 0x40 MLOAD PUSH2 0x1034 SWAP2 SWAP1 PUSH2 0x1CD1 JUMP JUMPDEST PUSH1 0x0 PUSH1 0x40 MLOAD DUP1 DUP4 SUB DUP2 DUP6 DUP8 GAS CALL SWAP3 POP POP POP RETURNDATASIZE DUP1 PUSH1 0x0 DUP2 EQ PUSH2 0x1071 JUMPI PUSH1 0x40 MLOAD SWAP2 POP PUSH1 0x1F NOT PUSH1 0x3F RETURNDATASIZE ADD AND DUP3 ADD PUSH1 0x40 MSTORE RETURNDATASIZE DUP3 MSTORE RETURNDATASIZE PUSH1 0x0 PUSH1 0x20 DUP5 ADD RETURNDATACOPY PUSH2 0x1076 JUMP JUMPDEST PUSH1 0x60 SWAP2 POP JUMPDEST POP SWAP2 POP SWAP2 POP PUSH2 0x1087 DUP8 DUP4 DUP4 DUP8 PUSH2 0x1093 JUMP JUMPDEST SWAP3 POP POP POP SWAP5 SWAP4 POP POP POP POP JUMP JUMPDEST PUSH1 0x60 DUP4 ISZERO PUSH2 0x10F5 JUMPI PUSH1 0x0 DUP4 MLOAD SUB PUSH2 0x10ED JUMPI PUSH2 0x10AD DUP6 PUSH2 0x1108 JUMP JUMPDEST PUSH2 0x10EC JUMPI PUSH1 0x40 MLOAD PUSH32 0x8C379A000000000000000000000000000000000000000000000000000000000 DUP2 MSTORE PUSH1 0x4 ADD PUSH2 0x10E3 SWAP1 PUSH2 0x1D34 JUMP JUMPDEST PUSH1 0x40 MLOAD DUP1 SWAP2 SUB SWAP1 REVERT JUMPDEST JUMPDEST DUP3 SWAP1 POP PUSH2 0x1100 JUMP JUMPDEST PUSH2 0x10FF DUP4 DUP4 PUSH2 0x112B JUMP JUMPDEST JUMPDEST SWAP5 SWAP4 POP POP POP POP JUMP JUMPDEST PUSH1 0x0 DUP1 DUP3 PUSH20 0xFFFFFFFFFFFFFFFFFFFFFFFFFFFFFFFFFFFFFFFF AND EXTCODESIZE GT SWAP1 POP SWAP2 SWAP1 POP JUMP JUMPDEST PUSH1 0x0 DUP3 MLOAD GT ISZERO PUSH2 0x113E JUMPI DUP2 MLOAD DUP1 DUP4 PUSH1 0x20 ADD REVERT JUMPDEST DUP1 PUSH1 0x40 MLOAD PUSH32 0x8C379A000000000000000000000000000000000000000000000000000000000 DUP2 MSTORE PUSH1 0x4 ADD PUSH2 0x1172 SWAP2 SWAP1 PUSH2 0x1D98 JUMP JUMPDEST PUSH1 0x40 MLOAD DUP1 SWAP2 SUB SWAP1 REVERT JUMPDEST PUSH1 0x0 DUP1 REVERT JUMPDEST PUSH1 0x0 DUP1 REVERT JUMPDEST PUSH1 0x0 PUSH20 0xFFFFFFFFFFFFFFFFFFFFFFFFFFFFFFFFFFFFFFFF DUP3 AND SWAP1 POP SWAP2 SWAP1 POP JUMP JUMPDEST PUSH1 0x0 PUSH2 0x11B0 DUP3 PUSH2 0x1185 JUMP JUMPDEST SWAP1 POP SWAP2 SWAP1 POP JUMP JUMPDEST PUSH2 0x11C0 DUP2 PUSH2 0x11A5 JUMP JUMPDEST DUP2 EQ PUSH2 0x11CB JUMPI PUSH1 0x0 DUP1 REVERT JUMPDEST POP JUMP JUMPDEST PUSH1 0x0 DUP2 CALLDATALOAD SWAP1 POP PUSH2 0x11DD DUP2 PUSH2 0x11B7 JUMP JUMPDEST SWAP3 SWAP2 POP POP JUMP JUMPDEST PUSH1 0x0 DUP2 SWAP1 POP SWAP2 SWAP1 POP JUMP JUMPDEST PUSH2 0x11F6 DUP2 PUSH2 0x11E3 JUMP JUMPDEST DUP2 EQ PUSH2 0x1201 JUMPI PUSH1 0x0 DUP1 REVERT JUMPDEST POP JUMP JUMPDEST PUSH1 0x0 DUP2 CALLDATALOAD SWAP1 POP PUSH2 0x1213 DUP2 PUSH2 0x11ED JUMP JUMPDEST SWAP3 SWAP2 POP POP JUMP JUMPDEST PUSH1 0x0 DUP1 REVERT JUMPDEST PUSH1 0x0 DUP1 REVERT JUMPDEST PUSH1 0x0 DUP1 REVERT JUMPDEST PUSH1 0x0 DUP1 DUP4 PUSH1 0x1F DUP5 ADD SLT PUSH2 0x123E JUMPI PUSH2 0x123D PUSH2 0x1219 JUMP JUMPDEST JUMPDEST DUP3 CALLDATALOAD SWAP1 POP PUSH8 0xFFFFFFFFFFFFFFFF DUP2 GT ISZERO PUSH2 0x125B JUMPI PUSH2 0x125A PUSH2 0x121E JUMP JUMPDEST JUMPDEST PUSH1 0x20 DUP4 ADD SWAP2 POP DUP4 PUSH1 0x1 DUP3 MUL DUP4 ADD GT ISZERO PUSH2 0x1277 JUMPI PUSH2 0x1276 PUSH2 0x1223 JUMP JUMPDEST JUMPDEST SWAP3 POP SWAP3 SWAP1 POP JUMP JUMPDEST PUSH1 0x0 DUP1 PUSH1 0x0 DUP1 PUSH1 0x60 DUP6 DUP8 SUB SLT ISZERO PUSH2 0x1298 JUMPI PUSH2 0x1297 PUSH2 0x117B JUMP JUMPDEST JUMPDEST PUSH1 0x0 PUSH2 0x12A6 DUP8 DUP3 DUP9 ADD PUSH2 0x11CE JUMP JUMPDEST SWAP5 POP POP PUSH1 0x20 PUSH2 0x12B7 DUP8 DUP3 DUP9 ADD PUSH2 0x1204 JUMP JUMPDEST SWAP4 POP POP PUSH1 0x40 DUP6 ADD CALLDATALOAD PUSH8 0xFFFFFFFFFFFFFFFF DUP2 GT ISZERO PUSH2 0x12D8 JUMPI PUSH2 0x12D7 PUSH2 0x1180 JUMP JUMPDEST JUMPDEST PUSH2 0x12E4 DUP8 DUP3 DUP9 ADD PUSH2 0x1228 JUMP JUMPDEST SWAP3 POP SWAP3 POP POP SWAP3 SWAP6 SWAP2 SWAP5 POP SWAP3 POP JUMP JUMPDEST PUSH1 0x0 DUP1 PUSH1 0x0 DUP1 PUSH1 0x60 DUP6 DUP8 SUB SLT ISZERO PUSH2 0x130C JUMPI PUSH2 0x130B PUSH2 0x117B JUMP JUMPDEST JUMPDEST PUSH1 0x0 PUSH2 0x131A DUP8 DUP3 DUP9 ADD PUSH2 0x1204 JUMP JUMPDEST SWAP5 POP POP PUSH1 0x20 DUP6 ADD CALLDATALOAD PUSH8 0xFFFFFFFFFFFFFFFF DUP2 GT ISZERO PUSH2 0x133B JUMPI PUSH2 0x133A PUSH2 0x1180 JUMP JUMPDEST JUMPDEST PUSH2 0x1347 DUP8 DUP3 DUP9 ADD PUSH2 0x1228 JUMP JUMPDEST SWAP4 POP SWAP4 POP POP PUSH1 0x40 PUSH2 0x135A DUP8 DUP3 DUP9 ADD PUSH2 0x11CE JUMP JUMPDEST SWAP2 POP POP SWAP3 SWAP6 SWAP2 SWAP5 POP SWAP3 POP JUMP JUMPDEST PUSH1 0x0 DUP1 PUSH1 0x0 DUP1 PUSH1 0x0 PUSH1 0x80 DUP7 DUP9 SUB SLT ISZERO PUSH2 0x1382 JUMPI PUSH2 0x1381 PUSH2 0x117B JUMP JUMPDEST JUMPDEST PUSH1 0x0 PUSH2 0x1390 DUP9 DUP3 DUP10 ADD PUSH2 0x11CE JUMP JUMPDEST SWAP6 POP POP PUSH1 0x20 PUSH2 0x13A1 DUP9 DUP3 DUP10 ADD PUSH2 0x1204 JUMP JUMPDEST SWAP5 POP POP PUSH1 0x40 DUP7 ADD CALLDATALOAD PUSH8 0xFFFFFFFFFFFFFFFF DUP2 GT ISZERO PUSH2 0x13C2 JUMPI PUSH2 0x13C1 PUSH2 0x1180 JUMP JUMPDEST JUMPDEST PUSH2 0x13CE DUP9 DUP3 DUP10 ADD PUSH2 0x1228 JUMP JUMPDEST SWAP4 POP SWAP4 POP POP PUSH1 0x60 PUSH2 0x13E1 DUP9 DUP3 DUP10 ADD PUSH2 0x11CE JUMP JUMPDEST SWAP2 POP POP SWAP3 SWAP6 POP SWAP3 SWAP6 SWAP1 SWAP4 POP JUMP JUMPDEST PUSH2 0x13F7 DUP2 PUSH2 0x11A5 JUMP JUMPDEST DUP3 MSTORE POP POP JUMP JUMPDEST PUSH1 0x0 PUSH1 0x20 DUP3 ADD SWAP1 POP PUSH2 0x1412 PUSH1 0x0 DUP4 ADD DUP5 PUSH2 0x13EE JUMP JUMPDEST SWAP3 SWAP2 POP POP JUMP JUMPDEST PUSH2 0x1421 DUP2 PUSH2 0x11E3 JUMP JUMPDEST DUP3 MSTORE POP POP JUMP JUMPDEST PUSH1 0x0 PUSH1 0x20 DUP3 ADD SWAP1 POP PUSH2 0x143C PUSH1 0x0 DUP4 ADD DUP5 PUSH2 0x1418 JUMP JUMPDEST SWAP3 SWAP2 POP POP JUMP JUMPDEST PUSH1 0x0 DUP1 PUSH1 0x20 DUP4 DUP6 SUB SLT ISZERO PUSH2 0x1459 JUMPI PUSH2 0x1458 PUSH2 0x117B JUMP JUMPDEST JUMPDEST PUSH1 0x0 DUP4 ADD CALLDATALOAD PUSH8 0xFFFFFFFFFFFFFFFF DUP2 GT ISZERO PUSH2 0x1477 JUMPI PUSH2 0x1476 PUSH2 0x1180 JUMP JUMPDEST JUMPDEST PUSH2 0x1483 DUP6 DUP3 DUP7 ADD PUSH2 0x1228 JUMP JUMPDEST SWAP3 POP SWAP3 POP POP SWAP3 POP SWAP3 SWAP1 POP JUMP JUMPDEST PUSH1 0x0 PUSH1 0x20 DUP3 DUP5 SUB SLT ISZERO PUSH2 0x14A5 JUMPI PUSH2 0x14A4 PUSH2 0x117B JUMP JUMPDEST JUMPDEST PUSH1 0x0 PUSH2 0x14B3 DUP5 DUP3 DUP6 ADD PUSH2 0x11CE JUMP JUMPDEST SWAP2 POP POP SWAP3 SWAP2 POP POP JUMP JUMPDEST PUSH1 0x0 DUP1 PUSH1 0x0 DUP1 PUSH1 0x0 DUP1 PUSH1 0xA0 DUP8 DUP10 SUB SLT ISZERO PUSH2 0x14D9 JUMPI PUSH2 0x14D8 PUSH2 0x117B JUMP JUMPDEST JUMPDEST PUSH1 0x0 PUSH2 0x14E7 DUP10 DUP3 DUP11 ADD PUSH2 0x11CE JUMP JUMPDEST SWAP7 POP POP PUSH1 0x20 PUSH2 0x14F8 DUP10 DUP3 DUP11 ADD PUSH2 0x11CE JUMP JUMPDEST SWAP6 POP POP PUSH1 0x40 PUSH2 0x1509 DUP10 DUP3 DUP11 ADD PUSH2 0x1204 JUMP JUMPDEST SWAP5 POP POP PUSH1 0x60 DUP8 ADD CALLDATALOAD PUSH8 0xFFFFFFFFFFFFFFFF DUP2 GT ISZERO PUSH2 0x152A JUMPI PUSH2 0x1529 PUSH2 0x1180 JUMP JUMPDEST JUMPDEST PUSH2 0x1536 DUP10 DUP3 DUP11 ADD PUSH2 0x1228 JUMP JUMPDEST SWAP4 POP SWAP4 POP POP PUSH1 0x80 PUSH2 0x1549 DUP10 DUP3 DUP11 ADD PUSH2 0x11CE JUMP JUMPDEST SWAP2 POP POP SWAP3 SWAP6 POP SWAP3 SWAP6 POP SWAP3 SWAP6 JUMP JUMPDEST PUSH1 0x0 DUP1 PUSH1 0x0 PUSH1 0x40 DUP5 DUP7 SUB SLT ISZERO PUSH2 0x156F JUMPI PUSH2 0x156E PUSH2 0x117B JUMP JUMPDEST JUMPDEST PUSH1 0x0 PUSH2 0x157D DUP7 DUP3 DUP8 ADD PUSH2 0x1204 JUMP JUMPDEST SWAP4 POP POP PUSH1 0x20 DUP5 ADD CALLDATALOAD PUSH8 0xFFFFFFFFFFFFFFFF DUP2 GT ISZERO PUSH2 0x159E JUMPI PUSH2 0x159D PUSH2 0x1180 JUMP JUMPDEST JUMPDEST PUSH2 0x15AA DUP7 DUP3 DUP8 ADD PUSH2 0x1228 JUMP JUMPDEST SWAP3 POP SWAP3 POP POP SWAP3 POP SWAP3 POP SWAP3 JUMP JUMPDEST PUSH1 0x0 DUP3 DUP3 MSTORE PUSH1 0x20 DUP3 ADD SWAP1 POP SWAP3 SWAP2 POP POP JUMP JUMPDEST PUSH32 0x4E6F7420737570706F7274656420746F6B656E00000000000000000000000000 PUSH1 0x0 DUP3 ADD MSTORE POP JUMP JUMPDEST PUSH1 0x0 PUSH2 0x15FD PUSH1 0x13 DUP4 PUSH2 0x15B6 JUMP JUMPDEST SWAP2 POP PUSH2 0x1608 DUP3 PUSH2 0x15C7 JUMP JUMPDEST PUSH1 0x20 DUP3 ADD SWAP1 POP SWAP2 SWAP1 POP JUMP JUMPDEST PUSH1 0x0 PUSH1 0x20 DUP3 ADD SWAP1 POP DUP2 DUP2 SUB PUSH1 0x0 DUP4 ADD MSTORE PUSH2 0x162C DUP2 PUSH2 0x15F0 JUMP JUMPDEST SWAP1 POP SWAP2 SWAP1 POP JUMP JUMPDEST PUSH32 0x496E73756666696369656E742066756E64730000000000000000000000000000 PUSH1 0x0 DUP3 ADD MSTORE POP JUMP JUMPDEST PUSH1 0x0 PUSH2 0x1669 PUSH1 0x12 DUP4 PUSH2 0x15B6 JUMP JUMPDEST SWAP2 POP PUSH2 0x1674 DUP3 PUSH2 0x1633 JUMP JUMPDEST PUSH1 0x20 DUP3 ADD SWAP1 POP SWAP2 SWAP1 POP JUMP JUMPDEST PUSH1 0x0 PUSH1 0x20 DUP3 ADD SWAP1 POP DUP2 DUP2 SUB PUSH1 0x0 DUP4 ADD MSTORE PUSH2 0x1698 DUP2 PUSH2 0x165C JUMP JUMPDEST SWAP1 POP SWAP2 SWAP1 POP JUMP JUMPDEST PUSH32 0x4E487B7100000000000000000000000000000000000000000000000000000000 PUSH1 0x0 MSTORE PUSH1 0x11 PUSH1 0x4 MSTORE PUSH1 0x24 PUSH1 0x0 REVERT JUMPDEST PUSH1 0x0 PUSH2 0x16D9 DUP3 PUSH2 0x11E3 JUMP JUMPDEST SWAP2 POP PUSH2 0x16E4 DUP4 PUSH2 0x11E3 JUMP JUMPDEST SWAP3 POP DUP3 DUP3 SUB SWAP1 POP DUP2 DUP2 GT ISZERO PUSH2 0x16FC JUMPI PUSH2 0x16FB PUSH2 0x169F JUMP JUMPDEST JUMPDEST SWAP3 SWAP2 POP POP JUMP JUMPDEST DUP3 DUP2 DUP4 CALLDATACOPY PUSH1 0x0 DUP4 DUP4 ADD MSTORE POP POP POP JUMP JUMPDEST PUSH1 0x0 PUSH1 0x1F NOT PUSH1 0x1F DUP4 ADD AND SWAP1 POP SWAP2 SWAP1 POP JUMP JUMPDEST PUSH1 0x0 PUSH2 0x172E DUP4 DUP6 PUSH2 0x15B6 JUMP JUMPDEST SWAP4 POP PUSH2 0x173B DUP4 DUP6 DUP5 PUSH2 0x1702 JUMP JUMPDEST PUSH2 0x1744 DUP4 PUSH2 0x1711 JUMP JUMPDEST DUP5 ADD SWAP1 POP SWAP4 SWAP3 POP POP POP JUMP JUMPDEST PUSH1 0x0 PUSH1 0x40 DUP3 ADD SWAP1 POP PUSH2 0x1764 PUSH1 0x0 DUP4 ADD DUP7 PUSH2 0x1418 JUMP JUMPDEST DUP2 DUP2 SUB PUSH1 0x20 DUP4 ADD MSTORE PUSH2 0x1777 DUP2 DUP5 DUP7 PUSH2 0x1722 JUMP JUMPDEST SWAP1 POP SWAP5 SWAP4 POP POP POP POP JUMP JUMPDEST PUSH1 0x0 PUSH1 0xA0 DUP3 ADD SWAP1 POP PUSH2 0x1796 PUSH1 0x0 DUP4 ADD DUP10 PUSH2 0x13EE JUMP JUMPDEST PUSH2 0x17A3 PUSH1 0x20 DUP4 ADD DUP9 PUSH2 0x13EE JUMP JUMPDEST PUSH2 0x17B0 PUSH1 0x40 DUP4 ADD DUP8 PUSH2 0x1418 JUMP JUMPDEST DUP2 DUP2 SUB PUSH1 0x60 DUP4 ADD MSTORE PUSH2 0x17C3 DUP2 DUP6 DUP8 PUSH2 0x1722 JUMP JUMPDEST SWAP1 POP PUSH2 0x17D2 PUSH1 0x80 DUP4 ADD DUP5 PUSH2 0x13EE JUMP JUMPDEST SWAP8 SWAP7 POP POP POP POP POP POP POP JUMP JUMPDEST PUSH1 0x0 PUSH1 0x80 DUP3 ADD SWAP1 POP PUSH2 0x17F2 PUSH1 0x0 DUP4 ADD DUP9 PUSH2 0x13EE JUMP JUMPDEST PUSH2 0x17FF PUSH1 0x20 DUP4 ADD DUP8 PUSH2 0x1418 JUMP JUMPDEST DUP2 DUP2 SUB PUSH1 0x40 DUP4 ADD MSTORE PUSH2 0x1812 DUP2 DUP6 DUP8 PUSH2 0x1722 JUMP JUMPDEST SWAP1 POP PUSH2 0x1821 PUSH1 0x60 DUP4 ADD DUP5 PUSH2 0x13EE JUMP JUMPDEST SWAP7 SWAP6 POP POP POP POP POP POP JUMP JUMPDEST PUSH32 0x556E73757270706F7274656420746F6B656E2100000000000000000000000000 PUSH1 0x0 DUP3 ADD MSTORE POP JUMP JUMPDEST PUSH1 0x0 PUSH2 0x1861 PUSH1 0x13 DUP4 PUSH2 0x15B6 JUMP JUMPDEST SWAP2 POP PUSH2 0x186C DUP3 PUSH2 0x182B JUMP JUMPDEST PUSH1 0x20 DUP3 ADD SWAP1 POP SWAP2 SWAP1 POP JUMP JUMPDEST PUSH1 0x0 PUSH1 0x20 DUP3 ADD SWAP1 POP DUP2 DUP2 SUB PUSH1 0x0 DUP4 ADD MSTORE PUSH2 0x1890 DUP2 PUSH2 0x1854 JUMP JUMPDEST SWAP1 POP SWAP2 SWAP1 POP JUMP JUMPDEST PUSH1 0x0 DUP2 MLOAD SWAP1 POP PUSH2 0x18A6 DUP2 PUSH2 0x11ED JUMP JUMPDEST SWAP3 SWAP2 POP POP JUMP JUMPDEST PUSH1 0x0 PUSH1 0x20 DUP3 DUP5 SUB SLT ISZERO PUSH2 0x18C2 JUMPI PUSH2 0x18C1 PUSH2 0x117B JUMP JUMPDEST JUMPDEST PUSH1 0x0 PUSH2 0x18D0 DUP5 DUP3 DUP6 ADD PUSH2 0x1897 JUMP JUMPDEST SWAP2 POP POP SWAP3 SWAP2 POP POP JUMP JUMPDEST PUSH32 0x496E73756666696369656E742062616C616E63652066756E6473000000000000 PUSH1 0x0 DUP3 ADD MSTORE POP JUMP JUMPDEST PUSH1 0x0 PUSH2 0x190F PUSH1 0x1A DUP4 PUSH2 0x15B6 JUMP JUMPDEST SWAP2 POP PUSH2 0x191A DUP3 PUSH2 0x18D9 JUMP JUMPDEST PUSH1 0x20 DUP3 ADD SWAP1 POP SWAP2 SWAP1 POP JUMP JUMPDEST PUSH1 0x0 PUSH1 0x20 DUP3 ADD SWAP1 POP DUP2 DUP2 SUB PUSH1 0x0 DUP4 ADD MSTORE PUSH2 0x193E DUP2 PUSH2 0x1902 JUMP JUMPDEST SWAP1 POP SWAP2 SWAP1 POP JUMP JUMPDEST PUSH1 0x0 PUSH2 0x1950 DUP3 PUSH2 0x11E3 JUMP JUMPDEST SWAP2 POP PUSH2 0x195B DUP4 PUSH2 0x11E3 JUMP JUMPDEST SWAP3 POP DUP3 DUP3 ADD SWAP1 POP DUP1 DUP3 GT ISZERO PUSH2 0x1973 JUMPI PUSH2 0x1972 PUSH2 0x169F JUMP JUMPDEST JUMPDEST SWAP3 SWAP2 POP POP JUMP JUMPDEST PUSH32 0x4F776E61626C653A206E6577206F776E657220697320746865207A65726F2061 PUSH1 0x0 DUP3 ADD MSTORE PUSH32 0x6464726573730000000000000000000000000000000000000000000000000000 PUSH1 0x20 DUP3 ADD MSTORE POP JUMP JUMPDEST PUSH1 0x0 PUSH2 0x19D5 PUSH1 0x26 DUP4 PUSH2 0x15B6 JUMP JUMPDEST SWAP2 POP PUSH2 0x19E0 DUP3 PUSH2 0x1979 JUMP JUMPDEST PUSH1 0x40 DUP3 ADD SWAP1 POP SWAP2 SWAP1 POP JUMP JUMPDEST PUSH1 0x0 PUSH1 0x20 DUP3 ADD SWAP1 POP DUP2 DUP2 SUB PUSH1 0x0 DUP4 ADD MSTORE PUSH2 0x1A04 DUP2 PUSH2 0x19C8 JUMP JUMPDEST SWAP1 POP SWAP2 SWAP1 POP JUMP JUMPDEST PUSH32 0x4F776E61626C653A2063616C6C6572206973206E6F7420746865206F776E6572 PUSH1 0x0 DUP3 ADD MSTORE POP JUMP JUMPDEST PUSH1 0x0 PUSH2 0x1A41 PUSH1 0x20 DUP4 PUSH2 0x15B6 JUMP JUMPDEST SWAP2 POP PUSH2 0x1A4C DUP3 PUSH2 0x1A0B JUMP JUMPDEST PUSH1 0x20 DUP3 ADD SWAP1 POP SWAP2 SWAP1 POP JUMP JUMPDEST PUSH1 0x0 PUSH1 0x20 DUP3 ADD SWAP1 POP DUP2 DUP2 SUB PUSH1 0x0 DUP4 ADD MSTORE PUSH2 0x1A70 DUP2 PUSH2 0x1A34 JUMP JUMPDEST SWAP1 POP SWAP2 SWAP1 POP JUMP JUMPDEST PUSH1 0x0 PUSH1 0x40 DUP3 ADD SWAP1 POP PUSH2 0x1A8C PUSH1 0x0 DUP4 ADD DUP6 PUSH2 0x13EE JUMP JUMPDEST PUSH2 0x1A99 PUSH1 0x20 DUP4 ADD DUP5 PUSH2 0x1418 JUMP JUMPDEST SWAP4 SWAP3 POP POP POP JUMP JUMPDEST PUSH1 0x0 PUSH1 0x60 DUP3 ADD SWAP1 POP PUSH2 0x1AB5 PUSH1 0x0 DUP4 ADD DUP7 PUSH2 0x13EE JUMP JUMPDEST PUSH2 0x1AC2 PUSH1 0x20 DUP4 ADD DUP6 PUSH2 0x13EE JUMP JUMPDEST PUSH2 0x1ACF PUSH1 0x40 DUP4 ADD DUP5 PUSH2 0x1418 JUMP JUMPDEST SWAP5 SWAP4 POP POP POP POP JUMP JUMPDEST PUSH1 0x0 DUP2 ISZERO ISZERO SWAP1 POP SWAP2 SWAP1 POP JUMP JUMPDEST PUSH2 0x1AEC DUP2 PUSH2 0x1AD7 JUMP JUMPDEST DUP2 EQ PUSH2 0x1AF7 JUMPI PUSH1 0x0 DUP1 REVERT JUMPDEST POP JUMP JUMPDEST PUSH1 0x0 DUP2 MLOAD SWAP1 POP PUSH2 0x1B09 DUP2 PUSH2 0x1AE3 JUMP JUMPDEST SWAP3 SWAP2 POP POP JUMP JUMPDEST PUSH1 0x0 PUSH1 0x20 DUP3 DUP5 SUB SLT ISZERO PUSH2 0x1B25 JUMPI PUSH2 0x1B24 PUSH2 0x117B JUMP JUMPDEST JUMPDEST PUSH1 0x0 PUSH2 0x1B33 DUP5 DUP3 DUP6 ADD PUSH2 0x1AFA JUMP JUMPDEST SWAP2 POP POP SWAP3 SWAP2 POP POP JUMP JUMPDEST PUSH32 0x5361666545524332303A204552433230206F7065726174696F6E20646964206E PUSH1 0x0 DUP3 ADD MSTORE PUSH32 0x6F74207375636365656400000000000000000000000000000000000000000000 PUSH1 0x20 DUP3 ADD MSTORE POP JUMP JUMPDEST PUSH1 0x0 PUSH2 0x1B98 PUSH1 0x2A DUP4 PUSH2 0x15B6 JUMP JUMPDEST SWAP2 POP PUSH2 0x1BA3 DUP3 PUSH2 0x1B3C JUMP JUMPDEST PUSH1 0x40 DUP3 ADD SWAP1 POP SWAP2 SWAP1 POP JUMP JUMPDEST PUSH1 0x0 PUSH1 0x20 DUP3 ADD SWAP1 POP DUP2 DUP2 SUB PUSH1 0x0 DUP4 ADD MSTORE PUSH2 0x1BC7 DUP2 PUSH2 0x1B8B JUMP JUMPDEST SWAP1 POP SWAP2 SWAP1 POP JUMP JUMPDEST PUSH32 0x416464726573733A20696E73756666696369656E742062616C616E636520666F PUSH1 0x0 DUP3 ADD MSTORE PUSH32 0x722063616C6C0000000000000000000000000000000000000000000000000000 PUSH1 0x20 DUP3 ADD MSTORE POP JUMP JUMPDEST PUSH1 0x0 PUSH2 0x1C2A PUSH1 0x26 DUP4 PUSH2 0x15B6 JUMP JUMPDEST SWAP2 POP PUSH2 0x1C35 DUP3 PUSH2 0x1BCE JUMP JUMPDEST PUSH1 0x40 DUP3 ADD SWAP1 POP SWAP2 SWAP1 POP JUMP JUMPDEST PUSH1 0x0 PUSH1 0x20 DUP3 ADD SWAP1 POP DUP2 DUP2 SUB PUSH1 0x0 DUP4 ADD MSTORE PUSH2 0x1C59 DUP2 PUSH2 0x1C1D JUMP JUMPDEST SWAP1 POP SWAP2 SWAP1 POP JUMP JUMPDEST PUSH1 0x0 DUP2 MLOAD SWAP1 POP SWAP2 SWAP1 POP JUMP JUMPDEST PUSH1 0x0 DUP2 SWAP1 POP SWAP3 SWAP2 POP POP JUMP JUMPDEST PUSH1 0x0 JUMPDEST DUP4 DUP2 LT ISZERO PUSH2 0x1C94 JUMPI DUP1 DUP3 ADD MLOAD DUP2 DUP5 ADD MSTORE PUSH1 0x20 DUP2 ADD SWAP1 POP PUSH2 0x1C79 JUMP JUMPDEST PUSH1 0x0 DUP5 DUP5 ADD MSTORE POP POP POP POP JUMP JUMPDEST PUSH1 0x0 PUSH2 0x1CAB DUP3 PUSH2 0x1C60 JUMP JUMPDEST PUSH2 0x1CB5 DUP2 DUP6 PUSH2 0x1C6B JUMP JUMPDEST SWAP4 POP PUSH2 0x1CC5 DUP2 DUP6 PUSH1 0x20 DUP7 ADD PUSH2 0x1C76 JUMP JUMPDEST DUP1 DUP5 ADD SWAP2 POP POP SWAP3 SWAP2 POP POP JUMP JUMPDEST PUSH1 0x0 PUSH2 0x1CDD DUP3 DUP5 PUSH2 0x1CA0 JUMP JUMPDEST SWAP2 POP DUP2 SWAP1 POP SWAP3 SWAP2 POP POP JUMP JUMPDEST PUSH32 0x416464726573733A2063616C6C20746F206E6F6E2D636F6E7472616374000000 PUSH1 0x0 DUP3 ADD MSTORE POP JUMP JUMPDEST PUSH1 0x0 PUSH2 0x1D1E PUSH1 0x1D DUP4 PUSH2 0x15B6 JUMP JUMPDEST SWAP2 POP PUSH2 0x1D29 DUP3 PUSH2 0x1CE8 JUMP JUMPDEST PUSH1 0x20 DUP3 ADD SWAP1 POP SWAP2 SWAP1 POP JUMP JUMPDEST PUSH1 0x0 PUSH1 0x20 DUP3 ADD SWAP1 POP DUP2 DUP2 SUB PUSH1 0x0 DUP4 ADD MSTORE PUSH2 0x1D4D DUP2 PUSH2 0x1D11 JUMP JUMPDEST SWAP1 POP SWAP2 SWAP1 POP JUMP JUMPDEST PUSH1 0x0 DUP2 MLOAD SWAP1 POP SWAP2 SWAP1 POP JUMP JUMPDEST PUSH1 0x0 PUSH2 0x1D6A DUP3 PUSH2 0x1D54 JUMP JUMPDEST PUSH2 0x1D74 DUP2 DUP6 PUSH2 0x15B6 JUMP JUMPDEST SWAP4 POP PUSH2 0x1D84 DUP2 DUP6 PUSH1 0x20 DUP7 ADD PUSH2 0x1C76 JUMP JUMPDEST PUSH2 0x1D8D DUP2 PUSH2 0x1711 JUMP JUMPDEST DUP5 ADD SWAP2 POP POP SWAP3 SWAP2 POP POP JUMP JUMPDEST PUSH1 0x0 PUSH1 0x20 DUP3 ADD SWAP1 POP DUP2 DUP2 SUB PUSH1 0x0 DUP4 ADD MSTORE PUSH2 0x1DB2 DUP2 DUP5 PUSH2 0x1D5F JUMP JUMPDEST SWAP1 POP SWAP3 SWAP2 POP POP JUMP INVALID LOG2 PUSH5 0x6970667358 0x22 SLT KECCAK256 0xA8 CREATE ORIGIN 0xDF DUP9 0xE1 LOG0 CALLER DUP15 STATICCALL 0xE5 SWAP11 PUSH12 0x4E158A2A02384485FF393778 0xA8 0xB2 GASLIMIT LT DUP16 0x4B 0xD4 PUSH5 0x736F6C6343 STOP ADDMOD SLT STOP CALLER "
				},
				"gasEstimates": {
					"creation": {
						"codeDepositCost": "1532800",
						"executionCost": "infinite",
						"totalCost": "infinite"
					},
					"external": {
						"addNewSupportToken(address)": "infinite",
						"balanceOfERC20(address)": "infinite",
						"balanceOfETH()": "352",
						"owner()": "2611",
						"payERC20(uint256,string,address)": "infinite",
						"payERC20From(address,uint256,string,address)": "infinite",
						"payEth(string)": "495",
						"refundERC20(address,uint256,string,address)": "infinite",
						"refundERC20From(address,address,uint256,string,address)": "infinite",
						"refundETH(address,uint256,string)": "3429",
						"renounceOwnership()": "30443",
						"transferOwnership(address)": "30832",
						"withdrawERC20(uint256,string,address)": "infinite",
						"withdrawEth(uint256,string)": "3248"
					}
				},
				"methodIdentifiers": {
					"addNewSupportToken(address)": "b30917ad",
					"balanceOfERC20(address)": "d93db24f",
					"balanceOfETH()": "8ea5b802",
					"owner()": "8da5cb5b",
					"payERC20(uint256,string,address)": "711e0ee7",
					"payERC20From(address,uint256,string,address)": "793191f1",
					"payEth(string)": "af7d51f5",
					"refundERC20(address,uint256,string,address)": "70d47134",
					"refundERC20From(address,address,uint256,string,address)": "cc86a503",
					"refundETH(address,uint256,string)": "0290579b",
					"renounceOwnership()": "715018a6",
					"transferOwnership(address)": "f2fde38b",
					"withdrawERC20(uint256,string,address)": "58598dad",
					"withdrawEth(uint256,string)": "e6cd186f"
				}
			},
			"storageLayout": {
				"storage": [
					{
						"astId": 7,
						"contract": "contracts/BeeWharf.sol:BeeWharf",
						"label": "_owner",
						"offset": 0,
						"slot": "0",
						"type": "t_address"
					},
					{
						"astId": 884,
						"contract": "contracts/BeeWharf.sol:BeeWharf",
						"label": "tokenSupported",
						"offset": 0,
						"slot": "1",
						"type": "t_mapping(t_address,t_bool)"
					},
					{
						"astId": 888,
						"contract": "contracts/BeeWharf.sol:BeeWharf",
						"label": "totalBalances",
						"offset": 0,
						"slot": "2",
						"type": "t_mapping(t_address,t_uint256)"
					}
				],
				"types": {
					"t_address": {
						"encoding": "inplace",
						"label": "address",
						"numberOfBytes": "20"
					},
					"t_bool": {
						"encoding": "inplace",
						"label": "bool",
						"numberOfBytes": "1"
					},
					"t_mapping(t_address,t_bool)": {
						"encoding": "mapping",
						"key": "t_address",
						"label": "mapping(address => bool)",
						"numberOfBytes": "32",
						"value": "t_bool"
					},
					"t_mapping(t_address,t_uint256)": {
						"encoding": "mapping",
						"key": "t_address",
						"label": "mapping(address => uint256)",
						"numberOfBytes": "32",
						"value": "t_uint256"
					},
					"t_uint256": {
						"encoding": "inplace",
						"label": "uint256",
						"numberOfBytes": "32"
					}
				}
			},
			"userdoc": {
				"kind": "user",
				"methods": {},
				"version": 1
			}
		}
	}
}