{
	"contracts/CurrencyReceiver.sol": {
		"CurrencyReceiver": {
			"abi": [
				{
					"inputs": [],
					"stateMutability": "nonpayable",
					"type": "constructor"
				},
				{
					"anonymous": false,
					"inputs": [
						{
							"indexed": true,
							"internalType": "address",
							"name": "currency",
							"type": "address"
						},
						{
							"indexed": true,
							"internalType": "address",
							"name": "from",
							"type": "address"
						},
						{
							"indexed": false,
							"internalType": "uint256",
							"name": "amount",
							"type": "uint256"
						},
						{
							"indexed": false,
							"internalType": "string",
							"name": "orderId",
							"type": "string"
						}
					],
					"name": "Pay",
					"type": "event"
				},
				{
					"anonymous": false,
					"inputs": [
						{
							"indexed": true,
							"internalType": "address",
							"name": "currency",
							"type": "address"
						},
						{
							"indexed": false,
							"internalType": "uint256",
							"name": "amount",
							"type": "uint256"
						},
						{
							"indexed": true,
							"internalType": "address",
							"name": "to",
							"type": "address"
						},
						{
							"indexed": false,
							"internalType": "string",
							"name": "orderId",
							"type": "string"
						}
					],
					"name": "Refund",
					"type": "event"
				},
				{
					"anonymous": false,
					"inputs": [
						{
							"indexed": true,
							"internalType": "bytes32",
							"name": "role",
							"type": "bytes32"
						},
						{
							"indexed": true,
							"internalType": "bytes32",
							"name": "previousAdminRole",
							"type": "bytes32"
						},
						{
							"indexed": true,
							"internalType": "bytes32",
							"name": "newAdminRole",
							"type": "bytes32"
						}
					],
					"name": "RoleAdminChanged",
					"type": "event"
				},
				{
					"anonymous": false,
					"inputs": [
						{
							"indexed": true,
							"internalType": "bytes32",
							"name": "role",
							"type": "bytes32"
						},
						{
							"indexed": true,
							"internalType": "address",
							"name": "account",
							"type": "address"
						},
						{
							"indexed": true,
							"internalType": "address",
							"name": "sender",
							"type": "address"
						}
					],
					"name": "RoleGranted",
					"type": "event"
				},
				{
					"anonymous": false,
					"inputs": [
						{
							"indexed": true,
							"internalType": "bytes32",
							"name": "role",
							"type": "bytes32"
						},
						{
							"indexed": true,
							"internalType": "address",
							"name": "account",
							"type": "address"
						},
						{
							"indexed": true,
							"internalType": "address",
							"name": "sender",
							"type": "address"
						}
					],
					"name": "RoleRevoked",
					"type": "event"
				},
				{
					"anonymous": false,
					"inputs": [
						{
							"indexed": true,
							"internalType": "address",
							"name": "currency",
							"type": "address"
						},
						{
							"indexed": false,
							"internalType": "uint256",
							"name": "amount",
							"type": "uint256"
						},
						{
							"indexed": true,
							"internalType": "address",
							"name": "to",
							"type": "address"
						},
						{
							"indexed": false,
							"internalType": "string",
							"name": "billId",
							"type": "string"
						}
					],
					"name": "Withdraw",
					"type": "event"
				},
				{
					"inputs": [],
					"name": "DEFAULT_ADMIN_ROLE",
					"outputs": [
						{
							"internalType": "bytes32",
							"name": "",
							"type": "bytes32"
						}
					],
					"stateMutability": "view",
					"type": "function"
				},
				{
					"inputs": [],
					"name": "REFUND_ROLE",
					"outputs": [
						{
							"internalType": "bytes32",
							"name": "",
							"type": "bytes32"
						}
					],
					"stateMutability": "view",
					"type": "function"
				},
				{
					"inputs": [],
					"name": "WITHDRAW_ROLE",
					"outputs": [
						{
							"internalType": "bytes32",
							"name": "",
							"type": "bytes32"
						}
					],
					"stateMutability": "view",
					"type": "function"
				},
				{
					"inputs": [
						{
							"internalType": "address",
							"name": "currency",
							"type": "address"
						}
					],
					"name": "balanceOf",
					"outputs": [
						{
							"internalType": "uint256",
							"name": "",
							"type": "uint256"
						}
					],
					"stateMutability": "view",
					"type": "function"
				},
				{
					"inputs": [
						{
							"internalType": "bytes32",
							"name": "role",
							"type": "bytes32"
						}
					],
					"name": "getRoleAdmin",
					"outputs": [
						{
							"internalType": "bytes32",
							"name": "",
							"type": "bytes32"
						}
					],
					"stateMutability": "view",
					"type": "function"
				},
				{
					"inputs": [
						{
							"internalType": "bytes32",
							"name": "role",
							"type": "bytes32"
						},
						{
							"internalType": "address",
							"name": "account",
							"type": "address"
						}
					],
					"name": "grantRole",
					"outputs": [],
					"stateMutability": "nonpayable",
					"type": "function"
				},
				{
					"inputs": [
						{
							"internalType": "bytes32",
							"name": "role",
							"type": "bytes32"
						},
						{
							"internalType": "address",
							"name": "account",
							"type": "address"
						}
					],
					"name": "hasRole",
					"outputs": [
						{
							"internalType": "bool",
							"name": "",
							"type": "bool"
						}
					],
					"stateMutability": "view",
					"type": "function"
				},
				{
					"inputs": [
						{
							"internalType": "address",
							"name": "currency",
							"type": "address"
						},
						{
							"internalType": "uint256",
							"name": "amount",
							"type": "uint256"
						},
						{
							"internalType": "string",
							"name": "orderId",
							"type": "string"
						}
					],
					"name": "pay",
					"outputs": [],
					"stateMutability": "nonpayable",
					"type": "function"
				},
				{
					"inputs": [
						{
							"internalType": "address[]",
							"name": "currency",
							"type": "address[]"
						},
						{
							"internalType": "uint256[]",
							"name": "amount",
							"type": "uint256[]"
						},
						{
							"internalType": "address[]",
							"name": "to",
							"type": "address[]"
						},
						{
							"internalType": "string[]",
							"name": "orderId",
							"type": "string[]"
						}
					],
					"name": "refund",
					"outputs": [],
					"stateMutability": "nonpayable",
					"type": "function"
				},
				{
					"inputs": [
						{
							"internalType": "bytes32",
							"name": "role",
							"type": "bytes32"
						},
						{
							"internalType": "address",
							"name": "account",
							"type": "address"
						}
					],
					"name": "renounceRole",
					"outputs": [],
					"stateMutability": "nonpayable",
					"type": "function"
				},
				{
					"inputs": [
						{
							"internalType": "bytes32",
							"name": "role",
							"type": "bytes32"
						},
						{
							"internalType": "address",
							"name": "account",
							"type": "address"
						}
					],
					"name": "revokeRole",
					"outputs": [],
					"stateMutability": "nonpayable",
					"type": "function"
				},
				{
					"inputs": [
						{
							"internalType": "bytes4",
							"name": "interfaceId",
							"type": "bytes4"
						}
					],
					"name": "supportsInterface",
					"outputs": [
						{
							"internalType": "bool",
							"name": "",
							"type": "bool"
						}
					],
					"stateMutability": "view",
					"type": "function"
				},
				{
					"inputs": [
						{
							"internalType": "address[]",
							"name": "currency",
							"type": "address[]"
						},
						{
							"internalType": "uint256[]",
							"name": "amount",
							"type": "uint256[]"
						},
						{
							"internalType": "address[]",
							"name": "to",
							"type": "address[]"
						},
						{
							"internalType": "string[]",
							"name": "billId",
							"type": "string[]"
						}
					],
					"name": "withdraw",
					"outputs": [],
					"stateMutability": "nonpayable",
					"type": "function"
				}
			],
			"devdoc": {
				"events": {
					"RoleAdminChanged(bytes32,bytes32,bytes32)": {
						"details": "Emitted when `newAdminRole` is set as ``role``'s admin role, replacing `previousAdminRole` `DEFAULT_ADMIN_ROLE` is the starting admin for all roles, despite {RoleAdminChanged} not being emitted signaling this. _Available since v3.1._"
					},
					"RoleGranted(bytes32,address,address)": {
						"details": "Emitted when `account` is granted `role`. `sender` is the account that originated the contract call, an admin role bearer except when using {AccessControl-_setupRole}."
					},
					"RoleRevoked(bytes32,address,address)": {
						"details": "Emitted when `account` is revoked `role`. `sender` is the account that originated the contract call:   - if using `revokeRole`, it is the admin role bearer   - if using `renounceRole`, it is the role bearer (i.e. `account`)"
					}
				},
				"kind": "dev",
				"methods": {
					"getRoleAdmin(bytes32)": {
						"details": "Returns the admin role that controls `role`. See {grantRole} and {revokeRole}. To change a role's admin, use {_setRoleAdmin}."
					},
					"grantRole(bytes32,address)": {
						"details": "Grants `role` to `account`. If `account` had not been already granted `role`, emits a {RoleGranted} event. Requirements: - the caller must have ``role``'s admin role. May emit a {RoleGranted} event."
					},
					"hasRole(bytes32,address)": {
						"details": "Returns `true` if `account` has been granted `role`."
					},
					"renounceRole(bytes32,address)": {
						"details": "Revokes `role` from the calling account. Roles are often managed via {grantRole} and {revokeRole}: this function's purpose is to provide a mechanism for accounts to lose their privileges if they are compromised (such as when a trusted device is misplaced). If the calling account had been revoked `role`, emits a {RoleRevoked} event. Requirements: - the caller must be `account`. May emit a {RoleRevoked} event."
					},
					"revokeRole(bytes32,address)": {
						"details": "Revokes `role` from `account`. If `account` had been granted `role`, emits a {RoleRevoked} event. Requirements: - the caller must have ``role``'s admin role. May emit a {RoleRevoked} event."
					},
					"supportsInterface(bytes4)": {
						"details": "See {IERC165-supportsInterface}."
					}
				},
				"version": 1
			},
			"evm": {
				"assembly": "    /* \"contracts/CurrencyReceiver.sol\":313:2724  contract CurrencyReceiver is ICurrencyReceiver, AccessControl {... */\n  mstore(0x40, 0x80)\n    /* \"contracts/CurrencyReceiver.sol\":556:836  constructor () {... */\n  callvalue\n  dup1\n  iszero\n  tag_1\n  jumpi\n  0x00\n  dup1\n  revert\ntag_1:\n  pop\n    /* \"contracts/CurrencyReceiver.sol\":581:623  _setupRole(DEFAULT_ADMIN_ROLE, msg.sender) */\n  tag_4\n    /* \"@openzeppelin/contracts/access/AccessControl.sol\":2072:2076  0x00 */\n  0x00\n    /* \"contracts/CurrencyReceiver.sol\":592:610  DEFAULT_ADMIN_ROLE */\n  dup1\n  shl\n    /* \"contracts/CurrencyReceiver.sol\":612:622  msg.sender */\n  caller\n    /* \"contracts/CurrencyReceiver.sol\":581:591  _setupRole */\n  shl(0x20, tag_5)\n    /* \"contracts/CurrencyReceiver.sol\":581:623  _setupRole(DEFAULT_ADMIN_ROLE, msg.sender) */\n  0x20\n  shr\n  jump\t// in\ntag_4:\n    /* \"contracts/CurrencyReceiver.sol\":633:670  _setupRole(WITHDRAW_ROLE, msg.sender) */\n  tag_6\n    /* \"contracts/CurrencyReceiver.sol\":422:448  keccak256(\"WITHDRAW_ROLE\") */\n  0x5d8e12c39142ff96d79d04d15d1ba1269e4fe57bb9d26f43523628b34ba108ec\n    /* \"contracts/CurrencyReceiver.sol\":659:669  msg.sender */\n  caller\n    /* \"contracts/CurrencyReceiver.sol\":633:643  _setupRole */\n  shl(0x20, tag_5)\n    /* \"contracts/CurrencyReceiver.sol\":633:670  _setupRole(WITHDRAW_ROLE, msg.sender) */\n  0x20\n  shr\n  jump\t// in\ntag_6:\n    /* \"contracts/CurrencyReceiver.sol\":680:715  _setupRole(REFUND_ROLE, msg.sender) */\n  tag_7\n    /* \"contracts/CurrencyReceiver.sol\":492:516  keccak256(\"REFUND_ROLE\") */\n  0xf1f91cdf1f18aaac45ca4aaddade87aabc2746f6d044da7cf8544558c5776172\n    /* \"contracts/CurrencyReceiver.sol\":704:714  msg.sender */\n  caller\n    /* \"contracts/CurrencyReceiver.sol\":680:690  _setupRole */\n  shl(0x20, tag_5)\n    /* \"contracts/CurrencyReceiver.sol\":680:715  _setupRole(REFUND_ROLE, msg.sender) */\n  0x20\n  shr\n  jump\t// in\ntag_7:\n    /* \"contracts/CurrencyReceiver.sol\":725:773  _setRoleAdmin(WITHDRAW_ROLE, DEFAULT_ADMIN_ROLE) */\n  tag_8\n    /* \"contracts/CurrencyReceiver.sol\":422:448  keccak256(\"WITHDRAW_ROLE\") */\n  0x5d8e12c39142ff96d79d04d15d1ba1269e4fe57bb9d26f43523628b34ba108ec\n    /* \"@openzeppelin/contracts/access/AccessControl.sol\":2072:2076  0x00 */\n  0x00\n    /* \"contracts/CurrencyReceiver.sol\":754:772  DEFAULT_ADMIN_ROLE */\n  dup1\n  shl\n    /* \"contracts/CurrencyReceiver.sol\":725:738  _setRoleAdmin */\n  shl(0x20, tag_9)\n    /* \"contracts/CurrencyReceiver.sol\":725:773  _setRoleAdmin(WITHDRAW_ROLE, DEFAULT_ADMIN_ROLE) */\n  0x20\n  shr\n  jump\t// in\ntag_8:\n    /* \"contracts/CurrencyReceiver.sol\":783:829  _setRoleAdmin(REFUND_ROLE, DEFAULT_ADMIN_ROLE) */\n  tag_10\n    /* \"contracts/CurrencyReceiver.sol\":492:516  keccak256(\"REFUND_ROLE\") */\n  0xf1f91cdf1f18aaac45ca4aaddade87aabc2746f6d044da7cf8544558c5776172\n    /* \"@openzeppelin/contracts/access/AccessControl.sol\":2072:2076  0x00 */\n  0x00\n    /* \"contracts/CurrencyReceiver.sol\":810:828  DEFAULT_ADMIN_ROLE */\n  dup1\n  shl\n    /* \"contracts/CurrencyReceiver.sol\":783:796  _setRoleAdmin */\n  shl(0x20, tag_9)\n    /* \"contracts/CurrencyReceiver.sol\":783:829  _setRoleAdmin(REFUND_ROLE, DEFAULT_ADMIN_ROLE) */\n  0x20\n  shr\n  jump\t// in\ntag_10:\n    /* \"contracts/CurrencyReceiver.sol\":313:2724  contract CurrencyReceiver is ICurrencyReceiver, AccessControl {... */\n  jump(tag_11)\n    /* \"@openzeppelin/contracts/access/AccessControl.sol\":6811:6921  function _setupRole(bytes32 role, address account) internal virtual {... */\ntag_5:\n    /* \"@openzeppelin/contracts/access/AccessControl.sol\":6889:6914  _grantRole(role, account) */\n  tag_13\n    /* \"@openzeppelin/contracts/access/AccessControl.sol\":6900:6904  role */\n  dup3\n    /* \"@openzeppelin/contracts/access/AccessControl.sol\":6906:6913  account */\n  dup3\n    /* \"@openzeppelin/contracts/access/AccessControl.sol\":6889:6899  _grantRole */\n  shl(0x20, tag_14)\n    /* \"@openzeppelin/contracts/access/AccessControl.sol\":6889:6914  _grantRole(role, account) */\n  0x20\n  shr\n  jump\t// in\ntag_13:\n    /* \"@openzeppelin/contracts/access/AccessControl.sol\":6811:6921  function _setupRole(bytes32 role, address account) internal virtual {... */\n  pop\n  pop\n  jump\t// out\n    /* \"@openzeppelin/contracts/access/AccessControl.sol\":7046:7293  function _setRoleAdmin(bytes32 role, bytes32 adminRole) internal virtual {... */\ntag_9:\n    /* \"@openzeppelin/contracts/access/AccessControl.sol\":7129:7154  bytes32 previousAdminRole */\n  0x00\n    /* \"@openzeppelin/contracts/access/AccessControl.sol\":7157:7175  getRoleAdmin(role) */\n  tag_16\n    /* \"@openzeppelin/contracts/access/AccessControl.sol\":7170:7174  role */\n  dup4\n    /* \"@openzeppelin/contracts/access/AccessControl.sol\":7157:7169  getRoleAdmin */\n  shl(0x20, tag_17)\n    /* \"@openzeppelin/contracts/access/AccessControl.sol\":7157:7175  getRoleAdmin(role) */\n  0x20\n  shr\n  jump\t// in\ntag_16:\n    /* \"@openzeppelin/contracts/access/AccessControl.sol\":7129:7175  bytes32 previousAdminRole = getRoleAdmin(role) */\n  swap1\n  pop\n    /* \"@openzeppelin/contracts/access/AccessControl.sol\":7210:7219  adminRole */\n  dup2\n    /* \"@openzeppelin/contracts/access/AccessControl.sol\":7185:7191  _roles */\n  0x00\n    /* \"@openzeppelin/contracts/access/AccessControl.sol\":7185:7197  _roles[role] */\n  dup1\n    /* \"@openzeppelin/contracts/access/AccessControl.sol\":7192:7196  role */\n  dup6\n    /* \"@openzeppelin/contracts/access/AccessControl.sol\":7185:7197  _roles[role] */\n  dup2\n  mstore\n  0x20\n  add\n  swap1\n  dup2\n  mstore\n  0x20\n  add\n  0x00\n  keccak256\n    /* \"@openzeppelin/contracts/access/AccessControl.sol\":7185:7207  _roles[role].adminRole */\n  0x01\n  add\n    /* \"@openzeppelin/contracts/access/AccessControl.sol\":7185:7219  _roles[role].adminRole = adminRole */\n  dup2\n  swap1\n  sstore\n  pop\n    /* \"@openzeppelin/contracts/access/AccessControl.sol\":7276:7285  adminRole */\n  dup2\n    /* \"@openzeppelin/contracts/access/AccessControl.sol\":7257:7274  previousAdminRole */\n  dup2\n    /* \"@openzeppelin/contracts/access/AccessControl.sol\":7251:7255  role */\n  dup5\n    /* \"@openzeppelin/contracts/access/AccessControl.sol\":7234:7286  RoleAdminChanged(role, previousAdminRole, adminRole) */\n  0xbd79b86ffe0ab8e8776151514217cd7cacd52c909f66475c3af44e129f0b00ff\n  mload(0x40)\n  mload(0x40)\n  dup1\n  swap2\n  sub\n  swap1\n  log4\n    /* \"@openzeppelin/contracts/access/AccessControl.sol\":7119:7293  {... */\n  pop\n    /* \"@openzeppelin/contracts/access/AccessControl.sol\":7046:7293  function _setRoleAdmin(bytes32 role, bytes32 adminRole) internal virtual {... */\n  pop\n  pop\n  jump\t// out\n    /* \"@openzeppelin/contracts/access/AccessControl.sol\":7461:7694  function _grantRole(bytes32 role, address account) internal virtual {... */\ntag_14:\n    /* \"@openzeppelin/contracts/access/AccessControl.sol\":7544:7566  hasRole(role, account) */\n  tag_19\n    /* \"@openzeppelin/contracts/access/AccessControl.sol\":7552:7556  role */\n  dup3\n    /* \"@openzeppelin/contracts/access/AccessControl.sol\":7558:7565  account */\n  dup3\n    /* \"@openzeppelin/contracts/access/AccessControl.sol\":7544:7551  hasRole */\n  shl(0x20, tag_20)\n    /* \"@openzeppelin/contracts/access/AccessControl.sol\":7544:7566  hasRole(role, account) */\n  0x20\n  shr\n  jump\t// in\ntag_19:\n    /* \"@openzeppelin/contracts/access/AccessControl.sol\":7539:7688  if (!hasRole(role, account)) {... */\n  tag_21\n  jumpi\n    /* \"@openzeppelin/contracts/access/AccessControl.sol\":7614:7618  true */\n  0x01\n    /* \"@openzeppelin/contracts/access/AccessControl.sol\":7582:7588  _roles */\n  0x00\n    /* \"@openzeppelin/contracts/access/AccessControl.sol\":7582:7594  _roles[role] */\n  dup1\n    /* \"@openzeppelin/contracts/access/AccessControl.sol\":7589:7593  role */\n  dup5\n    /* \"@openzeppelin/contracts/access/AccessControl.sol\":7582:7594  _roles[role] */\n  dup2\n  mstore\n  0x20\n  add\n  swap1\n  dup2\n  mstore\n  0x20\n  add\n  0x00\n  keccak256\n    /* \"@openzeppelin/contracts/access/AccessControl.sol\":7582:7602  _roles[role].members */\n  0x00\n  add\n    /* \"@openzeppelin/contracts/access/AccessControl.sol\":7582:7611  _roles[role].members[account] */\n  0x00\n    /* \"@openzeppelin/contracts/access/AccessControl.sol\":7603:7610  account */\n  dup4\n    /* \"@openzeppelin/contracts/access/AccessControl.sol\":7582:7611  _roles[role].members[account] */\n  0xffffffffffffffffffffffffffffffffffffffff\n  and\n  0xffffffffffffffffffffffffffffffffffffffff\n  and\n  dup2\n  mstore\n  0x20\n  add\n  swap1\n  dup2\n  mstore\n  0x20\n  add\n  0x00\n  keccak256\n  0x00\n    /* \"@openzeppelin/contracts/access/AccessControl.sol\":7582:7618  _roles[role].members[account] = true */\n  0x0100\n  exp\n  dup2\n  sload\n  dup2\n  0xff\n  mul\n  not\n  and\n  swap1\n  dup4\n  iszero\n  iszero\n  mul\n  or\n  swap1\n  sstore\n  pop\n    /* \"@openzeppelin/contracts/access/AccessControl.sol\":7664:7676  _msgSender() */\n  tag_22\n    /* \"@openzeppelin/contracts/access/AccessControl.sol\":7664:7674  _msgSender */\n  shl(0x20, tag_23)\n    /* \"@openzeppelin/contracts/access/AccessControl.sol\":7664:7676  _msgSender() */\n  0x20\n  shr\n  jump\t// in\ntag_22:\n    /* \"@openzeppelin/contracts/access/AccessControl.sol\":7637:7677  RoleGranted(role, account, _msgSender()) */\n  0xffffffffffffffffffffffffffffffffffffffff\n  and\n    /* \"@openzeppelin/contracts/access/AccessControl.sol\":7655:7662  account */\n  dup2\n    /* \"@openzeppelin/contracts/access/AccessControl.sol\":7637:7677  RoleGranted(role, account, _msgSender()) */\n  0xffffffffffffffffffffffffffffffffffffffff\n  and\n    /* \"@openzeppelin/contracts/access/AccessControl.sol\":7649:7653  role */\n  dup4\n    /* \"@openzeppelin/contracts/access/AccessControl.sol\":7637:7677  RoleGranted(role, account, _msgSender()) */\n  0x2f8788117e7eff1d82e926ec794901d17c78024a50270940304540a733656f0d\n  mload(0x40)\n  mload(0x40)\n  dup1\n  swap2\n  sub\n  swap1\n  log4\n    /* \"@openzeppelin/contracts/access/AccessControl.sol\":7539:7688  if (!hasRole(role, account)) {... */\ntag_21:\n    /* \"@openzeppelin/contracts/access/AccessControl.sol\":7461:7694  function _grantRole(bytes32 role, address account) internal virtual {... */\n  pop\n  pop\n  jump\t// out\n    /* \"@openzeppelin/contracts/access/AccessControl.sol\":4378:4507  function getRoleAdmin(bytes32 role) public view virtual override returns (bytes32) {... */\ntag_17:\n    /* \"@openzeppelin/contracts/access/AccessControl.sol\":4452:4459  bytes32 */\n  0x00\n    /* \"@openzeppelin/contracts/access/AccessControl.sol\":4478:4484  _roles */\n  dup1\n    /* \"@openzeppelin/contracts/access/AccessControl.sol\":4478:4490  _roles[role] */\n  0x00\n    /* \"@openzeppelin/contracts/access/AccessControl.sol\":4485:4489  role */\n  dup4\n    /* \"@openzeppelin/contracts/access/AccessControl.sol\":4478:4490  _roles[role] */\n  dup2\n  mstore\n  0x20\n  add\n  swap1\n  dup2\n  mstore\n  0x20\n  add\n  0x00\n  keccak256\n    /* \"@openzeppelin/contracts/access/AccessControl.sol\":4478:4500  _roles[role].adminRole */\n  0x01\n  add\n  sload\n    /* \"@openzeppelin/contracts/access/AccessControl.sol\":4471:4500  return _roles[role].adminRole */\n  swap1\n  pop\n    /* \"@openzeppelin/contracts/access/AccessControl.sol\":4378:4507  function getRoleAdmin(bytes32 role) public view virtual override returns (bytes32) {... */\n  swap2\n  swap1\n  pop\n  jump\t// out\n    /* \"@openzeppelin/contracts/access/AccessControl.sol\":2895:3040  function hasRole(bytes32 role, address account) public view virtual override returns (bool) {... */\ntag_20:\n    /* \"@openzeppelin/contracts/access/AccessControl.sol\":2981:2985  bool */\n  0x00\n    /* \"@openzeppelin/contracts/access/AccessControl.sol\":3004:3010  _roles */\n  dup1\n    /* \"@openzeppelin/contracts/access/AccessControl.sol\":3004:3016  _roles[role] */\n  0x00\n    /* \"@openzeppelin/contracts/access/AccessControl.sol\":3011:3015  role */\n  dup5\n    /* \"@openzeppelin/contracts/access/AccessControl.sol\":3004:3016  _roles[role] */\n  dup2\n  mstore\n  0x20\n  add\n  swap1\n  dup2\n  mstore\n  0x20\n  add\n  0x00\n  keccak256\n    /* \"@openzeppelin/contracts/access/AccessControl.sol\":3004:3024  _roles[role].members */\n  0x00\n  add\n    /* \"@openzeppelin/contracts/access/AccessControl.sol\":3004:3033  _roles[role].members[account] */\n  0x00\n    /* \"@openzeppelin/contracts/access/AccessControl.sol\":3025:3032  account */\n  dup4\n    /* \"@openzeppelin/contracts/access/AccessControl.sol\":3004:3033  _roles[role].members[account] */\n  0xffffffffffffffffffffffffffffffffffffffff\n  and\n  0xffffffffffffffffffffffffffffffffffffffff\n  and\n  dup2\n  mstore\n  0x20\n  add\n  swap1\n  dup2\n  mstore\n  0x20\n  add\n  0x00\n  keccak256\n  0x00\n  swap1\n  sload\n  swap1\n  0x0100\n  exp\n  swap1\n  div\n  0xff\n  and\n    /* \"@openzeppelin/contracts/access/AccessControl.sol\":2997:3033  return _roles[role].members[account] */\n  swap1\n  pop\n    /* \"@openzeppelin/contracts/access/AccessControl.sol\":2895:3040  function hasRole(bytes32 role, address account) public view virtual override returns (bool) {... */\n  swap3\n  swap2\n  pop\n  pop\n  jump\t// out\n    /* \"@openzeppelin/contracts/utils/Context.sol\":640:736  function _msgSender() internal view virtual returns (address) {... */\ntag_23:\n    /* \"@openzeppelin/contracts/utils/Context.sol\":693:700  address */\n  0x00\n    /* \"@openzeppelin/contracts/utils/Context.sol\":719:729  msg.sender */\n  caller\n    /* \"@openzeppelin/contracts/utils/Context.sol\":712:729  return msg.sender */\n  swap1\n  pop\n    /* \"@openzeppelin/contracts/utils/Context.sol\":640:736  function _msgSender() internal view virtual returns (address) {... */\n  swap1\n  jump\t// out\n    /* \"contracts/CurrencyReceiver.sol\":313:2724  contract CurrencyReceiver is ICurrencyReceiver, AccessControl {... */\ntag_11:\n  dataSize(sub_0)\n  dup1\n  dataOffset(sub_0)\n  0x00\n  codecopy\n  0x00\n  return\nstop\n\nsub_0: assembly {\n        /* \"contracts/CurrencyReceiver.sol\":313:2724  contract CurrencyReceiver is ICurrencyReceiver, AccessControl {... */\n      mstore(0x40, 0x80)\n      callvalue\n      dup1\n      iszero\n      tag_1\n      jumpi\n      0x00\n      dup1\n      revert\n    tag_1:\n      pop\n      jumpi(tag_2, lt(calldatasize, 0x04))\n      shr(0xe0, calldataload(0x00))\n      dup1\n      0x627c0906\n      gt\n      tag_16\n      jumpi\n      dup1\n      0xa217fddf\n      gt\n      tag_17\n      jumpi\n      dup1\n      0xa217fddf\n      eq\n      tag_12\n      jumpi\n      dup1\n      0xd547741f\n      eq\n      tag_13\n      jumpi\n      dup1\n      0xe02023a1\n      eq\n      tag_14\n      jumpi\n      dup1\n      0xea4e6c5c\n      eq\n      tag_15\n      jumpi\n      jump(tag_2)\n    tag_17:\n      dup1\n      0x627c0906\n      eq\n      tag_9\n      jumpi\n      dup1\n      0x70a08231\n      eq\n      tag_10\n      jumpi\n      dup1\n      0x91d14854\n      eq\n      tag_11\n      jumpi\n      jump(tag_2)\n    tag_16:\n      dup1\n      0x01ffc9a7\n      eq\n      tag_3\n      jumpi\n      dup1\n      0x248a9ca3\n      eq\n      tag_4\n      jumpi\n      dup1\n      0x2f2ff15d\n      eq\n      tag_5\n      jumpi\n      dup1\n      0x36568abe\n      eq\n      tag_6\n      jumpi\n      dup1\n      0x4a4bdb30\n      eq\n      tag_7\n      jumpi\n      dup1\n      0x56edb469\n      eq\n      tag_8\n      jumpi\n    tag_2:\n      0x00\n      dup1\n      revert\n        /* \"@openzeppelin/contracts/access/AccessControl.sol\":2606:2808  function supportsInterface(bytes4 interfaceId) public view virtual override returns (bool) {... */\n    tag_3:\n      tag_18\n      0x04\n      dup1\n      calldatasize\n      sub\n      dup2\n      add\n      swap1\n      tag_19\n      swap2\n      swap1\n      tag_20\n      jump\t// in\n    tag_19:\n      tag_21\n      jump\t// in\n    tag_18:\n      mload(0x40)\n      tag_22\n      swap2\n      swap1\n      tag_23\n      jump\t// in\n    tag_22:\n      mload(0x40)\n      dup1\n      swap2\n      sub\n      swap1\n      return\n        /* \"@openzeppelin/contracts/access/AccessControl.sol\":4378:4507  function getRoleAdmin(bytes32 role) public view virtual override returns (bytes32) {... */\n    tag_4:\n      tag_24\n      0x04\n      dup1\n      calldatasize\n      sub\n      dup2\n      add\n      swap1\n      tag_25\n      swap2\n      swap1\n      tag_26\n      jump\t// in\n    tag_25:\n      tag_27\n      jump\t// in\n    tag_24:\n      mload(0x40)\n      tag_28\n      swap2\n      swap1\n      tag_29\n      jump\t// in\n    tag_28:\n      mload(0x40)\n      dup1\n      swap2\n      sub\n      swap1\n      return\n        /* \"@openzeppelin/contracts/access/AccessControl.sol\":4803:4948  function grantRole(bytes32 role, address account) public virtual override onlyRole(getRoleAdmin(role)) {... */\n    tag_5:\n      tag_30\n      0x04\n      dup1\n      calldatasize\n      sub\n      dup2\n      add\n      swap1\n      tag_31\n      swap2\n      swap1\n      tag_32\n      jump\t// in\n    tag_31:\n      tag_33\n      jump\t// in\n    tag_30:\n      stop\n        /* \"@openzeppelin/contracts/access/AccessControl.sol\":5912:6126  function renounceRole(bytes32 role, address account) public virtual override {... */\n    tag_6:\n      tag_34\n      0x04\n      dup1\n      calldatasize\n      sub\n      dup2\n      add\n      swap1\n      tag_35\n      swap2\n      swap1\n      tag_32\n      jump\t// in\n    tag_35:\n      tag_36\n      jump\t// in\n    tag_34:\n      stop\n        /* \"contracts/CurrencyReceiver.sol\":842:1200  function pay(... */\n    tag_7:\n      tag_37\n      0x04\n      dup1\n      calldatasize\n      sub\n      dup2\n      add\n      swap1\n      tag_38\n      swap2\n      swap1\n      tag_39\n      jump\t// in\n    tag_38:\n      tag_40\n      jump\t// in\n    tag_37:\n      stop\n        /* \"contracts/CurrencyReceiver.sol\":1802:2501  function refund(... */\n    tag_8:\n      tag_41\n      0x04\n      dup1\n      calldatasize\n      sub\n      dup2\n      add\n      swap1\n      tag_42\n      swap2\n      swap1\n      tag_43\n      jump\t// in\n    tag_42:\n      tag_44\n      jump\t// in\n    tag_41:\n      stop\n        /* \"contracts/CurrencyReceiver.sol\":454:516  bytes32 public constant REFUND_ROLE = keccak256(\"REFUND_ROLE\") */\n    tag_9:\n      tag_45\n      tag_46\n      jump\t// in\n    tag_45:\n      mload(0x40)\n      tag_47\n      swap2\n      swap1\n      tag_29\n      jump\t// in\n    tag_47:\n      mload(0x40)\n      dup1\n      swap2\n      sub\n      swap1\n      return\n        /* \"contracts/CurrencyReceiver.sol\":2507:2721  function balanceOf(... */\n    tag_10:\n      tag_48\n      0x04\n      dup1\n      calldatasize\n      sub\n      dup2\n      add\n      swap1\n      tag_49\n      swap2\n      swap1\n      tag_50\n      jump\t// in\n    tag_49:\n      tag_51\n      jump\t// in\n    tag_48:\n      mload(0x40)\n      tag_52\n      swap2\n      swap1\n      tag_53\n      jump\t// in\n    tag_52:\n      mload(0x40)\n      dup1\n      swap2\n      sub\n      swap1\n      return\n        /* \"@openzeppelin/contracts/access/AccessControl.sol\":2895:3040  function hasRole(bytes32 role, address account) public view virtual override returns (bool) {... */\n    tag_11:\n      tag_54\n      0x04\n      dup1\n      calldatasize\n      sub\n      dup2\n      add\n      swap1\n      tag_55\n      swap2\n      swap1\n      tag_32\n      jump\t// in\n    tag_55:\n      tag_56\n      jump\t// in\n    tag_54:\n      mload(0x40)\n      tag_57\n      swap2\n      swap1\n      tag_23\n      jump\t// in\n    tag_57:\n      mload(0x40)\n      dup1\n      swap2\n      sub\n      swap1\n      return\n        /* \"@openzeppelin/contracts/access/AccessControl.sol\":2027:2076  bytes32 public constant DEFAULT_ADMIN_ROLE = 0x00 */\n    tag_12:\n      tag_58\n      tag_59\n      jump\t// in\n    tag_58:\n      mload(0x40)\n      tag_60\n      swap2\n      swap1\n      tag_29\n      jump\t// in\n    tag_60:\n      mload(0x40)\n      dup1\n      swap2\n      sub\n      swap1\n      return\n        /* \"@openzeppelin/contracts/access/AccessControl.sol\":5228:5375  function revokeRole(bytes32 role, address account) public virtual override onlyRole(getRoleAdmin(role)) {... */\n    tag_13:\n      tag_61\n      0x04\n      dup1\n      calldatasize\n      sub\n      dup2\n      add\n      swap1\n      tag_62\n      swap2\n      swap1\n      tag_32\n      jump\t// in\n    tag_62:\n      tag_63\n      jump\t// in\n    tag_61:\n      stop\n        /* \"contracts/CurrencyReceiver.sol\":382:448  bytes32 public constant WITHDRAW_ROLE = keccak256(\"WITHDRAW_ROLE\") */\n    tag_14:\n      tag_64\n      tag_65\n      jump\t// in\n    tag_64:\n      mload(0x40)\n      tag_66\n      swap2\n      swap1\n      tag_29\n      jump\t// in\n    tag_66:\n      mload(0x40)\n      dup1\n      swap2\n      sub\n      swap1\n      return\n        /* \"contracts/CurrencyReceiver.sol\":1206:1796  function withdraw(... */\n    tag_15:\n      tag_67\n      0x04\n      dup1\n      calldatasize\n      sub\n      dup2\n      add\n      swap1\n      tag_68\n      swap2\n      swap1\n      tag_43\n      jump\t// in\n    tag_68:\n      tag_69\n      jump\t// in\n    tag_67:\n      stop\n        /* \"@openzeppelin/contracts/access/AccessControl.sol\":2606:2808  function supportsInterface(bytes4 interfaceId) public view virtual override returns (bool) {... */\n    tag_21:\n        /* \"@openzeppelin/contracts/access/AccessControl.sol\":2691:2695  bool */\n      0x00\n        /* \"@openzeppelin/contracts/access/AccessControl.sol\":2729:2761  type(IAccessControl).interfaceId */\n      0x7965db0b00000000000000000000000000000000000000000000000000000000\n        /* \"@openzeppelin/contracts/access/AccessControl.sol\":2714:2761  interfaceId == type(IAccessControl).interfaceId */\n      not(0xffffffffffffffffffffffffffffffffffffffffffffffffffffffff)\n      and\n        /* \"@openzeppelin/contracts/access/AccessControl.sol\":2714:2725  interfaceId */\n      dup3\n        /* \"@openzeppelin/contracts/access/AccessControl.sol\":2714:2761  interfaceId == type(IAccessControl).interfaceId */\n      not(0xffffffffffffffffffffffffffffffffffffffffffffffffffffffff)\n      and\n      eq\n        /* \"@openzeppelin/contracts/access/AccessControl.sol\":2714:2801  interfaceId == type(IAccessControl).interfaceId || super.supportsInterface(interfaceId) */\n      dup1\n      tag_71\n      jumpi\n      pop\n        /* \"@openzeppelin/contracts/access/AccessControl.sol\":2765:2801  super.supportsInterface(interfaceId) */\n      tag_72\n        /* \"@openzeppelin/contracts/access/AccessControl.sol\":2789:2800  interfaceId */\n      dup3\n        /* \"@openzeppelin/contracts/access/AccessControl.sol\":2765:2788  super.supportsInterface */\n      tag_73\n        /* \"@openzeppelin/contracts/access/AccessControl.sol\":2765:2801  super.supportsInterface(interfaceId) */\n      jump\t// in\n    tag_72:\n        /* \"@openzeppelin/contracts/access/AccessControl.sol\":2714:2801  interfaceId == type(IAccessControl).interfaceId || super.supportsInterface(interfaceId) */\n    tag_71:\n        /* \"@openzeppelin/contracts/access/AccessControl.sol\":2707:2801  return interfaceId == type(IAccessControl).interfaceId || super.supportsInterface(interfaceId) */\n      swap1\n      pop\n        /* \"@openzeppelin/contracts/access/AccessControl.sol\":2606:2808  function supportsInterface(bytes4 interfaceId) public view virtual override returns (bool) {... */\n      swap2\n      swap1\n      pop\n      jump\t// out\n        /* \"@openzeppelin/contracts/access/AccessControl.sol\":4378:4507  function getRoleAdmin(bytes32 role) public view virtual override returns (bytes32) {... */\n    tag_27:\n        /* \"@openzeppelin/contracts/access/AccessControl.sol\":4452:4459  bytes32 */\n      0x00\n        /* \"@openzeppelin/contracts/access/AccessControl.sol\":4478:4484  _roles */\n      dup1\n        /* \"@openzeppelin/contracts/access/AccessControl.sol\":4478:4490  _roles[role] */\n      0x00\n        /* \"@openzeppelin/contracts/access/AccessControl.sol\":4485:4489  role */\n      dup4\n        /* \"@openzeppelin/contracts/access/AccessControl.sol\":4478:4490  _roles[role] */\n      dup2\n      mstore\n      0x20\n      add\n      swap1\n      dup2\n      mstore\n      0x20\n      add\n      0x00\n      keccak256\n        /* \"@openzeppelin/contracts/access/AccessControl.sol\":4478:4500  _roles[role].adminRole */\n      0x01\n      add\n      sload\n        /* \"@openzeppelin/contracts/access/AccessControl.sol\":4471:4500  return _roles[role].adminRole */\n      swap1\n      pop\n        /* \"@openzeppelin/contracts/access/AccessControl.sol\":4378:4507  function getRoleAdmin(bytes32 role) public view virtual override returns (bytes32) {... */\n      swap2\n      swap1\n      pop\n      jump\t// out\n        /* \"@openzeppelin/contracts/access/AccessControl.sol\":4803:4948  function grantRole(bytes32 role, address account) public virtual override onlyRole(getRoleAdmin(role)) {... */\n    tag_33:\n        /* \"@openzeppelin/contracts/access/AccessControl.sol\":4886:4904  getRoleAdmin(role) */\n      tag_75\n        /* \"@openzeppelin/contracts/access/AccessControl.sol\":4899:4903  role */\n      dup3\n        /* \"@openzeppelin/contracts/access/AccessControl.sol\":4886:4898  getRoleAdmin */\n      tag_27\n        /* \"@openzeppelin/contracts/access/AccessControl.sol\":4886:4904  getRoleAdmin(role) */\n      jump\t// in\n    tag_75:\n        /* \"@openzeppelin/contracts/access/AccessControl.sol\":2505:2521  _checkRole(role) */\n      tag_77\n        /* \"@openzeppelin/contracts/access/AccessControl.sol\":2516:2520  role */\n      dup2\n        /* \"@openzeppelin/contracts/access/AccessControl.sol\":2505:2515  _checkRole */\n      tag_78\n        /* \"@openzeppelin/contracts/access/AccessControl.sol\":2505:2521  _checkRole(role) */\n      jump\t// in\n    tag_77:\n        /* \"@openzeppelin/contracts/access/AccessControl.sol\":4916:4941  _grantRole(role, account) */\n      tag_80\n        /* \"@openzeppelin/contracts/access/AccessControl.sol\":4927:4931  role */\n      dup4\n        /* \"@openzeppelin/contracts/access/AccessControl.sol\":4933:4940  account */\n      dup4\n        /* \"@openzeppelin/contracts/access/AccessControl.sol\":4916:4926  _grantRole */\n      tag_81\n        /* \"@openzeppelin/contracts/access/AccessControl.sol\":4916:4941  _grantRole(role, account) */\n      jump\t// in\n    tag_80:\n        /* \"@openzeppelin/contracts/access/AccessControl.sol\":4803:4948  function grantRole(bytes32 role, address account) public virtual override onlyRole(getRoleAdmin(role)) {... */\n      pop\n      pop\n      pop\n      jump\t// out\n        /* \"@openzeppelin/contracts/access/AccessControl.sol\":5912:6126  function renounceRole(bytes32 role, address account) public virtual override {... */\n    tag_36:\n        /* \"@openzeppelin/contracts/access/AccessControl.sol\":6018:6030  _msgSender() */\n      tag_83\n        /* \"@openzeppelin/contracts/access/AccessControl.sol\":6018:6028  _msgSender */\n      tag_84\n        /* \"@openzeppelin/contracts/access/AccessControl.sol\":6018:6030  _msgSender() */\n      jump\t// in\n    tag_83:\n        /* \"@openzeppelin/contracts/access/AccessControl.sol\":6007:6030  account == _msgSender() */\n      0xffffffffffffffffffffffffffffffffffffffff\n      and\n        /* \"@openzeppelin/contracts/access/AccessControl.sol\":6007:6014  account */\n      dup2\n        /* \"@openzeppelin/contracts/access/AccessControl.sol\":6007:6030  account == _msgSender() */\n      0xffffffffffffffffffffffffffffffffffffffff\n      and\n      eq\n        /* \"@openzeppelin/contracts/access/AccessControl.sol\":5999:6082  require(account == _msgSender(), \"AccessControl: can only renounce roles for self\") */\n      tag_85\n      jumpi\n      mload(0x40)\n      0x08c379a000000000000000000000000000000000000000000000000000000000\n      dup2\n      mstore\n      0x04\n      add\n      tag_86\n      swap1\n      tag_87\n      jump\t// in\n    tag_86:\n      mload(0x40)\n      dup1\n      swap2\n      sub\n      swap1\n      revert\n    tag_85:\n        /* \"@openzeppelin/contracts/access/AccessControl.sol\":6093:6119  _revokeRole(role, account) */\n      tag_88\n        /* \"@openzeppelin/contracts/access/AccessControl.sol\":6105:6109  role */\n      dup3\n        /* \"@openzeppelin/contracts/access/AccessControl.sol\":6111:6118  account */\n      dup3\n        /* \"@openzeppelin/contracts/access/AccessControl.sol\":6093:6104  _revokeRole */\n      tag_89\n        /* \"@openzeppelin/contracts/access/AccessControl.sol\":6093:6119  _revokeRole(role, account) */\n      jump\t// in\n    tag_88:\n        /* \"@openzeppelin/contracts/access/AccessControl.sol\":5912:6126  function renounceRole(bytes32 role, address account) public virtual override {... */\n      pop\n      pop\n      jump\t// out\n        /* \"contracts/CurrencyReceiver.sol\":842:1200  function pay(... */\n    tag_40:\n        /* \"contracts/CurrencyReceiver.sol\":1000:1001  0 */\n      0x00\n        /* \"contracts/CurrencyReceiver.sol\":980:1002  currency != address(0) */\n      0xffffffffffffffffffffffffffffffffffffffff\n      and\n        /* \"contracts/CurrencyReceiver.sol\":980:988  currency */\n      dup5\n        /* \"contracts/CurrencyReceiver.sol\":980:1002  currency != address(0) */\n      0xffffffffffffffffffffffffffffffffffffffff\n      and\n      sub\n        /* \"contracts/CurrencyReceiver.sol\":972:1019  require(currency != address(0),\"currency fail\") */\n      tag_91\n      jumpi\n      mload(0x40)\n      0x08c379a000000000000000000000000000000000000000000000000000000000\n      dup2\n      mstore\n      0x04\n      add\n      tag_92\n      swap1\n      tag_93\n      jump\t// in\n    tag_92:\n      mload(0x40)\n      dup1\n      swap2\n      sub\n      swap1\n      revert\n    tag_91:\n        /* \"contracts/CurrencyReceiver.sol\":1046:1047  0 */\n      0x00\n        /* \"contracts/CurrencyReceiver.sol\":1037:1043  amount */\n      dup4\n        /* \"contracts/CurrencyReceiver.sol\":1037:1047  amount > 0 */\n      gt\n        /* \"contracts/CurrencyReceiver.sol\":1029:1063  require(amount > 0 ,\"amount fail\") */\n      tag_94\n      jumpi\n      mload(0x40)\n      0x08c379a000000000000000000000000000000000000000000000000000000000\n      dup2\n      mstore\n      0x04\n      add\n      tag_95\n      swap1\n      tag_96\n      jump\t// in\n    tag_95:\n      mload(0x40)\n      dup1\n      swap2\n      sub\n      swap1\n      revert\n    tag_94:\n        /* \"contracts/CurrencyReceiver.sol\":1073:1139  IERC20(currency).safeTransferFrom(msg.sender,address(this),amount) */\n      tag_97\n        /* \"contracts/CurrencyReceiver.sol\":1107:1117  msg.sender */\n      caller\n        /* \"contracts/CurrencyReceiver.sol\":1126:1130  this */\n      address\n        /* \"contracts/CurrencyReceiver.sol\":1132:1138  amount */\n      dup6\n        /* \"contracts/CurrencyReceiver.sol\":1080:1088  currency */\n      dup8\n        /* \"contracts/CurrencyReceiver.sol\":1073:1106  IERC20(currency).safeTransferFrom */\n      0xffffffffffffffffffffffffffffffffffffffff\n      and\n      tag_98\n      swap1\n        /* \"contracts/CurrencyReceiver.sol\":1073:1139  IERC20(currency).safeTransferFrom(msg.sender,address(this),amount) */\n      swap4\n      swap3\n      swap2\n      swap1\n      0xffffffff\n      and\n      jump\t// in\n    tag_97:\n        /* \"contracts/CurrencyReceiver.sol\":1167:1177  msg.sender */\n      caller\n        /* \"contracts/CurrencyReceiver.sol\":1154:1193  Pay(currency,msg.sender,amount,orderId) */\n      0xffffffffffffffffffffffffffffffffffffffff\n      and\n        /* \"contracts/CurrencyReceiver.sol\":1158:1166  currency */\n      dup5\n        /* \"contracts/CurrencyReceiver.sol\":1154:1193  Pay(currency,msg.sender,amount,orderId) */\n      0xffffffffffffffffffffffffffffffffffffffff\n      and\n      0x5d2ae1cdca5222ec8fffbc4b088f5b5144ad5f4eaf2fc8afc49cd35857671082\n        /* \"contracts/CurrencyReceiver.sol\":1178:1184  amount */\n      dup6\n        /* \"contracts/CurrencyReceiver.sol\":1185:1192  orderId */\n      dup6\n      dup6\n        /* \"contracts/CurrencyReceiver.sol\":1154:1193  Pay(currency,msg.sender,amount,orderId) */\n      mload(0x40)\n      tag_99\n      swap4\n      swap3\n      swap2\n      swap1\n      tag_100\n      jump\t// in\n    tag_99:\n      mload(0x40)\n      dup1\n      swap2\n      sub\n      swap1\n      log3\n        /* \"contracts/CurrencyReceiver.sol\":842:1200  function pay(... */\n      pop\n      pop\n      pop\n      pop\n      jump\t// out\n        /* \"contracts/CurrencyReceiver.sol\":1802:2501  function refund(... */\n    tag_44:\n        /* \"contracts/CurrencyReceiver.sol\":492:516  keccak256(\"REFUND_ROLE\") */\n      0xf1f91cdf1f18aaac45ca4aaddade87aabc2746f6d044da7cf8544558c5776172\n        /* \"@openzeppelin/contracts/access/AccessControl.sol\":2505:2521  _checkRole(role) */\n      tag_102\n        /* \"@openzeppelin/contracts/access/AccessControl.sol\":2516:2520  role */\n      dup2\n        /* \"@openzeppelin/contracts/access/AccessControl.sol\":2505:2515  _checkRole */\n      tag_78\n        /* \"@openzeppelin/contracts/access/AccessControl.sol\":2505:2521  _checkRole(role) */\n      jump\t// in\n    tag_102:\n        /* \"contracts/CurrencyReceiver.sol\":2039:2040  0 */\n      0x00\n        /* \"contracts/CurrencyReceiver.sol\":2021:2029  currency */\n      dup10\n      dup10\n        /* \"contracts/CurrencyReceiver.sol\":2021:2036  currency.length */\n      swap1\n      pop\n        /* \"contracts/CurrencyReceiver.sol\":2021:2040  currency.length > 0 */\n      gt\n        /* \"contracts/CurrencyReceiver.sol\":2013:2057  require(currency.length > 0,\"currency fail\") */\n      tag_104\n      jumpi\n      mload(0x40)\n      0x08c379a000000000000000000000000000000000000000000000000000000000\n      dup2\n      mstore\n      0x04\n      add\n      tag_105\n      swap1\n      tag_93\n      jump\t// in\n    tag_105:\n      mload(0x40)\n      dup1\n      swap2\n      sub\n      swap1\n      revert\n    tag_104:\n        /* \"contracts/CurrencyReceiver.sol\":2094:2100  amount */\n      dup7\n      dup7\n        /* \"contracts/CurrencyReceiver.sol\":2094:2107  amount.length */\n      swap1\n      pop\n        /* \"contracts/CurrencyReceiver.sol\":2075:2083  currency */\n      dup10\n      dup10\n        /* \"contracts/CurrencyReceiver.sol\":2075:2090  currency.length */\n      swap1\n      pop\n        /* \"contracts/CurrencyReceiver.sol\":2075:2107  currency.length == amount.length */\n      eq\n        /* \"contracts/CurrencyReceiver.sol\":2067:2122  require(currency.length == amount.length,\"amount fail\") */\n      tag_106\n      jumpi\n      mload(0x40)\n      0x08c379a000000000000000000000000000000000000000000000000000000000\n      dup2\n      mstore\n      0x04\n      add\n      tag_107\n      swap1\n      tag_96\n      jump\t// in\n    tag_107:\n      mload(0x40)\n      dup1\n      swap2\n      sub\n      swap1\n      revert\n    tag_106:\n        /* \"contracts/CurrencyReceiver.sol\":2159:2161  to */\n      dup5\n      dup5\n        /* \"contracts/CurrencyReceiver.sol\":2159:2168  to.length */\n      swap1\n      pop\n        /* \"contracts/CurrencyReceiver.sol\":2140:2148  currency */\n      dup10\n      dup10\n        /* \"contracts/CurrencyReceiver.sol\":2140:2155  currency.length */\n      swap1\n      pop\n        /* \"contracts/CurrencyReceiver.sol\":2140:2168  currency.length == to.length */\n      eq\n        /* \"contracts/CurrencyReceiver.sol\":2132:2179  require(currency.length == to.length,\"to fail\") */\n      tag_108\n      jumpi\n      mload(0x40)\n      0x08c379a000000000000000000000000000000000000000000000000000000000\n      dup2\n      mstore\n      0x04\n      add\n      tag_109\n      swap1\n      tag_110\n      jump\t// in\n    tag_109:\n      mload(0x40)\n      dup1\n      swap2\n      sub\n      swap1\n      revert\n    tag_108:\n        /* \"contracts/CurrencyReceiver.sol\":2216:2223  orderId */\n      dup3\n      dup3\n        /* \"contracts/CurrencyReceiver.sol\":2216:2230  orderId.length */\n      swap1\n      pop\n        /* \"contracts/CurrencyReceiver.sol\":2197:2205  currency */\n      dup10\n      dup10\n        /* \"contracts/CurrencyReceiver.sol\":2197:2212  currency.length */\n      swap1\n      pop\n        /* \"contracts/CurrencyReceiver.sol\":2197:2230  currency.length == orderId.length */\n      eq\n        /* \"contracts/CurrencyReceiver.sol\":2189:2246  require(currency.length == orderId.length,\"orderId fail\") */\n      tag_111\n      jumpi\n      mload(0x40)\n      0x08c379a000000000000000000000000000000000000000000000000000000000\n      dup2\n      mstore\n      0x04\n      add\n      tag_112\n      swap1\n      tag_113\n      jump\t// in\n    tag_112:\n      mload(0x40)\n      dup1\n      swap2\n      sub\n      swap1\n      revert\n    tag_111:\n        /* \"contracts/CurrencyReceiver.sol\":2261:2270  uint256 i */\n      0x00\n        /* \"contracts/CurrencyReceiver.sol\":2257:2486  for(uint256 i=0;i<currency.length;i++) {... */\n    tag_114:\n        /* \"contracts/CurrencyReceiver.sol\":2275:2283  currency */\n      dup10\n      dup10\n        /* \"contracts/CurrencyReceiver.sol\":2275:2290  currency.length */\n      swap1\n      pop\n        /* \"contracts/CurrencyReceiver.sol\":2273:2274  i */\n      dup2\n        /* \"contracts/CurrencyReceiver.sol\":2273:2290  i<currency.length */\n      lt\n        /* \"contracts/CurrencyReceiver.sol\":2257:2486  for(uint256 i=0;i<currency.length;i++) {... */\n      iszero\n      tag_115\n      jumpi\n        /* \"contracts/CurrencyReceiver.sol\":2330:2331  0 */\n      0x00\n        /* \"contracts/CurrencyReceiver.sol\":2318:2324  amount */\n      dup9\n      dup9\n        /* \"contracts/CurrencyReceiver.sol\":2325:2326  i */\n      dup4\n        /* \"contracts/CurrencyReceiver.sol\":2318:2327  amount[i] */\n      dup2\n      dup2\n      lt\n      tag_117\n      jumpi\n      tag_118\n      tag_119\n      jump\t// in\n    tag_118:\n    tag_117:\n      swap1\n      pop\n      0x20\n      mul\n      add\n      calldataload\n        /* \"contracts/CurrencyReceiver.sol\":2318:2331  amount[i] > 0 */\n      gt\n        /* \"contracts/CurrencyReceiver.sol\":2310:2347  require(amount[i] > 0, \"amount fail\") */\n      tag_120\n      jumpi\n      mload(0x40)\n      0x08c379a000000000000000000000000000000000000000000000000000000000\n      dup2\n      mstore\n      0x04\n      add\n      tag_121\n      swap1\n      tag_96\n      jump\t// in\n    tag_121:\n      mload(0x40)\n      dup1\n      swap2\n      sub\n      swap1\n      revert\n    tag_120:\n        /* \"contracts/CurrencyReceiver.sol\":2361:2410  IERC20(currency[i]).safeTransfer(to[i],amount[i]) */\n      tag_122\n        /* \"contracts/CurrencyReceiver.sol\":2394:2396  to */\n      dup7\n      dup7\n        /* \"contracts/CurrencyReceiver.sol\":2397:2398  i */\n      dup4\n        /* \"contracts/CurrencyReceiver.sol\":2394:2399  to[i] */\n      dup2\n      dup2\n      lt\n      tag_123\n      jumpi\n      tag_124\n      tag_119\n      jump\t// in\n    tag_124:\n    tag_123:\n      swap1\n      pop\n      0x20\n      mul\n      add\n      0x20\n      dup2\n      add\n      swap1\n      tag_125\n      swap2\n      swap1\n      tag_50\n      jump\t// in\n    tag_125:\n        /* \"contracts/CurrencyReceiver.sol\":2400:2406  amount */\n      dup10\n      dup10\n        /* \"contracts/CurrencyReceiver.sol\":2407:2408  i */\n      dup5\n        /* \"contracts/CurrencyReceiver.sol\":2400:2409  amount[i] */\n      dup2\n      dup2\n      lt\n      tag_126\n      jumpi\n      tag_127\n      tag_119\n      jump\t// in\n    tag_127:\n    tag_126:\n      swap1\n      pop\n      0x20\n      mul\n      add\n      calldataload\n        /* \"contracts/CurrencyReceiver.sol\":2368:2376  currency */\n      dup13\n      dup13\n        /* \"contracts/CurrencyReceiver.sol\":2377:2378  i */\n      dup6\n        /* \"contracts/CurrencyReceiver.sol\":2368:2379  currency[i] */\n      dup2\n      dup2\n      lt\n      tag_128\n      jumpi\n      tag_129\n      tag_119\n      jump\t// in\n    tag_129:\n    tag_128:\n      swap1\n      pop\n      0x20\n      mul\n      add\n      0x20\n      dup2\n      add\n      swap1\n      tag_130\n      swap2\n      swap1\n      tag_50\n      jump\t// in\n    tag_130:\n        /* \"contracts/CurrencyReceiver.sol\":2361:2393  IERC20(currency[i]).safeTransfer */\n      0xffffffffffffffffffffffffffffffffffffffff\n      and\n      tag_131\n      swap1\n        /* \"contracts/CurrencyReceiver.sol\":2361:2410  IERC20(currency[i]).safeTransfer(to[i],amount[i]) */\n      swap3\n      swap2\n      swap1\n      0xffffffff\n      and\n      jump\t// in\n    tag_122:\n        /* \"contracts/CurrencyReceiver.sol\":2458:2460  to */\n      dup6\n      dup6\n        /* \"contracts/CurrencyReceiver.sol\":2461:2462  i */\n      dup3\n        /* \"contracts/CurrencyReceiver.sol\":2458:2463  to[i] */\n      dup2\n      dup2\n      lt\n      tag_132\n      jumpi\n      tag_133\n      tag_119\n      jump\t// in\n    tag_133:\n    tag_132:\n      swap1\n      pop\n      0x20\n      mul\n      add\n      0x20\n      dup2\n      add\n      swap1\n      tag_134\n      swap2\n      swap1\n      tag_50\n      jump\t// in\n    tag_134:\n        /* \"contracts/CurrencyReceiver.sol\":2429:2475  Refund(currency[i],amount[i],to[i],orderId[i]) */\n      0xffffffffffffffffffffffffffffffffffffffff\n      and\n        /* \"contracts/CurrencyReceiver.sol\":2436:2444  currency */\n      dup11\n      dup11\n        /* \"contracts/CurrencyReceiver.sol\":2445:2446  i */\n      dup4\n        /* \"contracts/CurrencyReceiver.sol\":2436:2447  currency[i] */\n      dup2\n      dup2\n      lt\n      tag_135\n      jumpi\n      tag_136\n      tag_119\n      jump\t// in\n    tag_136:\n    tag_135:\n      swap1\n      pop\n      0x20\n      mul\n      add\n      0x20\n      dup2\n      add\n      swap1\n      tag_137\n      swap2\n      swap1\n      tag_50\n      jump\t// in\n    tag_137:\n        /* \"contracts/CurrencyReceiver.sol\":2429:2475  Refund(currency[i],amount[i],to[i],orderId[i]) */\n      0xffffffffffffffffffffffffffffffffffffffff\n      and\n      0x1a50ff908577c6023d20715c654df4d0ac65bbb4ee6422490751a0489f85dc67\n        /* \"contracts/CurrencyReceiver.sol\":2448:2454  amount */\n      dup11\n      dup11\n        /* \"contracts/CurrencyReceiver.sol\":2455:2456  i */\n      dup6\n        /* \"contracts/CurrencyReceiver.sol\":2448:2457  amount[i] */\n      dup2\n      dup2\n      lt\n      tag_138\n      jumpi\n      tag_139\n      tag_119\n      jump\t// in\n    tag_139:\n    tag_138:\n      swap1\n      pop\n      0x20\n      mul\n      add\n      calldataload\n        /* \"contracts/CurrencyReceiver.sol\":2464:2471  orderId */\n      dup8\n      dup8\n        /* \"contracts/CurrencyReceiver.sol\":2472:2473  i */\n      dup7\n        /* \"contracts/CurrencyReceiver.sol\":2464:2474  orderId[i] */\n      dup2\n      dup2\n      lt\n      tag_140\n      jumpi\n      tag_141\n      tag_119\n      jump\t// in\n    tag_141:\n    tag_140:\n      swap1\n      pop\n      0x20\n      mul\n      dup2\n      add\n      swap1\n      tag_142\n      swap2\n      swap1\n      tag_143\n      jump\t// in\n    tag_142:\n        /* \"contracts/CurrencyReceiver.sol\":2429:2475  Refund(currency[i],amount[i],to[i],orderId[i]) */\n      mload(0x40)\n      tag_144\n      swap4\n      swap3\n      swap2\n      swap1\n      tag_100\n      jump\t// in\n    tag_144:\n      mload(0x40)\n      dup1\n      swap2\n      sub\n      swap1\n      log3\n        /* \"contracts/CurrencyReceiver.sol\":2291:2294  i++ */\n      dup1\n      dup1\n      tag_145\n      swap1\n      tag_146\n      jump\t// in\n    tag_145:\n      swap2\n      pop\n      pop\n        /* \"contracts/CurrencyReceiver.sol\":2257:2486  for(uint256 i=0;i<currency.length;i++) {... */\n      jump(tag_114)\n    tag_115:\n      pop\n        /* \"contracts/CurrencyReceiver.sol\":1802:2501  function refund(... */\n      pop\n      pop\n      pop\n      pop\n      pop\n      pop\n      pop\n      pop\n      pop\n      jump\t// out\n        /* \"contracts/CurrencyReceiver.sol\":454:516  bytes32 public constant REFUND_ROLE = keccak256(\"REFUND_ROLE\") */\n    tag_46:\n        /* \"contracts/CurrencyReceiver.sol\":492:516  keccak256(\"REFUND_ROLE\") */\n      0xf1f91cdf1f18aaac45ca4aaddade87aabc2746f6d044da7cf8544558c5776172\n        /* \"contracts/CurrencyReceiver.sol\":454:516  bytes32 public constant REFUND_ROLE = keccak256(\"REFUND_ROLE\") */\n      dup2\n      jump\t// out\n        /* \"contracts/CurrencyReceiver.sol\":2507:2721  function balanceOf(... */\n    tag_51:\n        /* \"contracts/CurrencyReceiver.sol\":2590:2597  uint256 */\n      0x00\n        /* \"contracts/CurrencyReceiver.sol\":2637:2638  0 */\n      dup1\n        /* \"contracts/CurrencyReceiver.sol\":2617:2639  currency != address(0) */\n      0xffffffffffffffffffffffffffffffffffffffff\n      and\n        /* \"contracts/CurrencyReceiver.sol\":2617:2625  currency */\n      dup3\n        /* \"contracts/CurrencyReceiver.sol\":2617:2639  currency != address(0) */\n      0xffffffffffffffffffffffffffffffffffffffff\n      and\n      sub\n        /* \"contracts/CurrencyReceiver.sol\":2609:2656  require(currency != address(0),\"currency fail\") */\n      tag_148\n      jumpi\n      mload(0x40)\n      0x08c379a000000000000000000000000000000000000000000000000000000000\n      dup2\n      mstore\n      0x04\n      add\n      tag_149\n      swap1\n      tag_93\n      jump\t// in\n    tag_149:\n      mload(0x40)\n      dup1\n      swap2\n      sub\n      swap1\n      revert\n    tag_148:\n        /* \"contracts/CurrencyReceiver.sol\":2680:2688  currency */\n      dup2\n        /* \"contracts/CurrencyReceiver.sol\":2673:2699  IERC20(currency).balanceOf */\n      0xffffffffffffffffffffffffffffffffffffffff\n      and\n      0x70a08231\n        /* \"contracts/CurrencyReceiver.sol\":2708:2712  this */\n      address\n        /* \"contracts/CurrencyReceiver.sol\":2673:2714  IERC20(currency).balanceOf(address(this)) */\n      mload(0x40)\n      dup3\n      0xffffffff\n      and\n      0xe0\n      shl\n      dup2\n      mstore\n      0x04\n      add\n      tag_150\n      swap2\n      swap1\n      tag_151\n      jump\t// in\n    tag_150:\n      0x20\n      mload(0x40)\n      dup1\n      dup4\n      sub\n      dup2\n      dup7\n      gas\n      staticcall\n      iszero\n      dup1\n      iszero\n      tag_153\n      jumpi\n      returndatasize\n      0x00\n      dup1\n      returndatacopy\n      revert(0x00, returndatasize)\n    tag_153:\n      pop\n      pop\n      pop\n      pop\n      mload(0x40)\n      returndatasize\n      not(0x1f)\n      0x1f\n      dup3\n      add\n      and\n      dup3\n      add\n      dup1\n      0x40\n      mstore\n      pop\n      dup2\n      add\n      swap1\n      tag_154\n      swap2\n      swap1\n      tag_155\n      jump\t// in\n    tag_154:\n        /* \"contracts/CurrencyReceiver.sol\":2666:2714  return IERC20(currency).balanceOf(address(this)) */\n      swap1\n      pop\n        /* \"contracts/CurrencyReceiver.sol\":2507:2721  function balanceOf(... */\n      swap2\n      swap1\n      pop\n      jump\t// out\n        /* \"@openzeppelin/contracts/access/AccessControl.sol\":2895:3040  function hasRole(bytes32 role, address account) public view virtual override returns (bool) {... */\n    tag_56:\n        /* \"@openzeppelin/contracts/access/AccessControl.sol\":2981:2985  bool */\n      0x00\n        /* \"@openzeppelin/contracts/access/AccessControl.sol\":3004:3010  _roles */\n      dup1\n        /* \"@openzeppelin/contracts/access/AccessControl.sol\":3004:3016  _roles[role] */\n      0x00\n        /* \"@openzeppelin/contracts/access/AccessControl.sol\":3011:3015  role */\n      dup5\n        /* \"@openzeppelin/contracts/access/AccessControl.sol\":3004:3016  _roles[role] */\n      dup2\n      mstore\n      0x20\n      add\n      swap1\n      dup2\n      mstore\n      0x20\n      add\n      0x00\n      keccak256\n        /* \"@openzeppelin/contracts/access/AccessControl.sol\":3004:3024  _roles[role].members */\n      0x00\n      add\n        /* \"@openzeppelin/contracts/access/AccessControl.sol\":3004:3033  _roles[role].members[account] */\n      0x00\n        /* \"@openzeppelin/contracts/access/AccessControl.sol\":3025:3032  account */\n      dup4\n        /* \"@openzeppelin/contracts/access/AccessControl.sol\":3004:3033  _roles[role].members[account] */\n      0xffffffffffffffffffffffffffffffffffffffff\n      and\n      0xffffffffffffffffffffffffffffffffffffffff\n      and\n      dup2\n      mstore\n      0x20\n      add\n      swap1\n      dup2\n      mstore\n      0x20\n      add\n      0x00\n      keccak256\n      0x00\n      swap1\n      sload\n      swap1\n      0x0100\n      exp\n      swap1\n      div\n      0xff\n      and\n        /* \"@openzeppelin/contracts/access/AccessControl.sol\":2997:3033  return _roles[role].members[account] */\n      swap1\n      pop\n        /* \"@openzeppelin/contracts/access/AccessControl.sol\":2895:3040  function hasRole(bytes32 role, address account) public view virtual override returns (bool) {... */\n      swap3\n      swap2\n      pop\n      pop\n      jump\t// out\n        /* \"@openzeppelin/contracts/access/AccessControl.sol\":2027:2076  bytes32 public constant DEFAULT_ADMIN_ROLE = 0x00 */\n    tag_59:\n        /* \"@openzeppelin/contracts/access/AccessControl.sol\":2072:2076  0x00 */\n      0x00\n        /* \"@openzeppelin/contracts/access/AccessControl.sol\":2027:2076  bytes32 public constant DEFAULT_ADMIN_ROLE = 0x00 */\n      dup1\n      shl\n      dup2\n      jump\t// out\n        /* \"@openzeppelin/contracts/access/AccessControl.sol\":5228:5375  function revokeRole(bytes32 role, address account) public virtual override onlyRole(getRoleAdmin(role)) {... */\n    tag_63:\n        /* \"@openzeppelin/contracts/access/AccessControl.sol\":5312:5330  getRoleAdmin(role) */\n      tag_157\n        /* \"@openzeppelin/contracts/access/AccessControl.sol\":5325:5329  role */\n      dup3\n        /* \"@openzeppelin/contracts/access/AccessControl.sol\":5312:5324  getRoleAdmin */\n      tag_27\n        /* \"@openzeppelin/contracts/access/AccessControl.sol\":5312:5330  getRoleAdmin(role) */\n      jump\t// in\n    tag_157:\n        /* \"@openzeppelin/contracts/access/AccessControl.sol\":2505:2521  _checkRole(role) */\n      tag_159\n        /* \"@openzeppelin/contracts/access/AccessControl.sol\":2516:2520  role */\n      dup2\n        /* \"@openzeppelin/contracts/access/AccessControl.sol\":2505:2515  _checkRole */\n      tag_78\n        /* \"@openzeppelin/contracts/access/AccessControl.sol\":2505:2521  _checkRole(role) */\n      jump\t// in\n    tag_159:\n        /* \"@openzeppelin/contracts/access/AccessControl.sol\":5342:5368  _revokeRole(role, account) */\n      tag_161\n        /* \"@openzeppelin/contracts/access/AccessControl.sol\":5354:5358  role */\n      dup4\n        /* \"@openzeppelin/contracts/access/AccessControl.sol\":5360:5367  account */\n      dup4\n        /* \"@openzeppelin/contracts/access/AccessControl.sol\":5342:5353  _revokeRole */\n      tag_89\n        /* \"@openzeppelin/contracts/access/AccessControl.sol\":5342:5368  _revokeRole(role, account) */\n      jump\t// in\n    tag_161:\n        /* \"@openzeppelin/contracts/access/AccessControl.sol\":5228:5375  function revokeRole(bytes32 role, address account) public virtual override onlyRole(getRoleAdmin(role)) {... */\n      pop\n      pop\n      pop\n      jump\t// out\n        /* \"contracts/CurrencyReceiver.sol\":382:448  bytes32 public constant WITHDRAW_ROLE = keccak256(\"WITHDRAW_ROLE\") */\n    tag_65:\n        /* \"contracts/CurrencyReceiver.sol\":422:448  keccak256(\"WITHDRAW_ROLE\") */\n      0x5d8e12c39142ff96d79d04d15d1ba1269e4fe57bb9d26f43523628b34ba108ec\n        /* \"contracts/CurrencyReceiver.sol\":382:448  bytes32 public constant WITHDRAW_ROLE = keccak256(\"WITHDRAW_ROLE\") */\n      dup2\n      jump\t// out\n        /* \"contracts/CurrencyReceiver.sol\":1206:1796  function withdraw(... */\n    tag_69:\n        /* \"contracts/CurrencyReceiver.sol\":422:448  keccak256(\"WITHDRAW_ROLE\") */\n      0x5d8e12c39142ff96d79d04d15d1ba1269e4fe57bb9d26f43523628b34ba108ec\n        /* \"@openzeppelin/contracts/access/AccessControl.sol\":2505:2521  _checkRole(role) */\n      tag_163\n        /* \"@openzeppelin/contracts/access/AccessControl.sol\":2516:2520  role */\n      dup2\n        /* \"@openzeppelin/contracts/access/AccessControl.sol\":2505:2515  _checkRole */\n      tag_78\n        /* \"@openzeppelin/contracts/access/AccessControl.sol\":2505:2521  _checkRole(role) */\n      jump\t// in\n    tag_163:\n        /* \"contracts/CurrencyReceiver.sol\":1445:1446  0 */\n      0x00\n        /* \"contracts/CurrencyReceiver.sol\":1427:1435  currency */\n      dup10\n      dup10\n        /* \"contracts/CurrencyReceiver.sol\":1427:1442  currency.length */\n      swap1\n      pop\n        /* \"contracts/CurrencyReceiver.sol\":1427:1446  currency.length > 0 */\n      gt\n        /* \"contracts/CurrencyReceiver.sol\":1419:1463  require(currency.length > 0,\"currency fail\") */\n      tag_165\n      jumpi\n      mload(0x40)\n      0x08c379a000000000000000000000000000000000000000000000000000000000\n      dup2\n      mstore\n      0x04\n      add\n      tag_166\n      swap1\n      tag_93\n      jump\t// in\n    tag_166:\n      mload(0x40)\n      dup1\n      swap2\n      sub\n      swap1\n      revert\n    tag_165:\n        /* \"contracts/CurrencyReceiver.sol\":1500:1506  amount */\n      dup7\n      dup7\n        /* \"contracts/CurrencyReceiver.sol\":1500:1513  amount.length */\n      swap1\n      pop\n        /* \"contracts/CurrencyReceiver.sol\":1481:1489  currency */\n      dup10\n      dup10\n        /* \"contracts/CurrencyReceiver.sol\":1481:1496  currency.length */\n      swap1\n      pop\n        /* \"contracts/CurrencyReceiver.sol\":1481:1513  currency.length == amount.length */\n      eq\n        /* \"contracts/CurrencyReceiver.sol\":1473:1540  require(currency.length == amount.length,\"currency or amount fail\") */\n      tag_167\n      jumpi\n      mload(0x40)\n      0x08c379a000000000000000000000000000000000000000000000000000000000\n      dup2\n      mstore\n      0x04\n      add\n      tag_168\n      swap1\n      tag_169\n      jump\t// in\n    tag_168:\n      mload(0x40)\n      dup1\n      swap2\n      sub\n      swap1\n      revert\n    tag_167:\n        /* \"contracts/CurrencyReceiver.sol\":1555:1564  uint256 i */\n      0x00\n        /* \"contracts/CurrencyReceiver.sol\":1551:1781  for(uint256 i=0;i<currency.length;i++) {... */\n    tag_170:\n        /* \"contracts/CurrencyReceiver.sol\":1569:1577  currency */\n      dup10\n      dup10\n        /* \"contracts/CurrencyReceiver.sol\":1569:1584  currency.length */\n      swap1\n      pop\n        /* \"contracts/CurrencyReceiver.sol\":1567:1568  i */\n      dup2\n        /* \"contracts/CurrencyReceiver.sol\":1567:1584  i<currency.length */\n      lt\n        /* \"contracts/CurrencyReceiver.sol\":1551:1781  for(uint256 i=0;i<currency.length;i++) {... */\n      iszero\n      tag_171\n      jumpi\n        /* \"contracts/CurrencyReceiver.sol\":1624:1625  0 */\n      0x00\n        /* \"contracts/CurrencyReceiver.sol\":1612:1618  amount */\n      dup9\n      dup9\n        /* \"contracts/CurrencyReceiver.sol\":1619:1620  i */\n      dup4\n        /* \"contracts/CurrencyReceiver.sol\":1612:1621  amount[i] */\n      dup2\n      dup2\n      lt\n      tag_173\n      jumpi\n      tag_174\n      tag_119\n      jump\t// in\n    tag_174:\n    tag_173:\n      swap1\n      pop\n      0x20\n      mul\n      add\n      calldataload\n        /* \"contracts/CurrencyReceiver.sol\":1612:1625  amount[i] > 0 */\n      gt\n        /* \"contracts/CurrencyReceiver.sol\":1604:1641  require(amount[i] > 0, \"amount fail\") */\n      tag_175\n      jumpi\n      mload(0x40)\n      0x08c379a000000000000000000000000000000000000000000000000000000000\n      dup2\n      mstore\n      0x04\n      add\n      tag_176\n      swap1\n      tag_96\n      jump\t// in\n    tag_176:\n      mload(0x40)\n      dup1\n      swap2\n      sub\n      swap1\n      revert\n    tag_175:\n        /* \"contracts/CurrencyReceiver.sol\":1655:1704  IERC20(currency[i]).safeTransfer(to[i],amount[i]) */\n      tag_177\n        /* \"contracts/CurrencyReceiver.sol\":1688:1690  to */\n      dup7\n      dup7\n        /* \"contracts/CurrencyReceiver.sol\":1691:1692  i */\n      dup4\n        /* \"contracts/CurrencyReceiver.sol\":1688:1693  to[i] */\n      dup2\n      dup2\n      lt\n      tag_178\n      jumpi\n      tag_179\n      tag_119\n      jump\t// in\n    tag_179:\n    tag_178:\n      swap1\n      pop\n      0x20\n      mul\n      add\n      0x20\n      dup2\n      add\n      swap1\n      tag_180\n      swap2\n      swap1\n      tag_50\n      jump\t// in\n    tag_180:\n        /* \"contracts/CurrencyReceiver.sol\":1694:1700  amount */\n      dup10\n      dup10\n        /* \"contracts/CurrencyReceiver.sol\":1701:1702  i */\n      dup5\n        /* \"contracts/CurrencyReceiver.sol\":1694:1703  amount[i] */\n      dup2\n      dup2\n      lt\n      tag_181\n      jumpi\n      tag_182\n      tag_119\n      jump\t// in\n    tag_182:\n    tag_181:\n      swap1\n      pop\n      0x20\n      mul\n      add\n      calldataload\n        /* \"contracts/CurrencyReceiver.sol\":1662:1670  currency */\n      dup13\n      dup13\n        /* \"contracts/CurrencyReceiver.sol\":1671:1672  i */\n      dup6\n        /* \"contracts/CurrencyReceiver.sol\":1662:1673  currency[i] */\n      dup2\n      dup2\n      lt\n      tag_183\n      jumpi\n      tag_184\n      tag_119\n      jump\t// in\n    tag_184:\n    tag_183:\n      swap1\n      pop\n      0x20\n      mul\n      add\n      0x20\n      dup2\n      add\n      swap1\n      tag_185\n      swap2\n      swap1\n      tag_50\n      jump\t// in\n    tag_185:\n        /* \"contracts/CurrencyReceiver.sol\":1655:1687  IERC20(currency[i]).safeTransfer */\n      0xffffffffffffffffffffffffffffffffffffffff\n      and\n      tag_131\n      swap1\n        /* \"contracts/CurrencyReceiver.sol\":1655:1704  IERC20(currency[i]).safeTransfer(to[i],amount[i]) */\n      swap3\n      swap2\n      swap1\n      0xffffffff\n      and\n      jump\t// in\n    tag_177:\n        /* \"contracts/CurrencyReceiver.sol\":1754:1756  to */\n      dup6\n      dup6\n        /* \"contracts/CurrencyReceiver.sol\":1757:1758  i */\n      dup3\n        /* \"contracts/CurrencyReceiver.sol\":1754:1759  to[i] */\n      dup2\n      dup2\n      lt\n      tag_186\n      jumpi\n      tag_187\n      tag_119\n      jump\t// in\n    tag_187:\n    tag_186:\n      swap1\n      pop\n      0x20\n      mul\n      add\n      0x20\n      dup2\n      add\n      swap1\n      tag_188\n      swap2\n      swap1\n      tag_50\n      jump\t// in\n    tag_188:\n        /* \"contracts/CurrencyReceiver.sol\":1723:1770  Withdraw(currency[i],amount[i],to[i],billId[i]) */\n      0xffffffffffffffffffffffffffffffffffffffff\n      and\n        /* \"contracts/CurrencyReceiver.sol\":1732:1740  currency */\n      dup11\n      dup11\n        /* \"contracts/CurrencyReceiver.sol\":1741:1742  i */\n      dup4\n        /* \"contracts/CurrencyReceiver.sol\":1732:1743  currency[i] */\n      dup2\n      dup2\n      lt\n      tag_189\n      jumpi\n      tag_190\n      tag_119\n      jump\t// in\n    tag_190:\n    tag_189:\n      swap1\n      pop\n      0x20\n      mul\n      add\n      0x20\n      dup2\n      add\n      swap1\n      tag_191\n      swap2\n      swap1\n      tag_50\n      jump\t// in\n    tag_191:\n        /* \"contracts/CurrencyReceiver.sol\":1723:1770  Withdraw(currency[i],amount[i],to[i],billId[i]) */\n      0xffffffffffffffffffffffffffffffffffffffff\n      and\n      0xa4c6cd4bfefcc09490a00cf1f79a859de6f34c1da3186bb65d5102b1b8445547\n        /* \"contracts/CurrencyReceiver.sol\":1744:1750  amount */\n      dup11\n      dup11\n        /* \"contracts/CurrencyReceiver.sol\":1751:1752  i */\n      dup6\n        /* \"contracts/CurrencyReceiver.sol\":1744:1753  amount[i] */\n      dup2\n      dup2\n      lt\n      tag_192\n      jumpi\n      tag_193\n      tag_119\n      jump\t// in\n    tag_193:\n    tag_192:\n      swap1\n      pop\n      0x20\n      mul\n      add\n      calldataload\n        /* \"contracts/CurrencyReceiver.sol\":1760:1766  billId */\n      dup8\n      dup8\n        /* \"contracts/CurrencyReceiver.sol\":1767:1768  i */\n      dup7\n        /* \"contracts/CurrencyReceiver.sol\":1760:1769  billId[i] */\n      dup2\n      dup2\n      lt\n      tag_194\n      jumpi\n      tag_195\n      tag_119\n      jump\t// in\n    tag_195:\n    tag_194:\n      swap1\n      pop\n      0x20\n      mul\n      dup2\n      add\n      swap1\n      tag_196\n      swap2\n      swap1\n      tag_143\n      jump\t// in\n    tag_196:\n        /* \"contracts/CurrencyReceiver.sol\":1723:1770  Withdraw(currency[i],amount[i],to[i],billId[i]) */\n      mload(0x40)\n      tag_197\n      swap4\n      swap3\n      swap2\n      swap1\n      tag_100\n      jump\t// in\n    tag_197:\n      mload(0x40)\n      dup1\n      swap2\n      sub\n      swap1\n      log3\n        /* \"contracts/CurrencyReceiver.sol\":1585:1588  i++ */\n      dup1\n      dup1\n      tag_198\n      swap1\n      tag_146\n      jump\t// in\n    tag_198:\n      swap2\n      pop\n      pop\n        /* \"contracts/CurrencyReceiver.sol\":1551:1781  for(uint256 i=0;i<currency.length;i++) {... */\n      jump(tag_170)\n    tag_171:\n      pop\n        /* \"contracts/CurrencyReceiver.sol\":1206:1796  function withdraw(... */\n      pop\n      pop\n      pop\n      pop\n      pop\n      pop\n      pop\n      pop\n      pop\n      jump\t// out\n        /* \"@openzeppelin/contracts/utils/introspection/ERC165.sol\":829:984  function supportsInterface(bytes4 interfaceId) public view virtual override returns (bool) {... */\n    tag_73:\n        /* \"@openzeppelin/contracts/utils/introspection/ERC165.sol\":914:918  bool */\n      0x00\n        /* \"@openzeppelin/contracts/utils/introspection/ERC165.sol\":952:977  type(IERC165).interfaceId */\n      0x01ffc9a700000000000000000000000000000000000000000000000000000000\n        /* \"@openzeppelin/contracts/utils/introspection/ERC165.sol\":937:977  interfaceId == type(IERC165).interfaceId */\n      not(0xffffffffffffffffffffffffffffffffffffffffffffffffffffffff)\n      and\n        /* \"@openzeppelin/contracts/utils/introspection/ERC165.sol\":937:948  interfaceId */\n      dup3\n        /* \"@openzeppelin/contracts/utils/introspection/ERC165.sol\":937:977  interfaceId == type(IERC165).interfaceId */\n      not(0xffffffffffffffffffffffffffffffffffffffffffffffffffffffff)\n      and\n      eq\n        /* \"@openzeppelin/contracts/utils/introspection/ERC165.sol\":930:977  return interfaceId == type(IERC165).interfaceId */\n      swap1\n      pop\n        /* \"@openzeppelin/contracts/utils/introspection/ERC165.sol\":829:984  function supportsInterface(bytes4 interfaceId) public view virtual override returns (bool) {... */\n      swap2\n      swap1\n      pop\n      jump\t// out\n        /* \"@openzeppelin/contracts/access/AccessControl.sol\":3334:3437  function _checkRole(bytes32 role) internal view virtual {... */\n    tag_78:\n        /* \"@openzeppelin/contracts/access/AccessControl.sol\":3400:3430  _checkRole(role, _msgSender()) */\n      tag_201\n        /* \"@openzeppelin/contracts/access/AccessControl.sol\":3411:3415  role */\n      dup2\n        /* \"@openzeppelin/contracts/access/AccessControl.sol\":3417:3429  _msgSender() */\n      tag_202\n        /* \"@openzeppelin/contracts/access/AccessControl.sol\":3417:3427  _msgSender */\n      tag_84\n        /* \"@openzeppelin/contracts/access/AccessControl.sol\":3417:3429  _msgSender() */\n      jump\t// in\n    tag_202:\n        /* \"@openzeppelin/contracts/access/AccessControl.sol\":3400:3410  _checkRole */\n      tag_203\n        /* \"@openzeppelin/contracts/access/AccessControl.sol\":3400:3430  _checkRole(role, _msgSender()) */\n      jump\t// in\n    tag_201:\n        /* \"@openzeppelin/contracts/access/AccessControl.sol\":3334:3437  function _checkRole(bytes32 role) internal view virtual {... */\n      pop\n      jump\t// out\n        /* \"@openzeppelin/contracts/access/AccessControl.sol\":7461:7694  function _grantRole(bytes32 role, address account) internal virtual {... */\n    tag_81:\n        /* \"@openzeppelin/contracts/access/AccessControl.sol\":7544:7566  hasRole(role, account) */\n      tag_205\n        /* \"@openzeppelin/contracts/access/AccessControl.sol\":7552:7556  role */\n      dup3\n        /* \"@openzeppelin/contracts/access/AccessControl.sol\":7558:7565  account */\n      dup3\n        /* \"@openzeppelin/contracts/access/AccessControl.sol\":7544:7551  hasRole */\n      tag_56\n        /* \"@openzeppelin/contracts/access/AccessControl.sol\":7544:7566  hasRole(role, account) */\n      jump\t// in\n    tag_205:\n        /* \"@openzeppelin/contracts/access/AccessControl.sol\":7539:7688  if (!hasRole(role, account)) {... */\n      tag_206\n      jumpi\n        /* \"@openzeppelin/contracts/access/AccessControl.sol\":7614:7618  true */\n      0x01\n        /* \"@openzeppelin/contracts/access/AccessControl.sol\":7582:7588  _roles */\n      0x00\n        /* \"@openzeppelin/contracts/access/AccessControl.sol\":7582:7594  _roles[role] */\n      dup1\n        /* \"@openzeppelin/contracts/access/AccessControl.sol\":7589:7593  role */\n      dup5\n        /* \"@openzeppelin/contracts/access/AccessControl.sol\":7582:7594  _roles[role] */\n      dup2\n      mstore\n      0x20\n      add\n      swap1\n      dup2\n      mstore\n      0x20\n      add\n      0x00\n      keccak256\n        /* \"@openzeppelin/contracts/access/AccessControl.sol\":7582:7602  _roles[role].members */\n      0x00\n      add\n        /* \"@openzeppelin/contracts/access/AccessControl.sol\":7582:7611  _roles[role].members[account] */\n      0x00\n        /* \"@openzeppelin/contracts/access/AccessControl.sol\":7603:7610  account */\n      dup4\n        /* \"@openzeppelin/contracts/access/AccessControl.sol\":7582:7611  _roles[role].members[account] */\n      0xffffffffffffffffffffffffffffffffffffffff\n      and\n      0xffffffffffffffffffffffffffffffffffffffff\n      and\n      dup2\n      mstore\n      0x20\n      add\n      swap1\n      dup2\n      mstore\n      0x20\n      add\n      0x00\n      keccak256\n      0x00\n        /* \"@openzeppelin/contracts/access/AccessControl.sol\":7582:7618  _roles[role].members[account] = true */\n      0x0100\n      exp\n      dup2\n      sload\n      dup2\n      0xff\n      mul\n      not\n      and\n      swap1\n      dup4\n      iszero\n      iszero\n      mul\n      or\n      swap1\n      sstore\n      pop\n        /* \"@openzeppelin/contracts/access/AccessControl.sol\":7664:7676  _msgSender() */\n      tag_207\n        /* \"@openzeppelin/contracts/access/AccessControl.sol\":7664:7674  _msgSender */\n      tag_84\n        /* \"@openzeppelin/contracts/access/AccessControl.sol\":7664:7676  _msgSender() */\n      jump\t// in\n    tag_207:\n        /* \"@openzeppelin/contracts/access/AccessControl.sol\":7637:7677  RoleGranted(role, account, _msgSender()) */\n      0xffffffffffffffffffffffffffffffffffffffff\n      and\n        /* \"@openzeppelin/contracts/access/AccessControl.sol\":7655:7662  account */\n      dup2\n        /* \"@openzeppelin/contracts/access/AccessControl.sol\":7637:7677  RoleGranted(role, account, _msgSender()) */\n      0xffffffffffffffffffffffffffffffffffffffff\n      and\n        /* \"@openzeppelin/contracts/access/AccessControl.sol\":7649:7653  role */\n      dup4\n        /* \"@openzeppelin/contracts/access/AccessControl.sol\":7637:7677  RoleGranted(role, account, _msgSender()) */\n      0x2f8788117e7eff1d82e926ec794901d17c78024a50270940304540a733656f0d\n      mload(0x40)\n      mload(0x40)\n      dup1\n      swap2\n      sub\n      swap1\n      log4\n        /* \"@openzeppelin/contracts/access/AccessControl.sol\":7539:7688  if (!hasRole(role, account)) {... */\n    tag_206:\n        /* \"@openzeppelin/contracts/access/AccessControl.sol\":7461:7694  function _grantRole(bytes32 role, address account) internal virtual {... */\n      pop\n      pop\n      jump\t// out\n        /* \"@openzeppelin/contracts/utils/Context.sol\":640:736  function _msgSender() internal view virtual returns (address) {... */\n    tag_84:\n        /* \"@openzeppelin/contracts/utils/Context.sol\":693:700  address */\n      0x00\n        /* \"@openzeppelin/contracts/utils/Context.sol\":719:729  msg.sender */\n      caller\n        /* \"@openzeppelin/contracts/utils/Context.sol\":712:729  return msg.sender */\n      swap1\n      pop\n        /* \"@openzeppelin/contracts/utils/Context.sol\":640:736  function _msgSender() internal view virtual returns (address) {... */\n      swap1\n      jump\t// out\n        /* \"@openzeppelin/contracts/access/AccessControl.sol\":7865:8099  function _revokeRole(bytes32 role, address account) internal virtual {... */\n    tag_89:\n        /* \"@openzeppelin/contracts/access/AccessControl.sol\":7948:7970  hasRole(role, account) */\n      tag_210\n        /* \"@openzeppelin/contracts/access/AccessControl.sol\":7956:7960  role */\n      dup3\n        /* \"@openzeppelin/contracts/access/AccessControl.sol\":7962:7969  account */\n      dup3\n        /* \"@openzeppelin/contracts/access/AccessControl.sol\":7948:7955  hasRole */\n      tag_56\n        /* \"@openzeppelin/contracts/access/AccessControl.sol\":7948:7970  hasRole(role, account) */\n      jump\t// in\n    tag_210:\n        /* \"@openzeppelin/contracts/access/AccessControl.sol\":7944:8093  if (hasRole(role, account)) {... */\n      iszero\n      tag_211\n      jumpi\n        /* \"@openzeppelin/contracts/access/AccessControl.sol\":8018:8023  false */\n      0x00\n        /* \"@openzeppelin/contracts/access/AccessControl.sol\":7986:7992  _roles */\n      dup1\n        /* \"@openzeppelin/contracts/access/AccessControl.sol\":7986:7998  _roles[role] */\n      0x00\n        /* \"@openzeppelin/contracts/access/AccessControl.sol\":7993:7997  role */\n      dup5\n        /* \"@openzeppelin/contracts/access/AccessControl.sol\":7986:7998  _roles[role] */\n      dup2\n      mstore\n      0x20\n      add\n      swap1\n      dup2\n      mstore\n      0x20\n      add\n      0x00\n      keccak256\n        /* \"@openzeppelin/contracts/access/AccessControl.sol\":7986:8006  _roles[role].members */\n      0x00\n      add\n        /* \"@openzeppelin/contracts/access/AccessControl.sol\":7986:8015  _roles[role].members[account] */\n      0x00\n        /* \"@openzeppelin/contracts/access/AccessControl.sol\":8007:8014  account */\n      dup4\n        /* \"@openzeppelin/contracts/access/AccessControl.sol\":7986:8015  _roles[role].members[account] */\n      0xffffffffffffffffffffffffffffffffffffffff\n      and\n      0xffffffffffffffffffffffffffffffffffffffff\n      and\n      dup2\n      mstore\n      0x20\n      add\n      swap1\n      dup2\n      mstore\n      0x20\n      add\n      0x00\n      keccak256\n      0x00\n        /* \"@openzeppelin/contracts/access/AccessControl.sol\":7986:8023  _roles[role].members[account] = false */\n      0x0100\n      exp\n      dup2\n      sload\n      dup2\n      0xff\n      mul\n      not\n      and\n      swap1\n      dup4\n      iszero\n      iszero\n      mul\n      or\n      swap1\n      sstore\n      pop\n        /* \"@openzeppelin/contracts/access/AccessControl.sol\":8069:8081  _msgSender() */\n      tag_212\n        /* \"@openzeppelin/contracts/access/AccessControl.sol\":8069:8079  _msgSender */\n      tag_84\n        /* \"@openzeppelin/contracts/access/AccessControl.sol\":8069:8081  _msgSender() */\n      jump\t// in\n    tag_212:\n        /* \"@openzeppelin/contracts/access/AccessControl.sol\":8042:8082  RoleRevoked(role, account, _msgSender()) */\n      0xffffffffffffffffffffffffffffffffffffffff\n      and\n        /* \"@openzeppelin/contracts/access/AccessControl.sol\":8060:8067  account */\n      dup2\n        /* \"@openzeppelin/contracts/access/AccessControl.sol\":8042:8082  RoleRevoked(role, account, _msgSender()) */\n      0xffffffffffffffffffffffffffffffffffffffff\n      and\n        /* \"@openzeppelin/contracts/access/AccessControl.sol\":8054:8058  role */\n      dup4\n        /* \"@openzeppelin/contracts/access/AccessControl.sol\":8042:8082  RoleRevoked(role, account, _msgSender()) */\n      0xf6391f5c32d9c69d2a47ea670b442974b53935d1edc7fd64eb21e047a839171b\n      mload(0x40)\n      mload(0x40)\n      dup1\n      swap2\n      sub\n      swap1\n      log4\n        /* \"@openzeppelin/contracts/access/AccessControl.sol\":7944:8093  if (hasRole(role, account)) {... */\n    tag_211:\n        /* \"@openzeppelin/contracts/access/AccessControl.sol\":7865:8099  function _revokeRole(bytes32 role, address account) internal virtual {... */\n      pop\n      pop\n      jump\t// out\n        /* \"@openzeppelin/contracts/token/ERC20/utils/SafeERC20.sol\":974:1215  function safeTransferFrom(... */\n    tag_98:\n        /* \"@openzeppelin/contracts/token/ERC20/utils/SafeERC20.sol\":1112:1208  _callOptionalReturn(token, abi.encodeWithSelector(token.transferFrom.selector, from, to, value)) */\n      tag_214\n        /* \"@openzeppelin/contracts/token/ERC20/utils/SafeERC20.sol\":1132:1137  token */\n      dup5\n        /* \"@openzeppelin/contracts/token/ERC20/utils/SafeERC20.sol\":1162:1189  token.transferFrom.selector */\n      shl(0xe0, 0x23b872dd)\n        /* \"@openzeppelin/contracts/token/ERC20/utils/SafeERC20.sol\":1191:1195  from */\n      dup6\n        /* \"@openzeppelin/contracts/token/ERC20/utils/SafeERC20.sol\":1197:1199  to */\n      dup6\n        /* \"@openzeppelin/contracts/token/ERC20/utils/SafeERC20.sol\":1201:1206  value */\n      dup6\n        /* \"@openzeppelin/contracts/token/ERC20/utils/SafeERC20.sol\":1139:1207  abi.encodeWithSelector(token.transferFrom.selector, from, to, value) */\n      add(0x24, mload(0x40))\n      tag_215\n      swap4\n      swap3\n      swap2\n      swap1\n      tag_216\n      jump\t// in\n    tag_215:\n      mload(0x40)\n      0x20\n      dup2\n      dup4\n      sub\n      sub\n      dup2\n      mstore\n      swap1\n      0x40\n      mstore\n      swap1\n      not(0xffffffffffffffffffffffffffffffffffffffffffffffffffffffff)\n      and\n      0x20\n      dup3\n      add\n      dup1\n      mload\n      0xffffffffffffffffffffffffffffffffffffffffffffffffffffffff\n      dup4\n      dup2\n      dup4\n      and\n      or\n      dup4\n      mstore\n      pop\n      pop\n      pop\n      pop\n        /* \"@openzeppelin/contracts/token/ERC20/utils/SafeERC20.sol\":1112:1131  _callOptionalReturn */\n      tag_217\n        /* \"@openzeppelin/contracts/token/ERC20/utils/SafeERC20.sol\":1112:1208  _callOptionalReturn(token, abi.encodeWithSelector(token.transferFrom.selector, from, to, value)) */\n      jump\t// in\n    tag_214:\n        /* \"@openzeppelin/contracts/token/ERC20/utils/SafeERC20.sol\":974:1215  function safeTransferFrom(... */\n      pop\n      pop\n      pop\n      pop\n      jump\t// out\n        /* \"@openzeppelin/contracts/token/ERC20/utils/SafeERC20.sol\":763:968  function safeTransfer(... */\n    tag_131:\n        /* \"@openzeppelin/contracts/token/ERC20/utils/SafeERC20.sol\":875:961  _callOptionalReturn(token, abi.encodeWithSelector(token.transfer.selector, to, value)) */\n      tag_219\n        /* \"@openzeppelin/contracts/token/ERC20/utils/SafeERC20.sol\":895:900  token */\n      dup4\n        /* \"@openzeppelin/contracts/token/ERC20/utils/SafeERC20.sol\":925:948  token.transfer.selector */\n      shl(0xe0, 0xa9059cbb)\n        /* \"@openzeppelin/contracts/token/ERC20/utils/SafeERC20.sol\":950:952  to */\n      dup5\n        /* \"@openzeppelin/contracts/token/ERC20/utils/SafeERC20.sol\":954:959  value */\n      dup5\n        /* \"@openzeppelin/contracts/token/ERC20/utils/SafeERC20.sol\":902:960  abi.encodeWithSelector(token.transfer.selector, to, value) */\n      add(0x24, mload(0x40))\n      tag_220\n      swap3\n      swap2\n      swap1\n      tag_221\n      jump\t// in\n    tag_220:\n      mload(0x40)\n      0x20\n      dup2\n      dup4\n      sub\n      sub\n      dup2\n      mstore\n      swap1\n      0x40\n      mstore\n      swap1\n      not(0xffffffffffffffffffffffffffffffffffffffffffffffffffffffff)\n      and\n      0x20\n      dup3\n      add\n      dup1\n      mload\n      0xffffffffffffffffffffffffffffffffffffffffffffffffffffffff\n      dup4\n      dup2\n      dup4\n      and\n      or\n      dup4\n      mstore\n      pop\n      pop\n      pop\n      pop\n        /* \"@openzeppelin/contracts/token/ERC20/utils/SafeERC20.sol\":875:894  _callOptionalReturn */\n      tag_217\n        /* \"@openzeppelin/contracts/token/ERC20/utils/SafeERC20.sol\":875:961  _callOptionalReturn(token, abi.encodeWithSelector(token.transfer.selector, to, value)) */\n      jump\t// in\n    tag_219:\n        /* \"@openzeppelin/contracts/token/ERC20/utils/SafeERC20.sol\":763:968  function safeTransfer(... */\n      pop\n      pop\n      pop\n      jump\t// out\n        /* \"@openzeppelin/contracts/access/AccessControl.sol\":3718:4197  function _checkRole(bytes32 role, address account) internal view virtual {... */\n    tag_203:\n        /* \"@openzeppelin/contracts/access/AccessControl.sol\":3806:3828  hasRole(role, account) */\n      tag_223\n        /* \"@openzeppelin/contracts/access/AccessControl.sol\":3814:3818  role */\n      dup3\n        /* \"@openzeppelin/contracts/access/AccessControl.sol\":3820:3827  account */\n      dup3\n        /* \"@openzeppelin/contracts/access/AccessControl.sol\":3806:3813  hasRole */\n      tag_56\n        /* \"@openzeppelin/contracts/access/AccessControl.sol\":3806:3828  hasRole(role, account) */\n      jump\t// in\n    tag_223:\n        /* \"@openzeppelin/contracts/access/AccessControl.sol\":3801:4191  if (!hasRole(role, account)) {... */\n      tag_224\n      jumpi\n        /* \"@openzeppelin/contracts/access/AccessControl.sol\":3989:4017  Strings.toHexString(account) */\n      tag_225\n        /* \"@openzeppelin/contracts/access/AccessControl.sol\":4009:4016  account */\n      dup2\n        /* \"@openzeppelin/contracts/access/AccessControl.sol\":3989:4008  Strings.toHexString */\n      tag_226\n        /* \"@openzeppelin/contracts/access/AccessControl.sol\":3989:4017  Strings.toHexString(account) */\n      jump\t// in\n    tag_225:\n        /* \"@openzeppelin/contracts/access/AccessControl.sol\":4088:4126  Strings.toHexString(uint256(role), 32) */\n      tag_227\n        /* \"@openzeppelin/contracts/access/AccessControl.sol\":4116:4120  role */\n      dup4\n        /* \"@openzeppelin/contracts/access/AccessControl.sol\":4108:4121  uint256(role) */\n      0x00\n      shr\n        /* \"@openzeppelin/contracts/access/AccessControl.sol\":4123:4125  32 */\n      0x20\n        /* \"@openzeppelin/contracts/access/AccessControl.sol\":4088:4107  Strings.toHexString */\n      tag_228\n        /* \"@openzeppelin/contracts/access/AccessControl.sol\":4088:4126  Strings.toHexString(uint256(role), 32) */\n      jump\t// in\n    tag_227:\n        /* \"@openzeppelin/contracts/access/AccessControl.sol\":3896:4148  abi.encodePacked(... */\n      add(0x20, mload(0x40))\n      tag_229\n      swap3\n      swap2\n      swap1\n      tag_230\n      jump\t// in\n    tag_229:\n      mload(0x40)\n      0x20\n      dup2\n      dup4\n      sub\n      sub\n      dup2\n      mstore\n      swap1\n      0x40\n      mstore\n        /* \"@openzeppelin/contracts/access/AccessControl.sol\":3844:4180  revert(... */\n      mload(0x40)\n      0x08c379a000000000000000000000000000000000000000000000000000000000\n      dup2\n      mstore\n      0x04\n      add\n      tag_231\n      swap2\n      swap1\n      tag_232\n      jump\t// in\n    tag_231:\n      mload(0x40)\n      dup1\n      swap2\n      sub\n      swap1\n      revert\n        /* \"@openzeppelin/contracts/access/AccessControl.sol\":3801:4191  if (!hasRole(role, account)) {... */\n    tag_224:\n        /* \"@openzeppelin/contracts/access/AccessControl.sol\":3718:4197  function _checkRole(bytes32 role, address account) internal view virtual {... */\n      pop\n      pop\n      jump\t// out\n        /* \"@openzeppelin/contracts/token/ERC20/utils/SafeERC20.sol\":3747:4453  function _callOptionalReturn(IERC20 token, bytes memory data) private {... */\n    tag_217:\n        /* \"@openzeppelin/contracts/token/ERC20/utils/SafeERC20.sol\":4166:4189  bytes memory returndata */\n      0x00\n        /* \"@openzeppelin/contracts/token/ERC20/utils/SafeERC20.sol\":4192:4261  address(token).functionCall(data, \"SafeERC20: low-level call failed\") */\n      tag_234\n        /* \"@openzeppelin/contracts/token/ERC20/utils/SafeERC20.sol\":4220:4224  data */\n      dup3\n        /* \"@openzeppelin/contracts/token/ERC20/utils/SafeERC20.sol\":4192:4261  address(token).functionCall(data, \"SafeERC20: low-level call failed\") */\n      mload(0x40)\n      dup1\n      0x40\n      add\n      0x40\n      mstore\n      dup1\n      0x20\n      dup2\n      mstore\n      0x20\n      add\n      0x5361666545524332303a206c6f772d6c6576656c2063616c6c206661696c6564\n      dup2\n      mstore\n      pop\n        /* \"@openzeppelin/contracts/token/ERC20/utils/SafeERC20.sol\":4200:4205  token */\n      dup6\n        /* \"@openzeppelin/contracts/token/ERC20/utils/SafeERC20.sol\":4192:4219  address(token).functionCall */\n      0xffffffffffffffffffffffffffffffffffffffff\n      and\n      tag_235\n      swap1\n        /* \"@openzeppelin/contracts/token/ERC20/utils/SafeERC20.sol\":4192:4261  address(token).functionCall(data, \"SafeERC20: low-level call failed\") */\n      swap3\n      swap2\n      swap1\n      0xffffffff\n      and\n      jump\t// in\n    tag_234:\n        /* \"@openzeppelin/contracts/token/ERC20/utils/SafeERC20.sol\":4166:4261  bytes memory returndata = address(token).functionCall(data, \"SafeERC20: low-level call failed\") */\n      swap1\n      pop\n        /* \"@openzeppelin/contracts/token/ERC20/utils/SafeERC20.sol\":4295:4296  0 */\n      0x00\n        /* \"@openzeppelin/contracts/token/ERC20/utils/SafeERC20.sol\":4275:4285  returndata */\n      dup2\n        /* \"@openzeppelin/contracts/token/ERC20/utils/SafeERC20.sol\":4275:4292  returndata.length */\n      mload\n        /* \"@openzeppelin/contracts/token/ERC20/utils/SafeERC20.sol\":4275:4296  returndata.length > 0 */\n      gt\n        /* \"@openzeppelin/contracts/token/ERC20/utils/SafeERC20.sol\":4271:4447  if (returndata.length > 0) {... */\n      iszero\n      tag_236\n      jumpi\n        /* \"@openzeppelin/contracts/token/ERC20/utils/SafeERC20.sol\":4370:4380  returndata */\n      dup1\n        /* \"@openzeppelin/contracts/token/ERC20/utils/SafeERC20.sol\":4359:4389  abi.decode(returndata, (bool)) */\n      dup1\n      0x20\n      add\n      swap1\n      mload\n      dup2\n      add\n      swap1\n      tag_237\n      swap2\n      swap1\n      tag_238\n      jump\t// in\n    tag_237:\n        /* \"@openzeppelin/contracts/token/ERC20/utils/SafeERC20.sol\":4351:4436  require(abi.decode(returndata, (bool)), \"SafeERC20: ERC20 operation did not succeed\") */\n      tag_239\n      jumpi\n      mload(0x40)\n      0x08c379a000000000000000000000000000000000000000000000000000000000\n      dup2\n      mstore\n      0x04\n      add\n      tag_240\n      swap1\n      tag_241\n      jump\t// in\n    tag_240:\n      mload(0x40)\n      dup1\n      swap2\n      sub\n      swap1\n      revert\n    tag_239:\n        /* \"@openzeppelin/contracts/token/ERC20/utils/SafeERC20.sol\":4271:4447  if (returndata.length > 0) {... */\n    tag_236:\n        /* \"@openzeppelin/contracts/token/ERC20/utils/SafeERC20.sol\":3817:4453  {... */\n      pop\n        /* \"@openzeppelin/contracts/token/ERC20/utils/SafeERC20.sol\":3747:4453  function _callOptionalReturn(IERC20 token, bytes memory data) private {... */\n      pop\n      pop\n      jump\t// out\n        /* \"@openzeppelin/contracts/utils/Strings.sol\":2102:2251  function toHexString(address addr) internal pure returns (string memory) {... */\n    tag_226:\n        /* \"@openzeppelin/contracts/utils/Strings.sol\":2160:2173  string memory */\n      0x60\n        /* \"@openzeppelin/contracts/utils/Strings.sol\":2192:2244  toHexString(uint256(uint160(addr)), _ADDRESS_LENGTH) */\n      tag_243\n        /* \"@openzeppelin/contracts/utils/Strings.sol\":2220:2224  addr */\n      dup3\n        /* \"@openzeppelin/contracts/utils/Strings.sol\":2204:2226  uint256(uint160(addr)) */\n      0xffffffffffffffffffffffffffffffffffffffff\n      and\n        /* \"@openzeppelin/contracts/utils/Strings.sol\":311:313  20 */\n      0x14\n        /* \"@openzeppelin/contracts/utils/Strings.sol\":2192:2244  toHexString(uint256(uint160(addr)), _ADDRESS_LENGTH) */\n      0xff\n      and\n        /* \"@openzeppelin/contracts/utils/Strings.sol\":2192:2203  toHexString */\n      tag_228\n        /* \"@openzeppelin/contracts/utils/Strings.sol\":2192:2244  toHexString(uint256(uint160(addr)), _ADDRESS_LENGTH) */\n      jump\t// in\n    tag_243:\n        /* \"@openzeppelin/contracts/utils/Strings.sol\":2185:2244  return toHexString(uint256(uint160(addr)), _ADDRESS_LENGTH) */\n      swap1\n      pop\n        /* \"@openzeppelin/contracts/utils/Strings.sol\":2102:2251  function toHexString(address addr) internal pure returns (string memory) {... */\n      swap2\n      swap1\n      pop\n      jump\t// out\n        /* \"@openzeppelin/contracts/utils/Strings.sol\":1513:1950  function toHexString(uint256 value, uint256 length) internal pure returns (string memory) {... */\n    tag_228:\n        /* \"@openzeppelin/contracts/utils/Strings.sol\":1588:1601  string memory */\n      0x60\n        /* \"@openzeppelin/contracts/utils/Strings.sol\":1613:1632  bytes memory buffer */\n      0x00\n        /* \"@openzeppelin/contracts/utils/Strings.sol\":1658:1659  2 */\n      0x02\n        /* \"@openzeppelin/contracts/utils/Strings.sol\":1649:1655  length */\n      dup4\n        /* \"@openzeppelin/contracts/utils/Strings.sol\":1645:1646  2 */\n      0x02\n        /* \"@openzeppelin/contracts/utils/Strings.sol\":1645:1655  2 * length */\n      tag_245\n      swap2\n      swap1\n      tag_246\n      jump\t// in\n    tag_245:\n        /* \"@openzeppelin/contracts/utils/Strings.sol\":1645:1659  2 * length + 2 */\n      tag_247\n      swap2\n      swap1\n      tag_248\n      jump\t// in\n    tag_247:\n        /* \"@openzeppelin/contracts/utils/Strings.sol\":1635:1660  new bytes(2 * length + 2) */\n      0xffffffffffffffff\n      dup2\n      gt\n      iszero\n      tag_249\n      jumpi\n      tag_250\n      tag_251\n      jump\t// in\n    tag_250:\n    tag_249:\n      mload(0x40)\n      swap1\n      dup1\n      dup3\n      mstore\n      dup1\n      0x1f\n      add\n      not(0x1f)\n      and\n      0x20\n      add\n      dup3\n      add\n      0x40\n      mstore\n      dup1\n      iszero\n      tag_252\n      jumpi\n      dup2\n      0x20\n      add\n      0x01\n      dup3\n      mul\n      dup1\n      calldatasize\n      dup4\n      calldatacopy\n      dup1\n      dup3\n      add\n      swap2\n      pop\n      pop\n      swap1\n      pop\n    tag_252:\n      pop\n        /* \"@openzeppelin/contracts/utils/Strings.sol\":1613:1660  bytes memory buffer = new bytes(2 * length + 2) */\n      swap1\n      pop\n        /* \"@openzeppelin/contracts/utils/Strings.sol\":1670:1685  buffer[0] = \"0\" */\n      0x3000000000000000000000000000000000000000000000000000000000000000\n        /* \"@openzeppelin/contracts/utils/Strings.sol\":1670:1676  buffer */\n      dup2\n        /* \"@openzeppelin/contracts/utils/Strings.sol\":1677:1678  0 */\n      0x00\n        /* \"@openzeppelin/contracts/utils/Strings.sol\":1670:1679  buffer[0] */\n      dup2\n      mload\n      dup2\n      lt\n      tag_253\n      jumpi\n      tag_254\n      tag_119\n      jump\t// in\n    tag_254:\n    tag_253:\n      0x20\n      add\n      add\n        /* \"@openzeppelin/contracts/utils/Strings.sol\":1670:1685  buffer[0] = \"0\" */\n      swap1\n      not(0xffffffffffffffffffffffffffffffffffffffffffffffffffffffffffffff)\n      and\n      swap1\n      dup2\n      0x00\n      byte\n      swap1\n      mstore8\n      pop\n        /* \"@openzeppelin/contracts/utils/Strings.sol\":1695:1710  buffer[1] = \"x\" */\n      0x7800000000000000000000000000000000000000000000000000000000000000\n        /* \"@openzeppelin/contracts/utils/Strings.sol\":1695:1701  buffer */\n      dup2\n        /* \"@openzeppelin/contracts/utils/Strings.sol\":1702:1703  1 */\n      0x01\n        /* \"@openzeppelin/contracts/utils/Strings.sol\":1695:1704  buffer[1] */\n      dup2\n      mload\n      dup2\n      lt\n      tag_255\n      jumpi\n      tag_256\n      tag_119\n      jump\t// in\n    tag_256:\n    tag_255:\n      0x20\n      add\n      add\n        /* \"@openzeppelin/contracts/utils/Strings.sol\":1695:1710  buffer[1] = \"x\" */\n      swap1\n      not(0xffffffffffffffffffffffffffffffffffffffffffffffffffffffffffffff)\n      and\n      swap1\n      dup2\n      0x00\n      byte\n      swap1\n      mstore8\n      pop\n        /* \"@openzeppelin/contracts/utils/Strings.sol\":1725:1734  uint256 i */\n      0x00\n        /* \"@openzeppelin/contracts/utils/Strings.sol\":1750:1751  1 */\n      0x01\n        /* \"@openzeppelin/contracts/utils/Strings.sol\":1741:1747  length */\n      dup5\n        /* \"@openzeppelin/contracts/utils/Strings.sol\":1737:1738  2 */\n      0x02\n        /* \"@openzeppelin/contracts/utils/Strings.sol\":1737:1747  2 * length */\n      tag_260\n      swap2\n      swap1\n      tag_246\n      jump\t// in\n    tag_260:\n        /* \"@openzeppelin/contracts/utils/Strings.sol\":1737:1751  2 * length + 1 */\n      tag_261\n      swap2\n      swap1\n      tag_248\n      jump\t// in\n    tag_261:\n        /* \"@openzeppelin/contracts/utils/Strings.sol\":1725:1751  uint256 i = 2 * length + 1 */\n      swap1\n      pop\n        /* \"@openzeppelin/contracts/utils/Strings.sol\":1720:1848  for (uint256 i = 2 * length + 1; i > 1; --i) {... */\n    tag_257:\n        /* \"@openzeppelin/contracts/utils/Strings.sol\":1757:1758  1 */\n      0x01\n        /* \"@openzeppelin/contracts/utils/Strings.sol\":1753:1754  i */\n      dup2\n        /* \"@openzeppelin/contracts/utils/Strings.sol\":1753:1758  i > 1 */\n      gt\n        /* \"@openzeppelin/contracts/utils/Strings.sol\":1720:1848  for (uint256 i = 2 * length + 1; i > 1; --i) {... */\n      iszero\n      tag_258\n      jumpi\n        /* \"@openzeppelin/contracts/utils/Strings.sol\":1791:1799  _SYMBOLS */\n      0x3031323334353637383961626364656600000000000000000000000000000000\n        /* \"@openzeppelin/contracts/utils/Strings.sol\":1808:1811  0xf */\n      0x0f\n        /* \"@openzeppelin/contracts/utils/Strings.sol\":1800:1805  value */\n      dup7\n        /* \"@openzeppelin/contracts/utils/Strings.sol\":1800:1811  value & 0xf */\n      and\n        /* \"@openzeppelin/contracts/utils/Strings.sol\":1791:1812  _SYMBOLS[value & 0xf] */\n      0x10\n      dup2\n      lt\n      tag_262\n      jumpi\n      tag_263\n      tag_119\n      jump\t// in\n    tag_263:\n    tag_262:\n      byte\n      0xf8\n      shl\n        /* \"@openzeppelin/contracts/utils/Strings.sol\":1779:1785  buffer */\n      dup3\n        /* \"@openzeppelin/contracts/utils/Strings.sol\":1786:1787  i */\n      dup3\n        /* \"@openzeppelin/contracts/utils/Strings.sol\":1779:1788  buffer[i] */\n      dup2\n      mload\n      dup2\n      lt\n      tag_264\n      jumpi\n      tag_265\n      tag_119\n      jump\t// in\n    tag_265:\n    tag_264:\n      0x20\n      add\n      add\n        /* \"@openzeppelin/contracts/utils/Strings.sol\":1779:1812  buffer[i] = _SYMBOLS[value & 0xf] */\n      swap1\n      not(0xffffffffffffffffffffffffffffffffffffffffffffffffffffffffffffff)\n      and\n      swap1\n      dup2\n      0x00\n      byte\n      swap1\n      mstore8\n      pop\n        /* \"@openzeppelin/contracts/utils/Strings.sol\":1836:1837  4 */\n      0x04\n        /* \"@openzeppelin/contracts/utils/Strings.sol\":1826:1837  value >>= 4 */\n      dup6\n      swap1\n      shr\n      swap5\n      pop\n        /* \"@openzeppelin/contracts/utils/Strings.sol\":1760:1763  --i */\n      dup1\n      tag_266\n      swap1\n      tag_267\n      jump\t// in\n    tag_266:\n      swap1\n      pop\n        /* \"@openzeppelin/contracts/utils/Strings.sol\":1720:1848  for (uint256 i = 2 * length + 1; i > 1; --i) {... */\n      jump(tag_257)\n    tag_258:\n      pop\n        /* \"@openzeppelin/contracts/utils/Strings.sol\":1874:1875  0 */\n      0x00\n        /* \"@openzeppelin/contracts/utils/Strings.sol\":1865:1870  value */\n      dup5\n        /* \"@openzeppelin/contracts/utils/Strings.sol\":1865:1875  value == 0 */\n      eq\n        /* \"@openzeppelin/contracts/utils/Strings.sol\":1857:1912  require(value == 0, \"Strings: hex length insufficient\") */\n      tag_268\n      jumpi\n      mload(0x40)\n      0x08c379a000000000000000000000000000000000000000000000000000000000\n      dup2\n      mstore\n      0x04\n      add\n      tag_269\n      swap1\n      tag_270\n      jump\t// in\n    tag_269:\n      mload(0x40)\n      dup1\n      swap2\n      sub\n      swap1\n      revert\n    tag_268:\n        /* \"@openzeppelin/contracts/utils/Strings.sol\":1936:1942  buffer */\n      dup1\n        /* \"@openzeppelin/contracts/utils/Strings.sol\":1922:1943  return string(buffer) */\n      swap2\n      pop\n      pop\n        /* \"@openzeppelin/contracts/utils/Strings.sol\":1513:1950  function toHexString(uint256 value, uint256 length) internal pure returns (string memory) {... */\n      swap3\n      swap2\n      pop\n      pop\n      jump\t// out\n        /* \"@openzeppelin/contracts/utils/Address.sol\":3873:4096  function functionCall(... */\n    tag_235:\n        /* \"@openzeppelin/contracts/utils/Address.sol\":4006:4018  bytes memory */\n      0x60\n        /* \"@openzeppelin/contracts/utils/Address.sol\":4037:4089  functionCallWithValue(target, data, 0, errorMessage) */\n      tag_272\n        /* \"@openzeppelin/contracts/utils/Address.sol\":4059:4065  target */\n      dup5\n        /* \"@openzeppelin/contracts/utils/Address.sol\":4067:4071  data */\n      dup5\n        /* \"@openzeppelin/contracts/utils/Address.sol\":4073:4074  0 */\n      0x00\n        /* \"@openzeppelin/contracts/utils/Address.sol\":4076:4088  errorMessage */\n      dup6\n        /* \"@openzeppelin/contracts/utils/Address.sol\":4037:4058  functionCallWithValue */\n      tag_273\n        /* \"@openzeppelin/contracts/utils/Address.sol\":4037:4089  functionCallWithValue(target, data, 0, errorMessage) */\n      jump\t// in\n    tag_272:\n        /* \"@openzeppelin/contracts/utils/Address.sol\":4030:4089  return functionCallWithValue(target, data, 0, errorMessage) */\n      swap1\n      pop\n        /* \"@openzeppelin/contracts/utils/Address.sol\":3873:4096  function functionCall(... */\n      swap4\n      swap3\n      pop\n      pop\n      pop\n      jump\t// out\n        /* \"@openzeppelin/contracts/utils/Address.sol\":4960:5406  function functionCallWithValue(... */\n    tag_273:\n        /* \"@openzeppelin/contracts/utils/Address.sol\":5125:5137  bytes memory */\n      0x60\n        /* \"@openzeppelin/contracts/utils/Address.sol\":5182:5187  value */\n      dup3\n        /* \"@openzeppelin/contracts/utils/Address.sol\":5157:5178  address(this).balance */\n      selfbalance\n        /* \"@openzeppelin/contracts/utils/Address.sol\":5157:5187  address(this).balance >= value */\n      lt\n      iszero\n        /* \"@openzeppelin/contracts/utils/Address.sol\":5149:5230  require(address(this).balance >= value, \"Address: insufficient balance for call\") */\n      tag_275\n      jumpi\n      mload(0x40)\n      0x08c379a000000000000000000000000000000000000000000000000000000000\n      dup2\n      mstore\n      0x04\n      add\n      tag_276\n      swap1\n      tag_277\n      jump\t// in\n    tag_276:\n      mload(0x40)\n      dup1\n      swap2\n      sub\n      swap1\n      revert\n    tag_275:\n        /* \"@openzeppelin/contracts/utils/Address.sol\":5241:5253  bool success */\n      0x00\n        /* \"@openzeppelin/contracts/utils/Address.sol\":5255:5278  bytes memory returndata */\n      dup1\n        /* \"@openzeppelin/contracts/utils/Address.sol\":5282:5288  target */\n      dup7\n        /* \"@openzeppelin/contracts/utils/Address.sol\":5282:5293  target.call */\n      0xffffffffffffffffffffffffffffffffffffffff\n      and\n        /* \"@openzeppelin/contracts/utils/Address.sol\":5301:5306  value */\n      dup6\n        /* \"@openzeppelin/contracts/utils/Address.sol\":5308:5312  data */\n      dup8\n        /* \"@openzeppelin/contracts/utils/Address.sol\":5282:5313  target.call{value: value}(data) */\n      mload(0x40)\n      tag_278\n      swap2\n      swap1\n      tag_279\n      jump\t// in\n    tag_278:\n      0x00\n      mload(0x40)\n      dup1\n      dup4\n      sub\n      dup2\n      dup6\n      dup8\n      gas\n      call\n      swap3\n      pop\n      pop\n      pop\n      returndatasize\n      dup1\n      0x00\n      dup2\n      eq\n      tag_282\n      jumpi\n      mload(0x40)\n      swap2\n      pop\n      and(add(returndatasize, 0x3f), not(0x1f))\n      dup3\n      add\n      0x40\n      mstore\n      returndatasize\n      dup3\n      mstore\n      returndatasize\n      0x00\n      0x20\n      dup5\n      add\n      returndatacopy\n      jump(tag_281)\n    tag_282:\n      0x60\n      swap2\n      pop\n    tag_281:\n      pop\n        /* \"@openzeppelin/contracts/utils/Address.sol\":5240:5313  (bool success, bytes memory returndata) = target.call{value: value}(data) */\n      swap2\n      pop\n      swap2\n      pop\n        /* \"@openzeppelin/contracts/utils/Address.sol\":5330:5399  verifyCallResultFromTarget(target, success, returndata, errorMessage) */\n      tag_283\n        /* \"@openzeppelin/contracts/utils/Address.sol\":5357:5363  target */\n      dup8\n        /* \"@openzeppelin/contracts/utils/Address.sol\":5365:5372  success */\n      dup4\n        /* \"@openzeppelin/contracts/utils/Address.sol\":5374:5384  returndata */\n      dup4\n        /* \"@openzeppelin/contracts/utils/Address.sol\":5386:5398  errorMessage */\n      dup8\n        /* \"@openzeppelin/contracts/utils/Address.sol\":5330:5356  verifyCallResultFromTarget */\n      tag_284\n        /* \"@openzeppelin/contracts/utils/Address.sol\":5330:5399  verifyCallResultFromTarget(target, success, returndata, errorMessage) */\n      jump\t// in\n    tag_283:\n        /* \"@openzeppelin/contracts/utils/Address.sol\":5323:5399  return verifyCallResultFromTarget(target, success, returndata, errorMessage) */\n      swap3\n      pop\n      pop\n      pop\n        /* \"@openzeppelin/contracts/utils/Address.sol\":4960:5406  function functionCallWithValue(... */\n      swap5\n      swap4\n      pop\n      pop\n      pop\n      pop\n      jump\t// out\n        /* \"@openzeppelin/contracts/utils/Address.sol\":7466:8094  function verifyCallResultFromTarget(... */\n    tag_284:\n        /* \"@openzeppelin/contracts/utils/Address.sol\":7646:7658  bytes memory */\n      0x60\n        /* \"@openzeppelin/contracts/utils/Address.sol\":7674:7681  success */\n      dup4\n        /* \"@openzeppelin/contracts/utils/Address.sol\":7670:8088  if (success) {... */\n      iszero\n      tag_286\n      jumpi\n        /* \"@openzeppelin/contracts/utils/Address.sol\":7722:7723  0 */\n      0x00\n        /* \"@openzeppelin/contracts/utils/Address.sol\":7701:7711  returndata */\n      dup4\n        /* \"@openzeppelin/contracts/utils/Address.sol\":7701:7718  returndata.length */\n      mload\n        /* \"@openzeppelin/contracts/utils/Address.sol\":7701:7723  returndata.length == 0 */\n      sub\n        /* \"@openzeppelin/contracts/utils/Address.sol\":7697:7983  if (returndata.length == 0) {... */\n      tag_287\n      jumpi\n        /* \"@openzeppelin/contracts/utils/Address.sol\":7916:7934  isContract(target) */\n      tag_288\n        /* \"@openzeppelin/contracts/utils/Address.sol\":7927:7933  target */\n      dup6\n        /* \"@openzeppelin/contracts/utils/Address.sol\":7916:7926  isContract */\n      tag_289\n        /* \"@openzeppelin/contracts/utils/Address.sol\":7916:7934  isContract(target) */\n      jump\t// in\n    tag_288:\n        /* \"@openzeppelin/contracts/utils/Address.sol\":7908:7968  require(isContract(target), \"Address: call to non-contract\") */\n      tag_290\n      jumpi\n      mload(0x40)\n      0x08c379a000000000000000000000000000000000000000000000000000000000\n      dup2\n      mstore\n      0x04\n      add\n      tag_291\n      swap1\n      tag_292\n      jump\t// in\n    tag_291:\n      mload(0x40)\n      dup1\n      swap2\n      sub\n      swap1\n      revert\n    tag_290:\n        /* \"@openzeppelin/contracts/utils/Address.sol\":7697:7983  if (returndata.length == 0) {... */\n    tag_287:\n        /* \"@openzeppelin/contracts/utils/Address.sol\":8003:8013  returndata */\n      dup3\n        /* \"@openzeppelin/contracts/utils/Address.sol\":7996:8013  return returndata */\n      swap1\n      pop\n      jump(tag_285)\n        /* \"@openzeppelin/contracts/utils/Address.sol\":7670:8088  if (success) {... */\n    tag_286:\n        /* \"@openzeppelin/contracts/utils/Address.sol\":8044:8077  _revert(returndata, errorMessage) */\n      tag_294\n        /* \"@openzeppelin/contracts/utils/Address.sol\":8052:8062  returndata */\n      dup4\n        /* \"@openzeppelin/contracts/utils/Address.sol\":8064:8076  errorMessage */\n      dup4\n        /* \"@openzeppelin/contracts/utils/Address.sol\":8044:8051  _revert */\n      tag_295\n        /* \"@openzeppelin/contracts/utils/Address.sol\":8044:8077  _revert(returndata, errorMessage) */\n      jump\t// in\n    tag_294:\n        /* \"@openzeppelin/contracts/utils/Address.sol\":7466:8094  function verifyCallResultFromTarget(... */\n    tag_285:\n      swap5\n      swap4\n      pop\n      pop\n      pop\n      pop\n      jump\t// out\n        /* \"@openzeppelin/contracts/utils/Address.sol\":1175:1495  function isContract(address account) internal view returns (bool) {... */\n    tag_289:\n        /* \"@openzeppelin/contracts/utils/Address.sol\":1235:1239  bool */\n      0x00\n        /* \"@openzeppelin/contracts/utils/Address.sol\":1487:1488  0 */\n      dup1\n        /* \"@openzeppelin/contracts/utils/Address.sol\":1465:1472  account */\n      dup3\n        /* \"@openzeppelin/contracts/utils/Address.sol\":1465:1484  account.code.length */\n      0xffffffffffffffffffffffffffffffffffffffff\n      and\n      extcodesize\n        /* \"@openzeppelin/contracts/utils/Address.sol\":1465:1488  account.code.length > 0 */\n      gt\n        /* \"@openzeppelin/contracts/utils/Address.sol\":1458:1488  return account.code.length > 0 */\n      swap1\n      pop\n        /* \"@openzeppelin/contracts/utils/Address.sol\":1175:1495  function isContract(address account) internal view returns (bool) {... */\n      swap2\n      swap1\n      pop\n      jump\t// out\n        /* \"@openzeppelin/contracts/utils/Address.sol\":8616:9156  function _revert(bytes memory returndata, string memory errorMessage) private pure {... */\n    tag_295:\n        /* \"@openzeppelin/contracts/utils/Address.sol\":8795:8796  0 */\n      0x00\n        /* \"@openzeppelin/contracts/utils/Address.sol\":8775:8785  returndata */\n      dup3\n        /* \"@openzeppelin/contracts/utils/Address.sol\":8775:8792  returndata.length */\n      mload\n        /* \"@openzeppelin/contracts/utils/Address.sol\":8775:8796  returndata.length > 0 */\n      gt\n        /* \"@openzeppelin/contracts/utils/Address.sol\":8771:9150  if (returndata.length > 0) {... */\n      iszero\n      tag_298\n      jumpi\n        /* \"@openzeppelin/contracts/utils/Address.sol\":9003:9013  returndata */\n      dup2\n        /* \"@openzeppelin/contracts/utils/Address.sol\":8997:9014  mload(returndata) */\n      mload\n        /* \"@openzeppelin/contracts/utils/Address.sol\":9059:9074  returndata_size */\n      dup1\n        /* \"@openzeppelin/contracts/utils/Address.sol\":9046:9056  returndata */\n      dup4\n        /* \"@openzeppelin/contracts/utils/Address.sol\":9042:9044  32 */\n      0x20\n        /* \"@openzeppelin/contracts/utils/Address.sol\":9038:9057  add(32, returndata) */\n      add\n        /* \"@openzeppelin/contracts/utils/Address.sol\":9031:9075  revert(add(32, returndata), returndata_size) */\n      revert\n        /* \"@openzeppelin/contracts/utils/Address.sol\":8771:9150  if (returndata.length > 0) {... */\n    tag_298:\n        /* \"@openzeppelin/contracts/utils/Address.sol\":9126:9138  errorMessage */\n      dup1\n        /* \"@openzeppelin/contracts/utils/Address.sol\":9119:9139  revert(errorMessage) */\n      mload(0x40)\n      0x08c379a000000000000000000000000000000000000000000000000000000000\n      dup2\n      mstore\n      0x04\n      add\n      tag_300\n      swap2\n      swap1\n      tag_232\n      jump\t// in\n    tag_300:\n      mload(0x40)\n      dup1\n      swap2\n      sub\n      swap1\n      revert\n        /* \"#utility.yul\":88:205   */\n    tag_302:\n        /* \"#utility.yul\":197:198   */\n      0x00\n        /* \"#utility.yul\":194:195   */\n      dup1\n        /* \"#utility.yul\":187:199   */\n      revert\n        /* \"#utility.yul\":211:328   */\n    tag_303:\n        /* \"#utility.yul\":320:321   */\n      0x00\n        /* \"#utility.yul\":317:318   */\n      dup1\n        /* \"#utility.yul\":310:322   */\n      revert\n        /* \"#utility.yul\":334:483   */\n    tag_304:\n        /* \"#utility.yul\":370:377   */\n      0x00\n        /* \"#utility.yul\":410:476   */\n      0xffffffff00000000000000000000000000000000000000000000000000000000\n        /* \"#utility.yul\":403:408   */\n      dup3\n        /* \"#utility.yul\":399:477   */\n      and\n        /* \"#utility.yul\":388:477   */\n      swap1\n      pop\n        /* \"#utility.yul\":334:483   */\n      swap2\n      swap1\n      pop\n      jump\t// out\n        /* \"#utility.yul\":489:609   */\n    tag_305:\n        /* \"#utility.yul\":561:584   */\n      tag_378\n        /* \"#utility.yul\":578:583   */\n      dup2\n        /* \"#utility.yul\":561:584   */\n      tag_304\n      jump\t// in\n    tag_378:\n        /* \"#utility.yul\":554:559   */\n      dup2\n        /* \"#utility.yul\":551:585   */\n      eq\n        /* \"#utility.yul\":541:603   */\n      tag_379\n      jumpi\n        /* \"#utility.yul\":599:600   */\n      0x00\n        /* \"#utility.yul\":596:597   */\n      dup1\n        /* \"#utility.yul\":589:601   */\n      revert\n        /* \"#utility.yul\":541:603   */\n    tag_379:\n        /* \"#utility.yul\":489:609   */\n      pop\n      jump\t// out\n        /* \"#utility.yul\":615:752   */\n    tag_306:\n        /* \"#utility.yul\":660:665   */\n      0x00\n        /* \"#utility.yul\":698:704   */\n      dup2\n        /* \"#utility.yul\":685:705   */\n      calldataload\n        /* \"#utility.yul\":676:705   */\n      swap1\n      pop\n        /* \"#utility.yul\":714:746   */\n      tag_381\n        /* \"#utility.yul\":740:745   */\n      dup2\n        /* \"#utility.yul\":714:746   */\n      tag_305\n      jump\t// in\n    tag_381:\n        /* \"#utility.yul\":615:752   */\n      swap3\n      swap2\n      pop\n      pop\n      jump\t// out\n        /* \"#utility.yul\":758:1085   */\n    tag_20:\n        /* \"#utility.yul\":816:822   */\n      0x00\n        /* \"#utility.yul\":865:867   */\n      0x20\n        /* \"#utility.yul\":853:862   */\n      dup3\n        /* \"#utility.yul\":844:851   */\n      dup5\n        /* \"#utility.yul\":840:863   */\n      sub\n        /* \"#utility.yul\":836:868   */\n      slt\n        /* \"#utility.yul\":833:952   */\n      iszero\n      tag_383\n      jumpi\n        /* \"#utility.yul\":871:950   */\n      tag_384\n      tag_302\n      jump\t// in\n    tag_384:\n        /* \"#utility.yul\":833:952   */\n    tag_383:\n        /* \"#utility.yul\":991:992   */\n      0x00\n        /* \"#utility.yul\":1016:1068   */\n      tag_385\n        /* \"#utility.yul\":1060:1067   */\n      dup5\n        /* \"#utility.yul\":1051:1057   */\n      dup3\n        /* \"#utility.yul\":1040:1049   */\n      dup6\n        /* \"#utility.yul\":1036:1058   */\n      add\n        /* \"#utility.yul\":1016:1068   */\n      tag_306\n      jump\t// in\n    tag_385:\n        /* \"#utility.yul\":1006:1068   */\n      swap2\n      pop\n        /* \"#utility.yul\":962:1078   */\n      pop\n        /* \"#utility.yul\":758:1085   */\n      swap3\n      swap2\n      pop\n      pop\n      jump\t// out\n        /* \"#utility.yul\":1091:1181   */\n    tag_307:\n        /* \"#utility.yul\":1125:1132   */\n      0x00\n        /* \"#utility.yul\":1168:1173   */\n      dup2\n        /* \"#utility.yul\":1161:1174   */\n      iszero\n        /* \"#utility.yul\":1154:1175   */\n      iszero\n        /* \"#utility.yul\":1143:1175   */\n      swap1\n      pop\n        /* \"#utility.yul\":1091:1181   */\n      swap2\n      swap1\n      pop\n      jump\t// out\n        /* \"#utility.yul\":1187:1296   */\n    tag_308:\n        /* \"#utility.yul\":1268:1289   */\n      tag_388\n        /* \"#utility.yul\":1283:1288   */\n      dup2\n        /* \"#utility.yul\":1268:1289   */\n      tag_307\n      jump\t// in\n    tag_388:\n        /* \"#utility.yul\":1263:1266   */\n      dup3\n        /* \"#utility.yul\":1256:1290   */\n      mstore\n        /* \"#utility.yul\":1187:1296   */\n      pop\n      pop\n      jump\t// out\n        /* \"#utility.yul\":1302:1512   */\n    tag_23:\n        /* \"#utility.yul\":1389:1393   */\n      0x00\n        /* \"#utility.yul\":1427:1429   */\n      0x20\n        /* \"#utility.yul\":1416:1425   */\n      dup3\n        /* \"#utility.yul\":1412:1430   */\n      add\n        /* \"#utility.yul\":1404:1430   */\n      swap1\n      pop\n        /* \"#utility.yul\":1440:1505   */\n      tag_390\n        /* \"#utility.yul\":1502:1503   */\n      0x00\n        /* \"#utility.yul\":1491:1500   */\n      dup4\n        /* \"#utility.yul\":1487:1504   */\n      add\n        /* \"#utility.yul\":1478:1484   */\n      dup5\n        /* \"#utility.yul\":1440:1505   */\n      tag_308\n      jump\t// in\n    tag_390:\n        /* \"#utility.yul\":1302:1512   */\n      swap3\n      swap2\n      pop\n      pop\n      jump\t// out\n        /* \"#utility.yul\":1518:1595   */\n    tag_309:\n        /* \"#utility.yul\":1555:1562   */\n      0x00\n        /* \"#utility.yul\":1584:1589   */\n      dup2\n        /* \"#utility.yul\":1573:1589   */\n      swap1\n      pop\n        /* \"#utility.yul\":1518:1595   */\n      swap2\n      swap1\n      pop\n      jump\t// out\n        /* \"#utility.yul\":1601:1723   */\n    tag_310:\n        /* \"#utility.yul\":1674:1698   */\n      tag_393\n        /* \"#utility.yul\":1692:1697   */\n      dup2\n        /* \"#utility.yul\":1674:1698   */\n      tag_309\n      jump\t// in\n    tag_393:\n        /* \"#utility.yul\":1667:1672   */\n      dup2\n        /* \"#utility.yul\":1664:1699   */\n      eq\n        /* \"#utility.yul\":1654:1717   */\n      tag_394\n      jumpi\n        /* \"#utility.yul\":1713:1714   */\n      0x00\n        /* \"#utility.yul\":1710:1711   */\n      dup1\n        /* \"#utility.yul\":1703:1715   */\n      revert\n        /* \"#utility.yul\":1654:1717   */\n    tag_394:\n        /* \"#utility.yul\":1601:1723   */\n      pop\n      jump\t// out\n        /* \"#utility.yul\":1729:1868   */\n    tag_311:\n        /* \"#utility.yul\":1775:1780   */\n      0x00\n        /* \"#utility.yul\":1813:1819   */\n      dup2\n        /* \"#utility.yul\":1800:1820   */\n      calldataload\n        /* \"#utility.yul\":1791:1820   */\n      swap1\n      pop\n        /* \"#utility.yul\":1829:1862   */\n      tag_396\n        /* \"#utility.yul\":1856:1861   */\n      dup2\n        /* \"#utility.yul\":1829:1862   */\n      tag_310\n      jump\t// in\n    tag_396:\n        /* \"#utility.yul\":1729:1868   */\n      swap3\n      swap2\n      pop\n      pop\n      jump\t// out\n        /* \"#utility.yul\":1874:2203   */\n    tag_26:\n        /* \"#utility.yul\":1933:1939   */\n      0x00\n        /* \"#utility.yul\":1982:1984   */\n      0x20\n        /* \"#utility.yul\":1970:1979   */\n      dup3\n        /* \"#utility.yul\":1961:1968   */\n      dup5\n        /* \"#utility.yul\":1957:1980   */\n      sub\n        /* \"#utility.yul\":1953:1985   */\n      slt\n        /* \"#utility.yul\":1950:2069   */\n      iszero\n      tag_398\n      jumpi\n        /* \"#utility.yul\":1988:2067   */\n      tag_399\n      tag_302\n      jump\t// in\n    tag_399:\n        /* \"#utility.yul\":1950:2069   */\n    tag_398:\n        /* \"#utility.yul\":2108:2109   */\n      0x00\n        /* \"#utility.yul\":2133:2186   */\n      tag_400\n        /* \"#utility.yul\":2178:2185   */\n      dup5\n        /* \"#utility.yul\":2169:2175   */\n      dup3\n        /* \"#utility.yul\":2158:2167   */\n      dup6\n        /* \"#utility.yul\":2154:2176   */\n      add\n        /* \"#utility.yul\":2133:2186   */\n      tag_311\n      jump\t// in\n    tag_400:\n        /* \"#utility.yul\":2123:2186   */\n      swap2\n      pop\n        /* \"#utility.yul\":2079:2196   */\n      pop\n        /* \"#utility.yul\":1874:2203   */\n      swap3\n      swap2\n      pop\n      pop\n      jump\t// out\n        /* \"#utility.yul\":2209:2327   */\n    tag_312:\n        /* \"#utility.yul\":2296:2320   */\n      tag_402\n        /* \"#utility.yul\":2314:2319   */\n      dup2\n        /* \"#utility.yul\":2296:2320   */\n      tag_309\n      jump\t// in\n    tag_402:\n        /* \"#utility.yul\":2291:2294   */\n      dup3\n        /* \"#utility.yul\":2284:2321   */\n      mstore\n        /* \"#utility.yul\":2209:2327   */\n      pop\n      pop\n      jump\t// out\n        /* \"#utility.yul\":2333:2555   */\n    tag_29:\n        /* \"#utility.yul\":2426:2430   */\n      0x00\n        /* \"#utility.yul\":2464:2466   */\n      0x20\n        /* \"#utility.yul\":2453:2462   */\n      dup3\n        /* \"#utility.yul\":2449:2467   */\n      add\n        /* \"#utility.yul\":2441:2467   */\n      swap1\n      pop\n        /* \"#utility.yul\":2477:2548   */\n      tag_404\n        /* \"#utility.yul\":2545:2546   */\n      0x00\n        /* \"#utility.yul\":2534:2543   */\n      dup4\n        /* \"#utility.yul\":2530:2547   */\n      add\n        /* \"#utility.yul\":2521:2527   */\n      dup5\n        /* \"#utility.yul\":2477:2548   */\n      tag_312\n      jump\t// in\n    tag_404:\n        /* \"#utility.yul\":2333:2555   */\n      swap3\n      swap2\n      pop\n      pop\n      jump\t// out\n        /* \"#utility.yul\":2561:2687   */\n    tag_313:\n        /* \"#utility.yul\":2598:2605   */\n      0x00\n        /* \"#utility.yul\":2638:2680   */\n      0xffffffffffffffffffffffffffffffffffffffff\n        /* \"#utility.yul\":2631:2636   */\n      dup3\n        /* \"#utility.yul\":2627:2681   */\n      and\n        /* \"#utility.yul\":2616:2681   */\n      swap1\n      pop\n        /* \"#utility.yul\":2561:2687   */\n      swap2\n      swap1\n      pop\n      jump\t// out\n        /* \"#utility.yul\":2693:2789   */\n    tag_314:\n        /* \"#utility.yul\":2730:2737   */\n      0x00\n        /* \"#utility.yul\":2759:2783   */\n      tag_407\n        /* \"#utility.yul\":2777:2782   */\n      dup3\n        /* \"#utility.yul\":2759:2783   */\n      tag_313\n      jump\t// in\n    tag_407:\n        /* \"#utility.yul\":2748:2783   */\n      swap1\n      pop\n        /* \"#utility.yul\":2693:2789   */\n      swap2\n      swap1\n      pop\n      jump\t// out\n        /* \"#utility.yul\":2795:2917   */\n    tag_315:\n        /* \"#utility.yul\":2868:2892   */\n      tag_409\n        /* \"#utility.yul\":2886:2891   */\n      dup2\n        /* \"#utility.yul\":2868:2892   */\n      tag_314\n      jump\t// in\n    tag_409:\n        /* \"#utility.yul\":2861:2866   */\n      dup2\n        /* \"#utility.yul\":2858:2893   */\n      eq\n        /* \"#utility.yul\":2848:2911   */\n      tag_410\n      jumpi\n        /* \"#utility.yul\":2907:2908   */\n      0x00\n        /* \"#utility.yul\":2904:2905   */\n      dup1\n        /* \"#utility.yul\":2897:2909   */\n      revert\n        /* \"#utility.yul\":2848:2911   */\n    tag_410:\n        /* \"#utility.yul\":2795:2917   */\n      pop\n      jump\t// out\n        /* \"#utility.yul\":2923:3062   */\n    tag_316:\n        /* \"#utility.yul\":2969:2974   */\n      0x00\n        /* \"#utility.yul\":3007:3013   */\n      dup2\n        /* \"#utility.yul\":2994:3014   */\n      calldataload\n        /* \"#utility.yul\":2985:3014   */\n      swap1\n      pop\n        /* \"#utility.yul\":3023:3056   */\n      tag_412\n        /* \"#utility.yul\":3050:3055   */\n      dup2\n        /* \"#utility.yul\":3023:3056   */\n      tag_315\n      jump\t// in\n    tag_412:\n        /* \"#utility.yul\":2923:3062   */\n      swap3\n      swap2\n      pop\n      pop\n      jump\t// out\n        /* \"#utility.yul\":3068:3542   */\n    tag_32:\n        /* \"#utility.yul\":3136:3142   */\n      0x00\n        /* \"#utility.yul\":3144:3150   */\n      dup1\n        /* \"#utility.yul\":3193:3195   */\n      0x40\n        /* \"#utility.yul\":3181:3190   */\n      dup4\n        /* \"#utility.yul\":3172:3179   */\n      dup6\n        /* \"#utility.yul\":3168:3191   */\n      sub\n        /* \"#utility.yul\":3164:3196   */\n      slt\n        /* \"#utility.yul\":3161:3280   */\n      iszero\n      tag_414\n      jumpi\n        /* \"#utility.yul\":3199:3278   */\n      tag_415\n      tag_302\n      jump\t// in\n    tag_415:\n        /* \"#utility.yul\":3161:3280   */\n    tag_414:\n        /* \"#utility.yul\":3319:3320   */\n      0x00\n        /* \"#utility.yul\":3344:3397   */\n      tag_416\n        /* \"#utility.yul\":3389:3396   */\n      dup6\n        /* \"#utility.yul\":3380:3386   */\n      dup3\n        /* \"#utility.yul\":3369:3378   */\n      dup7\n        /* \"#utility.yul\":3365:3387   */\n      add\n        /* \"#utility.yul\":3344:3397   */\n      tag_311\n      jump\t// in\n    tag_416:\n        /* \"#utility.yul\":3334:3397   */\n      swap3\n      pop\n        /* \"#utility.yul\":3290:3407   */\n      pop\n        /* \"#utility.yul\":3446:3448   */\n      0x20\n        /* \"#utility.yul\":3472:3525   */\n      tag_417\n        /* \"#utility.yul\":3517:3524   */\n      dup6\n        /* \"#utility.yul\":3508:3514   */\n      dup3\n        /* \"#utility.yul\":3497:3506   */\n      dup7\n        /* \"#utility.yul\":3493:3515   */\n      add\n        /* \"#utility.yul\":3472:3525   */\n      tag_316\n      jump\t// in\n    tag_417:\n        /* \"#utility.yul\":3462:3525   */\n      swap2\n      pop\n        /* \"#utility.yul\":3417:3535   */\n      pop\n        /* \"#utility.yul\":3068:3542   */\n      swap3\n      pop\n      swap3\n      swap1\n      pop\n      jump\t// out\n        /* \"#utility.yul\":3548:3625   */\n    tag_317:\n        /* \"#utility.yul\":3585:3592   */\n      0x00\n        /* \"#utility.yul\":3614:3619   */\n      dup2\n        /* \"#utility.yul\":3603:3619   */\n      swap1\n      pop\n        /* \"#utility.yul\":3548:3625   */\n      swap2\n      swap1\n      pop\n      jump\t// out\n        /* \"#utility.yul\":3631:3753   */\n    tag_318:\n        /* \"#utility.yul\":3704:3728   */\n      tag_420\n        /* \"#utility.yul\":3722:3727   */\n      dup2\n        /* \"#utility.yul\":3704:3728   */\n      tag_317\n      jump\t// in\n    tag_420:\n        /* \"#utility.yul\":3697:3702   */\n      dup2\n        /* \"#utility.yul\":3694:3729   */\n      eq\n        /* \"#utility.yul\":3684:3747   */\n      tag_421\n      jumpi\n        /* \"#utility.yul\":3743:3744   */\n      0x00\n        /* \"#utility.yul\":3740:3741   */\n      dup1\n        /* \"#utility.yul\":3733:3745   */\n      revert\n        /* \"#utility.yul\":3684:3747   */\n    tag_421:\n        /* \"#utility.yul\":3631:3753   */\n      pop\n      jump\t// out\n        /* \"#utility.yul\":3759:3898   */\n    tag_319:\n        /* \"#utility.yul\":3805:3810   */\n      0x00\n        /* \"#utility.yul\":3843:3849   */\n      dup2\n        /* \"#utility.yul\":3830:3850   */\n      calldataload\n        /* \"#utility.yul\":3821:3850   */\n      swap1\n      pop\n        /* \"#utility.yul\":3859:3892   */\n      tag_423\n        /* \"#utility.yul\":3886:3891   */\n      dup2\n        /* \"#utility.yul\":3859:3892   */\n      tag_318\n      jump\t// in\n    tag_423:\n        /* \"#utility.yul\":3759:3898   */\n      swap3\n      swap2\n      pop\n      pop\n      jump\t// out\n        /* \"#utility.yul\":3904:4021   */\n    tag_320:\n        /* \"#utility.yul\":4013:4014   */\n      0x00\n        /* \"#utility.yul\":4010:4011   */\n      dup1\n        /* \"#utility.yul\":4003:4015   */\n      revert\n        /* \"#utility.yul\":4027:4144   */\n    tag_321:\n        /* \"#utility.yul\":4136:4137   */\n      0x00\n        /* \"#utility.yul\":4133:4134   */\n      dup1\n        /* \"#utility.yul\":4126:4138   */\n      revert\n        /* \"#utility.yul\":4150:4267   */\n    tag_322:\n        /* \"#utility.yul\":4259:4260   */\n      0x00\n        /* \"#utility.yul\":4256:4257   */\n      dup1\n        /* \"#utility.yul\":4249:4261   */\n      revert\n        /* \"#utility.yul\":4287:4840   */\n    tag_323:\n        /* \"#utility.yul\":4345:4353   */\n      0x00\n        /* \"#utility.yul\":4355:4361   */\n      dup1\n        /* \"#utility.yul\":4405:4408   */\n      dup4\n        /* \"#utility.yul\":4398:4402   */\n      0x1f\n        /* \"#utility.yul\":4390:4396   */\n      dup5\n        /* \"#utility.yul\":4386:4403   */\n      add\n        /* \"#utility.yul\":4382:4409   */\n      slt\n        /* \"#utility.yul\":4372:4494   */\n      tag_428\n      jumpi\n        /* \"#utility.yul\":4413:4492   */\n      tag_429\n      tag_320\n      jump\t// in\n    tag_429:\n        /* \"#utility.yul\":4372:4494   */\n    tag_428:\n        /* \"#utility.yul\":4526:4532   */\n      dup3\n        /* \"#utility.yul\":4513:4533   */\n      calldataload\n        /* \"#utility.yul\":4503:4533   */\n      swap1\n      pop\n        /* \"#utility.yul\":4556:4574   */\n      0xffffffffffffffff\n        /* \"#utility.yul\":4548:4554   */\n      dup2\n        /* \"#utility.yul\":4545:4575   */\n      gt\n        /* \"#utility.yul\":4542:4659   */\n      iszero\n      tag_430\n      jumpi\n        /* \"#utility.yul\":4578:4657   */\n      tag_431\n      tag_321\n      jump\t// in\n    tag_431:\n        /* \"#utility.yul\":4542:4659   */\n    tag_430:\n        /* \"#utility.yul\":4692:4696   */\n      0x20\n        /* \"#utility.yul\":4684:4690   */\n      dup4\n        /* \"#utility.yul\":4680:4697   */\n      add\n        /* \"#utility.yul\":4668:4697   */\n      swap2\n      pop\n        /* \"#utility.yul\":4746:4749   */\n      dup4\n        /* \"#utility.yul\":4738:4742   */\n      0x01\n        /* \"#utility.yul\":4730:4736   */\n      dup3\n        /* \"#utility.yul\":4726:4743   */\n      mul\n        /* \"#utility.yul\":4716:4724   */\n      dup4\n        /* \"#utility.yul\":4712:4744   */\n      add\n        /* \"#utility.yul\":4709:4750   */\n      gt\n        /* \"#utility.yul\":4706:4834   */\n      iszero\n      tag_432\n      jumpi\n        /* \"#utility.yul\":4753:4832   */\n      tag_433\n      tag_322\n      jump\t// in\n    tag_433:\n        /* \"#utility.yul\":4706:4834   */\n    tag_432:\n        /* \"#utility.yul\":4287:4840   */\n      swap3\n      pop\n      swap3\n      swap1\n      pop\n      jump\t// out\n        /* \"#utility.yul\":4846:5665   */\n    tag_39:\n        /* \"#utility.yul\":4935:4941   */\n      0x00\n        /* \"#utility.yul\":4943:4949   */\n      dup1\n        /* \"#utility.yul\":4951:4957   */\n      0x00\n        /* \"#utility.yul\":4959:4965   */\n      dup1\n        /* \"#utility.yul\":5008:5010   */\n      0x60\n        /* \"#utility.yul\":4996:5005   */\n      dup6\n        /* \"#utility.yul\":4987:4994   */\n      dup8\n        /* \"#utility.yul\":4983:5006   */\n      sub\n        /* \"#utility.yul\":4979:5011   */\n      slt\n        /* \"#utility.yul\":4976:5095   */\n      iszero\n      tag_435\n      jumpi\n        /* \"#utility.yul\":5014:5093   */\n      tag_436\n      tag_302\n      jump\t// in\n    tag_436:\n        /* \"#utility.yul\":4976:5095   */\n    tag_435:\n        /* \"#utility.yul\":5134:5135   */\n      0x00\n        /* \"#utility.yul\":5159:5212   */\n      tag_437\n        /* \"#utility.yul\":5204:5211   */\n      dup8\n        /* \"#utility.yul\":5195:5201   */\n      dup3\n        /* \"#utility.yul\":5184:5193   */\n      dup9\n        /* \"#utility.yul\":5180:5202   */\n      add\n        /* \"#utility.yul\":5159:5212   */\n      tag_316\n      jump\t// in\n    tag_437:\n        /* \"#utility.yul\":5149:5212   */\n      swap5\n      pop\n        /* \"#utility.yul\":5105:5222   */\n      pop\n        /* \"#utility.yul\":5261:5263   */\n      0x20\n        /* \"#utility.yul\":5287:5340   */\n      tag_438\n        /* \"#utility.yul\":5332:5339   */\n      dup8\n        /* \"#utility.yul\":5323:5329   */\n      dup3\n        /* \"#utility.yul\":5312:5321   */\n      dup9\n        /* \"#utility.yul\":5308:5330   */\n      add\n        /* \"#utility.yul\":5287:5340   */\n      tag_319\n      jump\t// in\n    tag_438:\n        /* \"#utility.yul\":5277:5340   */\n      swap4\n      pop\n        /* \"#utility.yul\":5232:5350   */\n      pop\n        /* \"#utility.yul\":5417:5419   */\n      0x40\n        /* \"#utility.yul\":5406:5415   */\n      dup6\n        /* \"#utility.yul\":5402:5420   */\n      add\n        /* \"#utility.yul\":5389:5421   */\n      calldataload\n        /* \"#utility.yul\":5448:5466   */\n      0xffffffffffffffff\n        /* \"#utility.yul\":5440:5446   */\n      dup2\n        /* \"#utility.yul\":5437:5467   */\n      gt\n        /* \"#utility.yul\":5434:5551   */\n      iszero\n      tag_439\n      jumpi\n        /* \"#utility.yul\":5470:5549   */\n      tag_440\n      tag_303\n      jump\t// in\n    tag_440:\n        /* \"#utility.yul\":5434:5551   */\n    tag_439:\n        /* \"#utility.yul\":5583:5648   */\n      tag_441\n        /* \"#utility.yul\":5640:5647   */\n      dup8\n        /* \"#utility.yul\":5631:5637   */\n      dup3\n        /* \"#utility.yul\":5620:5629   */\n      dup9\n        /* \"#utility.yul\":5616:5638   */\n      add\n        /* \"#utility.yul\":5583:5648   */\n      tag_323\n      jump\t// in\n    tag_441:\n        /* \"#utility.yul\":5565:5648   */\n      swap3\n      pop\n      swap3\n      pop\n        /* \"#utility.yul\":5360:5658   */\n      pop\n        /* \"#utility.yul\":4846:5665   */\n      swap3\n      swap6\n      swap2\n      swap5\n      pop\n      swap3\n      pop\n      jump\t// out\n        /* \"#utility.yul\":5688:6256   */\n    tag_324:\n        /* \"#utility.yul\":5761:5769   */\n      0x00\n        /* \"#utility.yul\":5771:5777   */\n      dup1\n        /* \"#utility.yul\":5821:5824   */\n      dup4\n        /* \"#utility.yul\":5814:5818   */\n      0x1f\n        /* \"#utility.yul\":5806:5812   */\n      dup5\n        /* \"#utility.yul\":5802:5819   */\n      add\n        /* \"#utility.yul\":5798:5825   */\n      slt\n        /* \"#utility.yul\":5788:5910   */\n      tag_443\n      jumpi\n        /* \"#utility.yul\":5829:5908   */\n      tag_444\n      tag_320\n      jump\t// in\n    tag_444:\n        /* \"#utility.yul\":5788:5910   */\n    tag_443:\n        /* \"#utility.yul\":5942:5948   */\n      dup3\n        /* \"#utility.yul\":5929:5949   */\n      calldataload\n        /* \"#utility.yul\":5919:5949   */\n      swap1\n      pop\n        /* \"#utility.yul\":5972:5990   */\n      0xffffffffffffffff\n        /* \"#utility.yul\":5964:5970   */\n      dup2\n        /* \"#utility.yul\":5961:5991   */\n      gt\n        /* \"#utility.yul\":5958:6075   */\n      iszero\n      tag_445\n      jumpi\n        /* \"#utility.yul\":5994:6073   */\n      tag_446\n      tag_321\n      jump\t// in\n    tag_446:\n        /* \"#utility.yul\":5958:6075   */\n    tag_445:\n        /* \"#utility.yul\":6108:6112   */\n      0x20\n        /* \"#utility.yul\":6100:6106   */\n      dup4\n        /* \"#utility.yul\":6096:6113   */\n      add\n        /* \"#utility.yul\":6084:6113   */\n      swap2\n      pop\n        /* \"#utility.yul\":6162:6165   */\n      dup4\n        /* \"#utility.yul\":6154:6158   */\n      0x20\n        /* \"#utility.yul\":6146:6152   */\n      dup3\n        /* \"#utility.yul\":6142:6159   */\n      mul\n        /* \"#utility.yul\":6132:6140   */\n      dup4\n        /* \"#utility.yul\":6128:6160   */\n      add\n        /* \"#utility.yul\":6125:6166   */\n      gt\n        /* \"#utility.yul\":6122:6250   */\n      iszero\n      tag_447\n      jumpi\n        /* \"#utility.yul\":6169:6248   */\n      tag_448\n      tag_322\n      jump\t// in\n    tag_448:\n        /* \"#utility.yul\":6122:6250   */\n    tag_447:\n        /* \"#utility.yul\":5688:6256   */\n      swap3\n      pop\n      swap3\n      swap1\n      pop\n      jump\t// out\n        /* \"#utility.yul\":6279:6847   */\n    tag_325:\n        /* \"#utility.yul\":6352:6360   */\n      0x00\n        /* \"#utility.yul\":6362:6368   */\n      dup1\n        /* \"#utility.yul\":6412:6415   */\n      dup4\n        /* \"#utility.yul\":6405:6409   */\n      0x1f\n        /* \"#utility.yul\":6397:6403   */\n      dup5\n        /* \"#utility.yul\":6393:6410   */\n      add\n        /* \"#utility.yul\":6389:6416   */\n      slt\n        /* \"#utility.yul\":6379:6501   */\n      tag_450\n      jumpi\n        /* \"#utility.yul\":6420:6499   */\n      tag_451\n      tag_320\n      jump\t// in\n    tag_451:\n        /* \"#utility.yul\":6379:6501   */\n    tag_450:\n        /* \"#utility.yul\":6533:6539   */\n      dup3\n        /* \"#utility.yul\":6520:6540   */\n      calldataload\n        /* \"#utility.yul\":6510:6540   */\n      swap1\n      pop\n        /* \"#utility.yul\":6563:6581   */\n      0xffffffffffffffff\n        /* \"#utility.yul\":6555:6561   */\n      dup2\n        /* \"#utility.yul\":6552:6582   */\n      gt\n        /* \"#utility.yul\":6549:6666   */\n      iszero\n      tag_452\n      jumpi\n        /* \"#utility.yul\":6585:6664   */\n      tag_453\n      tag_321\n      jump\t// in\n    tag_453:\n        /* \"#utility.yul\":6549:6666   */\n    tag_452:\n        /* \"#utility.yul\":6699:6703   */\n      0x20\n        /* \"#utility.yul\":6691:6697   */\n      dup4\n        /* \"#utility.yul\":6687:6704   */\n      add\n        /* \"#utility.yul\":6675:6704   */\n      swap2\n      pop\n        /* \"#utility.yul\":6753:6756   */\n      dup4\n        /* \"#utility.yul\":6745:6749   */\n      0x20\n        /* \"#utility.yul\":6737:6743   */\n      dup3\n        /* \"#utility.yul\":6733:6750   */\n      mul\n        /* \"#utility.yul\":6723:6731   */\n      dup4\n        /* \"#utility.yul\":6719:6751   */\n      add\n        /* \"#utility.yul\":6716:6757   */\n      gt\n        /* \"#utility.yul\":6713:6841   */\n      iszero\n      tag_454\n      jumpi\n        /* \"#utility.yul\":6760:6839   */\n      tag_455\n      tag_322\n      jump\t// in\n    tag_455:\n        /* \"#utility.yul\":6713:6841   */\n    tag_454:\n        /* \"#utility.yul\":6279:6847   */\n      swap3\n      pop\n      swap3\n      swap1\n      pop\n      jump\t// out\n        /* \"#utility.yul\":6869:7449   */\n    tag_326:\n        /* \"#utility.yul\":6954:6962   */\n      0x00\n        /* \"#utility.yul\":6964:6970   */\n      dup1\n        /* \"#utility.yul\":7014:7017   */\n      dup4\n        /* \"#utility.yul\":7007:7011   */\n      0x1f\n        /* \"#utility.yul\":6999:7005   */\n      dup5\n        /* \"#utility.yul\":6995:7012   */\n      add\n        /* \"#utility.yul\":6991:7018   */\n      slt\n        /* \"#utility.yul\":6981:7103   */\n      tag_457\n      jumpi\n        /* \"#utility.yul\":7022:7101   */\n      tag_458\n      tag_320\n      jump\t// in\n    tag_458:\n        /* \"#utility.yul\":6981:7103   */\n    tag_457:\n        /* \"#utility.yul\":7135:7141   */\n      dup3\n        /* \"#utility.yul\":7122:7142   */\n      calldataload\n        /* \"#utility.yul\":7112:7142   */\n      swap1\n      pop\n        /* \"#utility.yul\":7165:7183   */\n      0xffffffffffffffff\n        /* \"#utility.yul\":7157:7163   */\n      dup2\n        /* \"#utility.yul\":7154:7184   */\n      gt\n        /* \"#utility.yul\":7151:7268   */\n      iszero\n      tag_459\n      jumpi\n        /* \"#utility.yul\":7187:7266   */\n      tag_460\n      tag_321\n      jump\t// in\n    tag_460:\n        /* \"#utility.yul\":7151:7268   */\n    tag_459:\n        /* \"#utility.yul\":7301:7305   */\n      0x20\n        /* \"#utility.yul\":7293:7299   */\n      dup4\n        /* \"#utility.yul\":7289:7306   */\n      add\n        /* \"#utility.yul\":7277:7306   */\n      swap2\n      pop\n        /* \"#utility.yul\":7355:7358   */\n      dup4\n        /* \"#utility.yul\":7347:7351   */\n      0x20\n        /* \"#utility.yul\":7339:7345   */\n      dup3\n        /* \"#utility.yul\":7335:7352   */\n      mul\n        /* \"#utility.yul\":7325:7333   */\n      dup4\n        /* \"#utility.yul\":7321:7353   */\n      add\n        /* \"#utility.yul\":7318:7359   */\n      gt\n        /* \"#utility.yul\":7315:7443   */\n      iszero\n      tag_461\n      jumpi\n        /* \"#utility.yul\":7362:7441   */\n      tag_462\n      tag_322\n      jump\t// in\n    tag_462:\n        /* \"#utility.yul\":7315:7443   */\n    tag_461:\n        /* \"#utility.yul\":6869:7449   */\n      swap3\n      pop\n      swap3\n      swap1\n      pop\n      jump\t// out\n        /* \"#utility.yul\":7455:9164   */\n    tag_43:\n        /* \"#utility.yul\":7661:7667   */\n      0x00\n        /* \"#utility.yul\":7669:7675   */\n      dup1\n        /* \"#utility.yul\":7677:7683   */\n      0x00\n        /* \"#utility.yul\":7685:7691   */\n      dup1\n        /* \"#utility.yul\":7693:7699   */\n      0x00\n        /* \"#utility.yul\":7701:7707   */\n      dup1\n        /* \"#utility.yul\":7709:7715   */\n      0x00\n        /* \"#utility.yul\":7717:7723   */\n      dup1\n        /* \"#utility.yul\":7766:7769   */\n      0x80\n        /* \"#utility.yul\":7754:7763   */\n      dup10\n        /* \"#utility.yul\":7745:7752   */\n      dup12\n        /* \"#utility.yul\":7741:7764   */\n      sub\n        /* \"#utility.yul\":7737:7770   */\n      slt\n        /* \"#utility.yul\":7734:7854   */\n      iszero\n      tag_464\n      jumpi\n        /* \"#utility.yul\":7773:7852   */\n      tag_465\n      tag_302\n      jump\t// in\n    tag_465:\n        /* \"#utility.yul\":7734:7854   */\n    tag_464:\n        /* \"#utility.yul\":7921:7922   */\n      0x00\n        /* \"#utility.yul\":7910:7919   */\n      dup10\n        /* \"#utility.yul\":7906:7923   */\n      add\n        /* \"#utility.yul\":7893:7924   */\n      calldataload\n        /* \"#utility.yul\":7951:7969   */\n      0xffffffffffffffff\n        /* \"#utility.yul\":7943:7949   */\n      dup2\n        /* \"#utility.yul\":7940:7970   */\n      gt\n        /* \"#utility.yul\":7937:8054   */\n      iszero\n      tag_466\n      jumpi\n        /* \"#utility.yul\":7973:8052   */\n      tag_467\n      tag_303\n      jump\t// in\n    tag_467:\n        /* \"#utility.yul\":7937:8054   */\n    tag_466:\n        /* \"#utility.yul\":8086:8166   */\n      tag_468\n        /* \"#utility.yul\":8158:8165   */\n      dup12\n        /* \"#utility.yul\":8149:8155   */\n      dup3\n        /* \"#utility.yul\":8138:8147   */\n      dup13\n        /* \"#utility.yul\":8134:8156   */\n      add\n        /* \"#utility.yul\":8086:8166   */\n      tag_324\n      jump\t// in\n    tag_468:\n        /* \"#utility.yul\":8068:8166   */\n      swap9\n      pop\n      swap9\n      pop\n        /* \"#utility.yul\":7864:8176   */\n      pop\n        /* \"#utility.yul\":8243:8245   */\n      0x20\n        /* \"#utility.yul\":8232:8241   */\n      dup10\n        /* \"#utility.yul\":8228:8246   */\n      add\n        /* \"#utility.yul\":8215:8247   */\n      calldataload\n        /* \"#utility.yul\":8274:8292   */\n      0xffffffffffffffff\n        /* \"#utility.yul\":8266:8272   */\n      dup2\n        /* \"#utility.yul\":8263:8293   */\n      gt\n        /* \"#utility.yul\":8260:8377   */\n      iszero\n      tag_469\n      jumpi\n        /* \"#utility.yul\":8296:8375   */\n      tag_470\n      tag_303\n      jump\t// in\n    tag_470:\n        /* \"#utility.yul\":8260:8377   */\n    tag_469:\n        /* \"#utility.yul\":8409:8489   */\n      tag_471\n        /* \"#utility.yul\":8481:8488   */\n      dup12\n        /* \"#utility.yul\":8472:8478   */\n      dup3\n        /* \"#utility.yul\":8461:8470   */\n      dup13\n        /* \"#utility.yul\":8457:8479   */\n      add\n        /* \"#utility.yul\":8409:8489   */\n      tag_325\n      jump\t// in\n    tag_471:\n        /* \"#utility.yul\":8391:8489   */\n      swap7\n      pop\n      swap7\n      pop\n        /* \"#utility.yul\":8186:8499   */\n      pop\n        /* \"#utility.yul\":8566:8568   */\n      0x40\n        /* \"#utility.yul\":8555:8564   */\n      dup10\n        /* \"#utility.yul\":8551:8569   */\n      add\n        /* \"#utility.yul\":8538:8570   */\n      calldataload\n        /* \"#utility.yul\":8597:8615   */\n      0xffffffffffffffff\n        /* \"#utility.yul\":8589:8595   */\n      dup2\n        /* \"#utility.yul\":8586:8616   */\n      gt\n        /* \"#utility.yul\":8583:8700   */\n      iszero\n      tag_472\n      jumpi\n        /* \"#utility.yul\":8619:8698   */\n      tag_473\n      tag_303\n      jump\t// in\n    tag_473:\n        /* \"#utility.yul\":8583:8700   */\n    tag_472:\n        /* \"#utility.yul\":8732:8812   */\n      tag_474\n        /* \"#utility.yul\":8804:8811   */\n      dup12\n        /* \"#utility.yul\":8795:8801   */\n      dup3\n        /* \"#utility.yul\":8784:8793   */\n      dup13\n        /* \"#utility.yul\":8780:8802   */\n      add\n        /* \"#utility.yul\":8732:8812   */\n      tag_324\n      jump\t// in\n    tag_474:\n        /* \"#utility.yul\":8714:8812   */\n      swap5\n      pop\n      swap5\n      pop\n        /* \"#utility.yul\":8509:8822   */\n      pop\n        /* \"#utility.yul\":8889:8891   */\n      0x60\n        /* \"#utility.yul\":8878:8887   */\n      dup10\n        /* \"#utility.yul\":8874:8892   */\n      add\n        /* \"#utility.yul\":8861:8893   */\n      calldataload\n        /* \"#utility.yul\":8920:8938   */\n      0xffffffffffffffff\n        /* \"#utility.yul\":8912:8918   */\n      dup2\n        /* \"#utility.yul\":8909:8939   */\n      gt\n        /* \"#utility.yul\":8906:9023   */\n      iszero\n      tag_475\n      jumpi\n        /* \"#utility.yul\":8942:9021   */\n      tag_476\n      tag_303\n      jump\t// in\n    tag_476:\n        /* \"#utility.yul\":8906:9023   */\n    tag_475:\n        /* \"#utility.yul\":9055:9147   */\n      tag_477\n        /* \"#utility.yul\":9139:9146   */\n      dup12\n        /* \"#utility.yul\":9130:9136   */\n      dup3\n        /* \"#utility.yul\":9119:9128   */\n      dup13\n        /* \"#utility.yul\":9115:9137   */\n      add\n        /* \"#utility.yul\":9055:9147   */\n      tag_326\n      jump\t// in\n    tag_477:\n        /* \"#utility.yul\":9037:9147   */\n      swap3\n      pop\n      swap3\n      pop\n        /* \"#utility.yul\":8832:9157   */\n      pop\n        /* \"#utility.yul\":7455:9164   */\n      swap3\n      swap6\n      swap9\n      pop\n      swap3\n      swap6\n      swap9\n      swap1\n      swap4\n      swap7\n      pop\n      jump\t// out\n        /* \"#utility.yul\":9170:9499   */\n    tag_50:\n        /* \"#utility.yul\":9229:9235   */\n      0x00\n        /* \"#utility.yul\":9278:9280   */\n      0x20\n        /* \"#utility.yul\":9266:9275   */\n      dup3\n        /* \"#utility.yul\":9257:9264   */\n      dup5\n        /* \"#utility.yul\":9253:9276   */\n      sub\n        /* \"#utility.yul\":9249:9281   */\n      slt\n        /* \"#utility.yul\":9246:9365   */\n      iszero\n      tag_479\n      jumpi\n        /* \"#utility.yul\":9284:9363   */\n      tag_480\n      tag_302\n      jump\t// in\n    tag_480:\n        /* \"#utility.yul\":9246:9365   */\n    tag_479:\n        /* \"#utility.yul\":9404:9405   */\n      0x00\n        /* \"#utility.yul\":9429:9482   */\n      tag_481\n        /* \"#utility.yul\":9474:9481   */\n      dup5\n        /* \"#utility.yul\":9465:9471   */\n      dup3\n        /* \"#utility.yul\":9454:9463   */\n      dup6\n        /* \"#utility.yul\":9450:9472   */\n      add\n        /* \"#utility.yul\":9429:9482   */\n      tag_316\n      jump\t// in\n    tag_481:\n        /* \"#utility.yul\":9419:9482   */\n      swap2\n      pop\n        /* \"#utility.yul\":9375:9492   */\n      pop\n        /* \"#utility.yul\":9170:9499   */\n      swap3\n      swap2\n      pop\n      pop\n      jump\t// out\n        /* \"#utility.yul\":9505:9623   */\n    tag_327:\n        /* \"#utility.yul\":9592:9616   */\n      tag_483\n        /* \"#utility.yul\":9610:9615   */\n      dup2\n        /* \"#utility.yul\":9592:9616   */\n      tag_317\n      jump\t// in\n    tag_483:\n        /* \"#utility.yul\":9587:9590   */\n      dup3\n        /* \"#utility.yul\":9580:9617   */\n      mstore\n        /* \"#utility.yul\":9505:9623   */\n      pop\n      pop\n      jump\t// out\n        /* \"#utility.yul\":9629:9851   */\n    tag_53:\n        /* \"#utility.yul\":9722:9726   */\n      0x00\n        /* \"#utility.yul\":9760:9762   */\n      0x20\n        /* \"#utility.yul\":9749:9758   */\n      dup3\n        /* \"#utility.yul\":9745:9763   */\n      add\n        /* \"#utility.yul\":9737:9763   */\n      swap1\n      pop\n        /* \"#utility.yul\":9773:9844   */\n      tag_485\n        /* \"#utility.yul\":9841:9842   */\n      0x00\n        /* \"#utility.yul\":9830:9839   */\n      dup4\n        /* \"#utility.yul\":9826:9843   */\n      add\n        /* \"#utility.yul\":9817:9823   */\n      dup5\n        /* \"#utility.yul\":9773:9844   */\n      tag_327\n      jump\t// in\n    tag_485:\n        /* \"#utility.yul\":9629:9851   */\n      swap3\n      swap2\n      pop\n      pop\n      jump\t// out\n        /* \"#utility.yul\":9857:10026   */\n    tag_328:\n        /* \"#utility.yul\":9941:9952   */\n      0x00\n        /* \"#utility.yul\":9975:9981   */\n      dup3\n        /* \"#utility.yul\":9970:9973   */\n      dup3\n        /* \"#utility.yul\":9963:9982   */\n      mstore\n        /* \"#utility.yul\":10015:10019   */\n      0x20\n        /* \"#utility.yul\":10010:10013   */\n      dup3\n        /* \"#utility.yul\":10006:10020   */\n      add\n        /* \"#utility.yul\":9991:10020   */\n      swap1\n      pop\n        /* \"#utility.yul\":9857:10026   */\n      swap3\n      swap2\n      pop\n      pop\n      jump\t// out\n        /* \"#utility.yul\":10032:10266   */\n    tag_329:\n        /* \"#utility.yul\":10172:10206   */\n      0x416363657373436f6e74726f6c3a2063616e206f6e6c792072656e6f756e6365\n        /* \"#utility.yul\":10168:10169   */\n      0x00\n        /* \"#utility.yul\":10160:10166   */\n      dup3\n        /* \"#utility.yul\":10156:10170   */\n      add\n        /* \"#utility.yul\":10149:10207   */\n      mstore\n        /* \"#utility.yul\":10241:10258   */\n      0x20726f6c657320666f722073656c660000000000000000000000000000000000\n        /* \"#utility.yul\":10236:10238   */\n      0x20\n        /* \"#utility.yul\":10228:10234   */\n      dup3\n        /* \"#utility.yul\":10224:10239   */\n      add\n        /* \"#utility.yul\":10217:10259   */\n      mstore\n        /* \"#utility.yul\":10032:10266   */\n      pop\n      jump\t// out\n        /* \"#utility.yul\":10272:10638   */\n    tag_330:\n        /* \"#utility.yul\":10414:10417   */\n      0x00\n        /* \"#utility.yul\":10435:10502   */\n      tag_489\n        /* \"#utility.yul\":10499:10501   */\n      0x2f\n        /* \"#utility.yul\":10494:10497   */\n      dup4\n        /* \"#utility.yul\":10435:10502   */\n      tag_328\n      jump\t// in\n    tag_489:\n        /* \"#utility.yul\":10428:10502   */\n      swap2\n      pop\n        /* \"#utility.yul\":10511:10604   */\n      tag_490\n        /* \"#utility.yul\":10600:10603   */\n      dup3\n        /* \"#utility.yul\":10511:10604   */\n      tag_329\n      jump\t// in\n    tag_490:\n        /* \"#utility.yul\":10629:10631   */\n      0x40\n        /* \"#utility.yul\":10624:10627   */\n      dup3\n        /* \"#utility.yul\":10620:10632   */\n      add\n        /* \"#utility.yul\":10613:10632   */\n      swap1\n      pop\n        /* \"#utility.yul\":10272:10638   */\n      swap2\n      swap1\n      pop\n      jump\t// out\n        /* \"#utility.yul\":10644:11063   */\n    tag_87:\n        /* \"#utility.yul\":10810:10814   */\n      0x00\n        /* \"#utility.yul\":10848:10850   */\n      0x20\n        /* \"#utility.yul\":10837:10846   */\n      dup3\n        /* \"#utility.yul\":10833:10851   */\n      add\n        /* \"#utility.yul\":10825:10851   */\n      swap1\n      pop\n        /* \"#utility.yul\":10897:10906   */\n      dup2\n        /* \"#utility.yul\":10891:10895   */\n      dup2\n        /* \"#utility.yul\":10887:10907   */\n      sub\n        /* \"#utility.yul\":10883:10884   */\n      0x00\n        /* \"#utility.yul\":10872:10881   */\n      dup4\n        /* \"#utility.yul\":10868:10885   */\n      add\n        /* \"#utility.yul\":10861:10908   */\n      mstore\n        /* \"#utility.yul\":10925:11056   */\n      tag_492\n        /* \"#utility.yul\":11051:11055   */\n      dup2\n        /* \"#utility.yul\":10925:11056   */\n      tag_330\n      jump\t// in\n    tag_492:\n        /* \"#utility.yul\":10917:11056   */\n      swap1\n      pop\n        /* \"#utility.yul\":10644:11063   */\n      swap2\n      swap1\n      pop\n      jump\t// out\n        /* \"#utility.yul\":11069:11232   */\n    tag_331:\n        /* \"#utility.yul\":11209:11224   */\n      0x63757272656e6379206661696c00000000000000000000000000000000000000\n        /* \"#utility.yul\":11205:11206   */\n      0x00\n        /* \"#utility.yul\":11197:11203   */\n      dup3\n        /* \"#utility.yul\":11193:11207   */\n      add\n        /* \"#utility.yul\":11186:11225   */\n      mstore\n        /* \"#utility.yul\":11069:11232   */\n      pop\n      jump\t// out\n        /* \"#utility.yul\":11238:11604   */\n    tag_332:\n        /* \"#utility.yul\":11380:11383   */\n      0x00\n        /* \"#utility.yul\":11401:11468   */\n      tag_495\n        /* \"#utility.yul\":11465:11467   */\n      0x0d\n        /* \"#utility.yul\":11460:11463   */\n      dup4\n        /* \"#utility.yul\":11401:11468   */\n      tag_328\n      jump\t// in\n    tag_495:\n        /* \"#utility.yul\":11394:11468   */\n      swap2\n      pop\n        /* \"#utility.yul\":11477:11570   */\n      tag_496\n        /* \"#utility.yul\":11566:11569   */\n      dup3\n        /* \"#utility.yul\":11477:11570   */\n      tag_331\n      jump\t// in\n    tag_496:\n        /* \"#utility.yul\":11595:11597   */\n      0x20\n        /* \"#utility.yul\":11590:11593   */\n      dup3\n        /* \"#utility.yul\":11586:11598   */\n      add\n        /* \"#utility.yul\":11579:11598   */\n      swap1\n      pop\n        /* \"#utility.yul\":11238:11604   */\n      swap2\n      swap1\n      pop\n      jump\t// out\n        /* \"#utility.yul\":11610:12029   */\n    tag_93:\n        /* \"#utility.yul\":11776:11780   */\n      0x00\n        /* \"#utility.yul\":11814:11816   */\n      0x20\n        /* \"#utility.yul\":11803:11812   */\n      dup3\n        /* \"#utility.yul\":11799:11817   */\n      add\n        /* \"#utility.yul\":11791:11817   */\n      swap1\n      pop\n        /* \"#utility.yul\":11863:11872   */\n      dup2\n        /* \"#utility.yul\":11857:11861   */\n      dup2\n        /* \"#utility.yul\":11853:11873   */\n      sub\n        /* \"#utility.yul\":11849:11850   */\n      0x00\n        /* \"#utility.yul\":11838:11847   */\n      dup4\n        /* \"#utility.yul\":11834:11851   */\n      add\n        /* \"#utility.yul\":11827:11874   */\n      mstore\n        /* \"#utility.yul\":11891:12022   */\n      tag_498\n        /* \"#utility.yul\":12017:12021   */\n      dup2\n        /* \"#utility.yul\":11891:12022   */\n      tag_332\n      jump\t// in\n    tag_498:\n        /* \"#utility.yul\":11883:12022   */\n      swap1\n      pop\n        /* \"#utility.yul\":11610:12029   */\n      swap2\n      swap1\n      pop\n      jump\t// out\n        /* \"#utility.yul\":12035:12196   */\n    tag_333:\n        /* \"#utility.yul\":12175:12188   */\n      0x616d6f756e74206661696c000000000000000000000000000000000000000000\n        /* \"#utility.yul\":12171:12172   */\n      0x00\n        /* \"#utility.yul\":12163:12169   */\n      dup3\n        /* \"#utility.yul\":12159:12173   */\n      add\n        /* \"#utility.yul\":12152:12189   */\n      mstore\n        /* \"#utility.yul\":12035:12196   */\n      pop\n      jump\t// out\n        /* \"#utility.yul\":12202:12568   */\n    tag_334:\n        /* \"#utility.yul\":12344:12347   */\n      0x00\n        /* \"#utility.yul\":12365:12432   */\n      tag_501\n        /* \"#utility.yul\":12429:12431   */\n      0x0b\n        /* \"#utility.yul\":12424:12427   */\n      dup4\n        /* \"#utility.yul\":12365:12432   */\n      tag_328\n      jump\t// in\n    tag_501:\n        /* \"#utility.yul\":12358:12432   */\n      swap2\n      pop\n        /* \"#utility.yul\":12441:12534   */\n      tag_502\n        /* \"#utility.yul\":12530:12533   */\n      dup3\n        /* \"#utility.yul\":12441:12534   */\n      tag_333\n      jump\t// in\n    tag_502:\n        /* \"#utility.yul\":12559:12561   */\n      0x20\n        /* \"#utility.yul\":12554:12557   */\n      dup3\n        /* \"#utility.yul\":12550:12562   */\n      add\n        /* \"#utility.yul\":12543:12562   */\n      swap1\n      pop\n        /* \"#utility.yul\":12202:12568   */\n      swap2\n      swap1\n      pop\n      jump\t// out\n        /* \"#utility.yul\":12574:12993   */\n    tag_96:\n        /* \"#utility.yul\":12740:12744   */\n      0x00\n        /* \"#utility.yul\":12778:12780   */\n      0x20\n        /* \"#utility.yul\":12767:12776   */\n      dup3\n        /* \"#utility.yul\":12763:12781   */\n      add\n        /* \"#utility.yul\":12755:12781   */\n      swap1\n      pop\n        /* \"#utility.yul\":12827:12836   */\n      dup2\n        /* \"#utility.yul\":12821:12825   */\n      dup2\n        /* \"#utility.yul\":12817:12837   */\n      sub\n        /* \"#utility.yul\":12813:12814   */\n      0x00\n        /* \"#utility.yul\":12802:12811   */\n      dup4\n        /* \"#utility.yul\":12798:12815   */\n      add\n        /* \"#utility.yul\":12791:12838   */\n      mstore\n        /* \"#utility.yul\":12855:12986   */\n      tag_504\n        /* \"#utility.yul\":12981:12985   */\n      dup2\n        /* \"#utility.yul\":12855:12986   */\n      tag_334\n      jump\t// in\n    tag_504:\n        /* \"#utility.yul\":12847:12986   */\n      swap1\n      pop\n        /* \"#utility.yul\":12574:12993   */\n      swap2\n      swap1\n      pop\n      jump\t// out\n        /* \"#utility.yul\":12999:13145   */\n    tag_335:\n        /* \"#utility.yul\":13096:13102   */\n      dup3\n        /* \"#utility.yul\":13091:13094   */\n      dup2\n        /* \"#utility.yul\":13086:13089   */\n      dup4\n        /* \"#utility.yul\":13073:13103   */\n      calldatacopy\n        /* \"#utility.yul\":13137:13138   */\n      0x00\n        /* \"#utility.yul\":13128:13134   */\n      dup4\n        /* \"#utility.yul\":13123:13126   */\n      dup4\n        /* \"#utility.yul\":13119:13135   */\n      add\n        /* \"#utility.yul\":13112:13139   */\n      mstore\n        /* \"#utility.yul\":12999:13145   */\n      pop\n      pop\n      pop\n      jump\t// out\n        /* \"#utility.yul\":13151:13253   */\n    tag_336:\n        /* \"#utility.yul\":13192:13198   */\n      0x00\n        /* \"#utility.yul\":13243:13245   */\n      0x1f\n        /* \"#utility.yul\":13239:13246   */\n      not\n        /* \"#utility.yul\":13234:13236   */\n      0x1f\n        /* \"#utility.yul\":13227:13232   */\n      dup4\n        /* \"#utility.yul\":13223:13237   */\n      add\n        /* \"#utility.yul\":13219:13247   */\n      and\n        /* \"#utility.yul\":13209:13247   */\n      swap1\n      pop\n        /* \"#utility.yul\":13151:13253   */\n      swap2\n      swap1\n      pop\n      jump\t// out\n        /* \"#utility.yul\":13283:13600   */\n    tag_337:\n        /* \"#utility.yul\":13381:13384   */\n      0x00\n        /* \"#utility.yul\":13402:13473   */\n      tag_508\n        /* \"#utility.yul\":13466:13472   */\n      dup4\n        /* \"#utility.yul\":13461:13464   */\n      dup6\n        /* \"#utility.yul\":13402:13473   */\n      tag_328\n      jump\t// in\n    tag_508:\n        /* \"#utility.yul\":13395:13473   */\n      swap4\n      pop\n        /* \"#utility.yul\":13483:13539   */\n      tag_509\n        /* \"#utility.yul\":13532:13538   */\n      dup4\n        /* \"#utility.yul\":13527:13530   */\n      dup6\n        /* \"#utility.yul\":13520:13525   */\n      dup5\n        /* \"#utility.yul\":13483:13539   */\n      tag_335\n      jump\t// in\n    tag_509:\n        /* \"#utility.yul\":13564:13593   */\n      tag_510\n        /* \"#utility.yul\":13586:13592   */\n      dup4\n        /* \"#utility.yul\":13564:13593   */\n      tag_336\n      jump\t// in\n    tag_510:\n        /* \"#utility.yul\":13559:13562   */\n      dup5\n        /* \"#utility.yul\":13555:13594   */\n      add\n        /* \"#utility.yul\":13548:13594   */\n      swap1\n      pop\n        /* \"#utility.yul\":13283:13600   */\n      swap4\n      swap3\n      pop\n      pop\n      pop\n      jump\t// out\n        /* \"#utility.yul\":13606:14049   */\n    tag_100:\n        /* \"#utility.yul\":13757:13761   */\n      0x00\n        /* \"#utility.yul\":13795:13797   */\n      0x40\n        /* \"#utility.yul\":13784:13793   */\n      dup3\n        /* \"#utility.yul\":13780:13798   */\n      add\n        /* \"#utility.yul\":13772:13798   */\n      swap1\n      pop\n        /* \"#utility.yul\":13808:13879   */\n      tag_512\n        /* \"#utility.yul\":13876:13877   */\n      0x00\n        /* \"#utility.yul\":13865:13874   */\n      dup4\n        /* \"#utility.yul\":13861:13878   */\n      add\n        /* \"#utility.yul\":13852:13858   */\n      dup7\n        /* \"#utility.yul\":13808:13879   */\n      tag_327\n      jump\t// in\n    tag_512:\n        /* \"#utility.yul\":13926:13935   */\n      dup2\n        /* \"#utility.yul\":13920:13924   */\n      dup2\n        /* \"#utility.yul\":13916:13936   */\n      sub\n        /* \"#utility.yul\":13911:13913   */\n      0x20\n        /* \"#utility.yul\":13900:13909   */\n      dup4\n        /* \"#utility.yul\":13896:13914   */\n      add\n        /* \"#utility.yul\":13889:13937   */\n      mstore\n        /* \"#utility.yul\":13954:14042   */\n      tag_513\n        /* \"#utility.yul\":14037:14041   */\n      dup2\n        /* \"#utility.yul\":14028:14034   */\n      dup5\n        /* \"#utility.yul\":14020:14026   */\n      dup7\n        /* \"#utility.yul\":13954:14042   */\n      tag_337\n      jump\t// in\n    tag_513:\n        /* \"#utility.yul\":13946:14042   */\n      swap1\n      pop\n        /* \"#utility.yul\":13606:14049   */\n      swap5\n      swap4\n      pop\n      pop\n      pop\n      pop\n      jump\t// out\n        /* \"#utility.yul\":14055:14212   */\n    tag_338:\n        /* \"#utility.yul\":14195:14204   */\n      0x746f206661696c00000000000000000000000000000000000000000000000000\n        /* \"#utility.yul\":14191:14192   */\n      0x00\n        /* \"#utility.yul\":14183:14189   */\n      dup3\n        /* \"#utility.yul\":14179:14193   */\n      add\n        /* \"#utility.yul\":14172:14205   */\n      mstore\n        /* \"#utility.yul\":14055:14212   */\n      pop\n      jump\t// out\n        /* \"#utility.yul\":14218:14583   */\n    tag_339:\n        /* \"#utility.yul\":14360:14363   */\n      0x00\n        /* \"#utility.yul\":14381:14447   */\n      tag_516\n        /* \"#utility.yul\":14445:14446   */\n      0x07\n        /* \"#utility.yul\":14440:14443   */\n      dup4\n        /* \"#utility.yul\":14381:14447   */\n      tag_328\n      jump\t// in\n    tag_516:\n        /* \"#utility.yul\":14374:14447   */\n      swap2\n      pop\n        /* \"#utility.yul\":14456:14549   */\n      tag_517\n        /* \"#utility.yul\":14545:14548   */\n      dup3\n        /* \"#utility.yul\":14456:14549   */\n      tag_338\n      jump\t// in\n    tag_517:\n        /* \"#utility.yul\":14574:14576   */\n      0x20\n        /* \"#utility.yul\":14569:14572   */\n      dup3\n        /* \"#utility.yul\":14565:14577   */\n      add\n        /* \"#utility.yul\":14558:14577   */\n      swap1\n      pop\n        /* \"#utility.yul\":14218:14583   */\n      swap2\n      swap1\n      pop\n      jump\t// out\n        /* \"#utility.yul\":14589:15008   */\n    tag_110:\n        /* \"#utility.yul\":14755:14759   */\n      0x00\n        /* \"#utility.yul\":14793:14795   */\n      0x20\n        /* \"#utility.yul\":14782:14791   */\n      dup3\n        /* \"#utility.yul\":14778:14796   */\n      add\n        /* \"#utility.yul\":14770:14796   */\n      swap1\n      pop\n        /* \"#utility.yul\":14842:14851   */\n      dup2\n        /* \"#utility.yul\":14836:14840   */\n      dup2\n        /* \"#utility.yul\":14832:14852   */\n      sub\n        /* \"#utility.yul\":14828:14829   */\n      0x00\n        /* \"#utility.yul\":14817:14826   */\n      dup4\n        /* \"#utility.yul\":14813:14830   */\n      add\n        /* \"#utility.yul\":14806:14853   */\n      mstore\n        /* \"#utility.yul\":14870:15001   */\n      tag_519\n        /* \"#utility.yul\":14996:15000   */\n      dup2\n        /* \"#utility.yul\":14870:15001   */\n      tag_339\n      jump\t// in\n    tag_519:\n        /* \"#utility.yul\":14862:15001   */\n      swap1\n      pop\n        /* \"#utility.yul\":14589:15008   */\n      swap2\n      swap1\n      pop\n      jump\t// out\n        /* \"#utility.yul\":15014:15176   */\n    tag_340:\n        /* \"#utility.yul\":15154:15168   */\n      0x6f726465724964206661696c0000000000000000000000000000000000000000\n        /* \"#utility.yul\":15150:15151   */\n      0x00\n        /* \"#utility.yul\":15142:15148   */\n      dup3\n        /* \"#utility.yul\":15138:15152   */\n      add\n        /* \"#utility.yul\":15131:15169   */\n      mstore\n        /* \"#utility.yul\":15014:15176   */\n      pop\n      jump\t// out\n        /* \"#utility.yul\":15182:15548   */\n    tag_341:\n        /* \"#utility.yul\":15324:15327   */\n      0x00\n        /* \"#utility.yul\":15345:15412   */\n      tag_522\n        /* \"#utility.yul\":15409:15411   */\n      0x0c\n        /* \"#utility.yul\":15404:15407   */\n      dup4\n        /* \"#utility.yul\":15345:15412   */\n      tag_328\n      jump\t// in\n    tag_522:\n        /* \"#utility.yul\":15338:15412   */\n      swap2\n      pop\n        /* \"#utility.yul\":15421:15514   */\n      tag_523\n        /* \"#utility.yul\":15510:15513   */\n      dup3\n        /* \"#utility.yul\":15421:15514   */\n      tag_340\n      jump\t// in\n    tag_523:\n        /* \"#utility.yul\":15539:15541   */\n      0x20\n        /* \"#utility.yul\":15534:15537   */\n      dup3\n        /* \"#utility.yul\":15530:15542   */\n      add\n        /* \"#utility.yul\":15523:15542   */\n      swap1\n      pop\n        /* \"#utility.yul\":15182:15548   */\n      swap2\n      swap1\n      pop\n      jump\t// out\n        /* \"#utility.yul\":15554:15973   */\n    tag_113:\n        /* \"#utility.yul\":15720:15724   */\n      0x00\n        /* \"#utility.yul\":15758:15760   */\n      0x20\n        /* \"#utility.yul\":15747:15756   */\n      dup3\n        /* \"#utility.yul\":15743:15761   */\n      add\n        /* \"#utility.yul\":15735:15761   */\n      swap1\n      pop\n        /* \"#utility.yul\":15807:15816   */\n      dup2\n        /* \"#utility.yul\":15801:15805   */\n      dup2\n        /* \"#utility.yul\":15797:15817   */\n      sub\n        /* \"#utility.yul\":15793:15794   */\n      0x00\n        /* \"#utility.yul\":15782:15791   */\n      dup4\n        /* \"#utility.yul\":15778:15795   */\n      add\n        /* \"#utility.yul\":15771:15818   */\n      mstore\n        /* \"#utility.yul\":15835:15966   */\n      tag_525\n        /* \"#utility.yul\":15961:15965   */\n      dup2\n        /* \"#utility.yul\":15835:15966   */\n      tag_341\n      jump\t// in\n    tag_525:\n        /* \"#utility.yul\":15827:15966   */\n      swap1\n      pop\n        /* \"#utility.yul\":15554:15973   */\n      swap2\n      swap1\n      pop\n      jump\t// out\n        /* \"#utility.yul\":15979:16159   */\n    tag_119:\n        /* \"#utility.yul\":16027:16104   */\n      0x4e487b7100000000000000000000000000000000000000000000000000000000\n        /* \"#utility.yul\":16024:16025   */\n      0x00\n        /* \"#utility.yul\":16017:16105   */\n      mstore\n        /* \"#utility.yul\":16124:16128   */\n      0x32\n        /* \"#utility.yul\":16121:16122   */\n      0x04\n        /* \"#utility.yul\":16114:16129   */\n      mstore\n        /* \"#utility.yul\":16148:16152   */\n      0x24\n        /* \"#utility.yul\":16145:16146   */\n      0x00\n        /* \"#utility.yul\":16138:16153   */\n      revert\n        /* \"#utility.yul\":16165:16282   */\n    tag_342:\n        /* \"#utility.yul\":16274:16275   */\n      0x00\n        /* \"#utility.yul\":16271:16272   */\n      dup1\n        /* \"#utility.yul\":16264:16276   */\n      revert\n        /* \"#utility.yul\":16288:16405   */\n    tag_343:\n        /* \"#utility.yul\":16397:16398   */\n      0x00\n        /* \"#utility.yul\":16394:16395   */\n      dup1\n        /* \"#utility.yul\":16387:16399   */\n      revert\n        /* \"#utility.yul\":16411:16528   */\n    tag_344:\n        /* \"#utility.yul\":16520:16521   */\n      0x00\n        /* \"#utility.yul\":16517:16518   */\n      dup1\n        /* \"#utility.yul\":16510:16522   */\n      revert\n        /* \"#utility.yul\":16534:17259   */\n    tag_143:\n        /* \"#utility.yul\":16612:16616   */\n      0x00\n        /* \"#utility.yul\":16618:16624   */\n      dup1\n        /* \"#utility.yul\":16674:16685   */\n      dup4\n        /* \"#utility.yul\":16661:16686   */\n      calldataload\n        /* \"#utility.yul\":16774:16775   */\n      0x01\n        /* \"#utility.yul\":16768:16772   */\n      0x20\n        /* \"#utility.yul\":16764:16776   */\n      sub\n        /* \"#utility.yul\":16753:16761   */\n      dup5\n        /* \"#utility.yul\":16737:16751   */\n      calldatasize\n        /* \"#utility.yul\":16733:16762   */\n      sub\n        /* \"#utility.yul\":16729:16777   */\n      sub\n        /* \"#utility.yul\":16709:16727   */\n      dup2\n        /* \"#utility.yul\":16705:16778   */\n      slt\n        /* \"#utility.yul\":16695:16863   */\n      tag_531\n      jumpi\n        /* \"#utility.yul\":16782:16861   */\n      tag_532\n      tag_342\n      jump\t// in\n    tag_532:\n        /* \"#utility.yul\":16695:16863   */\n    tag_531:\n        /* \"#utility.yul\":16894:16912   */\n      dup1\n        /* \"#utility.yul\":16884:16892   */\n      dup5\n        /* \"#utility.yul\":16880:16913   */\n      add\n        /* \"#utility.yul\":16872:16913   */\n      swap3\n      pop\n        /* \"#utility.yul\":16946:16950   */\n      dup3\n        /* \"#utility.yul\":16933:16951   */\n      calldataload\n        /* \"#utility.yul\":16923:16951   */\n      swap2\n      pop\n        /* \"#utility.yul\":16974:16992   */\n      0xffffffffffffffff\n        /* \"#utility.yul\":16966:16972   */\n      dup3\n        /* \"#utility.yul\":16963:16993   */\n      gt\n        /* \"#utility.yul\":16960:17077   */\n      iszero\n      tag_533\n      jumpi\n        /* \"#utility.yul\":16996:17075   */\n      tag_534\n      tag_343\n      jump\t// in\n    tag_534:\n        /* \"#utility.yul\":16960:17077   */\n    tag_533:\n        /* \"#utility.yul\":17104:17106   */\n      0x20\n        /* \"#utility.yul\":17098:17102   */\n      dup4\n        /* \"#utility.yul\":17094:17107   */\n      add\n        /* \"#utility.yul\":17086:17107   */\n      swap3\n      pop\n        /* \"#utility.yul\":17161:17165   */\n      0x01\n        /* \"#utility.yul\":17153:17159   */\n      dup3\n        /* \"#utility.yul\":17149:17166   */\n      mul\n        /* \"#utility.yul\":17133:17147   */\n      calldatasize\n        /* \"#utility.yul\":17129:17167   */\n      sub\n        /* \"#utility.yul\":17123:17127   */\n      dup4\n        /* \"#utility.yul\":17119:17168   */\n      sgt\n        /* \"#utility.yul\":17116:17252   */\n      iszero\n      tag_535\n      jumpi\n        /* \"#utility.yul\":17171:17250   */\n      tag_536\n      tag_344\n      jump\t// in\n    tag_536:\n        /* \"#utility.yul\":17116:17252   */\n    tag_535:\n        /* \"#utility.yul\":16625:17259   */\n      pop\n        /* \"#utility.yul\":16534:17259   */\n      swap3\n      pop\n      swap3\n      swap1\n      pop\n      jump\t// out\n        /* \"#utility.yul\":17265:17445   */\n    tag_345:\n        /* \"#utility.yul\":17313:17390   */\n      0x4e487b7100000000000000000000000000000000000000000000000000000000\n        /* \"#utility.yul\":17310:17311   */\n      0x00\n        /* \"#utility.yul\":17303:17391   */\n      mstore\n        /* \"#utility.yul\":17410:17414   */\n      0x11\n        /* \"#utility.yul\":17407:17408   */\n      0x04\n        /* \"#utility.yul\":17400:17415   */\n      mstore\n        /* \"#utility.yul\":17434:17438   */\n      0x24\n        /* \"#utility.yul\":17431:17432   */\n      0x00\n        /* \"#utility.yul\":17424:17439   */\n      revert\n        /* \"#utility.yul\":17451:17684   */\n    tag_146:\n        /* \"#utility.yul\":17490:17493   */\n      0x00\n        /* \"#utility.yul\":17513:17537   */\n      tag_539\n        /* \"#utility.yul\":17531:17536   */\n      dup3\n        /* \"#utility.yul\":17513:17537   */\n      tag_317\n      jump\t// in\n    tag_539:\n        /* \"#utility.yul\":17504:17537   */\n      swap2\n      pop\n        /* \"#utility.yul\":17559:17625   */\n      0xffffffffffffffffffffffffffffffffffffffffffffffffffffffffffffffff\n        /* \"#utility.yul\":17552:17557   */\n      dup3\n        /* \"#utility.yul\":17549:17626   */\n      sub\n        /* \"#utility.yul\":17546:17649   */\n      tag_540\n      jumpi\n        /* \"#utility.yul\":17629:17647   */\n      tag_541\n      tag_345\n      jump\t// in\n    tag_541:\n        /* \"#utility.yul\":17546:17649   */\n    tag_540:\n        /* \"#utility.yul\":17676:17677   */\n      0x01\n        /* \"#utility.yul\":17669:17674   */\n      dup3\n        /* \"#utility.yul\":17665:17678   */\n      add\n        /* \"#utility.yul\":17658:17678   */\n      swap1\n      pop\n        /* \"#utility.yul\":17451:17684   */\n      swap2\n      swap1\n      pop\n      jump\t// out\n        /* \"#utility.yul\":17690:17808   */\n    tag_346:\n        /* \"#utility.yul\":17777:17801   */\n      tag_543\n        /* \"#utility.yul\":17795:17800   */\n      dup2\n        /* \"#utility.yul\":17777:17801   */\n      tag_314\n      jump\t// in\n    tag_543:\n        /* \"#utility.yul\":17772:17775   */\n      dup3\n        /* \"#utility.yul\":17765:17802   */\n      mstore\n        /* \"#utility.yul\":17690:17808   */\n      pop\n      pop\n      jump\t// out\n        /* \"#utility.yul\":17814:18036   */\n    tag_151:\n        /* \"#utility.yul\":17907:17911   */\n      0x00\n        /* \"#utility.yul\":17945:17947   */\n      0x20\n        /* \"#utility.yul\":17934:17943   */\n      dup3\n        /* \"#utility.yul\":17930:17948   */\n      add\n        /* \"#utility.yul\":17922:17948   */\n      swap1\n      pop\n        /* \"#utility.yul\":17958:18029   */\n      tag_545\n        /* \"#utility.yul\":18026:18027   */\n      0x00\n        /* \"#utility.yul\":18015:18024   */\n      dup4\n        /* \"#utility.yul\":18011:18028   */\n      add\n        /* \"#utility.yul\":18002:18008   */\n      dup5\n        /* \"#utility.yul\":17958:18029   */\n      tag_346\n      jump\t// in\n    tag_545:\n        /* \"#utility.yul\":17814:18036   */\n      swap3\n      swap2\n      pop\n      pop\n      jump\t// out\n        /* \"#utility.yul\":18042:18185   */\n    tag_347:\n        /* \"#utility.yul\":18099:18104   */\n      0x00\n        /* \"#utility.yul\":18130:18136   */\n      dup2\n        /* \"#utility.yul\":18124:18137   */\n      mload\n        /* \"#utility.yul\":18115:18137   */\n      swap1\n      pop\n        /* \"#utility.yul\":18146:18179   */\n      tag_547\n        /* \"#utility.yul\":18173:18178   */\n      dup2\n        /* \"#utility.yul\":18146:18179   */\n      tag_318\n      jump\t// in\n    tag_547:\n        /* \"#utility.yul\":18042:18185   */\n      swap3\n      swap2\n      pop\n      pop\n      jump\t// out\n        /* \"#utility.yul\":18191:18542   */\n    tag_155:\n        /* \"#utility.yul\":18261:18267   */\n      0x00\n        /* \"#utility.yul\":18310:18312   */\n      0x20\n        /* \"#utility.yul\":18298:18307   */\n      dup3\n        /* \"#utility.yul\":18289:18296   */\n      dup5\n        /* \"#utility.yul\":18285:18308   */\n      sub\n        /* \"#utility.yul\":18281:18313   */\n      slt\n        /* \"#utility.yul\":18278:18397   */\n      iszero\n      tag_549\n      jumpi\n        /* \"#utility.yul\":18316:18395   */\n      tag_550\n      tag_302\n      jump\t// in\n    tag_550:\n        /* \"#utility.yul\":18278:18397   */\n    tag_549:\n        /* \"#utility.yul\":18436:18437   */\n      0x00\n        /* \"#utility.yul\":18461:18525   */\n      tag_551\n        /* \"#utility.yul\":18517:18524   */\n      dup5\n        /* \"#utility.yul\":18508:18514   */\n      dup3\n        /* \"#utility.yul\":18497:18506   */\n      dup6\n        /* \"#utility.yul\":18493:18515   */\n      add\n        /* \"#utility.yul\":18461:18525   */\n      tag_347\n      jump\t// in\n    tag_551:\n        /* \"#utility.yul\":18451:18525   */\n      swap2\n      pop\n        /* \"#utility.yul\":18407:18535   */\n      pop\n        /* \"#utility.yul\":18191:18542   */\n      swap3\n      swap2\n      pop\n      pop\n      jump\t// out\n        /* \"#utility.yul\":18548:18721   */\n    tag_348:\n        /* \"#utility.yul\":18688:18713   */\n      0x63757272656e6379206f7220616d6f756e74206661696c000000000000000000\n        /* \"#utility.yul\":18684:18685   */\n      0x00\n        /* \"#utility.yul\":18676:18682   */\n      dup3\n        /* \"#utility.yul\":18672:18686   */\n      add\n        /* \"#utility.yul\":18665:18714   */\n      mstore\n        /* \"#utility.yul\":18548:18721   */\n      pop\n      jump\t// out\n        /* \"#utility.yul\":18727:19093   */\n    tag_349:\n        /* \"#utility.yul\":18869:18872   */\n      0x00\n        /* \"#utility.yul\":18890:18957   */\n      tag_554\n        /* \"#utility.yul\":18954:18956   */\n      0x17\n        /* \"#utility.yul\":18949:18952   */\n      dup4\n        /* \"#utility.yul\":18890:18957   */\n      tag_328\n      jump\t// in\n    tag_554:\n        /* \"#utility.yul\":18883:18957   */\n      swap2\n      pop\n        /* \"#utility.yul\":18966:19059   */\n      tag_555\n        /* \"#utility.yul\":19055:19058   */\n      dup3\n        /* \"#utility.yul\":18966:19059   */\n      tag_348\n      jump\t// in\n    tag_555:\n        /* \"#utility.yul\":19084:19086   */\n      0x20\n        /* \"#utility.yul\":19079:19082   */\n      dup3\n        /* \"#utility.yul\":19075:19087   */\n      add\n        /* \"#utility.yul\":19068:19087   */\n      swap1\n      pop\n        /* \"#utility.yul\":18727:19093   */\n      swap2\n      swap1\n      pop\n      jump\t// out\n        /* \"#utility.yul\":19099:19518   */\n    tag_169:\n        /* \"#utility.yul\":19265:19269   */\n      0x00\n        /* \"#utility.yul\":19303:19305   */\n      0x20\n        /* \"#utility.yul\":19292:19301   */\n      dup3\n        /* \"#utility.yul\":19288:19306   */\n      add\n        /* \"#utility.yul\":19280:19306   */\n      swap1\n      pop\n        /* \"#utility.yul\":19352:19361   */\n      dup2\n        /* \"#utility.yul\":19346:19350   */\n      dup2\n        /* \"#utility.yul\":19342:19362   */\n      sub\n        /* \"#utility.yul\":19338:19339   */\n      0x00\n        /* \"#utility.yul\":19327:19336   */\n      dup4\n        /* \"#utility.yul\":19323:19340   */\n      add\n        /* \"#utility.yul\":19316:19363   */\n      mstore\n        /* \"#utility.yul\":19380:19511   */\n      tag_557\n        /* \"#utility.yul\":19506:19510   */\n      dup2\n        /* \"#utility.yul\":19380:19511   */\n      tag_349\n      jump\t// in\n    tag_557:\n        /* \"#utility.yul\":19372:19511   */\n      swap1\n      pop\n        /* \"#utility.yul\":19099:19518   */\n      swap2\n      swap1\n      pop\n      jump\t// out\n        /* \"#utility.yul\":19524:19966   */\n    tag_216:\n        /* \"#utility.yul\":19673:19677   */\n      0x00\n        /* \"#utility.yul\":19711:19713   */\n      0x60\n        /* \"#utility.yul\":19700:19709   */\n      dup3\n        /* \"#utility.yul\":19696:19714   */\n      add\n        /* \"#utility.yul\":19688:19714   */\n      swap1\n      pop\n        /* \"#utility.yul\":19724:19795   */\n      tag_559\n        /* \"#utility.yul\":19792:19793   */\n      0x00\n        /* \"#utility.yul\":19781:19790   */\n      dup4\n        /* \"#utility.yul\":19777:19794   */\n      add\n        /* \"#utility.yul\":19768:19774   */\n      dup7\n        /* \"#utility.yul\":19724:19795   */\n      tag_346\n      jump\t// in\n    tag_559:\n        /* \"#utility.yul\":19805:19877   */\n      tag_560\n        /* \"#utility.yul\":19873:19875   */\n      0x20\n        /* \"#utility.yul\":19862:19871   */\n      dup4\n        /* \"#utility.yul\":19858:19876   */\n      add\n        /* \"#utility.yul\":19849:19855   */\n      dup6\n        /* \"#utility.yul\":19805:19877   */\n      tag_346\n      jump\t// in\n    tag_560:\n        /* \"#utility.yul\":19887:19959   */\n      tag_561\n        /* \"#utility.yul\":19955:19957   */\n      0x40\n        /* \"#utility.yul\":19944:19953   */\n      dup4\n        /* \"#utility.yul\":19940:19958   */\n      add\n        /* \"#utility.yul\":19931:19937   */\n      dup5\n        /* \"#utility.yul\":19887:19959   */\n      tag_327\n      jump\t// in\n    tag_561:\n        /* \"#utility.yul\":19524:19966   */\n      swap5\n      swap4\n      pop\n      pop\n      pop\n      pop\n      jump\t// out\n        /* \"#utility.yul\":19972:20304   */\n    tag_221:\n        /* \"#utility.yul\":20093:20097   */\n      0x00\n        /* \"#utility.yul\":20131:20133   */\n      0x40\n        /* \"#utility.yul\":20120:20129   */\n      dup3\n        /* \"#utility.yul\":20116:20134   */\n      add\n        /* \"#utility.yul\":20108:20134   */\n      swap1\n      pop\n        /* \"#utility.yul\":20144:20215   */\n      tag_563\n        /* \"#utility.yul\":20212:20213   */\n      0x00\n        /* \"#utility.yul\":20201:20210   */\n      dup4\n        /* \"#utility.yul\":20197:20214   */\n      add\n        /* \"#utility.yul\":20188:20194   */\n      dup6\n        /* \"#utility.yul\":20144:20215   */\n      tag_346\n      jump\t// in\n    tag_563:\n        /* \"#utility.yul\":20225:20297   */\n      tag_564\n        /* \"#utility.yul\":20293:20295   */\n      0x20\n        /* \"#utility.yul\":20282:20291   */\n      dup4\n        /* \"#utility.yul\":20278:20296   */\n      add\n        /* \"#utility.yul\":20269:20275   */\n      dup5\n        /* \"#utility.yul\":20225:20297   */\n      tag_327\n      jump\t// in\n    tag_564:\n        /* \"#utility.yul\":19972:20304   */\n      swap4\n      swap3\n      pop\n      pop\n      pop\n      jump\t// out\n        /* \"#utility.yul\":20310:20458   */\n    tag_350:\n        /* \"#utility.yul\":20412:20423   */\n      0x00\n        /* \"#utility.yul\":20449:20452   */\n      dup2\n        /* \"#utility.yul\":20434:20452   */\n      swap1\n      pop\n        /* \"#utility.yul\":20310:20458   */\n      swap3\n      swap2\n      pop\n      pop\n      jump\t// out\n        /* \"#utility.yul\":20464:20637   */\n    tag_351:\n        /* \"#utility.yul\":20604:20629   */\n      0x416363657373436f6e74726f6c3a206163636f756e7420000000000000000000\n        /* \"#utility.yul\":20600:20601   */\n      0x00\n        /* \"#utility.yul\":20592:20598   */\n      dup3\n        /* \"#utility.yul\":20588:20602   */\n      add\n        /* \"#utility.yul\":20581:20630   */\n      mstore\n        /* \"#utility.yul\":20464:20637   */\n      pop\n      jump\t// out\n        /* \"#utility.yul\":20643:21045   */\n    tag_352:\n        /* \"#utility.yul\":20803:20806   */\n      0x00\n        /* \"#utility.yul\":20824:20909   */\n      tag_568\n        /* \"#utility.yul\":20906:20908   */\n      0x17\n        /* \"#utility.yul\":20901:20904   */\n      dup4\n        /* \"#utility.yul\":20824:20909   */\n      tag_350\n      jump\t// in\n    tag_568:\n        /* \"#utility.yul\":20817:20909   */\n      swap2\n      pop\n        /* \"#utility.yul\":20918:21011   */\n      tag_569\n        /* \"#utility.yul\":21007:21010   */\n      dup3\n        /* \"#utility.yul\":20918:21011   */\n      tag_351\n      jump\t// in\n    tag_569:\n        /* \"#utility.yul\":21036:21038   */\n      0x17\n        /* \"#utility.yul\":21031:21034   */\n      dup3\n        /* \"#utility.yul\":21027:21039   */\n      add\n        /* \"#utility.yul\":21020:21039   */\n      swap1\n      pop\n        /* \"#utility.yul\":20643:21045   */\n      swap2\n      swap1\n      pop\n      jump\t// out\n        /* \"#utility.yul\":21051:21150   */\n    tag_353:\n        /* \"#utility.yul\":21103:21109   */\n      0x00\n        /* \"#utility.yul\":21137:21142   */\n      dup2\n        /* \"#utility.yul\":21131:21143   */\n      mload\n        /* \"#utility.yul\":21121:21143   */\n      swap1\n      pop\n        /* \"#utility.yul\":21051:21150   */\n      swap2\n      swap1\n      pop\n      jump\t// out\n        /* \"#utility.yul\":21156:21402   */\n    tag_354:\n        /* \"#utility.yul\":21237:21238   */\n      0x00\n        /* \"#utility.yul\":21247:21360   */\n    tag_572:\n        /* \"#utility.yul\":21261:21267   */\n      dup4\n        /* \"#utility.yul\":21258:21259   */\n      dup2\n        /* \"#utility.yul\":21255:21268   */\n      lt\n        /* \"#utility.yul\":21247:21360   */\n      iszero\n      tag_574\n      jumpi\n        /* \"#utility.yul\":21346:21347   */\n      dup1\n        /* \"#utility.yul\":21341:21344   */\n      dup3\n        /* \"#utility.yul\":21337:21348   */\n      add\n        /* \"#utility.yul\":21331:21349   */\n      mload\n        /* \"#utility.yul\":21327:21328   */\n      dup2\n        /* \"#utility.yul\":21322:21325   */\n      dup5\n        /* \"#utility.yul\":21318:21329   */\n      add\n        /* \"#utility.yul\":21311:21350   */\n      mstore\n        /* \"#utility.yul\":21283:21285   */\n      0x20\n        /* \"#utility.yul\":21280:21281   */\n      dup2\n        /* \"#utility.yul\":21276:21286   */\n      add\n        /* \"#utility.yul\":21271:21286   */\n      swap1\n      pop\n        /* \"#utility.yul\":21247:21360   */\n      jump(tag_572)\n    tag_574:\n        /* \"#utility.yul\":21394:21395   */\n      0x00\n        /* \"#utility.yul\":21385:21391   */\n      dup5\n        /* \"#utility.yul\":21380:21383   */\n      dup5\n        /* \"#utility.yul\":21376:21392   */\n      add\n        /* \"#utility.yul\":21369:21396   */\n      mstore\n        /* \"#utility.yul\":21218:21402   */\n      pop\n        /* \"#utility.yul\":21156:21402   */\n      pop\n      pop\n      pop\n      jump\t// out\n        /* \"#utility.yul\":21408:21798   */\n    tag_355:\n        /* \"#utility.yul\":21514:21517   */\n      0x00\n        /* \"#utility.yul\":21542:21581   */\n      tag_576\n        /* \"#utility.yul\":21575:21580   */\n      dup3\n        /* \"#utility.yul\":21542:21581   */\n      tag_353\n      jump\t// in\n    tag_576:\n        /* \"#utility.yul\":21597:21686   */\n      tag_577\n        /* \"#utility.yul\":21679:21685   */\n      dup2\n        /* \"#utility.yul\":21674:21677   */\n      dup6\n        /* \"#utility.yul\":21597:21686   */\n      tag_350\n      jump\t// in\n    tag_577:\n        /* \"#utility.yul\":21590:21686   */\n      swap4\n      pop\n        /* \"#utility.yul\":21695:21760   */\n      tag_578\n        /* \"#utility.yul\":21753:21759   */\n      dup2\n        /* \"#utility.yul\":21748:21751   */\n      dup6\n        /* \"#utility.yul\":21741:21745   */\n      0x20\n        /* \"#utility.yul\":21734:21739   */\n      dup7\n        /* \"#utility.yul\":21730:21746   */\n      add\n        /* \"#utility.yul\":21695:21760   */\n      tag_354\n      jump\t// in\n    tag_578:\n        /* \"#utility.yul\":21785:21791   */\n      dup1\n        /* \"#utility.yul\":21780:21783   */\n      dup5\n        /* \"#utility.yul\":21776:21792   */\n      add\n        /* \"#utility.yul\":21769:21792   */\n      swap2\n      pop\n        /* \"#utility.yul\":21518:21798   */\n      pop\n        /* \"#utility.yul\":21408:21798   */\n      swap3\n      swap2\n      pop\n      pop\n      jump\t// out\n        /* \"#utility.yul\":21804:21971   */\n    tag_356:\n        /* \"#utility.yul\":21944:21963   */\n      0x206973206d697373696e6720726f6c6520000000000000000000000000000000\n        /* \"#utility.yul\":21940:21941   */\n      0x00\n        /* \"#utility.yul\":21932:21938   */\n      dup3\n        /* \"#utility.yul\":21928:21942   */\n      add\n        /* \"#utility.yul\":21921:21964   */\n      mstore\n        /* \"#utility.yul\":21804:21971   */\n      pop\n      jump\t// out\n        /* \"#utility.yul\":21977:22379   */\n    tag_357:\n        /* \"#utility.yul\":22137:22140   */\n      0x00\n        /* \"#utility.yul\":22158:22243   */\n      tag_581\n        /* \"#utility.yul\":22240:22242   */\n      0x11\n        /* \"#utility.yul\":22235:22238   */\n      dup4\n        /* \"#utility.yul\":22158:22243   */\n      tag_350\n      jump\t// in\n    tag_581:\n        /* \"#utility.yul\":22151:22243   */\n      swap2\n      pop\n        /* \"#utility.yul\":22252:22345   */\n      tag_582\n        /* \"#utility.yul\":22341:22344   */\n      dup3\n        /* \"#utility.yul\":22252:22345   */\n      tag_356\n      jump\t// in\n    tag_582:\n        /* \"#utility.yul\":22370:22372   */\n      0x11\n        /* \"#utility.yul\":22365:22368   */\n      dup3\n        /* \"#utility.yul\":22361:22373   */\n      add\n        /* \"#utility.yul\":22354:22373   */\n      swap1\n      pop\n        /* \"#utility.yul\":21977:22379   */\n      swap2\n      swap1\n      pop\n      jump\t// out\n        /* \"#utility.yul\":22385:23352   */\n    tag_230:\n        /* \"#utility.yul\":22767:22770   */\n      0x00\n        /* \"#utility.yul\":22789:22937   */\n      tag_584\n        /* \"#utility.yul\":22933:22936   */\n      dup3\n        /* \"#utility.yul\":22789:22937   */\n      tag_352\n      jump\t// in\n    tag_584:\n        /* \"#utility.yul\":22782:22937   */\n      swap2\n      pop\n        /* \"#utility.yul\":22954:23049   */\n      tag_585\n        /* \"#utility.yul\":23045:23048   */\n      dup3\n        /* \"#utility.yul\":23036:23042   */\n      dup6\n        /* \"#utility.yul\":22954:23049   */\n      tag_355\n      jump\t// in\n    tag_585:\n        /* \"#utility.yul\":22947:23049   */\n      swap2\n      pop\n        /* \"#utility.yul\":23066:23214   */\n      tag_586\n        /* \"#utility.yul\":23210:23213   */\n      dup3\n        /* \"#utility.yul\":23066:23214   */\n      tag_357\n      jump\t// in\n    tag_586:\n        /* \"#utility.yul\":23059:23214   */\n      swap2\n      pop\n        /* \"#utility.yul\":23231:23326   */\n      tag_587\n        /* \"#utility.yul\":23322:23325   */\n      dup3\n        /* \"#utility.yul\":23313:23319   */\n      dup5\n        /* \"#utility.yul\":23231:23326   */\n      tag_355\n      jump\t// in\n    tag_587:\n        /* \"#utility.yul\":23224:23326   */\n      swap2\n      pop\n        /* \"#utility.yul\":23343:23346   */\n      dup2\n        /* \"#utility.yul\":23336:23346   */\n      swap1\n      pop\n        /* \"#utility.yul\":22385:23352   */\n      swap4\n      swap3\n      pop\n      pop\n      pop\n      jump\t// out\n        /* \"#utility.yul\":23358:23735   */\n    tag_358:\n        /* \"#utility.yul\":23446:23449   */\n      0x00\n        /* \"#utility.yul\":23474:23513   */\n      tag_589\n        /* \"#utility.yul\":23507:23512   */\n      dup3\n        /* \"#utility.yul\":23474:23513   */\n      tag_353\n      jump\t// in\n    tag_589:\n        /* \"#utility.yul\":23529:23600   */\n      tag_590\n        /* \"#utility.yul\":23593:23599   */\n      dup2\n        /* \"#utility.yul\":23588:23591   */\n      dup6\n        /* \"#utility.yul\":23529:23600   */\n      tag_328\n      jump\t// in\n    tag_590:\n        /* \"#utility.yul\":23522:23600   */\n      swap4\n      pop\n        /* \"#utility.yul\":23609:23674   */\n      tag_591\n        /* \"#utility.yul\":23667:23673   */\n      dup2\n        /* \"#utility.yul\":23662:23665   */\n      dup6\n        /* \"#utility.yul\":23655:23659   */\n      0x20\n        /* \"#utility.yul\":23648:23653   */\n      dup7\n        /* \"#utility.yul\":23644:23660   */\n      add\n        /* \"#utility.yul\":23609:23674   */\n      tag_354\n      jump\t// in\n    tag_591:\n        /* \"#utility.yul\":23699:23728   */\n      tag_592\n        /* \"#utility.yul\":23721:23727   */\n      dup2\n        /* \"#utility.yul\":23699:23728   */\n      tag_336\n      jump\t// in\n    tag_592:\n        /* \"#utility.yul\":23694:23697   */\n      dup5\n        /* \"#utility.yul\":23690:23729   */\n      add\n        /* \"#utility.yul\":23683:23729   */\n      swap2\n      pop\n        /* \"#utility.yul\":23450:23735   */\n      pop\n        /* \"#utility.yul\":23358:23735   */\n      swap3\n      swap2\n      pop\n      pop\n      jump\t// out\n        /* \"#utility.yul\":23741:24054   */\n    tag_232:\n        /* \"#utility.yul\":23854:23858   */\n      0x00\n        /* \"#utility.yul\":23892:23894   */\n      0x20\n        /* \"#utility.yul\":23881:23890   */\n      dup3\n        /* \"#utility.yul\":23877:23895   */\n      add\n        /* \"#utility.yul\":23869:23895   */\n      swap1\n      pop\n        /* \"#utility.yul\":23941:23950   */\n      dup2\n        /* \"#utility.yul\":23935:23939   */\n      dup2\n        /* \"#utility.yul\":23931:23951   */\n      sub\n        /* \"#utility.yul\":23927:23928   */\n      0x00\n        /* \"#utility.yul\":23916:23925   */\n      dup4\n        /* \"#utility.yul\":23912:23929   */\n      add\n        /* \"#utility.yul\":23905:23952   */\n      mstore\n        /* \"#utility.yul\":23969:24047   */\n      tag_594\n        /* \"#utility.yul\":24042:24046   */\n      dup2\n        /* \"#utility.yul\":24033:24039   */\n      dup5\n        /* \"#utility.yul\":23969:24047   */\n      tag_358\n      jump\t// in\n    tag_594:\n        /* \"#utility.yul\":23961:24047   */\n      swap1\n      pop\n        /* \"#utility.yul\":23741:24054   */\n      swap3\n      swap2\n      pop\n      pop\n      jump\t// out\n        /* \"#utility.yul\":24060:24176   */\n    tag_359:\n        /* \"#utility.yul\":24130:24151   */\n      tag_596\n        /* \"#utility.yul\":24145:24150   */\n      dup2\n        /* \"#utility.yul\":24130:24151   */\n      tag_307\n      jump\t// in\n    tag_596:\n        /* \"#utility.yul\":24123:24128   */\n      dup2\n        /* \"#utility.yul\":24120:24152   */\n      eq\n        /* \"#utility.yul\":24110:24170   */\n      tag_597\n      jumpi\n        /* \"#utility.yul\":24166:24167   */\n      0x00\n        /* \"#utility.yul\":24163:24164   */\n      dup1\n        /* \"#utility.yul\":24156:24168   */\n      revert\n        /* \"#utility.yul\":24110:24170   */\n    tag_597:\n        /* \"#utility.yul\":24060:24176   */\n      pop\n      jump\t// out\n        /* \"#utility.yul\":24182:24319   */\n    tag_360:\n        /* \"#utility.yul\":24236:24241   */\n      0x00\n        /* \"#utility.yul\":24267:24273   */\n      dup2\n        /* \"#utility.yul\":24261:24274   */\n      mload\n        /* \"#utility.yul\":24252:24274   */\n      swap1\n      pop\n        /* \"#utility.yul\":24283:24313   */\n      tag_599\n        /* \"#utility.yul\":24307:24312   */\n      dup2\n        /* \"#utility.yul\":24283:24313   */\n      tag_359\n      jump\t// in\n    tag_599:\n        /* \"#utility.yul\":24182:24319   */\n      swap3\n      swap2\n      pop\n      pop\n      jump\t// out\n        /* \"#utility.yul\":24325:24670   */\n    tag_238:\n        /* \"#utility.yul\":24392:24398   */\n      0x00\n        /* \"#utility.yul\":24441:24443   */\n      0x20\n        /* \"#utility.yul\":24429:24438   */\n      dup3\n        /* \"#utility.yul\":24420:24427   */\n      dup5\n        /* \"#utility.yul\":24416:24439   */\n      sub\n        /* \"#utility.yul\":24412:24444   */\n      slt\n        /* \"#utility.yul\":24409:24528   */\n      iszero\n      tag_601\n      jumpi\n        /* \"#utility.yul\":24447:24526   */\n      tag_602\n      tag_302\n      jump\t// in\n    tag_602:\n        /* \"#utility.yul\":24409:24528   */\n    tag_601:\n        /* \"#utility.yul\":24567:24568   */\n      0x00\n        /* \"#utility.yul\":24592:24653   */\n      tag_603\n        /* \"#utility.yul\":24645:24652   */\n      dup5\n        /* \"#utility.yul\":24636:24642   */\n      dup3\n        /* \"#utility.yul\":24625:24634   */\n      dup6\n        /* \"#utility.yul\":24621:24643   */\n      add\n        /* \"#utility.yul\":24592:24653   */\n      tag_360\n      jump\t// in\n    tag_603:\n        /* \"#utility.yul\":24582:24653   */\n      swap2\n      pop\n        /* \"#utility.yul\":24538:24663   */\n      pop\n        /* \"#utility.yul\":24325:24670   */\n      swap3\n      swap2\n      pop\n      pop\n      jump\t// out\n        /* \"#utility.yul\":24676:24905   */\n    tag_361:\n        /* \"#utility.yul\":24816:24850   */\n      0x5361666545524332303a204552433230206f7065726174696f6e20646964206e\n        /* \"#utility.yul\":24812:24813   */\n      0x00\n        /* \"#utility.yul\":24804:24810   */\n      dup3\n        /* \"#utility.yul\":24800:24814   */\n      add\n        /* \"#utility.yul\":24793:24851   */\n      mstore\n        /* \"#utility.yul\":24885:24897   */\n      0x6f74207375636365656400000000000000000000000000000000000000000000\n        /* \"#utility.yul\":24880:24882   */\n      0x20\n        /* \"#utility.yul\":24872:24878   */\n      dup3\n        /* \"#utility.yul\":24868:24883   */\n      add\n        /* \"#utility.yul\":24861:24898   */\n      mstore\n        /* \"#utility.yul\":24676:24905   */\n      pop\n      jump\t// out\n        /* \"#utility.yul\":24911:25277   */\n    tag_362:\n        /* \"#utility.yul\":25053:25056   */\n      0x00\n        /* \"#utility.yul\":25074:25141   */\n      tag_606\n        /* \"#utility.yul\":25138:25140   */\n      0x2a\n        /* \"#utility.yul\":25133:25136   */\n      dup4\n        /* \"#utility.yul\":25074:25141   */\n      tag_328\n      jump\t// in\n    tag_606:\n        /* \"#utility.yul\":25067:25141   */\n      swap2\n      pop\n        /* \"#utility.yul\":25150:25243   */\n      tag_607\n        /* \"#utility.yul\":25239:25242   */\n      dup3\n        /* \"#utility.yul\":25150:25243   */\n      tag_361\n      jump\t// in\n    tag_607:\n        /* \"#utility.yul\":25268:25270   */\n      0x40\n        /* \"#utility.yul\":25263:25266   */\n      dup3\n        /* \"#utility.yul\":25259:25271   */\n      add\n        /* \"#utility.yul\":25252:25271   */\n      swap1\n      pop\n        /* \"#utility.yul\":24911:25277   */\n      swap2\n      swap1\n      pop\n      jump\t// out\n        /* \"#utility.yul\":25283:25702   */\n    tag_241:\n        /* \"#utility.yul\":25449:25453   */\n      0x00\n        /* \"#utility.yul\":25487:25489   */\n      0x20\n        /* \"#utility.yul\":25476:25485   */\n      dup3\n        /* \"#utility.yul\":25472:25490   */\n      add\n        /* \"#utility.yul\":25464:25490   */\n      swap1\n      pop\n        /* \"#utility.yul\":25536:25545   */\n      dup2\n        /* \"#utility.yul\":25530:25534   */\n      dup2\n        /* \"#utility.yul\":25526:25546   */\n      sub\n        /* \"#utility.yul\":25522:25523   */\n      0x00\n        /* \"#utility.yul\":25511:25520   */\n      dup4\n        /* \"#utility.yul\":25507:25524   */\n      add\n        /* \"#utility.yul\":25500:25547   */\n      mstore\n        /* \"#utility.yul\":25564:25695   */\n      tag_609\n        /* \"#utility.yul\":25690:25694   */\n      dup2\n        /* \"#utility.yul\":25564:25695   */\n      tag_362\n      jump\t// in\n    tag_609:\n        /* \"#utility.yul\":25556:25695   */\n      swap1\n      pop\n        /* \"#utility.yul\":25283:25702   */\n      swap2\n      swap1\n      pop\n      jump\t// out\n        /* \"#utility.yul\":25708:26118   */\n    tag_246:\n        /* \"#utility.yul\":25748:25755   */\n      0x00\n        /* \"#utility.yul\":25771:25791   */\n      tag_611\n        /* \"#utility.yul\":25789:25790   */\n      dup3\n        /* \"#utility.yul\":25771:25791   */\n      tag_317\n      jump\t// in\n    tag_611:\n        /* \"#utility.yul\":25766:25791   */\n      swap2\n      pop\n        /* \"#utility.yul\":25805:25825   */\n      tag_612\n        /* \"#utility.yul\":25823:25824   */\n      dup4\n        /* \"#utility.yul\":25805:25825   */\n      tag_317\n      jump\t// in\n    tag_612:\n        /* \"#utility.yul\":25800:25825   */\n      swap3\n      pop\n        /* \"#utility.yul\":25860:25861   */\n      dup3\n        /* \"#utility.yul\":25857:25858   */\n      dup3\n        /* \"#utility.yul\":25853:25862   */\n      mul\n        /* \"#utility.yul\":25882:25912   */\n      tag_613\n        /* \"#utility.yul\":25900:25911   */\n      dup2\n        /* \"#utility.yul\":25882:25912   */\n      tag_317\n      jump\t// in\n    tag_613:\n        /* \"#utility.yul\":25871:25912   */\n      swap2\n      pop\n        /* \"#utility.yul\":26061:26062   */\n      dup3\n        /* \"#utility.yul\":26052:26059   */\n      dup3\n        /* \"#utility.yul\":26048:26063   */\n      div\n        /* \"#utility.yul\":26045:26046   */\n      dup5\n        /* \"#utility.yul\":26042:26064   */\n      eq\n        /* \"#utility.yul\":26022:26023   */\n      dup4\n        /* \"#utility.yul\":26015:26024   */\n      iszero\n        /* \"#utility.yul\":25995:26078   */\n      or\n        /* \"#utility.yul\":25972:26111   */\n      tag_614\n      jumpi\n        /* \"#utility.yul\":26091:26109   */\n      tag_615\n      tag_345\n      jump\t// in\n    tag_615:\n        /* \"#utility.yul\":25972:26111   */\n    tag_614:\n        /* \"#utility.yul\":25756:26118   */\n      pop\n        /* \"#utility.yul\":25708:26118   */\n      swap3\n      swap2\n      pop\n      pop\n      jump\t// out\n        /* \"#utility.yul\":26124:26315   */\n    tag_248:\n        /* \"#utility.yul\":26164:26167   */\n      0x00\n        /* \"#utility.yul\":26183:26203   */\n      tag_617\n        /* \"#utility.yul\":26201:26202   */\n      dup3\n        /* \"#utility.yul\":26183:26203   */\n      tag_317\n      jump\t// in\n    tag_617:\n        /* \"#utility.yul\":26178:26203   */\n      swap2\n      pop\n        /* \"#utility.yul\":26217:26237   */\n      tag_618\n        /* \"#utility.yul\":26235:26236   */\n      dup4\n        /* \"#utility.yul\":26217:26237   */\n      tag_317\n      jump\t// in\n    tag_618:\n        /* \"#utility.yul\":26212:26237   */\n      swap3\n      pop\n        /* \"#utility.yul\":26260:26261   */\n      dup3\n        /* \"#utility.yul\":26257:26258   */\n      dup3\n        /* \"#utility.yul\":26253:26262   */\n      add\n        /* \"#utility.yul\":26246:26262   */\n      swap1\n      pop\n        /* \"#utility.yul\":26281:26284   */\n      dup1\n        /* \"#utility.yul\":26278:26279   */\n      dup3\n        /* \"#utility.yul\":26275:26285   */\n      gt\n        /* \"#utility.yul\":26272:26308   */\n      iszero\n      tag_619\n      jumpi\n        /* \"#utility.yul\":26288:26306   */\n      tag_620\n      tag_345\n      jump\t// in\n    tag_620:\n        /* \"#utility.yul\":26272:26308   */\n    tag_619:\n        /* \"#utility.yul\":26124:26315   */\n      swap3\n      swap2\n      pop\n      pop\n      jump\t// out\n        /* \"#utility.yul\":26321:26501   */\n    tag_251:\n        /* \"#utility.yul\":26369:26446   */\n      0x4e487b7100000000000000000000000000000000000000000000000000000000\n        /* \"#utility.yul\":26366:26367   */\n      0x00\n        /* \"#utility.yul\":26359:26447   */\n      mstore\n        /* \"#utility.yul\":26466:26470   */\n      0x41\n        /* \"#utility.yul\":26463:26464   */\n      0x04\n        /* \"#utility.yul\":26456:26471   */\n      mstore\n        /* \"#utility.yul\":26490:26494   */\n      0x24\n        /* \"#utility.yul\":26487:26488   */\n      0x00\n        /* \"#utility.yul\":26480:26495   */\n      revert\n        /* \"#utility.yul\":26507:26678   */\n    tag_267:\n        /* \"#utility.yul\":26546:26549   */\n      0x00\n        /* \"#utility.yul\":26569:26593   */\n      tag_623\n        /* \"#utility.yul\":26587:26592   */\n      dup3\n        /* \"#utility.yul\":26569:26593   */\n      tag_317\n      jump\t// in\n    tag_623:\n        /* \"#utility.yul\":26560:26593   */\n      swap2\n      pop\n        /* \"#utility.yul\":26615:26619   */\n      0x00\n        /* \"#utility.yul\":26608:26613   */\n      dup3\n        /* \"#utility.yul\":26605:26620   */\n      sub\n        /* \"#utility.yul\":26602:26643   */\n      tag_624\n      jumpi\n        /* \"#utility.yul\":26623:26641   */\n      tag_625\n      tag_345\n      jump\t// in\n    tag_625:\n        /* \"#utility.yul\":26602:26643   */\n    tag_624:\n        /* \"#utility.yul\":26670:26671   */\n      0x01\n        /* \"#utility.yul\":26663:26668   */\n      dup3\n        /* \"#utility.yul\":26659:26672   */\n      sub\n        /* \"#utility.yul\":26652:26672   */\n      swap1\n      pop\n        /* \"#utility.yul\":26507:26678   */\n      swap2\n      swap1\n      pop\n      jump\t// out\n        /* \"#utility.yul\":26684:26866   */\n    tag_363:\n        /* \"#utility.yul\":26824:26858   */\n      0x537472696e67733a20686578206c656e67746820696e73756666696369656e74\n        /* \"#utility.yul\":26820:26821   */\n      0x00\n        /* \"#utility.yul\":26812:26818   */\n      dup3\n        /* \"#utility.yul\":26808:26822   */\n      add\n        /* \"#utility.yul\":26801:26859   */\n      mstore\n        /* \"#utility.yul\":26684:26866   */\n      pop\n      jump\t// out\n        /* \"#utility.yul\":26872:27238   */\n    tag_364:\n        /* \"#utility.yul\":27014:27017   */\n      0x00\n        /* \"#utility.yul\":27035:27102   */\n      tag_628\n        /* \"#utility.yul\":27099:27101   */\n      0x20\n        /* \"#utility.yul\":27094:27097   */\n      dup4\n        /* \"#utility.yul\":27035:27102   */\n      tag_328\n      jump\t// in\n    tag_628:\n        /* \"#utility.yul\":27028:27102   */\n      swap2\n      pop\n        /* \"#utility.yul\":27111:27204   */\n      tag_629\n        /* \"#utility.yul\":27200:27203   */\n      dup3\n        /* \"#utility.yul\":27111:27204   */\n      tag_363\n      jump\t// in\n    tag_629:\n        /* \"#utility.yul\":27229:27231   */\n      0x20\n        /* \"#utility.yul\":27224:27227   */\n      dup3\n        /* \"#utility.yul\":27220:27232   */\n      add\n        /* \"#utility.yul\":27213:27232   */\n      swap1\n      pop\n        /* \"#utility.yul\":26872:27238   */\n      swap2\n      swap1\n      pop\n      jump\t// out\n        /* \"#utility.yul\":27244:27663   */\n    tag_270:\n        /* \"#utility.yul\":27410:27414   */\n      0x00\n        /* \"#utility.yul\":27448:27450   */\n      0x20\n        /* \"#utility.yul\":27437:27446   */\n      dup3\n        /* \"#utility.yul\":27433:27451   */\n      add\n        /* \"#utility.yul\":27425:27451   */\n      swap1\n      pop\n        /* \"#utility.yul\":27497:27506   */\n      dup2\n        /* \"#utility.yul\":27491:27495   */\n      dup2\n        /* \"#utility.yul\":27487:27507   */\n      sub\n        /* \"#utility.yul\":27483:27484   */\n      0x00\n        /* \"#utility.yul\":27472:27481   */\n      dup4\n        /* \"#utility.yul\":27468:27485   */\n      add\n        /* \"#utility.yul\":27461:27508   */\n      mstore\n        /* \"#utility.yul\":27525:27656   */\n      tag_631\n        /* \"#utility.yul\":27651:27655   */\n      dup2\n        /* \"#utility.yul\":27525:27656   */\n      tag_364\n      jump\t// in\n    tag_631:\n        /* \"#utility.yul\":27517:27656   */\n      swap1\n      pop\n        /* \"#utility.yul\":27244:27663   */\n      swap2\n      swap1\n      pop\n      jump\t// out\n        /* \"#utility.yul\":27669:27894   */\n    tag_365:\n        /* \"#utility.yul\":27809:27843   */\n      0x416464726573733a20696e73756666696369656e742062616c616e636520666f\n        /* \"#utility.yul\":27805:27806   */\n      0x00\n        /* \"#utility.yul\":27797:27803   */\n      dup3\n        /* \"#utility.yul\":27793:27807   */\n      add\n        /* \"#utility.yul\":27786:27844   */\n      mstore\n        /* \"#utility.yul\":27878:27886   */\n      0x722063616c6c0000000000000000000000000000000000000000000000000000\n        /* \"#utility.yul\":27873:27875   */\n      0x20\n        /* \"#utility.yul\":27865:27871   */\n      dup3\n        /* \"#utility.yul\":27861:27876   */\n      add\n        /* \"#utility.yul\":27854:27887   */\n      mstore\n        /* \"#utility.yul\":27669:27894   */\n      pop\n      jump\t// out\n        /* \"#utility.yul\":27900:28266   */\n    tag_366:\n        /* \"#utility.yul\":28042:28045   */\n      0x00\n        /* \"#utility.yul\":28063:28130   */\n      tag_634\n        /* \"#utility.yul\":28127:28129   */\n      0x26\n        /* \"#utility.yul\":28122:28125   */\n      dup4\n        /* \"#utility.yul\":28063:28130   */\n      tag_328\n      jump\t// in\n    tag_634:\n        /* \"#utility.yul\":28056:28130   */\n      swap2\n      pop\n        /* \"#utility.yul\":28139:28232   */\n      tag_635\n        /* \"#utility.yul\":28228:28231   */\n      dup3\n        /* \"#utility.yul\":28139:28232   */\n      tag_365\n      jump\t// in\n    tag_635:\n        /* \"#utility.yul\":28257:28259   */\n      0x40\n        /* \"#utility.yul\":28252:28255   */\n      dup3\n        /* \"#utility.yul\":28248:28260   */\n      add\n        /* \"#utility.yul\":28241:28260   */\n      swap1\n      pop\n        /* \"#utility.yul\":27900:28266   */\n      swap2\n      swap1\n      pop\n      jump\t// out\n        /* \"#utility.yul\":28272:28691   */\n    tag_277:\n        /* \"#utility.yul\":28438:28442   */\n      0x00\n        /* \"#utility.yul\":28476:28478   */\n      0x20\n        /* \"#utility.yul\":28465:28474   */\n      dup3\n        /* \"#utility.yul\":28461:28479   */\n      add\n        /* \"#utility.yul\":28453:28479   */\n      swap1\n      pop\n        /* \"#utility.yul\":28525:28534   */\n      dup2\n        /* \"#utility.yul\":28519:28523   */\n      dup2\n        /* \"#utility.yul\":28515:28535   */\n      sub\n        /* \"#utility.yul\":28511:28512   */\n      0x00\n        /* \"#utility.yul\":28500:28509   */\n      dup4\n        /* \"#utility.yul\":28496:28513   */\n      add\n        /* \"#utility.yul\":28489:28536   */\n      mstore\n        /* \"#utility.yul\":28553:28684   */\n      tag_637\n        /* \"#utility.yul\":28679:28683   */\n      dup2\n        /* \"#utility.yul\":28553:28684   */\n      tag_366\n      jump\t// in\n    tag_637:\n        /* \"#utility.yul\":28545:28684   */\n      swap1\n      pop\n        /* \"#utility.yul\":28272:28691   */\n      swap2\n      swap1\n      pop\n      jump\t// out\n        /* \"#utility.yul\":28697:28795   */\n    tag_367:\n        /* \"#utility.yul\":28748:28754   */\n      0x00\n        /* \"#utility.yul\":28782:28787   */\n      dup2\n        /* \"#utility.yul\":28776:28788   */\n      mload\n        /* \"#utility.yul\":28766:28788   */\n      swap1\n      pop\n        /* \"#utility.yul\":28697:28795   */\n      swap2\n      swap1\n      pop\n      jump\t// out\n        /* \"#utility.yul\":28801:28948   */\n    tag_368:\n        /* \"#utility.yul\":28902:28913   */\n      0x00\n        /* \"#utility.yul\":28939:28942   */\n      dup2\n        /* \"#utility.yul\":28924:28942   */\n      swap1\n      pop\n        /* \"#utility.yul\":28801:28948   */\n      swap3\n      swap2\n      pop\n      pop\n      jump\t// out\n        /* \"#utility.yul\":28954:29340   */\n    tag_369:\n        /* \"#utility.yul\":29058:29061   */\n      0x00\n        /* \"#utility.yul\":29086:29124   */\n      tag_641\n        /* \"#utility.yul\":29118:29123   */\n      dup3\n        /* \"#utility.yul\":29086:29124   */\n      tag_367\n      jump\t// in\n    tag_641:\n        /* \"#utility.yul\":29140:29228   */\n      tag_642\n        /* \"#utility.yul\":29221:29227   */\n      dup2\n        /* \"#utility.yul\":29216:29219   */\n      dup6\n        /* \"#utility.yul\":29140:29228   */\n      tag_368\n      jump\t// in\n    tag_642:\n        /* \"#utility.yul\":29133:29228   */\n      swap4\n      pop\n        /* \"#utility.yul\":29237:29302   */\n      tag_643\n        /* \"#utility.yul\":29295:29301   */\n      dup2\n        /* \"#utility.yul\":29290:29293   */\n      dup6\n        /* \"#utility.yul\":29283:29287   */\n      0x20\n        /* \"#utility.yul\":29276:29281   */\n      dup7\n        /* \"#utility.yul\":29272:29288   */\n      add\n        /* \"#utility.yul\":29237:29302   */\n      tag_354\n      jump\t// in\n    tag_643:\n        /* \"#utility.yul\":29327:29333   */\n      dup1\n        /* \"#utility.yul\":29322:29325   */\n      dup5\n        /* \"#utility.yul\":29318:29334   */\n      add\n        /* \"#utility.yul\":29311:29334   */\n      swap2\n      pop\n        /* \"#utility.yul\":29062:29340   */\n      pop\n        /* \"#utility.yul\":28954:29340   */\n      swap3\n      swap2\n      pop\n      pop\n      jump\t// out\n        /* \"#utility.yul\":29346:29617   */\n    tag_279:\n        /* \"#utility.yul\":29476:29479   */\n      0x00\n        /* \"#utility.yul\":29498:29591   */\n      tag_645\n        /* \"#utility.yul\":29587:29590   */\n      dup3\n        /* \"#utility.yul\":29578:29584   */\n      dup5\n        /* \"#utility.yul\":29498:29591   */\n      tag_369\n      jump\t// in\n    tag_645:\n        /* \"#utility.yul\":29491:29591   */\n      swap2\n      pop\n        /* \"#utility.yul\":29608:29611   */\n      dup2\n        /* \"#utility.yul\":29601:29611   */\n      swap1\n      pop\n        /* \"#utility.yul\":29346:29617   */\n      swap3\n      swap2\n      pop\n      pop\n      jump\t// out\n        /* \"#utility.yul\":29623:29802   */\n    tag_370:\n        /* \"#utility.yul\":29763:29794   */\n      0x416464726573733a2063616c6c20746f206e6f6e2d636f6e7472616374000000\n        /* \"#utility.yul\":29759:29760   */\n      0x00\n        /* \"#utility.yul\":29751:29757   */\n      dup3\n        /* \"#utility.yul\":29747:29761   */\n      add\n        /* \"#utility.yul\":29740:29795   */\n      mstore\n        /* \"#utility.yul\":29623:29802   */\n      pop\n      jump\t// out\n        /* \"#utility.yul\":29808:30174   */\n    tag_371:\n        /* \"#utility.yul\":29950:29953   */\n      0x00\n        /* \"#utility.yul\":29971:30038   */\n      tag_648\n        /* \"#utility.yul\":30035:30037   */\n      0x1d\n        /* \"#utility.yul\":30030:30033   */\n      dup4\n        /* \"#utility.yul\":29971:30038   */\n      tag_328\n      jump\t// in\n    tag_648:\n        /* \"#utility.yul\":29964:30038   */\n      swap2\n      pop\n        /* \"#utility.yul\":30047:30140   */\n      tag_649\n        /* \"#utility.yul\":30136:30139   */\n      dup3\n        /* \"#utility.yul\":30047:30140   */\n      tag_370\n      jump\t// in\n    tag_649:\n        /* \"#utility.yul\":30165:30167   */\n      0x20\n        /* \"#utility.yul\":30160:30163   */\n      dup3\n        /* \"#utility.yul\":30156:30168   */\n      add\n        /* \"#utility.yul\":30149:30168   */\n      swap1\n      pop\n        /* \"#utility.yul\":29808:30174   */\n      swap2\n      swap1\n      pop\n      jump\t// out\n        /* \"#utility.yul\":30180:30599   */\n    tag_292:\n        /* \"#utility.yul\":30346:30350   */\n      0x00\n        /* \"#utility.yul\":30384:30386   */\n      0x20\n        /* \"#utility.yul\":30373:30382   */\n      dup3\n        /* \"#utility.yul\":30369:30387   */\n      add\n        /* \"#utility.yul\":30361:30387   */\n      swap1\n      pop\n        /* \"#utility.yul\":30433:30442   */\n      dup2\n        /* \"#utility.yul\":30427:30431   */\n      dup2\n        /* \"#utility.yul\":30423:30443   */\n      sub\n        /* \"#utility.yul\":30419:30420   */\n      0x00\n        /* \"#utility.yul\":30408:30417   */\n      dup4\n        /* \"#utility.yul\":30404:30421   */\n      add\n        /* \"#utility.yul\":30397:30444   */\n      mstore\n        /* \"#utility.yul\":30461:30592   */\n      tag_651\n        /* \"#utility.yul\":30587:30591   */\n      dup2\n        /* \"#utility.yul\":30461:30592   */\n      tag_371\n      jump\t// in\n    tag_651:\n        /* \"#utility.yul\":30453:30592   */\n      swap1\n      pop\n        /* \"#utility.yul\":30180:30599   */\n      swap2\n      swap1\n      pop\n      jump\t// out\n\n    auxdata: 0xa2646970667358221220aab69b41d666e34377239d3b9cea1336cc52619426da1a581884c4ec57170c5d64736f6c63430008120033\n}\n",
				"bytecode": {
					"linkReferences": {},
					"object": "60806040523480156200001157600080fd5b50620000276000801b33620000fb60201b60201c565b620000597f5d8e12c39142ff96d79d04d15d1ba1269e4fe57bb9d26f43523628b34ba108ec33620000fb60201b60201c565b6200008b7ff1f91cdf1f18aaac45ca4aaddade87aabc2746f6d044da7cf8544558c577617233620000fb60201b60201c565b620000c07f5d8e12c39142ff96d79d04d15d1ba1269e4fe57bb9d26f43523628b34ba108ec6000801b6200011160201b60201c565b620000f57ff1f91cdf1f18aaac45ca4aaddade87aabc2746f6d044da7cf8544558c57761726000801b6200011160201b60201c565b620002f6565b6200010d82826200017460201b60201c565b5050565b600062000124836200026560201b60201c565b905081600080858152602001908152602001600020600101819055508181847fbd79b86ffe0ab8e8776151514217cd7cacd52c909f66475c3af44e129f0b00ff60405160405180910390a4505050565b6200018682826200028460201b60201c565b6200026157600160008084815260200190815260200160002060000160008373ffffffffffffffffffffffffffffffffffffffff1673ffffffffffffffffffffffffffffffffffffffff16815260200190815260200160002060006101000a81548160ff02191690831515021790555062000206620002ee60201b60201c565b73ffffffffffffffffffffffffffffffffffffffff168173ffffffffffffffffffffffffffffffffffffffff16837f2f8788117e7eff1d82e926ec794901d17c78024a50270940304540a733656f0d60405160405180910390a45b5050565b6000806000838152602001908152602001600020600101549050919050565b600080600084815260200190815260200160002060000160008373ffffffffffffffffffffffffffffffffffffffff1673ffffffffffffffffffffffffffffffffffffffff16815260200190815260200160002060009054906101000a900460ff16905092915050565b600033905090565b61259880620003066000396000f3fe608060405234801561001057600080fd5b50600436106100cf5760003560e01c8063627c09061161008c578063a217fddf11610066578063a217fddf14610222578063d547741f14610240578063e02023a11461025c578063ea4e6c5c1461027a576100cf565b8063627c0906146101a457806370a08231146101c257806391d14854146101f2576100cf565b806301ffc9a7146100d4578063248a9ca3146101045780632f2ff15d1461013457806336568abe146101505780634a4bdb301461016c57806356edb46914610188575b600080fd5b6100ee60048036038101906100e99190611642565b610296565b6040516100fb919061168a565b60405180910390f35b61011e600480360381019061011991906116db565b610310565b60405161012b9190611717565b60405180910390f35b61014e60048036038101906101499190611790565b61032f565b005b61016a60048036038101906101659190611790565b610350565b005b6101866004803603810190610181919061186b565b6103d3565b005b6101a2600480360381019061019d91906119e1565b610521565b005b6101ac610877565b6040516101b99190611717565b60405180910390f35b6101dc60048036038101906101d79190611aca565b61089b565b6040516101e99190611b06565b60405180910390f35b61020c60048036038101906102079190611790565b61098c565b604051610219919061168a565b60405180910390f35b61022a6109f6565b6040516102379190611717565b60405180910390f35b61025a60048036038101906102559190611790565b6109fd565b005b610264610a1e565b6040516102719190611717565b60405180910390f35b610294600480360381019061028f91906119e1565b610a42565b005b60007f7965db0b000000000000000000000000000000000000000000000000000000007bffffffffffffffffffffffffffffffffffffffffffffffffffffffff1916827bffffffffffffffffffffffffffffffffffffffffffffffffffffffff19161480610309575061030882610d08565b5b9050919050565b6000806000838152602001908152602001600020600101549050919050565b61033882610310565b61034181610d72565b61034b8383610d86565b505050565b610358610e66565b73ffffffffffffffffffffffffffffffffffffffff168173ffffffffffffffffffffffffffffffffffffffff16146103c5576040517f08c379a00000000000000000000000000000000000000000000000000000000081526004016103bc90611ba4565b60405180910390fd5b6103cf8282610e6e565b5050565b600073ffffffffffffffffffffffffffffffffffffffff168473ffffffffffffffffffffffffffffffffffffffff1603610442576040517f08c379a000000000000000000000000000000000000000000000000000000000815260040161043990611c10565b60405180910390fd5b60008311610485576040517f08c379a000000000000000000000000000000000000000000000000000000000815260040161047c90611c7c565b60405180910390fd5b6104b23330858773ffffffffffffffffffffffffffffffffffffffff16610f4f909392919063ffffffff16565b3373ffffffffffffffffffffffffffffffffffffffff168473ffffffffffffffffffffffffffffffffffffffff167f5d2ae1cdca5222ec8fffbc4b088f5b5144ad5f4eaf2fc8afc49cd3585767108285858560405161051393929190611ce9565b60405180910390a350505050565b7ff1f91cdf1f18aaac45ca4aaddade87aabc2746f6d044da7cf8544558c577617261054b81610d72565b60008989905011610591576040517f08c379a000000000000000000000000000000000000000000000000000000000815260040161058890611c10565b60405180910390fd5b8686905089899050146105d9576040517f08c379a00000000000000000000000000000000000000000000000000000000081526004016105d090611c7c565b60405180910390fd5b848490508989905014610621576040517f08c379a000000000000000000000000000000000000000000000000000000000815260040161061890611d67565b60405180910390fd5b828290508989905014610669576040517f08c379a000000000000000000000000000000000000000000000000000000000815260040161066090611dd3565b60405180910390fd5b60005b8989905081101561086b57600088888381811061068c5761068b611df3565b5b90506020020135116106d3576040517f08c379a00000000000000000000000000000000000000000000000000000000081526004016106ca90611c7c565b60405180910390fd5b6107658686838181106106e9576106e8611df3565b5b90506020020160208101906106fe9190611aca565b89898481811061071157610710611df3565b5b905060200201358c8c8581811061072b5761072a611df3565b5b90506020020160208101906107409190611aca565b73ffffffffffffffffffffffffffffffffffffffff16610fd89092919063ffffffff16565b85858281811061077857610777611df3565b5b905060200201602081019061078d9190611aca565b73ffffffffffffffffffffffffffffffffffffffff168a8a838181106107b6576107b5611df3565b5b90506020020160208101906107cb9190611aca565b73ffffffffffffffffffffffffffffffffffffffff167f1a50ff908577c6023d20715c654df4d0ac65bbb4ee6422490751a0489f85dc678a8a8581811061081557610814611df3565b5b9050602002013587878681811061082f5761082e611df3565b5b90506020028101906108419190611e31565b60405161085093929190611ce9565b60405180910390a3808061086390611ec3565b91505061066c565b50505050505050505050565b7ff1f91cdf1f18aaac45ca4aaddade87aabc2746f6d044da7cf8544558c577617281565b60008073ffffffffffffffffffffffffffffffffffffffff168273ffffffffffffffffffffffffffffffffffffffff160361090b576040517f08c379a000000000000000000000000000000000000000000000000000000000815260040161090290611c10565b60405180910390fd5b8173ffffffffffffffffffffffffffffffffffffffff166370a08231306040518263ffffffff1660e01b81526004016109449190611f1a565b602060405180830381865afa158015610961573d6000803e3d6000fd5b505050506040513d601f19601f820116820180604052508101906109859190611f4a565b9050919050565b600080600084815260200190815260200160002060000160008373ffffffffffffffffffffffffffffffffffffffff1673ffffffffffffffffffffffffffffffffffffffff16815260200190815260200160002060009054906101000a900460ff16905092915050565b6000801b81565b610a0682610310565b610a0f81610d72565b610a198383610e6e565b505050565b7f5d8e12c39142ff96d79d04d15d1ba1269e4fe57bb9d26f43523628b34ba108ec81565b7f5d8e12c39142ff96d79d04d15d1ba1269e4fe57bb9d26f43523628b34ba108ec610a6c81610d72565b60008989905011610ab2576040517f08c379a0000000000000000000000000000000000000000000000000000000008152600401610aa990611c10565b60405180910390fd5b868690508989905014610afa576040517f08c379a0000000000000000000000000000000000000000000000000000000008152600401610af190611fc3565b60405180910390fd5b60005b89899050811015610cfc576000888883818110610b1d57610b1c611df3565b5b9050602002013511610b64576040517f08c379a0000000000000000000000000000000000000000000000000000000008152600401610b5b90611c7c565b60405180910390fd5b610bf6868683818110610b7a57610b79611df3565b5b9050602002016020810190610b8f9190611aca565b898984818110610ba257610ba1611df3565b5b905060200201358c8c85818110610bbc57610bbb611df3565b5b9050602002016020810190610bd19190611aca565b73ffffffffffffffffffffffffffffffffffffffff16610fd89092919063ffffffff16565b858582818110610c0957610c08611df3565b5b9050602002016020810190610c1e9190611aca565b73ffffffffffffffffffffffffffffffffffffffff168a8a83818110610c4757610c46611df3565b5b9050602002016020810190610c5c9190611aca565b73ffffffffffffffffffffffffffffffffffffffff167fa4c6cd4bfefcc09490a00cf1f79a859de6f34c1da3186bb65d5102b1b84455478a8a85818110610ca657610ca5611df3565b5b90506020020135878786818110610cc057610cbf611df3565b5b9050602002810190610cd29190611e31565b604051610ce193929190611ce9565b60405180910390a38080610cf490611ec3565b915050610afd565b50505050505050505050565b60007f01ffc9a7000000000000000000000000000000000000000000000000000000007bffffffffffffffffffffffffffffffffffffffffffffffffffffffff1916827bffffffffffffffffffffffffffffffffffffffffffffffffffffffff1916149050919050565b610d8381610d7e610e66565b61105e565b50565b610d90828261098c565b610e6257600160008084815260200190815260200160002060000160008373ffffffffffffffffffffffffffffffffffffffff1673ffffffffffffffffffffffffffffffffffffffff16815260200190815260200160002060006101000a81548160ff021916908315150217905550610e07610e66565b73ffffffffffffffffffffffffffffffffffffffff168173ffffffffffffffffffffffffffffffffffffffff16837f2f8788117e7eff1d82e926ec794901d17c78024a50270940304540a733656f0d60405160405180910390a45b5050565b600033905090565b610e78828261098c565b15610f4b57600080600084815260200190815260200160002060000160008373ffffffffffffffffffffffffffffffffffffffff1673ffffffffffffffffffffffffffffffffffffffff16815260200190815260200160002060006101000a81548160ff021916908315150217905550610ef0610e66565b73ffffffffffffffffffffffffffffffffffffffff168173ffffffffffffffffffffffffffffffffffffffff16837ff6391f5c32d9c69d2a47ea670b442974b53935d1edc7fd64eb21e047a839171b60405160405180910390a45b5050565b610fd2846323b872dd60e01b858585604051602401610f7093929190611fe3565b604051602081830303815290604052907bffffffffffffffffffffffffffffffffffffffffffffffffffffffff19166020820180517bffffffffffffffffffffffffffffffffffffffffffffffffffffffff83818316178352505050506110e3565b50505050565b6110598363a9059cbb60e01b8484604051602401610ff792919061201a565b604051602081830303815290604052907bffffffffffffffffffffffffffffffffffffffffffffffffffffffff19166020820180517bffffffffffffffffffffffffffffffffffffffffffffffffffffffff83818316178352505050506110e3565b505050565b611068828261098c565b6110df57611075816111aa565b6110838360001c60206111d7565b60405160200161109492919061214c565b6040516020818303038152906040526040517f08c379a00000000000000000000000000000000000000000000000000000000081526004016110d691906121bf565b60405180910390fd5b5050565b6000611145826040518060400160405280602081526020017f5361666545524332303a206c6f772d6c6576656c2063616c6c206661696c65648152508573ffffffffffffffffffffffffffffffffffffffff166114139092919063ffffffff16565b90506000815111156111a55780806020019051810190611165919061220d565b6111a4576040517f08c379a000000000000000000000000000000000000000000000000000000000815260040161119b906122ac565b60405180910390fd5b5b505050565b60606111d08273ffffffffffffffffffffffffffffffffffffffff16601460ff166111d7565b9050919050565b6060600060028360026111ea91906122cc565b6111f4919061230e565b67ffffffffffffffff81111561120d5761120c612342565b5b6040519080825280601f01601f19166020018201604052801561123f5781602001600182028036833780820191505090505b5090507f30000000000000000000000000000000000000000000000000000000000000008160008151811061127757611276611df3565b5b60200101907effffffffffffffffffffffffffffffffffffffffffffffffffffffffffffff1916908160001a9053507f7800000000000000000000000000000000000000000000000000000000000000816001815181106112db576112da611df3565b5b60200101907effffffffffffffffffffffffffffffffffffffffffffffffffffffffffffff1916908160001a9053506000600184600261131b91906122cc565b611325919061230e565b90505b60018111156113c5577f3031323334353637383961626364656600000000000000000000000000000000600f86166010811061136757611366611df3565b5b1a60f81b82828151811061137e5761137d611df3565b5b60200101907effffffffffffffffffffffffffffffffffffffffffffffffffffffffffffff1916908160001a905350600485901c9450806113be90612371565b9050611328565b5060008414611409576040517f08c379a0000000000000000000000000000000000000000000000000000000008152600401611400906123e6565b60405180910390fd5b8091505092915050565b6060611422848460008561142b565b90509392505050565b606082471015611470576040517f08c379a000000000000000000000000000000000000000000000000000000000815260040161146790612478565b60405180910390fd5b6000808673ffffffffffffffffffffffffffffffffffffffff16858760405161149991906124df565b60006040518083038185875af1925050503d80600081146114d6576040519150601f19603f3d011682016040523d82523d6000602084013e6114db565b606091505b50915091506114ec878383876114f8565b92505050949350505050565b6060831561155a576000835103611552576115128561156d565b611551576040517f08c379a000000000000000000000000000000000000000000000000000000000815260040161154890612542565b60405180910390fd5b5b829050611565565b6115648383611590565b5b949350505050565b6000808273ffffffffffffffffffffffffffffffffffffffff163b119050919050565b6000825111156115a35781518083602001fd5b806040517f08c379a00000000000000000000000000000000000000000000000000000000081526004016115d791906121bf565b60405180910390fd5b600080fd5b600080fd5b60007fffffffff0000000000000000000000000000000000000000000000000000000082169050919050565b61161f816115ea565b811461162a57600080fd5b50565b60008135905061163c81611616565b92915050565b600060208284031215611658576116576115e0565b5b60006116668482850161162d565b91505092915050565b60008115159050919050565b6116848161166f565b82525050565b600060208201905061169f600083018461167b565b92915050565b6000819050919050565b6116b8816116a5565b81146116c357600080fd5b50565b6000813590506116d5816116af565b92915050565b6000602082840312156116f1576116f06115e0565b5b60006116ff848285016116c6565b91505092915050565b611711816116a5565b82525050565b600060208201905061172c6000830184611708565b92915050565b600073ffffffffffffffffffffffffffffffffffffffff82169050919050565b600061175d82611732565b9050919050565b61176d81611752565b811461177857600080fd5b50565b60008135905061178a81611764565b92915050565b600080604083850312156117a7576117a66115e0565b5b60006117b5858286016116c6565b92505060206117c68582860161177b565b9150509250929050565b6000819050919050565b6117e3816117d0565b81146117ee57600080fd5b50565b600081359050611800816117da565b92915050565b600080fd5b600080fd5b600080fd5b60008083601f84011261182b5761182a611806565b5b8235905067ffffffffffffffff8111156118485761184761180b565b5b60208301915083600182028301111561186457611863611810565b5b9250929050565b60008060008060608587031215611885576118846115e0565b5b60006118938782880161177b565b94505060206118a4878288016117f1565b935050604085013567ffffffffffffffff8111156118c5576118c46115e5565b5b6118d187828801611815565b925092505092959194509250565b60008083601f8401126118f5576118f4611806565b5b8235905067ffffffffffffffff8111156119125761191161180b565b5b60208301915083602082028301111561192e5761192d611810565b5b9250929050565b60008083601f84011261194b5761194a611806565b5b8235905067ffffffffffffffff8111156119685761196761180b565b5b60208301915083602082028301111561198457611983611810565b5b9250929050565b60008083601f8401126119a1576119a0611806565b5b8235905067ffffffffffffffff8111156119be576119bd61180b565b5b6020830191508360208202830111156119da576119d9611810565b5b9250929050565b6000806000806000806000806080898b031215611a0157611a006115e0565b5b600089013567ffffffffffffffff811115611a1f57611a1e6115e5565b5b611a2b8b828c016118df565b9850985050602089013567ffffffffffffffff811115611a4e57611a4d6115e5565b5b611a5a8b828c01611935565b9650965050604089013567ffffffffffffffff811115611a7d57611a7c6115e5565b5b611a898b828c016118df565b9450945050606089013567ffffffffffffffff811115611aac57611aab6115e5565b5b611ab88b828c0161198b565b92509250509295985092959890939650565b600060208284031215611ae057611adf6115e0565b5b6000611aee8482850161177b565b91505092915050565b611b00816117d0565b82525050565b6000602082019050611b1b6000830184611af7565b92915050565b600082825260208201905092915050565b7f416363657373436f6e74726f6c3a2063616e206f6e6c792072656e6f756e636560008201527f20726f6c657320666f722073656c660000000000000000000000000000000000602082015250565b6000611b8e602f83611b21565b9150611b9982611b32565b604082019050919050565b60006020820190508181036000830152611bbd81611b81565b9050919050565b7f63757272656e6379206661696c00000000000000000000000000000000000000600082015250565b6000611bfa600d83611b21565b9150611c0582611bc4565b602082019050919050565b60006020820190508181036000830152611c2981611bed565b9050919050565b7f616d6f756e74206661696c000000000000000000000000000000000000000000600082015250565b6000611c66600b83611b21565b9150611c7182611c30565b602082019050919050565b60006020820190508181036000830152611c9581611c59565b9050919050565b82818337600083830152505050565b6000601f19601f8301169050919050565b6000611cc88385611b21565b9350611cd5838584611c9c565b611cde83611cab565b840190509392505050565b6000604082019050611cfe6000830186611af7565b8181036020830152611d11818486611cbc565b9050949350505050565b7f746f206661696c00000000000000000000000000000000000000000000000000600082015250565b6000611d51600783611b21565b9150611d5c82611d1b565b602082019050919050565b60006020820190508181036000830152611d8081611d44565b9050919050565b7f6f726465724964206661696c0000000000000000000000000000000000000000600082015250565b6000611dbd600c83611b21565b9150611dc882611d87565b602082019050919050565b60006020820190508181036000830152611dec81611db0565b9050919050565b7f4e487b7100000000000000000000000000000000000000000000000000000000600052603260045260246000fd5b600080fd5b600080fd5b600080fd5b60008083356001602003843603038112611e4e57611e4d611e22565b5b80840192508235915067ffffffffffffffff821115611e7057611e6f611e27565b5b602083019250600182023603831315611e8c57611e8b611e2c565b5b509250929050565b7f4e487b7100000000000000000000000000000000000000000000000000000000600052601160045260246000fd5b6000611ece826117d0565b91507fffffffffffffffffffffffffffffffffffffffffffffffffffffffffffffffff8203611f0057611eff611e94565b5b600182019050919050565b611f1481611752565b82525050565b6000602082019050611f2f6000830184611f0b565b92915050565b600081519050611f44816117da565b92915050565b600060208284031215611f6057611f5f6115e0565b5b6000611f6e84828501611f35565b91505092915050565b7f63757272656e6379206f7220616d6f756e74206661696c000000000000000000600082015250565b6000611fad601783611b21565b9150611fb882611f77565b602082019050919050565b60006020820190508181036000830152611fdc81611fa0565b9050919050565b6000606082019050611ff86000830186611f0b565b6120056020830185611f0b565b6120126040830184611af7565b949350505050565b600060408201905061202f6000830185611f0b565b61203c6020830184611af7565b9392505050565b600081905092915050565b7f416363657373436f6e74726f6c3a206163636f756e7420000000000000000000600082015250565b6000612084601783612043565b915061208f8261204e565b601782019050919050565b600081519050919050565b60005b838110156120c35780820151818401526020810190506120a8565b60008484015250505050565b60006120da8261209a565b6120e48185612043565b93506120f48185602086016120a5565b80840191505092915050565b7f206973206d697373696e6720726f6c6520000000000000000000000000000000600082015250565b6000612136601183612043565b915061214182612100565b601182019050919050565b600061215782612077565b915061216382856120cf565b915061216e82612129565b915061217a82846120cf565b91508190509392505050565b60006121918261209a565b61219b8185611b21565b93506121ab8185602086016120a5565b6121b481611cab565b840191505092915050565b600060208201905081810360008301526121d98184612186565b905092915050565b6121ea8161166f565b81146121f557600080fd5b50565b600081519050612207816121e1565b92915050565b600060208284031215612223576122226115e0565b5b6000612231848285016121f8565b91505092915050565b7f5361666545524332303a204552433230206f7065726174696f6e20646964206e60008201527f6f74207375636365656400000000000000000000000000000000000000000000602082015250565b6000612296602a83611b21565b91506122a18261223a565b604082019050919050565b600060208201905081810360008301526122c581612289565b9050919050565b60006122d7826117d0565b91506122e2836117d0565b92508282026122f0816117d0565b9150828204841483151761230757612306611e94565b5b5092915050565b6000612319826117d0565b9150612324836117d0565b925082820190508082111561233c5761233b611e94565b5b92915050565b7f4e487b7100000000000000000000000000000000000000000000000000000000600052604160045260246000fd5b600061237c826117d0565b91506000820361238f5761238e611e94565b5b600182039050919050565b7f537472696e67733a20686578206c656e67746820696e73756666696369656e74600082015250565b60006123d0602083611b21565b91506123db8261239a565b602082019050919050565b600060208201905081810360008301526123ff816123c3565b9050919050565b7f416464726573733a20696e73756666696369656e742062616c616e636520666f60008201527f722063616c6c0000000000000000000000000000000000000000000000000000602082015250565b6000612462602683611b21565b915061246d82612406565b604082019050919050565b6000602082019050818103600083015261249181612455565b9050919050565b600081519050919050565b600081905092915050565b60006124b982612498565b6124c381856124a3565b93506124d38185602086016120a5565b80840191505092915050565b60006124eb82846124ae565b915081905092915050565b7f416464726573733a2063616c6c20746f206e6f6e2d636f6e7472616374000000600082015250565b600061252c601d83611b21565b9150612537826124f6565b602082019050919050565b6000602082019050818103600083015261255b8161251f565b905091905056fea2646970667358221220aab69b41d666e34377239d3b9cea1336cc52619426da1a581884c4ec57170c5d64736f6c63430008120033",
					"opcodes": "PUSH1 0x80 PUSH1 0x40 MSTORE CALLVALUE DUP1 ISZERO PUSH3 0x11 JUMPI PUSH1 0x0 DUP1 REVERT JUMPDEST POP PUSH3 0x27 PUSH1 0x0 DUP1 SHL CALLER PUSH3 0xFB PUSH1 0x20 SHL PUSH1 0x20 SHR JUMP JUMPDEST PUSH3 0x59 PUSH32 0x5D8E12C39142FF96D79D04D15D1BA1269E4FE57BB9D26F43523628B34BA108EC CALLER PUSH3 0xFB PUSH1 0x20 SHL PUSH1 0x20 SHR JUMP JUMPDEST PUSH3 0x8B PUSH32 0xF1F91CDF1F18AAAC45CA4AADDADE87AABC2746F6D044DA7CF8544558C5776172 CALLER PUSH3 0xFB PUSH1 0x20 SHL PUSH1 0x20 SHR JUMP JUMPDEST PUSH3 0xC0 PUSH32 0x5D8E12C39142FF96D79D04D15D1BA1269E4FE57BB9D26F43523628B34BA108EC PUSH1 0x0 DUP1 SHL PUSH3 0x111 PUSH1 0x20 SHL PUSH1 0x20 SHR JUMP JUMPDEST PUSH3 0xF5 PUSH32 0xF1F91CDF1F18AAAC45CA4AADDADE87AABC2746F6D044DA7CF8544558C5776172 PUSH1 0x0 DUP1 SHL PUSH3 0x111 PUSH1 0x20 SHL PUSH1 0x20 SHR JUMP JUMPDEST PUSH3 0x2F6 JUMP JUMPDEST PUSH3 0x10D DUP3 DUP3 PUSH3 0x174 PUSH1 0x20 SHL PUSH1 0x20 SHR JUMP JUMPDEST POP POP JUMP JUMPDEST PUSH1 0x0 PUSH3 0x124 DUP4 PUSH3 0x265 PUSH1 0x20 SHL PUSH1 0x20 SHR JUMP JUMPDEST SWAP1 POP DUP2 PUSH1 0x0 DUP1 DUP6 DUP2 MSTORE PUSH1 0x20 ADD SWAP1 DUP2 MSTORE PUSH1 0x20 ADD PUSH1 0x0 KECCAK256 PUSH1 0x1 ADD DUP2 SWAP1 SSTORE POP DUP2 DUP2 DUP5 PUSH32 0xBD79B86FFE0AB8E8776151514217CD7CACD52C909F66475C3AF44E129F0B00FF PUSH1 0x40 MLOAD PUSH1 0x40 MLOAD DUP1 SWAP2 SUB SWAP1 LOG4 POP POP POP JUMP JUMPDEST PUSH3 0x186 DUP3 DUP3 PUSH3 0x284 PUSH1 0x20 SHL PUSH1 0x20 SHR JUMP JUMPDEST PUSH3 0x261 JUMPI PUSH1 0x1 PUSH1 0x0 DUP1 DUP5 DUP2 MSTORE PUSH1 0x20 ADD SWAP1 DUP2 MSTORE PUSH1 0x20 ADD PUSH1 0x0 KECCAK256 PUSH1 0x0 ADD PUSH1 0x0 DUP4 PUSH20 0xFFFFFFFFFFFFFFFFFFFFFFFFFFFFFFFFFFFFFFFF AND PUSH20 0xFFFFFFFFFFFFFFFFFFFFFFFFFFFFFFFFFFFFFFFF AND DUP2 MSTORE PUSH1 0x20 ADD SWAP1 DUP2 MSTORE PUSH1 0x20 ADD PUSH1 0x0 KECCAK256 PUSH1 0x0 PUSH2 0x100 EXP DUP2 SLOAD DUP2 PUSH1 0xFF MUL NOT AND SWAP1 DUP4 ISZERO ISZERO MUL OR SWAP1 SSTORE POP PUSH3 0x206 PUSH3 0x2EE PUSH1 0x20 SHL PUSH1 0x20 SHR JUMP JUMPDEST PUSH20 0xFFFFFFFFFFFFFFFFFFFFFFFFFFFFFFFFFFFFFFFF AND DUP2 PUSH20 0xFFFFFFFFFFFFFFFFFFFFFFFFFFFFFFFFFFFFFFFF AND DUP4 PUSH32 0x2F8788117E7EFF1D82E926EC794901D17C78024A50270940304540A733656F0D PUSH1 0x40 MLOAD PUSH1 0x40 MLOAD DUP1 SWAP2 SUB SWAP1 LOG4 JUMPDEST POP POP JUMP JUMPDEST PUSH1 0x0 DUP1 PUSH1 0x0 DUP4 DUP2 MSTORE PUSH1 0x20 ADD SWAP1 DUP2 MSTORE PUSH1 0x20 ADD PUSH1 0x0 KECCAK256 PUSH1 0x1 ADD SLOAD SWAP1 POP SWAP2 SWAP1 POP JUMP JUMPDEST PUSH1 0x0 DUP1 PUSH1 0x0 DUP5 DUP2 MSTORE PUSH1 0x20 ADD SWAP1 DUP2 MSTORE PUSH1 0x20 ADD PUSH1 0x0 KECCAK256 PUSH1 0x0 ADD PUSH1 0x0 DUP4 PUSH20 0xFFFFFFFFFFFFFFFFFFFFFFFFFFFFFFFFFFFFFFFF AND PUSH20 0xFFFFFFFFFFFFFFFFFFFFFFFFFFFFFFFFFFFFFFFF AND DUP2 MSTORE PUSH1 0x20 ADD SWAP1 DUP2 MSTORE PUSH1 0x20 ADD PUSH1 0x0 KECCAK256 PUSH1 0x0 SWAP1 SLOAD SWAP1 PUSH2 0x100 EXP SWAP1 DIV PUSH1 0xFF AND SWAP1 POP SWAP3 SWAP2 POP POP JUMP JUMPDEST PUSH1 0x0 CALLER SWAP1 POP SWAP1 JUMP JUMPDEST PUSH2 0x2598 DUP1 PUSH3 0x306 PUSH1 0x0 CODECOPY PUSH1 0x0 RETURN INVALID PUSH1 0x80 PUSH1 0x40 MSTORE CALLVALUE DUP1 ISZERO PUSH2 0x10 JUMPI PUSH1 0x0 DUP1 REVERT JUMPDEST POP PUSH1 0x4 CALLDATASIZE LT PUSH2 0xCF JUMPI PUSH1 0x0 CALLDATALOAD PUSH1 0xE0 SHR DUP1 PUSH4 0x627C0906 GT PUSH2 0x8C JUMPI DUP1 PUSH4 0xA217FDDF GT PUSH2 0x66 JUMPI DUP1 PUSH4 0xA217FDDF EQ PUSH2 0x222 JUMPI DUP1 PUSH4 0xD547741F EQ PUSH2 0x240 JUMPI DUP1 PUSH4 0xE02023A1 EQ PUSH2 0x25C JUMPI DUP1 PUSH4 0xEA4E6C5C EQ PUSH2 0x27A JUMPI PUSH2 0xCF JUMP JUMPDEST DUP1 PUSH4 0x627C0906 EQ PUSH2 0x1A4 JUMPI DUP1 PUSH4 0x70A08231 EQ PUSH2 0x1C2 JUMPI DUP1 PUSH4 0x91D14854 EQ PUSH2 0x1F2 JUMPI PUSH2 0xCF JUMP JUMPDEST DUP1 PUSH4 0x1FFC9A7 EQ PUSH2 0xD4 JUMPI DUP1 PUSH4 0x248A9CA3 EQ PUSH2 0x104 JUMPI DUP1 PUSH4 0x2F2FF15D EQ PUSH2 0x134 JUMPI DUP1 PUSH4 0x36568ABE EQ PUSH2 0x150 JUMPI DUP1 PUSH4 0x4A4BDB30 EQ PUSH2 0x16C JUMPI DUP1 PUSH4 0x56EDB469 EQ PUSH2 0x188 JUMPI JUMPDEST PUSH1 0x0 DUP1 REVERT JUMPDEST PUSH2 0xEE PUSH1 0x4 DUP1 CALLDATASIZE SUB DUP2 ADD SWAP1 PUSH2 0xE9 SWAP2 SWAP1 PUSH2 0x1642 JUMP JUMPDEST PUSH2 0x296 JUMP JUMPDEST PUSH1 0x40 MLOAD PUSH2 0xFB SWAP2 SWAP1 PUSH2 0x168A JUMP JUMPDEST PUSH1 0x40 MLOAD DUP1 SWAP2 SUB SWAP1 RETURN JUMPDEST PUSH2 0x11E PUSH1 0x4 DUP1 CALLDATASIZE SUB DUP2 ADD SWAP1 PUSH2 0x119 SWAP2 SWAP1 PUSH2 0x16DB JUMP JUMPDEST PUSH2 0x310 JUMP JUMPDEST PUSH1 0x40 MLOAD PUSH2 0x12B SWAP2 SWAP1 PUSH2 0x1717 JUMP JUMPDEST PUSH1 0x40 MLOAD DUP1 SWAP2 SUB SWAP1 RETURN JUMPDEST PUSH2 0x14E PUSH1 0x4 DUP1 CALLDATASIZE SUB DUP2 ADD SWAP1 PUSH2 0x149 SWAP2 SWAP1 PUSH2 0x1790 JUMP JUMPDEST PUSH2 0x32F JUMP JUMPDEST STOP JUMPDEST PUSH2 0x16A PUSH1 0x4 DUP1 CALLDATASIZE SUB DUP2 ADD SWAP1 PUSH2 0x165 SWAP2 SWAP1 PUSH2 0x1790 JUMP JUMPDEST PUSH2 0x350 JUMP JUMPDEST STOP JUMPDEST PUSH2 0x186 PUSH1 0x4 DUP1 CALLDATASIZE SUB DUP2 ADD SWAP1 PUSH2 0x181 SWAP2 SWAP1 PUSH2 0x186B JUMP JUMPDEST PUSH2 0x3D3 JUMP JUMPDEST STOP JUMPDEST PUSH2 0x1A2 PUSH1 0x4 DUP1 CALLDATASIZE SUB DUP2 ADD SWAP1 PUSH2 0x19D SWAP2 SWAP1 PUSH2 0x19E1 JUMP JUMPDEST PUSH2 0x521 JUMP JUMPDEST STOP JUMPDEST PUSH2 0x1AC PUSH2 0x877 JUMP JUMPDEST PUSH1 0x40 MLOAD PUSH2 0x1B9 SWAP2 SWAP1 PUSH2 0x1717 JUMP JUMPDEST PUSH1 0x40 MLOAD DUP1 SWAP2 SUB SWAP1 RETURN JUMPDEST PUSH2 0x1DC PUSH1 0x4 DUP1 CALLDATASIZE SUB DUP2 ADD SWAP1 PUSH2 0x1D7 SWAP2 SWAP1 PUSH2 0x1ACA JUMP JUMPDEST PUSH2 0x89B JUMP JUMPDEST PUSH1 0x40 MLOAD PUSH2 0x1E9 SWAP2 SWAP1 PUSH2 0x1B06 JUMP JUMPDEST PUSH1 0x40 MLOAD DUP1 SWAP2 SUB SWAP1 RETURN JUMPDEST PUSH2 0x20C PUSH1 0x4 DUP1 CALLDATASIZE SUB DUP2 ADD SWAP1 PUSH2 0x207 SWAP2 SWAP1 PUSH2 0x1790 JUMP JUMPDEST PUSH2 0x98C JUMP JUMPDEST PUSH1 0x40 MLOAD PUSH2 0x219 SWAP2 SWAP1 PUSH2 0x168A JUMP JUMPDEST PUSH1 0x40 MLOAD DUP1 SWAP2 SUB SWAP1 RETURN JUMPDEST PUSH2 0x22A PUSH2 0x9F6 JUMP JUMPDEST PUSH1 0x40 MLOAD PUSH2 0x237 SWAP2 SWAP1 PUSH2 0x1717 JUMP JUMPDEST PUSH1 0x40 MLOAD DUP1 SWAP2 SUB SWAP1 RETURN JUMPDEST PUSH2 0x25A PUSH1 0x4 DUP1 CALLDATASIZE SUB DUP2 ADD SWAP1 PUSH2 0x255 SWAP2 SWAP1 PUSH2 0x1790 JUMP JUMPDEST PUSH2 0x9FD JUMP JUMPDEST STOP JUMPDEST PUSH2 0x264 PUSH2 0xA1E JUMP JUMPDEST PUSH1 0x40 MLOAD PUSH2 0x271 SWAP2 SWAP1 PUSH2 0x1717 JUMP JUMPDEST PUSH1 0x40 MLOAD DUP1 SWAP2 SUB SWAP1 RETURN JUMPDEST PUSH2 0x294 PUSH1 0x4 DUP1 CALLDATASIZE SUB DUP2 ADD SWAP1 PUSH2 0x28F SWAP2 SWAP1 PUSH2 0x19E1 JUMP JUMPDEST PUSH2 0xA42 JUMP JUMPDEST STOP JUMPDEST PUSH1 0x0 PUSH32 0x7965DB0B00000000000000000000000000000000000000000000000000000000 PUSH28 0xFFFFFFFFFFFFFFFFFFFFFFFFFFFFFFFFFFFFFFFFFFFFFFFFFFFFFFFF NOT AND DUP3 PUSH28 0xFFFFFFFFFFFFFFFFFFFFFFFFFFFFFFFFFFFFFFFFFFFFFFFFFFFFFFFF NOT AND EQ DUP1 PUSH2 0x309 JUMPI POP PUSH2 0x308 DUP3 PUSH2 0xD08 JUMP JUMPDEST JUMPDEST SWAP1 POP SWAP2 SWAP1 POP JUMP JUMPDEST PUSH1 0x0 DUP1 PUSH1 0x0 DUP4 DUP2 MSTORE PUSH1 0x20 ADD SWAP1 DUP2 MSTORE PUSH1 0x20 ADD PUSH1 0x0 KECCAK256 PUSH1 0x1 ADD SLOAD SWAP1 POP SWAP2 SWAP1 POP JUMP JUMPDEST PUSH2 0x338 DUP3 PUSH2 0x310 JUMP JUMPDEST PUSH2 0x341 DUP2 PUSH2 0xD72 JUMP JUMPDEST PUSH2 0x34B DUP4 DUP4 PUSH2 0xD86 JUMP JUMPDEST POP POP POP JUMP JUMPDEST PUSH2 0x358 PUSH2 0xE66 JUMP JUMPDEST PUSH20 0xFFFFFFFFFFFFFFFFFFFFFFFFFFFFFFFFFFFFFFFF AND DUP2 PUSH20 0xFFFFFFFFFFFFFFFFFFFFFFFFFFFFFFFFFFFFFFFF AND EQ PUSH2 0x3C5 JUMPI PUSH1 0x40 MLOAD PUSH32 0x8C379A000000000000000000000000000000000000000000000000000000000 DUP2 MSTORE PUSH1 0x4 ADD PUSH2 0x3BC SWAP1 PUSH2 0x1BA4 JUMP JUMPDEST PUSH1 0x40 MLOAD DUP1 SWAP2 SUB SWAP1 REVERT JUMPDEST PUSH2 0x3CF DUP3 DUP3 PUSH2 0xE6E JUMP JUMPDEST POP POP JUMP JUMPDEST PUSH1 0x0 PUSH20 0xFFFFFFFFFFFFFFFFFFFFFFFFFFFFFFFFFFFFFFFF AND DUP5 PUSH20 0xFFFFFFFFFFFFFFFFFFFFFFFFFFFFFFFFFFFFFFFF AND SUB PUSH2 0x442 JUMPI PUSH1 0x40 MLOAD PUSH32 0x8C379A000000000000000000000000000000000000000000000000000000000 DUP2 MSTORE PUSH1 0x4 ADD PUSH2 0x439 SWAP1 PUSH2 0x1C10 JUMP JUMPDEST PUSH1 0x40 MLOAD DUP1 SWAP2 SUB SWAP1 REVERT JUMPDEST PUSH1 0x0 DUP4 GT PUSH2 0x485 JUMPI PUSH1 0x40 MLOAD PUSH32 0x8C379A000000000000000000000000000000000000000000000000000000000 DUP2 MSTORE PUSH1 0x4 ADD PUSH2 0x47C SWAP1 PUSH2 0x1C7C JUMP JUMPDEST PUSH1 0x40 MLOAD DUP1 SWAP2 SUB SWAP1 REVERT JUMPDEST PUSH2 0x4B2 CALLER ADDRESS DUP6 DUP8 PUSH20 0xFFFFFFFFFFFFFFFFFFFFFFFFFFFFFFFFFFFFFFFF AND PUSH2 0xF4F SWAP1 SWAP4 SWAP3 SWAP2 SWAP1 PUSH4 0xFFFFFFFF AND JUMP JUMPDEST CALLER PUSH20 0xFFFFFFFFFFFFFFFFFFFFFFFFFFFFFFFFFFFFFFFF AND DUP5 PUSH20 0xFFFFFFFFFFFFFFFFFFFFFFFFFFFFFFFFFFFFFFFF AND PUSH32 0x5D2AE1CDCA5222EC8FFFBC4B088F5B5144AD5F4EAF2FC8AFC49CD35857671082 DUP6 DUP6 DUP6 PUSH1 0x40 MLOAD PUSH2 0x513 SWAP4 SWAP3 SWAP2 SWAP1 PUSH2 0x1CE9 JUMP JUMPDEST PUSH1 0x40 MLOAD DUP1 SWAP2 SUB SWAP1 LOG3 POP POP POP POP JUMP JUMPDEST PUSH32 0xF1F91CDF1F18AAAC45CA4AADDADE87AABC2746F6D044DA7CF8544558C5776172 PUSH2 0x54B DUP2 PUSH2 0xD72 JUMP JUMPDEST PUSH1 0x0 DUP10 DUP10 SWAP1 POP GT PUSH2 0x591 JUMPI PUSH1 0x40 MLOAD PUSH32 0x8C379A000000000000000000000000000000000000000000000000000000000 DUP2 MSTORE PUSH1 0x4 ADD PUSH2 0x588 SWAP1 PUSH2 0x1C10 JUMP JUMPDEST PUSH1 0x40 MLOAD DUP1 SWAP2 SUB SWAP1 REVERT JUMPDEST DUP7 DUP7 SWAP1 POP DUP10 DUP10 SWAP1 POP EQ PUSH2 0x5D9 JUMPI PUSH1 0x40 MLOAD PUSH32 0x8C379A000000000000000000000000000000000000000000000000000000000 DUP2 MSTORE PUSH1 0x4 ADD PUSH2 0x5D0 SWAP1 PUSH2 0x1C7C JUMP JUMPDEST PUSH1 0x40 MLOAD DUP1 SWAP2 SUB SWAP1 REVERT JUMPDEST DUP5 DUP5 SWAP1 POP DUP10 DUP10 SWAP1 POP EQ PUSH2 0x621 JUMPI PUSH1 0x40 MLOAD PUSH32 0x8C379A000000000000000000000000000000000000000000000000000000000 DUP2 MSTORE PUSH1 0x4 ADD PUSH2 0x618 SWAP1 PUSH2 0x1D67 JUMP JUMPDEST PUSH1 0x40 MLOAD DUP1 SWAP2 SUB SWAP1 REVERT JUMPDEST DUP3 DUP3 SWAP1 POP DUP10 DUP10 SWAP1 POP EQ PUSH2 0x669 JUMPI PUSH1 0x40 MLOAD PUSH32 0x8C379A000000000000000000000000000000000000000000000000000000000 DUP2 MSTORE PUSH1 0x4 ADD PUSH2 0x660 SWAP1 PUSH2 0x1DD3 JUMP JUMPDEST PUSH1 0x40 MLOAD DUP1 SWAP2 SUB SWAP1 REVERT JUMPDEST PUSH1 0x0 JUMPDEST DUP10 DUP10 SWAP1 POP DUP2 LT ISZERO PUSH2 0x86B JUMPI PUSH1 0x0 DUP9 DUP9 DUP4 DUP2 DUP2 LT PUSH2 0x68C JUMPI PUSH2 0x68B PUSH2 0x1DF3 JUMP JUMPDEST JUMPDEST SWAP1 POP PUSH1 0x20 MUL ADD CALLDATALOAD GT PUSH2 0x6D3 JUMPI PUSH1 0x40 MLOAD PUSH32 0x8C379A000000000000000000000000000000000000000000000000000000000 DUP2 MSTORE PUSH1 0x4 ADD PUSH2 0x6CA SWAP1 PUSH2 0x1C7C JUMP JUMPDEST PUSH1 0x40 MLOAD DUP1 SWAP2 SUB SWAP1 REVERT JUMPDEST PUSH2 0x765 DUP7 DUP7 DUP4 DUP2 DUP2 LT PUSH2 0x6E9 JUMPI PUSH2 0x6E8 PUSH2 0x1DF3 JUMP JUMPDEST JUMPDEST SWAP1 POP PUSH1 0x20 MUL ADD PUSH1 0x20 DUP2 ADD SWAP1 PUSH2 0x6FE SWAP2 SWAP1 PUSH2 0x1ACA JUMP JUMPDEST DUP10 DUP10 DUP5 DUP2 DUP2 LT PUSH2 0x711 JUMPI PUSH2 0x710 PUSH2 0x1DF3 JUMP JUMPDEST JUMPDEST SWAP1 POP PUSH1 0x20 MUL ADD CALLDATALOAD DUP13 DUP13 DUP6 DUP2 DUP2 LT PUSH2 0x72B JUMPI PUSH2 0x72A PUSH2 0x1DF3 JUMP JUMPDEST JUMPDEST SWAP1 POP PUSH1 0x20 MUL ADD PUSH1 0x20 DUP2 ADD SWAP1 PUSH2 0x740 SWAP2 SWAP1 PUSH2 0x1ACA JUMP JUMPDEST PUSH20 0xFFFFFFFFFFFFFFFFFFFFFFFFFFFFFFFFFFFFFFFF AND PUSH2 0xFD8 SWAP1 SWAP3 SWAP2 SWAP1 PUSH4 0xFFFFFFFF AND JUMP JUMPDEST DUP6 DUP6 DUP3 DUP2 DUP2 LT PUSH2 0x778 JUMPI PUSH2 0x777 PUSH2 0x1DF3 JUMP JUMPDEST JUMPDEST SWAP1 POP PUSH1 0x20 MUL ADD PUSH1 0x20 DUP2 ADD SWAP1 PUSH2 0x78D SWAP2 SWAP1 PUSH2 0x1ACA JUMP JUMPDEST PUSH20 0xFFFFFFFFFFFFFFFFFFFFFFFFFFFFFFFFFFFFFFFF AND DUP11 DUP11 DUP4 DUP2 DUP2 LT PUSH2 0x7B6 JUMPI PUSH2 0x7B5 PUSH2 0x1DF3 JUMP JUMPDEST JUMPDEST SWAP1 POP PUSH1 0x20 MUL ADD PUSH1 0x20 DUP2 ADD SWAP1 PUSH2 0x7CB SWAP2 SWAP1 PUSH2 0x1ACA JUMP JUMPDEST PUSH20 0xFFFFFFFFFFFFFFFFFFFFFFFFFFFFFFFFFFFFFFFF AND PUSH32 0x1A50FF908577C6023D20715C654DF4D0AC65BBB4EE6422490751A0489F85DC67 DUP11 DUP11 DUP6 DUP2 DUP2 LT PUSH2 0x815 JUMPI PUSH2 0x814 PUSH2 0x1DF3 JUMP JUMPDEST JUMPDEST SWAP1 POP PUSH1 0x20 MUL ADD CALLDATALOAD DUP8 DUP8 DUP7 DUP2 DUP2 LT PUSH2 0x82F JUMPI PUSH2 0x82E PUSH2 0x1DF3 JUMP JUMPDEST JUMPDEST SWAP1 POP PUSH1 0x20 MUL DUP2 ADD SWAP1 PUSH2 0x841 SWAP2 SWAP1 PUSH2 0x1E31 JUMP JUMPDEST PUSH1 0x40 MLOAD PUSH2 0x850 SWAP4 SWAP3 SWAP2 SWAP1 PUSH2 0x1CE9 JUMP JUMPDEST PUSH1 0x40 MLOAD DUP1 SWAP2 SUB SWAP1 LOG3 DUP1 DUP1 PUSH2 0x863 SWAP1 PUSH2 0x1EC3 JUMP JUMPDEST SWAP2 POP POP PUSH2 0x66C JUMP JUMPDEST POP POP POP POP POP POP POP POP POP POP JUMP JUMPDEST PUSH32 0xF1F91CDF1F18AAAC45CA4AADDADE87AABC2746F6D044DA7CF8544558C5776172 DUP2 JUMP JUMPDEST PUSH1 0x0 DUP1 PUSH20 0xFFFFFFFFFFFFFFFFFFFFFFFFFFFFFFFFFFFFFFFF AND DUP3 PUSH20 0xFFFFFFFFFFFFFFFFFFFFFFFFFFFFFFFFFFFFFFFF AND SUB PUSH2 0x90B JUMPI PUSH1 0x40 MLOAD PUSH32 0x8C379A000000000000000000000000000000000000000000000000000000000 DUP2 MSTORE PUSH1 0x4 ADD PUSH2 0x902 SWAP1 PUSH2 0x1C10 JUMP JUMPDEST PUSH1 0x40 MLOAD DUP1 SWAP2 SUB SWAP1 REVERT JUMPDEST DUP2 PUSH20 0xFFFFFFFFFFFFFFFFFFFFFFFFFFFFFFFFFFFFFFFF AND PUSH4 0x70A08231 ADDRESS PUSH1 0x40 MLOAD DUP3 PUSH4 0xFFFFFFFF AND PUSH1 0xE0 SHL DUP2 MSTORE PUSH1 0x4 ADD PUSH2 0x944 SWAP2 SWAP1 PUSH2 0x1F1A JUMP JUMPDEST PUSH1 0x20 PUSH1 0x40 MLOAD DUP1 DUP4 SUB DUP2 DUP7 GAS STATICCALL ISZERO DUP1 ISZERO PUSH2 0x961 JUMPI RETURNDATASIZE PUSH1 0x0 DUP1 RETURNDATACOPY RETURNDATASIZE PUSH1 0x0 REVERT JUMPDEST POP POP POP POP PUSH1 0x40 MLOAD RETURNDATASIZE PUSH1 0x1F NOT PUSH1 0x1F DUP3 ADD AND DUP3 ADD DUP1 PUSH1 0x40 MSTORE POP DUP2 ADD SWAP1 PUSH2 0x985 SWAP2 SWAP1 PUSH2 0x1F4A JUMP JUMPDEST SWAP1 POP SWAP2 SWAP1 POP JUMP JUMPDEST PUSH1 0x0 DUP1 PUSH1 0x0 DUP5 DUP2 MSTORE PUSH1 0x20 ADD SWAP1 DUP2 MSTORE PUSH1 0x20 ADD PUSH1 0x0 KECCAK256 PUSH1 0x0 ADD PUSH1 0x0 DUP4 PUSH20 0xFFFFFFFFFFFFFFFFFFFFFFFFFFFFFFFFFFFFFFFF AND PUSH20 0xFFFFFFFFFFFFFFFFFFFFFFFFFFFFFFFFFFFFFFFF AND DUP2 MSTORE PUSH1 0x20 ADD SWAP1 DUP2 MSTORE PUSH1 0x20 ADD PUSH1 0x0 KECCAK256 PUSH1 0x0 SWAP1 SLOAD SWAP1 PUSH2 0x100 EXP SWAP1 DIV PUSH1 0xFF AND SWAP1 POP SWAP3 SWAP2 POP POP JUMP JUMPDEST PUSH1 0x0 DUP1 SHL DUP2 JUMP JUMPDEST PUSH2 0xA06 DUP3 PUSH2 0x310 JUMP JUMPDEST PUSH2 0xA0F DUP2 PUSH2 0xD72 JUMP JUMPDEST PUSH2 0xA19 DUP4 DUP4 PUSH2 0xE6E JUMP JUMPDEST POP POP POP JUMP JUMPDEST PUSH32 0x5D8E12C39142FF96D79D04D15D1BA1269E4FE57BB9D26F43523628B34BA108EC DUP2 JUMP JUMPDEST PUSH32 0x5D8E12C39142FF96D79D04D15D1BA1269E4FE57BB9D26F43523628B34BA108EC PUSH2 0xA6C DUP2 PUSH2 0xD72 JUMP JUMPDEST PUSH1 0x0 DUP10 DUP10 SWAP1 POP GT PUSH2 0xAB2 JUMPI PUSH1 0x40 MLOAD PUSH32 0x8C379A000000000000000000000000000000000000000000000000000000000 DUP2 MSTORE PUSH1 0x4 ADD PUSH2 0xAA9 SWAP1 PUSH2 0x1C10 JUMP JUMPDEST PUSH1 0x40 MLOAD DUP1 SWAP2 SUB SWAP1 REVERT JUMPDEST DUP7 DUP7 SWAP1 POP DUP10 DUP10 SWAP1 POP EQ PUSH2 0xAFA JUMPI PUSH1 0x40 MLOAD PUSH32 0x8C379A000000000000000000000000000000000000000000000000000000000 DUP2 MSTORE PUSH1 0x4 ADD PUSH2 0xAF1 SWAP1 PUSH2 0x1FC3 JUMP JUMPDEST PUSH1 0x40 MLOAD DUP1 SWAP2 SUB SWAP1 REVERT JUMPDEST PUSH1 0x0 JUMPDEST DUP10 DUP10 SWAP1 POP DUP2 LT ISZERO PUSH2 0xCFC JUMPI PUSH1 0x0 DUP9 DUP9 DUP4 DUP2 DUP2 LT PUSH2 0xB1D JUMPI PUSH2 0xB1C PUSH2 0x1DF3 JUMP JUMPDEST JUMPDEST SWAP1 POP PUSH1 0x20 MUL ADD CALLDATALOAD GT PUSH2 0xB64 JUMPI PUSH1 0x40 MLOAD PUSH32 0x8C379A000000000000000000000000000000000000000000000000000000000 DUP2 MSTORE PUSH1 0x4 ADD PUSH2 0xB5B SWAP1 PUSH2 0x1C7C JUMP JUMPDEST PUSH1 0x40 MLOAD DUP1 SWAP2 SUB SWAP1 REVERT JUMPDEST PUSH2 0xBF6 DUP7 DUP7 DUP4 DUP2 DUP2 LT PUSH2 0xB7A JUMPI PUSH2 0xB79 PUSH2 0x1DF3 JUMP JUMPDEST JUMPDEST SWAP1 POP PUSH1 0x20 MUL ADD PUSH1 0x20 DUP2 ADD SWAP1 PUSH2 0xB8F SWAP2 SWAP1 PUSH2 0x1ACA JUMP JUMPDEST DUP10 DUP10 DUP5 DUP2 DUP2 LT PUSH2 0xBA2 JUMPI PUSH2 0xBA1 PUSH2 0x1DF3 JUMP JUMPDEST JUMPDEST SWAP1 POP PUSH1 0x20 MUL ADD CALLDATALOAD DUP13 DUP13 DUP6 DUP2 DUP2 LT PUSH2 0xBBC JUMPI PUSH2 0xBBB PUSH2 0x1DF3 JUMP JUMPDEST JUMPDEST SWAP1 POP PUSH1 0x20 MUL ADD PUSH1 0x20 DUP2 ADD SWAP1 PUSH2 0xBD1 SWAP2 SWAP1 PUSH2 0x1ACA JUMP JUMPDEST PUSH20 0xFFFFFFFFFFFFFFFFFFFFFFFFFFFFFFFFFFFFFFFF AND PUSH2 0xFD8 SWAP1 SWAP3 SWAP2 SWAP1 PUSH4 0xFFFFFFFF AND JUMP JUMPDEST DUP6 DUP6 DUP3 DUP2 DUP2 LT PUSH2 0xC09 JUMPI PUSH2 0xC08 PUSH2 0x1DF3 JUMP JUMPDEST JUMPDEST SWAP1 POP PUSH1 0x20 MUL ADD PUSH1 0x20 DUP2 ADD SWAP1 PUSH2 0xC1E SWAP2 SWAP1 PUSH2 0x1ACA JUMP JUMPDEST PUSH20 0xFFFFFFFFFFFFFFFFFFFFFFFFFFFFFFFFFFFFFFFF AND DUP11 DUP11 DUP4 DUP2 DUP2 LT PUSH2 0xC47 JUMPI PUSH2 0xC46 PUSH2 0x1DF3 JUMP JUMPDEST JUMPDEST SWAP1 POP PUSH1 0x20 MUL ADD PUSH1 0x20 DUP2 ADD SWAP1 PUSH2 0xC5C SWAP2 SWAP1 PUSH2 0x1ACA JUMP JUMPDEST PUSH20 0xFFFFFFFFFFFFFFFFFFFFFFFFFFFFFFFFFFFFFFFF AND PUSH32 0xA4C6CD4BFEFCC09490A00CF1F79A859DE6F34C1DA3186BB65D5102B1B8445547 DUP11 DUP11 DUP6 DUP2 DUP2 LT PUSH2 0xCA6 JUMPI PUSH2 0xCA5 PUSH2 0x1DF3 JUMP JUMPDEST JUMPDEST SWAP1 POP PUSH1 0x20 MUL ADD CALLDATALOAD DUP8 DUP8 DUP7 DUP2 DUP2 LT PUSH2 0xCC0 JUMPI PUSH2 0xCBF PUSH2 0x1DF3 JUMP JUMPDEST JUMPDEST SWAP1 POP PUSH1 0x20 MUL DUP2 ADD SWAP1 PUSH2 0xCD2 SWAP2 SWAP1 PUSH2 0x1E31 JUMP JUMPDEST PUSH1 0x40 MLOAD PUSH2 0xCE1 SWAP4 SWAP3 SWAP2 SWAP1 PUSH2 0x1CE9 JUMP JUMPDEST PUSH1 0x40 MLOAD DUP1 SWAP2 SUB SWAP1 LOG3 DUP1 DUP1 PUSH2 0xCF4 SWAP1 PUSH2 0x1EC3 JUMP JUMPDEST SWAP2 POP POP PUSH2 0xAFD JUMP JUMPDEST POP POP POP POP POP POP POP POP POP POP JUMP JUMPDEST PUSH1 0x0 PUSH32 0x1FFC9A700000000000000000000000000000000000000000000000000000000 PUSH28 0xFFFFFFFFFFFFFFFFFFFFFFFFFFFFFFFFFFFFFFFFFFFFFFFFFFFFFFFF NOT AND DUP3 PUSH28 0xFFFFFFFFFFFFFFFFFFFFFFFFFFFFFFFFFFFFFFFFFFFFFFFFFFFFFFFF NOT AND EQ SWAP1 POP SWAP2 SWAP1 POP JUMP JUMPDEST PUSH2 0xD83 DUP2 PUSH2 0xD7E PUSH2 0xE66 JUMP JUMPDEST PUSH2 0x105E JUMP JUMPDEST POP JUMP JUMPDEST PUSH2 0xD90 DUP3 DUP3 PUSH2 0x98C JUMP JUMPDEST PUSH2 0xE62 JUMPI PUSH1 0x1 PUSH1 0x0 DUP1 DUP5 DUP2 MSTORE PUSH1 0x20 ADD SWAP1 DUP2 MSTORE PUSH1 0x20 ADD PUSH1 0x0 KECCAK256 PUSH1 0x0 ADD PUSH1 0x0 DUP4 PUSH20 0xFFFFFFFFFFFFFFFFFFFFFFFFFFFFFFFFFFFFFFFF AND PUSH20 0xFFFFFFFFFFFFFFFFFFFFFFFFFFFFFFFFFFFFFFFF AND DUP2 MSTORE PUSH1 0x20 ADD SWAP1 DUP2 MSTORE PUSH1 0x20 ADD PUSH1 0x0 KECCAK256 PUSH1 0x0 PUSH2 0x100 EXP DUP2 SLOAD DUP2 PUSH1 0xFF MUL NOT AND SWAP1 DUP4 ISZERO ISZERO MUL OR SWAP1 SSTORE POP PUSH2 0xE07 PUSH2 0xE66 JUMP JUMPDEST PUSH20 0xFFFFFFFFFFFFFFFFFFFFFFFFFFFFFFFFFFFFFFFF AND DUP2 PUSH20 0xFFFFFFFFFFFFFFFFFFFFFFFFFFFFFFFFFFFFFFFF AND DUP4 PUSH32 0x2F8788117E7EFF1D82E926EC794901D17C78024A50270940304540A733656F0D PUSH1 0x40 MLOAD PUSH1 0x40 MLOAD DUP1 SWAP2 SUB SWAP1 LOG4 JUMPDEST POP POP JUMP JUMPDEST PUSH1 0x0 CALLER SWAP1 POP SWAP1 JUMP JUMPDEST PUSH2 0xE78 DUP3 DUP3 PUSH2 0x98C JUMP JUMPDEST ISZERO PUSH2 0xF4B JUMPI PUSH1 0x0 DUP1 PUSH1 0x0 DUP5 DUP2 MSTORE PUSH1 0x20 ADD SWAP1 DUP2 MSTORE PUSH1 0x20 ADD PUSH1 0x0 KECCAK256 PUSH1 0x0 ADD PUSH1 0x0 DUP4 PUSH20 0xFFFFFFFFFFFFFFFFFFFFFFFFFFFFFFFFFFFFFFFF AND PUSH20 0xFFFFFFFFFFFFFFFFFFFFFFFFFFFFFFFFFFFFFFFF AND DUP2 MSTORE PUSH1 0x20 ADD SWAP1 DUP2 MSTORE PUSH1 0x20 ADD PUSH1 0x0 KECCAK256 PUSH1 0x0 PUSH2 0x100 EXP DUP2 SLOAD DUP2 PUSH1 0xFF MUL NOT AND SWAP1 DUP4 ISZERO ISZERO MUL OR SWAP1 SSTORE POP PUSH2 0xEF0 PUSH2 0xE66 JUMP JUMPDEST PUSH20 0xFFFFFFFFFFFFFFFFFFFFFFFFFFFFFFFFFFFFFFFF AND DUP2 PUSH20 0xFFFFFFFFFFFFFFFFFFFFFFFFFFFFFFFFFFFFFFFF AND DUP4 PUSH32 0xF6391F5C32D9C69D2A47EA670B442974B53935D1EDC7FD64EB21E047A839171B PUSH1 0x40 MLOAD PUSH1 0x40 MLOAD DUP1 SWAP2 SUB SWAP1 LOG4 JUMPDEST POP POP JUMP JUMPDEST PUSH2 0xFD2 DUP5 PUSH4 0x23B872DD PUSH1 0xE0 SHL DUP6 DUP6 DUP6 PUSH1 0x40 MLOAD PUSH1 0x24 ADD PUSH2 0xF70 SWAP4 SWAP3 SWAP2 SWAP1 PUSH2 0x1FE3 JUMP JUMPDEST PUSH1 0x40 MLOAD PUSH1 0x20 DUP2 DUP4 SUB SUB DUP2 MSTORE SWAP1 PUSH1 0x40 MSTORE SWAP1 PUSH28 0xFFFFFFFFFFFFFFFFFFFFFFFFFFFFFFFFFFFFFFFFFFFFFFFFFFFFFFFF NOT AND PUSH1 0x20 DUP3 ADD DUP1 MLOAD PUSH28 0xFFFFFFFFFFFFFFFFFFFFFFFFFFFFFFFFFFFFFFFFFFFFFFFFFFFFFFFF DUP4 DUP2 DUP4 AND OR DUP4 MSTORE POP POP POP POP PUSH2 0x10E3 JUMP JUMPDEST POP POP POP POP JUMP JUMPDEST PUSH2 0x1059 DUP4 PUSH4 0xA9059CBB PUSH1 0xE0 SHL DUP5 DUP5 PUSH1 0x40 MLOAD PUSH1 0x24 ADD PUSH2 0xFF7 SWAP3 SWAP2 SWAP1 PUSH2 0x201A JUMP JUMPDEST PUSH1 0x40 MLOAD PUSH1 0x20 DUP2 DUP4 SUB SUB DUP2 MSTORE SWAP1 PUSH1 0x40 MSTORE SWAP1 PUSH28 0xFFFFFFFFFFFFFFFFFFFFFFFFFFFFFFFFFFFFFFFFFFFFFFFFFFFFFFFF NOT AND PUSH1 0x20 DUP3 ADD DUP1 MLOAD PUSH28 0xFFFFFFFFFFFFFFFFFFFFFFFFFFFFFFFFFFFFFFFFFFFFFFFFFFFFFFFF DUP4 DUP2 DUP4 AND OR DUP4 MSTORE POP POP POP POP PUSH2 0x10E3 JUMP JUMPDEST POP POP POP JUMP JUMPDEST PUSH2 0x1068 DUP3 DUP3 PUSH2 0x98C JUMP JUMPDEST PUSH2 0x10DF JUMPI PUSH2 0x1075 DUP2 PUSH2 0x11AA JUMP JUMPDEST PUSH2 0x1083 DUP4 PUSH1 0x0 SHR PUSH1 0x20 PUSH2 0x11D7 JUMP JUMPDEST PUSH1 0x40 MLOAD PUSH1 0x20 ADD PUSH2 0x1094 SWAP3 SWAP2 SWAP1 PUSH2 0x214C JUMP JUMPDEST PUSH1 0x40 MLOAD PUSH1 0x20 DUP2 DUP4 SUB SUB DUP2 MSTORE SWAP1 PUSH1 0x40 MSTORE PUSH1 0x40 MLOAD PUSH32 0x8C379A000000000000000000000000000000000000000000000000000000000 DUP2 MSTORE PUSH1 0x4 ADD PUSH2 0x10D6 SWAP2 SWAP1 PUSH2 0x21BF JUMP JUMPDEST PUSH1 0x40 MLOAD DUP1 SWAP2 SUB SWAP1 REVERT JUMPDEST POP POP JUMP JUMPDEST PUSH1 0x0 PUSH2 0x1145 DUP3 PUSH1 0x40 MLOAD DUP1 PUSH1 0x40 ADD PUSH1 0x40 MSTORE DUP1 PUSH1 0x20 DUP2 MSTORE PUSH1 0x20 ADD PUSH32 0x5361666545524332303A206C6F772D6C6576656C2063616C6C206661696C6564 DUP2 MSTORE POP DUP6 PUSH20 0xFFFFFFFFFFFFFFFFFFFFFFFFFFFFFFFFFFFFFFFF AND PUSH2 0x1413 SWAP1 SWAP3 SWAP2 SWAP1 PUSH4 0xFFFFFFFF AND JUMP JUMPDEST SWAP1 POP PUSH1 0x0 DUP2 MLOAD GT ISZERO PUSH2 0x11A5 JUMPI DUP1 DUP1 PUSH1 0x20 ADD SWAP1 MLOAD DUP2 ADD SWAP1 PUSH2 0x1165 SWAP2 SWAP1 PUSH2 0x220D JUMP JUMPDEST PUSH2 0x11A4 JUMPI PUSH1 0x40 MLOAD PUSH32 0x8C379A000000000000000000000000000000000000000000000000000000000 DUP2 MSTORE PUSH1 0x4 ADD PUSH2 0x119B SWAP1 PUSH2 0x22AC JUMP JUMPDEST PUSH1 0x40 MLOAD DUP1 SWAP2 SUB SWAP1 REVERT JUMPDEST JUMPDEST POP POP POP JUMP JUMPDEST PUSH1 0x60 PUSH2 0x11D0 DUP3 PUSH20 0xFFFFFFFFFFFFFFFFFFFFFFFFFFFFFFFFFFFFFFFF AND PUSH1 0x14 PUSH1 0xFF AND PUSH2 0x11D7 JUMP JUMPDEST SWAP1 POP SWAP2 SWAP1 POP JUMP JUMPDEST PUSH1 0x60 PUSH1 0x0 PUSH1 0x2 DUP4 PUSH1 0x2 PUSH2 0x11EA SWAP2 SWAP1 PUSH2 0x22CC JUMP JUMPDEST PUSH2 0x11F4 SWAP2 SWAP1 PUSH2 0x230E JUMP JUMPDEST PUSH8 0xFFFFFFFFFFFFFFFF DUP2 GT ISZERO PUSH2 0x120D JUMPI PUSH2 0x120C PUSH2 0x2342 JUMP JUMPDEST JUMPDEST PUSH1 0x40 MLOAD SWAP1 DUP1 DUP3 MSTORE DUP1 PUSH1 0x1F ADD PUSH1 0x1F NOT AND PUSH1 0x20 ADD DUP3 ADD PUSH1 0x40 MSTORE DUP1 ISZERO PUSH2 0x123F JUMPI DUP2 PUSH1 0x20 ADD PUSH1 0x1 DUP3 MUL DUP1 CALLDATASIZE DUP4 CALLDATACOPY DUP1 DUP3 ADD SWAP2 POP POP SWAP1 POP JUMPDEST POP SWAP1 POP PUSH32 0x3000000000000000000000000000000000000000000000000000000000000000 DUP2 PUSH1 0x0 DUP2 MLOAD DUP2 LT PUSH2 0x1277 JUMPI PUSH2 0x1276 PUSH2 0x1DF3 JUMP JUMPDEST JUMPDEST PUSH1 0x20 ADD ADD SWAP1 PUSH31 0xFFFFFFFFFFFFFFFFFFFFFFFFFFFFFFFFFFFFFFFFFFFFFFFFFFFFFFFFFFFFFF NOT AND SWAP1 DUP2 PUSH1 0x0 BYTE SWAP1 MSTORE8 POP PUSH32 0x7800000000000000000000000000000000000000000000000000000000000000 DUP2 PUSH1 0x1 DUP2 MLOAD DUP2 LT PUSH2 0x12DB JUMPI PUSH2 0x12DA PUSH2 0x1DF3 JUMP JUMPDEST JUMPDEST PUSH1 0x20 ADD ADD SWAP1 PUSH31 0xFFFFFFFFFFFFFFFFFFFFFFFFFFFFFFFFFFFFFFFFFFFFFFFFFFFFFFFFFFFFFF NOT AND SWAP1 DUP2 PUSH1 0x0 BYTE SWAP1 MSTORE8 POP PUSH1 0x0 PUSH1 0x1 DUP5 PUSH1 0x2 PUSH2 0x131B SWAP2 SWAP1 PUSH2 0x22CC JUMP JUMPDEST PUSH2 0x1325 SWAP2 SWAP1 PUSH2 0x230E JUMP JUMPDEST SWAP1 POP JUMPDEST PUSH1 0x1 DUP2 GT ISZERO PUSH2 0x13C5 JUMPI PUSH32 0x3031323334353637383961626364656600000000000000000000000000000000 PUSH1 0xF DUP7 AND PUSH1 0x10 DUP2 LT PUSH2 0x1367 JUMPI PUSH2 0x1366 PUSH2 0x1DF3 JUMP JUMPDEST JUMPDEST BYTE PUSH1 0xF8 SHL DUP3 DUP3 DUP2 MLOAD DUP2 LT PUSH2 0x137E JUMPI PUSH2 0x137D PUSH2 0x1DF3 JUMP JUMPDEST JUMPDEST PUSH1 0x20 ADD ADD SWAP1 PUSH31 0xFFFFFFFFFFFFFFFFFFFFFFFFFFFFFFFFFFFFFFFFFFFFFFFFFFFFFFFFFFFFFF NOT AND SWAP1 DUP2 PUSH1 0x0 BYTE SWAP1 MSTORE8 POP PUSH1 0x4 DUP6 SWAP1 SHR SWAP5 POP DUP1 PUSH2 0x13BE SWAP1 PUSH2 0x2371 JUMP JUMPDEST SWAP1 POP PUSH2 0x1328 JUMP JUMPDEST POP PUSH1 0x0 DUP5 EQ PUSH2 0x1409 JUMPI PUSH1 0x40 MLOAD PUSH32 0x8C379A000000000000000000000000000000000000000000000000000000000 DUP2 MSTORE PUSH1 0x4 ADD PUSH2 0x1400 SWAP1 PUSH2 0x23E6 JUMP JUMPDEST PUSH1 0x40 MLOAD DUP1 SWAP2 SUB SWAP1 REVERT JUMPDEST DUP1 SWAP2 POP POP SWAP3 SWAP2 POP POP JUMP JUMPDEST PUSH1 0x60 PUSH2 0x1422 DUP5 DUP5 PUSH1 0x0 DUP6 PUSH2 0x142B JUMP JUMPDEST SWAP1 POP SWAP4 SWAP3 POP POP POP JUMP JUMPDEST PUSH1 0x60 DUP3 SELFBALANCE LT ISZERO PUSH2 0x1470 JUMPI PUSH1 0x40 MLOAD PUSH32 0x8C379A000000000000000000000000000000000000000000000000000000000 DUP2 MSTORE PUSH1 0x4 ADD PUSH2 0x1467 SWAP1 PUSH2 0x2478 JUMP JUMPDEST PUSH1 0x40 MLOAD DUP1 SWAP2 SUB SWAP1 REVERT JUMPDEST PUSH1 0x0 DUP1 DUP7 PUSH20 0xFFFFFFFFFFFFFFFFFFFFFFFFFFFFFFFFFFFFFFFF AND DUP6 DUP8 PUSH1 0x40 MLOAD PUSH2 0x1499 SWAP2 SWAP1 PUSH2 0x24DF JUMP JUMPDEST PUSH1 0x0 PUSH1 0x40 MLOAD DUP1 DUP4 SUB DUP2 DUP6 DUP8 GAS CALL SWAP3 POP POP POP RETURNDATASIZE DUP1 PUSH1 0x0 DUP2 EQ PUSH2 0x14D6 JUMPI PUSH1 0x40 MLOAD SWAP2 POP PUSH1 0x1F NOT PUSH1 0x3F RETURNDATASIZE ADD AND DUP3 ADD PUSH1 0x40 MSTORE RETURNDATASIZE DUP3 MSTORE RETURNDATASIZE PUSH1 0x0 PUSH1 0x20 DUP5 ADD RETURNDATACOPY PUSH2 0x14DB JUMP JUMPDEST PUSH1 0x60 SWAP2 POP JUMPDEST POP SWAP2 POP SWAP2 POP PUSH2 0x14EC DUP8 DUP4 DUP4 DUP8 PUSH2 0x14F8 JUMP JUMPDEST SWAP3 POP POP POP SWAP5 SWAP4 POP POP POP POP JUMP JUMPDEST PUSH1 0x60 DUP4 ISZERO PUSH2 0x155A JUMPI PUSH1 0x0 DUP4 MLOAD SUB PUSH2 0x1552 JUMPI PUSH2 0x1512 DUP6 PUSH2 0x156D JUMP JUMPDEST PUSH2 0x1551 JUMPI PUSH1 0x40 MLOAD PUSH32 0x8C379A000000000000000000000000000000000000000000000000000000000 DUP2 MSTORE PUSH1 0x4 ADD PUSH2 0x1548 SWAP1 PUSH2 0x2542 JUMP JUMPDEST PUSH1 0x40 MLOAD DUP1 SWAP2 SUB SWAP1 REVERT JUMPDEST JUMPDEST DUP3 SWAP1 POP PUSH2 0x1565 JUMP JUMPDEST PUSH2 0x1564 DUP4 DUP4 PUSH2 0x1590 JUMP JUMPDEST JUMPDEST SWAP5 SWAP4 POP POP POP POP JUMP JUMPDEST PUSH1 0x0 DUP1 DUP3 PUSH20 0xFFFFFFFFFFFFFFFFFFFFFFFFFFFFFFFFFFFFFFFF AND EXTCODESIZE GT SWAP1 POP SWAP2 SWAP1 POP JUMP JUMPDEST PUSH1 0x0 DUP3 MLOAD GT ISZERO PUSH2 0x15A3 JUMPI DUP2 MLOAD DUP1 DUP4 PUSH1 0x20 ADD REVERT JUMPDEST DUP1 PUSH1 0x40 MLOAD PUSH32 0x8C379A000000000000000000000000000000000000000000000000000000000 DUP2 MSTORE PUSH1 0x4 ADD PUSH2 0x15D7 SWAP2 SWAP1 PUSH2 0x21BF JUMP JUMPDEST PUSH1 0x40 MLOAD DUP1 SWAP2 SUB SWAP1 REVERT JUMPDEST PUSH1 0x0 DUP1 REVERT JUMPDEST PUSH1 0x0 DUP1 REVERT JUMPDEST PUSH1 0x0 PUSH32 0xFFFFFFFF00000000000000000000000000000000000000000000000000000000 DUP3 AND SWAP1 POP SWAP2 SWAP1 POP JUMP JUMPDEST PUSH2 0x161F DUP2 PUSH2 0x15EA JUMP JUMPDEST DUP2 EQ PUSH2 0x162A JUMPI PUSH1 0x0 DUP1 REVERT JUMPDEST POP JUMP JUMPDEST PUSH1 0x0 DUP2 CALLDATALOAD SWAP1 POP PUSH2 0x163C DUP2 PUSH2 0x1616 JUMP JUMPDEST SWAP3 SWAP2 POP POP JUMP JUMPDEST PUSH1 0x0 PUSH1 0x20 DUP3 DUP5 SUB SLT ISZERO PUSH2 0x1658 JUMPI PUSH2 0x1657 PUSH2 0x15E0 JUMP JUMPDEST JUMPDEST PUSH1 0x0 PUSH2 0x1666 DUP5 DUP3 DUP6 ADD PUSH2 0x162D JUMP JUMPDEST SWAP2 POP POP SWAP3 SWAP2 POP POP JUMP JUMPDEST PUSH1 0x0 DUP2 ISZERO ISZERO SWAP1 POP SWAP2 SWAP1 POP JUMP JUMPDEST PUSH2 0x1684 DUP2 PUSH2 0x166F JUMP JUMPDEST DUP3 MSTORE POP POP JUMP JUMPDEST PUSH1 0x0 PUSH1 0x20 DUP3 ADD SWAP1 POP PUSH2 0x169F PUSH1 0x0 DUP4 ADD DUP5 PUSH2 0x167B JUMP JUMPDEST SWAP3 SWAP2 POP POP JUMP JUMPDEST PUSH1 0x0 DUP2 SWAP1 POP SWAP2 SWAP1 POP JUMP JUMPDEST PUSH2 0x16B8 DUP2 PUSH2 0x16A5 JUMP JUMPDEST DUP2 EQ PUSH2 0x16C3 JUMPI PUSH1 0x0 DUP1 REVERT JUMPDEST POP JUMP JUMPDEST PUSH1 0x0 DUP2 CALLDATALOAD SWAP1 POP PUSH2 0x16D5 DUP2 PUSH2 0x16AF JUMP JUMPDEST SWAP3 SWAP2 POP POP JUMP JUMPDEST PUSH1 0x0 PUSH1 0x20 DUP3 DUP5 SUB SLT ISZERO PUSH2 0x16F1 JUMPI PUSH2 0x16F0 PUSH2 0x15E0 JUMP JUMPDEST JUMPDEST PUSH1 0x0 PUSH2 0x16FF DUP5 DUP3 DUP6 ADD PUSH2 0x16C6 JUMP JUMPDEST SWAP2 POP POP SWAP3 SWAP2 POP POP JUMP JUMPDEST PUSH2 0x1711 DUP2 PUSH2 0x16A5 JUMP JUMPDEST DUP3 MSTORE POP POP JUMP JUMPDEST PUSH1 0x0 PUSH1 0x20 DUP3 ADD SWAP1 POP PUSH2 0x172C PUSH1 0x0 DUP4 ADD DUP5 PUSH2 0x1708 JUMP JUMPDEST SWAP3 SWAP2 POP POP JUMP JUMPDEST PUSH1 0x0 PUSH20 0xFFFFFFFFFFFFFFFFFFFFFFFFFFFFFFFFFFFFFFFF DUP3 AND SWAP1 POP SWAP2 SWAP1 POP JUMP JUMPDEST PUSH1 0x0 PUSH2 0x175D DUP3 PUSH2 0x1732 JUMP JUMPDEST SWAP1 POP SWAP2 SWAP1 POP JUMP JUMPDEST PUSH2 0x176D DUP2 PUSH2 0x1752 JUMP JUMPDEST DUP2 EQ PUSH2 0x1778 JUMPI PUSH1 0x0 DUP1 REVERT JUMPDEST POP JUMP JUMPDEST PUSH1 0x0 DUP2 CALLDATALOAD SWAP1 POP PUSH2 0x178A DUP2 PUSH2 0x1764 JUMP JUMPDEST SWAP3 SWAP2 POP POP JUMP JUMPDEST PUSH1 0x0 DUP1 PUSH1 0x40 DUP4 DUP6 SUB SLT ISZERO PUSH2 0x17A7 JUMPI PUSH2 0x17A6 PUSH2 0x15E0 JUMP JUMPDEST JUMPDEST PUSH1 0x0 PUSH2 0x17B5 DUP6 DUP3 DUP7 ADD PUSH2 0x16C6 JUMP JUMPDEST SWAP3 POP POP PUSH1 0x20 PUSH2 0x17C6 DUP6 DUP3 DUP7 ADD PUSH2 0x177B JUMP JUMPDEST SWAP2 POP POP SWAP3 POP SWAP3 SWAP1 POP JUMP JUMPDEST PUSH1 0x0 DUP2 SWAP1 POP SWAP2 SWAP1 POP JUMP JUMPDEST PUSH2 0x17E3 DUP2 PUSH2 0x17D0 JUMP JUMPDEST DUP2 EQ PUSH2 0x17EE JUMPI PUSH1 0x0 DUP1 REVERT JUMPDEST POP JUMP JUMPDEST PUSH1 0x0 DUP2 CALLDATALOAD SWAP1 POP PUSH2 0x1800 DUP2 PUSH2 0x17DA JUMP JUMPDEST SWAP3 SWAP2 POP POP JUMP JUMPDEST PUSH1 0x0 DUP1 REVERT JUMPDEST PUSH1 0x0 DUP1 REVERT JUMPDEST PUSH1 0x0 DUP1 REVERT JUMPDEST PUSH1 0x0 DUP1 DUP4 PUSH1 0x1F DUP5 ADD SLT PUSH2 0x182B JUMPI PUSH2 0x182A PUSH2 0x1806 JUMP JUMPDEST JUMPDEST DUP3 CALLDATALOAD SWAP1 POP PUSH8 0xFFFFFFFFFFFFFFFF DUP2 GT ISZERO PUSH2 0x1848 JUMPI PUSH2 0x1847 PUSH2 0x180B JUMP JUMPDEST JUMPDEST PUSH1 0x20 DUP4 ADD SWAP2 POP DUP4 PUSH1 0x1 DUP3 MUL DUP4 ADD GT ISZERO PUSH2 0x1864 JUMPI PUSH2 0x1863 PUSH2 0x1810 JUMP JUMPDEST JUMPDEST SWAP3 POP SWAP3 SWAP1 POP JUMP JUMPDEST PUSH1 0x0 DUP1 PUSH1 0x0 DUP1 PUSH1 0x60 DUP6 DUP8 SUB SLT ISZERO PUSH2 0x1885 JUMPI PUSH2 0x1884 PUSH2 0x15E0 JUMP JUMPDEST JUMPDEST PUSH1 0x0 PUSH2 0x1893 DUP8 DUP3 DUP9 ADD PUSH2 0x177B JUMP JUMPDEST SWAP5 POP POP PUSH1 0x20 PUSH2 0x18A4 DUP8 DUP3 DUP9 ADD PUSH2 0x17F1 JUMP JUMPDEST SWAP4 POP POP PUSH1 0x40 DUP6 ADD CALLDATALOAD PUSH8 0xFFFFFFFFFFFFFFFF DUP2 GT ISZERO PUSH2 0x18C5 JUMPI PUSH2 0x18C4 PUSH2 0x15E5 JUMP JUMPDEST JUMPDEST PUSH2 0x18D1 DUP8 DUP3 DUP9 ADD PUSH2 0x1815 JUMP JUMPDEST SWAP3 POP SWAP3 POP POP SWAP3 SWAP6 SWAP2 SWAP5 POP SWAP3 POP JUMP JUMPDEST PUSH1 0x0 DUP1 DUP4 PUSH1 0x1F DUP5 ADD SLT PUSH2 0x18F5 JUMPI PUSH2 0x18F4 PUSH2 0x1806 JUMP JUMPDEST JUMPDEST DUP3 CALLDATALOAD SWAP1 POP PUSH8 0xFFFFFFFFFFFFFFFF DUP2 GT ISZERO PUSH2 0x1912 JUMPI PUSH2 0x1911 PUSH2 0x180B JUMP JUMPDEST JUMPDEST PUSH1 0x20 DUP4 ADD SWAP2 POP DUP4 PUSH1 0x20 DUP3 MUL DUP4 ADD GT ISZERO PUSH2 0x192E JUMPI PUSH2 0x192D PUSH2 0x1810 JUMP JUMPDEST JUMPDEST SWAP3 POP SWAP3 SWAP1 POP JUMP JUMPDEST PUSH1 0x0 DUP1 DUP4 PUSH1 0x1F DUP5 ADD SLT PUSH2 0x194B JUMPI PUSH2 0x194A PUSH2 0x1806 JUMP JUMPDEST JUMPDEST DUP3 CALLDATALOAD SWAP1 POP PUSH8 0xFFFFFFFFFFFFFFFF DUP2 GT ISZERO PUSH2 0x1968 JUMPI PUSH2 0x1967 PUSH2 0x180B JUMP JUMPDEST JUMPDEST PUSH1 0x20 DUP4 ADD SWAP2 POP DUP4 PUSH1 0x20 DUP3 MUL DUP4 ADD GT ISZERO PUSH2 0x1984 JUMPI PUSH2 0x1983 PUSH2 0x1810 JUMP JUMPDEST JUMPDEST SWAP3 POP SWAP3 SWAP1 POP JUMP JUMPDEST PUSH1 0x0 DUP1 DUP4 PUSH1 0x1F DUP5 ADD SLT PUSH2 0x19A1 JUMPI PUSH2 0x19A0 PUSH2 0x1806 JUMP JUMPDEST JUMPDEST DUP3 CALLDATALOAD SWAP1 POP PUSH8 0xFFFFFFFFFFFFFFFF DUP2 GT ISZERO PUSH2 0x19BE JUMPI PUSH2 0x19BD PUSH2 0x180B JUMP JUMPDEST JUMPDEST PUSH1 0x20 DUP4 ADD SWAP2 POP DUP4 PUSH1 0x20 DUP3 MUL DUP4 ADD GT ISZERO PUSH2 0x19DA JUMPI PUSH2 0x19D9 PUSH2 0x1810 JUMP JUMPDEST JUMPDEST SWAP3 POP SWAP3 SWAP1 POP JUMP JUMPDEST PUSH1 0x0 DUP1 PUSH1 0x0 DUP1 PUSH1 0x0 DUP1 PUSH1 0x0 DUP1 PUSH1 0x80 DUP10 DUP12 SUB SLT ISZERO PUSH2 0x1A01 JUMPI PUSH2 0x1A00 PUSH2 0x15E0 JUMP JUMPDEST JUMPDEST PUSH1 0x0 DUP10 ADD CALLDATALOAD PUSH8 0xFFFFFFFFFFFFFFFF DUP2 GT ISZERO PUSH2 0x1A1F JUMPI PUSH2 0x1A1E PUSH2 0x15E5 JUMP JUMPDEST JUMPDEST PUSH2 0x1A2B DUP12 DUP3 DUP13 ADD PUSH2 0x18DF JUMP JUMPDEST SWAP9 POP SWAP9 POP POP PUSH1 0x20 DUP10 ADD CALLDATALOAD PUSH8 0xFFFFFFFFFFFFFFFF DUP2 GT ISZERO PUSH2 0x1A4E JUMPI PUSH2 0x1A4D PUSH2 0x15E5 JUMP JUMPDEST JUMPDEST PUSH2 0x1A5A DUP12 DUP3 DUP13 ADD PUSH2 0x1935 JUMP JUMPDEST SWAP7 POP SWAP7 POP POP PUSH1 0x40 DUP10 ADD CALLDATALOAD PUSH8 0xFFFFFFFFFFFFFFFF DUP2 GT ISZERO PUSH2 0x1A7D JUMPI PUSH2 0x1A7C PUSH2 0x15E5 JUMP JUMPDEST JUMPDEST PUSH2 0x1A89 DUP12 DUP3 DUP13 ADD PUSH2 0x18DF JUMP JUMPDEST SWAP5 POP SWAP5 POP POP PUSH1 0x60 DUP10 ADD CALLDATALOAD PUSH8 0xFFFFFFFFFFFFFFFF DUP2 GT ISZERO PUSH2 0x1AAC JUMPI PUSH2 0x1AAB PUSH2 0x15E5 JUMP JUMPDEST JUMPDEST PUSH2 0x1AB8 DUP12 DUP3 DUP13 ADD PUSH2 0x198B JUMP JUMPDEST SWAP3 POP SWAP3 POP POP SWAP3 SWAP6 SWAP9 POP SWAP3 SWAP6 SWAP9 SWAP1 SWAP4 SWAP7 POP JUMP JUMPDEST PUSH1 0x0 PUSH1 0x20 DUP3 DUP5 SUB SLT ISZERO PUSH2 0x1AE0 JUMPI PUSH2 0x1ADF PUSH2 0x15E0 JUMP JUMPDEST JUMPDEST PUSH1 0x0 PUSH2 0x1AEE DUP5 DUP3 DUP6 ADD PUSH2 0x177B JUMP JUMPDEST SWAP2 POP POP SWAP3 SWAP2 POP POP JUMP JUMPDEST PUSH2 0x1B00 DUP2 PUSH2 0x17D0 JUMP JUMPDEST DUP3 MSTORE POP POP JUMP JUMPDEST PUSH1 0x0 PUSH1 0x20 DUP3 ADD SWAP1 POP PUSH2 0x1B1B PUSH1 0x0 DUP4 ADD DUP5 PUSH2 0x1AF7 JUMP JUMPDEST SWAP3 SWAP2 POP POP JUMP JUMPDEST PUSH1 0x0 DUP3 DUP3 MSTORE PUSH1 0x20 DUP3 ADD SWAP1 POP SWAP3 SWAP2 POP POP JUMP JUMPDEST PUSH32 0x416363657373436F6E74726F6C3A2063616E206F6E6C792072656E6F756E6365 PUSH1 0x0 DUP3 ADD MSTORE PUSH32 0x20726F6C657320666F722073656C660000000000000000000000000000000000 PUSH1 0x20 DUP3 ADD MSTORE POP JUMP JUMPDEST PUSH1 0x0 PUSH2 0x1B8E PUSH1 0x2F DUP4 PUSH2 0x1B21 JUMP JUMPDEST SWAP2 POP PUSH2 0x1B99 DUP3 PUSH2 0x1B32 JUMP JUMPDEST PUSH1 0x40 DUP3 ADD SWAP1 POP SWAP2 SWAP1 POP JUMP JUMPDEST PUSH1 0x0 PUSH1 0x20 DUP3 ADD SWAP1 POP DUP2 DUP2 SUB PUSH1 0x0 DUP4 ADD MSTORE PUSH2 0x1BBD DUP2 PUSH2 0x1B81 JUMP JUMPDEST SWAP1 POP SWAP2 SWAP1 POP JUMP JUMPDEST PUSH32 0x63757272656E6379206661696C00000000000000000000000000000000000000 PUSH1 0x0 DUP3 ADD MSTORE POP JUMP JUMPDEST PUSH1 0x0 PUSH2 0x1BFA PUSH1 0xD DUP4 PUSH2 0x1B21 JUMP JUMPDEST SWAP2 POP PUSH2 0x1C05 DUP3 PUSH2 0x1BC4 JUMP JUMPDEST PUSH1 0x20 DUP3 ADD SWAP1 POP SWAP2 SWAP1 POP JUMP JUMPDEST PUSH1 0x0 PUSH1 0x20 DUP3 ADD SWAP1 POP DUP2 DUP2 SUB PUSH1 0x0 DUP4 ADD MSTORE PUSH2 0x1C29 DUP2 PUSH2 0x1BED JUMP JUMPDEST SWAP1 POP SWAP2 SWAP1 POP JUMP JUMPDEST PUSH32 0x616D6F756E74206661696C000000000000000000000000000000000000000000 PUSH1 0x0 DUP3 ADD MSTORE POP JUMP JUMPDEST PUSH1 0x0 PUSH2 0x1C66 PUSH1 0xB DUP4 PUSH2 0x1B21 JUMP JUMPDEST SWAP2 POP PUSH2 0x1C71 DUP3 PUSH2 0x1C30 JUMP JUMPDEST PUSH1 0x20 DUP3 ADD SWAP1 POP SWAP2 SWAP1 POP JUMP JUMPDEST PUSH1 0x0 PUSH1 0x20 DUP3 ADD SWAP1 POP DUP2 DUP2 SUB PUSH1 0x0 DUP4 ADD MSTORE PUSH2 0x1C95 DUP2 PUSH2 0x1C59 JUMP JUMPDEST SWAP1 POP SWAP2 SWAP1 POP JUMP JUMPDEST DUP3 DUP2 DUP4 CALLDATACOPY PUSH1 0x0 DUP4 DUP4 ADD MSTORE POP POP POP JUMP JUMPDEST PUSH1 0x0 PUSH1 0x1F NOT PUSH1 0x1F DUP4 ADD AND SWAP1 POP SWAP2 SWAP1 POP JUMP JUMPDEST PUSH1 0x0 PUSH2 0x1CC8 DUP4 DUP6 PUSH2 0x1B21 JUMP JUMPDEST SWAP4 POP PUSH2 0x1CD5 DUP4 DUP6 DUP5 PUSH2 0x1C9C JUMP JUMPDEST PUSH2 0x1CDE DUP4 PUSH2 0x1CAB JUMP JUMPDEST DUP5 ADD SWAP1 POP SWAP4 SWAP3 POP POP POP JUMP JUMPDEST PUSH1 0x0 PUSH1 0x40 DUP3 ADD SWAP1 POP PUSH2 0x1CFE PUSH1 0x0 DUP4 ADD DUP7 PUSH2 0x1AF7 JUMP JUMPDEST DUP2 DUP2 SUB PUSH1 0x20 DUP4 ADD MSTORE PUSH2 0x1D11 DUP2 DUP5 DUP7 PUSH2 0x1CBC JUMP JUMPDEST SWAP1 POP SWAP5 SWAP4 POP POP POP POP JUMP JUMPDEST PUSH32 0x746F206661696C00000000000000000000000000000000000000000000000000 PUSH1 0x0 DUP3 ADD MSTORE POP JUMP JUMPDEST PUSH1 0x0 PUSH2 0x1D51 PUSH1 0x7 DUP4 PUSH2 0x1B21 JUMP JUMPDEST SWAP2 POP PUSH2 0x1D5C DUP3 PUSH2 0x1D1B JUMP JUMPDEST PUSH1 0x20 DUP3 ADD SWAP1 POP SWAP2 SWAP1 POP JUMP JUMPDEST PUSH1 0x0 PUSH1 0x20 DUP3 ADD SWAP1 POP DUP2 DUP2 SUB PUSH1 0x0 DUP4 ADD MSTORE PUSH2 0x1D80 DUP2 PUSH2 0x1D44 JUMP JUMPDEST SWAP1 POP SWAP2 SWAP1 POP JUMP JUMPDEST PUSH32 0x6F726465724964206661696C0000000000000000000000000000000000000000 PUSH1 0x0 DUP3 ADD MSTORE POP JUMP JUMPDEST PUSH1 0x0 PUSH2 0x1DBD PUSH1 0xC DUP4 PUSH2 0x1B21 JUMP JUMPDEST SWAP2 POP PUSH2 0x1DC8 DUP3 PUSH2 0x1D87 JUMP JUMPDEST PUSH1 0x20 DUP3 ADD SWAP1 POP SWAP2 SWAP1 POP JUMP JUMPDEST PUSH1 0x0 PUSH1 0x20 DUP3 ADD SWAP1 POP DUP2 DUP2 SUB PUSH1 0x0 DUP4 ADD MSTORE PUSH2 0x1DEC DUP2 PUSH2 0x1DB0 JUMP JUMPDEST SWAP1 POP SWAP2 SWAP1 POP JUMP JUMPDEST PUSH32 0x4E487B7100000000000000000000000000000000000000000000000000000000 PUSH1 0x0 MSTORE PUSH1 0x32 PUSH1 0x4 MSTORE PUSH1 0x24 PUSH1 0x0 REVERT JUMPDEST PUSH1 0x0 DUP1 REVERT JUMPDEST PUSH1 0x0 DUP1 REVERT JUMPDEST PUSH1 0x0 DUP1 REVERT JUMPDEST PUSH1 0x0 DUP1 DUP4 CALLDATALOAD PUSH1 0x1 PUSH1 0x20 SUB DUP5 CALLDATASIZE SUB SUB DUP2 SLT PUSH2 0x1E4E JUMPI PUSH2 0x1E4D PUSH2 0x1E22 JUMP JUMPDEST JUMPDEST DUP1 DUP5 ADD SWAP3 POP DUP3 CALLDATALOAD SWAP2 POP PUSH8 0xFFFFFFFFFFFFFFFF DUP3 GT ISZERO PUSH2 0x1E70 JUMPI PUSH2 0x1E6F PUSH2 0x1E27 JUMP JUMPDEST JUMPDEST PUSH1 0x20 DUP4 ADD SWAP3 POP PUSH1 0x1 DUP3 MUL CALLDATASIZE SUB DUP4 SGT ISZERO PUSH2 0x1E8C JUMPI PUSH2 0x1E8B PUSH2 0x1E2C JUMP JUMPDEST JUMPDEST POP SWAP3 POP SWAP3 SWAP1 POP JUMP JUMPDEST PUSH32 0x4E487B7100000000000000000000000000000000000000000000000000000000 PUSH1 0x0 MSTORE PUSH1 0x11 PUSH1 0x4 MSTORE PUSH1 0x24 PUSH1 0x0 REVERT JUMPDEST PUSH1 0x0 PUSH2 0x1ECE DUP3 PUSH2 0x17D0 JUMP JUMPDEST SWAP2 POP PUSH32 0xFFFFFFFFFFFFFFFFFFFFFFFFFFFFFFFFFFFFFFFFFFFFFFFFFFFFFFFFFFFFFFFF DUP3 SUB PUSH2 0x1F00 JUMPI PUSH2 0x1EFF PUSH2 0x1E94 JUMP JUMPDEST JUMPDEST PUSH1 0x1 DUP3 ADD SWAP1 POP SWAP2 SWAP1 POP JUMP JUMPDEST PUSH2 0x1F14 DUP2 PUSH2 0x1752 JUMP JUMPDEST DUP3 MSTORE POP POP JUMP JUMPDEST PUSH1 0x0 PUSH1 0x20 DUP3 ADD SWAP1 POP PUSH2 0x1F2F PUSH1 0x0 DUP4 ADD DUP5 PUSH2 0x1F0B JUMP JUMPDEST SWAP3 SWAP2 POP POP JUMP JUMPDEST PUSH1 0x0 DUP2 MLOAD SWAP1 POP PUSH2 0x1F44 DUP2 PUSH2 0x17DA JUMP JUMPDEST SWAP3 SWAP2 POP POP JUMP JUMPDEST PUSH1 0x0 PUSH1 0x20 DUP3 DUP5 SUB SLT ISZERO PUSH2 0x1F60 JUMPI PUSH2 0x1F5F PUSH2 0x15E0 JUMP JUMPDEST JUMPDEST PUSH1 0x0 PUSH2 0x1F6E DUP5 DUP3 DUP6 ADD PUSH2 0x1F35 JUMP JUMPDEST SWAP2 POP POP SWAP3 SWAP2 POP POP JUMP JUMPDEST PUSH32 0x63757272656E6379206F7220616D6F756E74206661696C000000000000000000 PUSH1 0x0 DUP3 ADD MSTORE POP JUMP JUMPDEST PUSH1 0x0 PUSH2 0x1FAD PUSH1 0x17 DUP4 PUSH2 0x1B21 JUMP JUMPDEST SWAP2 POP PUSH2 0x1FB8 DUP3 PUSH2 0x1F77 JUMP JUMPDEST PUSH1 0x20 DUP3 ADD SWAP1 POP SWAP2 SWAP1 POP JUMP JUMPDEST PUSH1 0x0 PUSH1 0x20 DUP3 ADD SWAP1 POP DUP2 DUP2 SUB PUSH1 0x0 DUP4 ADD MSTORE PUSH2 0x1FDC DUP2 PUSH2 0x1FA0 JUMP JUMPDEST SWAP1 POP SWAP2 SWAP1 POP JUMP JUMPDEST PUSH1 0x0 PUSH1 0x60 DUP3 ADD SWAP1 POP PUSH2 0x1FF8 PUSH1 0x0 DUP4 ADD DUP7 PUSH2 0x1F0B JUMP JUMPDEST PUSH2 0x2005 PUSH1 0x20 DUP4 ADD DUP6 PUSH2 0x1F0B JUMP JUMPDEST PUSH2 0x2012 PUSH1 0x40 DUP4 ADD DUP5 PUSH2 0x1AF7 JUMP JUMPDEST SWAP5 SWAP4 POP POP POP POP JUMP JUMPDEST PUSH1 0x0 PUSH1 0x40 DUP3 ADD SWAP1 POP PUSH2 0x202F PUSH1 0x0 DUP4 ADD DUP6 PUSH2 0x1F0B JUMP JUMPDEST PUSH2 0x203C PUSH1 0x20 DUP4 ADD DUP5 PUSH2 0x1AF7 JUMP JUMPDEST SWAP4 SWAP3 POP POP POP JUMP JUMPDEST PUSH1 0x0 DUP2 SWAP1 POP SWAP3 SWAP2 POP POP JUMP JUMPDEST PUSH32 0x416363657373436F6E74726F6C3A206163636F756E7420000000000000000000 PUSH1 0x0 DUP3 ADD MSTORE POP JUMP JUMPDEST PUSH1 0x0 PUSH2 0x2084 PUSH1 0x17 DUP4 PUSH2 0x2043 JUMP JUMPDEST SWAP2 POP PUSH2 0x208F DUP3 PUSH2 0x204E JUMP JUMPDEST PUSH1 0x17 DUP3 ADD SWAP1 POP SWAP2 SWAP1 POP JUMP JUMPDEST PUSH1 0x0 DUP2 MLOAD SWAP1 POP SWAP2 SWAP1 POP JUMP JUMPDEST PUSH1 0x0 JUMPDEST DUP4 DUP2 LT ISZERO PUSH2 0x20C3 JUMPI DUP1 DUP3 ADD MLOAD DUP2 DUP5 ADD MSTORE PUSH1 0x20 DUP2 ADD SWAP1 POP PUSH2 0x20A8 JUMP JUMPDEST PUSH1 0x0 DUP5 DUP5 ADD MSTORE POP POP POP POP JUMP JUMPDEST PUSH1 0x0 PUSH2 0x20DA DUP3 PUSH2 0x209A JUMP JUMPDEST PUSH2 0x20E4 DUP2 DUP6 PUSH2 0x2043 JUMP JUMPDEST SWAP4 POP PUSH2 0x20F4 DUP2 DUP6 PUSH1 0x20 DUP7 ADD PUSH2 0x20A5 JUMP JUMPDEST DUP1 DUP5 ADD SWAP2 POP POP SWAP3 SWAP2 POP POP JUMP JUMPDEST PUSH32 0x206973206D697373696E6720726F6C6520000000000000000000000000000000 PUSH1 0x0 DUP3 ADD MSTORE POP JUMP JUMPDEST PUSH1 0x0 PUSH2 0x2136 PUSH1 0x11 DUP4 PUSH2 0x2043 JUMP JUMPDEST SWAP2 POP PUSH2 0x2141 DUP3 PUSH2 0x2100 JUMP JUMPDEST PUSH1 0x11 DUP3 ADD SWAP1 POP SWAP2 SWAP1 POP JUMP JUMPDEST PUSH1 0x0 PUSH2 0x2157 DUP3 PUSH2 0x2077 JUMP JUMPDEST SWAP2 POP PUSH2 0x2163 DUP3 DUP6 PUSH2 0x20CF JUMP JUMPDEST SWAP2 POP PUSH2 0x216E DUP3 PUSH2 0x2129 JUMP JUMPDEST SWAP2 POP PUSH2 0x217A DUP3 DUP5 PUSH2 0x20CF JUMP JUMPDEST SWAP2 POP DUP2 SWAP1 POP SWAP4 SWAP3 POP POP POP JUMP JUMPDEST PUSH1 0x0 PUSH2 0x2191 DUP3 PUSH2 0x209A JUMP JUMPDEST PUSH2 0x219B DUP2 DUP6 PUSH2 0x1B21 JUMP JUMPDEST SWAP4 POP PUSH2 0x21AB DUP2 DUP6 PUSH1 0x20 DUP7 ADD PUSH2 0x20A5 JUMP JUMPDEST PUSH2 0x21B4 DUP2 PUSH2 0x1CAB JUMP JUMPDEST DUP5 ADD SWAP2 POP POP SWAP3 SWAP2 POP POP JUMP JUMPDEST PUSH1 0x0 PUSH1 0x20 DUP3 ADD SWAP1 POP DUP2 DUP2 SUB PUSH1 0x0 DUP4 ADD MSTORE PUSH2 0x21D9 DUP2 DUP5 PUSH2 0x2186 JUMP JUMPDEST SWAP1 POP SWAP3 SWAP2 POP POP JUMP JUMPDEST PUSH2 0x21EA DUP2 PUSH2 0x166F JUMP JUMPDEST DUP2 EQ PUSH2 0x21F5 JUMPI PUSH1 0x0 DUP1 REVERT JUMPDEST POP JUMP JUMPDEST PUSH1 0x0 DUP2 MLOAD SWAP1 POP PUSH2 0x2207 DUP2 PUSH2 0x21E1 JUMP JUMPDEST SWAP3 SWAP2 POP POP JUMP JUMPDEST PUSH1 0x0 PUSH1 0x20 DUP3 DUP5 SUB SLT ISZERO PUSH2 0x2223 JUMPI PUSH2 0x2222 PUSH2 0x15E0 JUMP JUMPDEST JUMPDEST PUSH1 0x0 PUSH2 0x2231 DUP5 DUP3 DUP6 ADD PUSH2 0x21F8 JUMP JUMPDEST SWAP2 POP POP SWAP3 SWAP2 POP POP JUMP JUMPDEST PUSH32 0x5361666545524332303A204552433230206F7065726174696F6E20646964206E PUSH1 0x0 DUP3 ADD MSTORE PUSH32 0x6F74207375636365656400000000000000000000000000000000000000000000 PUSH1 0x20 DUP3 ADD MSTORE POP JUMP JUMPDEST PUSH1 0x0 PUSH2 0x2296 PUSH1 0x2A DUP4 PUSH2 0x1B21 JUMP JUMPDEST SWAP2 POP PUSH2 0x22A1 DUP3 PUSH2 0x223A JUMP JUMPDEST PUSH1 0x40 DUP3 ADD SWAP1 POP SWAP2 SWAP1 POP JUMP JUMPDEST PUSH1 0x0 PUSH1 0x20 DUP3 ADD SWAP1 POP DUP2 DUP2 SUB PUSH1 0x0 DUP4 ADD MSTORE PUSH2 0x22C5 DUP2 PUSH2 0x2289 JUMP JUMPDEST SWAP1 POP SWAP2 SWAP1 POP JUMP JUMPDEST PUSH1 0x0 PUSH2 0x22D7 DUP3 PUSH2 0x17D0 JUMP JUMPDEST SWAP2 POP PUSH2 0x22E2 DUP4 PUSH2 0x17D0 JUMP JUMPDEST SWAP3 POP DUP3 DUP3 MUL PUSH2 0x22F0 DUP2 PUSH2 0x17D0 JUMP JUMPDEST SWAP2 POP DUP3 DUP3 DIV DUP5 EQ DUP4 ISZERO OR PUSH2 0x2307 JUMPI PUSH2 0x2306 PUSH2 0x1E94 JUMP JUMPDEST JUMPDEST POP SWAP3 SWAP2 POP POP JUMP JUMPDEST PUSH1 0x0 PUSH2 0x2319 DUP3 PUSH2 0x17D0 JUMP JUMPDEST SWAP2 POP PUSH2 0x2324 DUP4 PUSH2 0x17D0 JUMP JUMPDEST SWAP3 POP DUP3 DUP3 ADD SWAP1 POP DUP1 DUP3 GT ISZERO PUSH2 0x233C JUMPI PUSH2 0x233B PUSH2 0x1E94 JUMP JUMPDEST JUMPDEST SWAP3 SWAP2 POP POP JUMP JUMPDEST PUSH32 0x4E487B7100000000000000000000000000000000000000000000000000000000 PUSH1 0x0 MSTORE PUSH1 0x41 PUSH1 0x4 MSTORE PUSH1 0x24 PUSH1 0x0 REVERT JUMPDEST PUSH1 0x0 PUSH2 0x237C DUP3 PUSH2 0x17D0 JUMP JUMPDEST SWAP2 POP PUSH1 0x0 DUP3 SUB PUSH2 0x238F JUMPI PUSH2 0x238E PUSH2 0x1E94 JUMP JUMPDEST JUMPDEST PUSH1 0x1 DUP3 SUB SWAP1 POP SWAP2 SWAP1 POP JUMP JUMPDEST PUSH32 0x537472696E67733A20686578206C656E67746820696E73756666696369656E74 PUSH1 0x0 DUP3 ADD MSTORE POP JUMP JUMPDEST PUSH1 0x0 PUSH2 0x23D0 PUSH1 0x20 DUP4 PUSH2 0x1B21 JUMP JUMPDEST SWAP2 POP PUSH2 0x23DB DUP3 PUSH2 0x239A JUMP JUMPDEST PUSH1 0x20 DUP3 ADD SWAP1 POP SWAP2 SWAP1 POP JUMP JUMPDEST PUSH1 0x0 PUSH1 0x20 DUP3 ADD SWAP1 POP DUP2 DUP2 SUB PUSH1 0x0 DUP4 ADD MSTORE PUSH2 0x23FF DUP2 PUSH2 0x23C3 JUMP JUMPDEST SWAP1 POP SWAP2 SWAP1 POP JUMP JUMPDEST PUSH32 0x416464726573733A20696E73756666696369656E742062616C616E636520666F PUSH1 0x0 DUP3 ADD MSTORE PUSH32 0x722063616C6C0000000000000000000000000000000000000000000000000000 PUSH1 0x20 DUP3 ADD MSTORE POP JUMP JUMPDEST PUSH1 0x0 PUSH2 0x2462 PUSH1 0x26 DUP4 PUSH2 0x1B21 JUMP JUMPDEST SWAP2 POP PUSH2 0x246D DUP3 PUSH2 0x2406 JUMP JUMPDEST PUSH1 0x40 DUP3 ADD SWAP1 POP SWAP2 SWAP1 POP JUMP JUMPDEST PUSH1 0x0 PUSH1 0x20 DUP3 ADD SWAP1 POP DUP2 DUP2 SUB PUSH1 0x0 DUP4 ADD MSTORE PUSH2 0x2491 DUP2 PUSH2 0x2455 JUMP JUMPDEST SWAP1 POP SWAP2 SWAP1 POP JUMP JUMPDEST PUSH1 0x0 DUP2 MLOAD SWAP1 POP SWAP2 SWAP1 POP JUMP JUMPDEST PUSH1 0x0 DUP2 SWAP1 POP SWAP3 SWAP2 POP POP JUMP JUMPDEST PUSH1 0x0 PUSH2 0x24B9 DUP3 PUSH2 0x2498 JUMP JUMPDEST PUSH2 0x24C3 DUP2 DUP6 PUSH2 0x24A3 JUMP JUMPDEST SWAP4 POP PUSH2 0x24D3 DUP2 DUP6 PUSH1 0x20 DUP7 ADD PUSH2 0x20A5 JUMP JUMPDEST DUP1 DUP5 ADD SWAP2 POP POP SWAP3 SWAP2 POP POP JUMP JUMPDEST PUSH1 0x0 PUSH2 0x24EB DUP3 DUP5 PUSH2 0x24AE JUMP JUMPDEST SWAP2 POP DUP2 SWAP1 POP SWAP3 SWAP2 POP POP JUMP JUMPDEST PUSH32 0x416464726573733A2063616C6C20746F206E6F6E2D636F6E7472616374000000 PUSH1 0x0 DUP3 ADD MSTORE POP JUMP JUMPDEST PUSH1 0x0 PUSH2 0x252C PUSH1 0x1D DUP4 PUSH2 0x1B21 JUMP JUMPDEST SWAP2 POP PUSH2 0x2537 DUP3 PUSH2 0x24F6 JUMP JUMPDEST PUSH1 0x20 DUP3 ADD SWAP1 POP SWAP2 SWAP1 POP JUMP JUMPDEST PUSH1 0x0 PUSH1 0x20 DUP3 ADD SWAP1 POP DUP2 DUP2 SUB PUSH1 0x0 DUP4 ADD MSTORE PUSH2 0x255B DUP2 PUSH2 0x251F JUMP JUMPDEST SWAP1 POP SWAP2 SWAP1 POP JUMP INVALID LOG2 PUSH5 0x6970667358 0x22 SLT KECCAK256 0xAA 0xB6 SWAP12 COINBASE 0xD6 PUSH7 0xE34377239D3B9C 0xEA SGT CALLDATASIZE 0xCC MSTORE PUSH2 0x9426 0xDA BYTE PC XOR DUP5 0xC4 0xEC JUMPI OR 0xC 0x5D PUSH5 0x736F6C6343 STOP ADDMOD SLT STOP CALLER "
				},
				"gasEstimates": {
					"creation": {
						"codeDepositCost": "1924800",
						"executionCost": "infinite",
						"totalCost": "infinite"
					},
					"external": {
						"DEFAULT_ADMIN_ROLE()": "357",
						"REFUND_ROLE()": "352",
						"WITHDRAW_ROLE()": "395",
						"balanceOf(address)": "infinite",
						"getRoleAdmin(bytes32)": "infinite",
						"grantRole(bytes32,address)": "infinite",
						"hasRole(bytes32,address)": "3207",
						"pay(address,uint256,string)": "infinite",
						"refund(address[],uint256[],address[],string[])": "infinite",
						"renounceRole(bytes32,address)": "infinite",
						"revokeRole(bytes32,address)": "infinite",
						"supportsInterface(bytes4)": "728",
						"withdraw(address[],uint256[],address[],string[])": "infinite"
					}
				},
				"methodIdentifiers": {
					"DEFAULT_ADMIN_ROLE()": "a217fddf",
					"REFUND_ROLE()": "627c0906",
					"WITHDRAW_ROLE()": "e02023a1",
					"balanceOf(address)": "70a08231",
					"getRoleAdmin(bytes32)": "248a9ca3",
					"grantRole(bytes32,address)": "2f2ff15d",
					"hasRole(bytes32,address)": "91d14854",
					"pay(address,uint256,string)": "4a4bdb30",
					"refund(address[],uint256[],address[],string[])": "56edb469",
					"renounceRole(bytes32,address)": "36568abe",
					"revokeRole(bytes32,address)": "d547741f",
					"supportsInterface(bytes4)": "01ffc9a7",
					"withdraw(address[],uint256[],address[],string[])": "ea4e6c5c"
				}
			},
			"storageLayout": {
				"storage": [
					{
						"astId": 24,
						"contract": "contracts/CurrencyReceiver.sol:CurrencyReceiver",
						"label": "_roles",
						"offset": 0,
						"slot": "0",
						"type": "t_mapping(t_bytes32,t_struct(RoleData)19_storage)"
					}
				],
				"types": {
					"t_address": {
						"encoding": "inplace",
						"label": "address",
						"numberOfBytes": "20"
					},
					"t_bool": {
						"encoding": "inplace",
						"label": "bool",
						"numberOfBytes": "1"
					},
					"t_bytes32": {
						"encoding": "inplace",
						"label": "bytes32",
						"numberOfBytes": "32"
					},
					"t_mapping(t_address,t_bool)": {
						"encoding": "mapping",
						"key": "t_address",
						"label": "mapping(address => bool)",
						"numberOfBytes": "32",
						"value": "t_bool"
					},
					"t_mapping(t_bytes32,t_struct(RoleData)19_storage)": {
						"encoding": "mapping",
						"key": "t_bytes32",
						"label": "mapping(bytes32 => struct AccessControl.RoleData)",
						"numberOfBytes": "32",
						"value": "t_struct(RoleData)19_storage"
					},
					"t_struct(RoleData)19_storage": {
						"encoding": "inplace",
						"label": "struct AccessControl.RoleData",
						"members": [
							{
								"astId": 16,
								"contract": "contracts/CurrencyReceiver.sol:CurrencyReceiver",
								"label": "members",
								"offset": 0,
								"slot": "0",
								"type": "t_mapping(t_address,t_bool)"
							},
							{
								"astId": 18,
								"contract": "contracts/CurrencyReceiver.sol:CurrencyReceiver",
								"label": "adminRole",
								"offset": 0,
								"slot": "1",
								"type": "t_bytes32"
							}
						],
						"numberOfBytes": "64"
					}
				}
			},
			"userdoc": {
				"kind": "user",
				"methods": {},
				"version": 1
			}
		}
	}
}